:1000000078C00000A0C000009EC000009CC000009E
:100010000C94F50F0C9404100C9413100C942210F3
:1000200092C0000090C000008EC000008CC0000094
:100030008AC0000088C0000086C0000084C00000A4
:100040000C949B1880C000007EC000007CC00000A3
:100050007AC000000C94A23376C0000074C0000087
:1000600072C0000070C000006EC000006CC00000D4
:100070006AC0000068C0000066C0000064C00000E4
:1000800062C0000060C000005EC00000CD16D51642
:100090006D17F817AD171218C8173B18E3172C186F
:1000A000F31FF51FF51F442003206D20962010211B
:1000B0009620932ABC291A2A78299A29B72BCE2A66
:1000C0001E2B482BC92D9C2F9C2FC52FA42FE62F0C
:1000D0000730B33007302046534D54726176656C5B
:1000E00043616C3A3A4F6E4578697428290D0A00CD
:1000F000E13311241FBECFEFD0E4DEBFCDBF1DE042
:10010000A0E0B1E0E2E3FDE600E00BBF02C0079033
:100110000D92A83AB107D9F726E1A8EABDE001C0DF
:100120001D92A83DB207E1F710E0C9E7D0E004C096
:100130002197FE010E944336C837D107C9F70E94B4
:10014000AB310C9497365CCF0895ECE7F0E08081FA
:10015000807E6770682B6083EAE7F0E080818064CE
:100160008083808186FDFDCF809178009091790019
:10017000089560E0EACF08950F931F93CF93DF9324
:10018000EC01F7DF28A539A5A9014F5F5F4F59A7FB
:1001900048A7220F331F220F331FFE01E20FF31F68
:1001A000A0E0B0E080839183A283B3834A305105FD
:1001B00014F019A618A6FE01AE01485D5F4F60E07D
:1001C00070E0CB010191119121913191600F711F6C
:1001D000821F931FE417F507A9F72AE030E040E0FB
:1001E00050E00E942736CA01B901DF91CF911F91DB
:1001F0000F91089561E0A9CF0895EF92FF920F93B8
:100200001F93CF93DF938C0180E480937C0087E879
:1002100080937A008BE080937E00F80111A610A6EF
:10022000E8017801F8E2EF0EF11CC801A2DFA0E0BE
:10023000B0E089939993A993B993CE15DF05A9F7F7
:10024000F801EE5AFF4F11821082E801AA967F0151
:10025000C801D0DFA0E0B0E089939993A993B99346
:10026000CE15DF05A9F7DF91CF911F910F91FF9078
:10027000EF9008950F931F938C01BCDFF801EE5AA5
:10028000FF4F20813181A9014F5F5F4F5183408330
:10029000220F331F220F331FF801E20FF31FA0E0DC
:1002A000B0E082A793A7A4A7B5A74A3051052CF0C8
:1002B000F801EE5AFF4F11821082F801BA96A80198
:1002C0004E5A5F4F60E070E0CB0101911191219196
:1002D0003191600F711F821F931FE417F507A9F773
:1002E0002AE030E040E050E00E942736CA01B90120
:1002F0001F910F91089563E028DF96958795969555
:100300008795FC01EB5FFE4F808108958F929F924D
:10031000AF92BF92CF92DF92EF92FF920F931F9313
:10032000CF93DF93EC01FC0111924F01BC01CF018F
:100330000E94BA2B5E01F3E1AF0EB11CBE01C501F4
:100340000E940A2CBE01CE018C549D4F0E947D1943
:100350006E0182EDC81A8CEFD80ABE01C6010E9458
:1003600031267E01E8ECEE1AECEFFE0ABE01C70171
:100370000E94BC288E010E5B1C4FBE01C8010E946A
:100380008B23FE01E65AFC4F1182108236961082B2
:100390001182128213823496108211821282138289
:1003A00034961082319610823196108231961082E6
:1003B0007F97918280823296B182A0823296CE015E
:1003C000885D9C4F918380833296D182C082329621
:1003D000F182E082CA5ADC4F19830883DF91CF9102
:1003E0001F910F91FF90EF90DF90CF90BF90AF9053
:1003F0009F908F900895CF92DF92EF92FF920F938C
:100400001F93CF93DF938C01EB0162307105CCF128
:10041000FB01EE0FFF1FEE52FC4FE080F180FC016C
:10042000E65AFC4F0190F081E02DEE0FFF1FEE53D6
:10043000FC4FC080D1808091110E81110EC081E1EE
:100440009EE00E942C32892B41F089E19EE00E94BF
:10045000393281E19EE00E94353265E072E089E147
:100460009EE00E949A33B6010E949A3360E172E0E6
:100470000E949A33B7010E949A3364EC7CE00E9498
:100480009A33F801E65AFC4F0190F081E02DEA55CD
:10049000FE4FEE0FFF1FE00FF11F80819181DC0105
:1004A000ED91FC910280F381E02DBE010995DF9171
:1004B000CF911F910F91FF90EF90DF90CF90089513
:1004C000EF92FF921F93CF93DF93EC01FC01E65A6A
:1004D000FC4F0190F081E02DEA55FE4FEE0FFF1F1B
:1004E000E80FF91F80819181DC01ED91FC91019071
:1004F000F081E02D09950E946C18FE01E45AFC4F32
:10050000608371838283938362E070E0CE0173DF46
:1005100080911B0E81110DC08BE19EE00E942C3258
:10052000892B39F083E29EE010D38BE19EE00E949C
:10053000353283E29EE00E94710E182FE82EF12CD6
:100540008091110E81110EC081E19EE00E942C323B
:10055000892B41F089E19EE00E94393281E19EE0E1
:100560000E94353268E172E089E19EE00E949A3390
:10057000B7010E94923364EC7CE00E949A3381E0E0
:10058000FE01E759FC4F80838091050E81110EC05A
:1005900085E09EE00E942C32892B41F08DE09EE0A8
:1005A0000E94EE1185E09EE00E9435328DE09EE0D3
:1005B0000E94151280911B0E81110DC08BE19EE0EF
:1005C0000E942C32892B39F083E29EE0BED28BE16F
:1005D0009EE00E94353283E29EE00E94550D80919C
:1005E0001B0E81110DC08BE19EE00E942C32892BE5
:1005F00039F083E29EE0A9D28BE19EE00E94353281
:1006000083E29EE00E94A40D1123A1F080911B0EB5
:1006100081110DC08BE19EE00E942C32892B39F0B4
:1006200083E29EE092D28BE19EE00E94353281E02F
:100630008093250E1882DF91CF911F91FF90EF904C
:100640000895EF92FF920F931F93CF93DF938C0146
:10065000EB017A018091A80D8823C1F08091110EE1
:1006600081110EC081E19EE00E942C32892B41F065
:1006700089E19EE00E94393281E19EE00E9435329C
:1006800062E272E089E19EE00E949A3381E0809309
:10069000A80DF801E65AFC4F808191818C179D07C7
:1006A00009F460C0C730D105F4F5FC01EA55FE4FEE
:1006B000EE0FFF1FE00FF11F80819181DC01ED91B2
:1006C000FC910480F581E02D0995F801E65AFC4F74
:1006D000D183C083CA55DE4FCC0FDD1FC00FD11FA1
:1006E00088819981DC01ED91FC910190F081E02DF0
:1006F0000995E114F104B1F1F801E65AFC4F80814B
:1007000091818A559E4F880F991FF801E80FF91FB4
:1007100080819181DC01ED91FC910280F381E02DDB
:10072000B70109951FC08091110E81110EC081E1A2
:100730009EE00E942C32892B41F089E19EE00E94CC
:10074000393281E19EE00E9435326CE472E089E149
:100750009EE00E949A33BE010E94923364EC7CE0DA
:100760000E949A331092A80DDF91CF911F910F91A3
:10077000FF90EF9008951F93CF93DF93EC0180914A
:100780009F0E882309F440C08091110E81110EC084
:1007900081E19EE00E942C32892B41F089E19EE0AC
:1007A0000E94393281E19EE00E9435326FE572E0AD
:1007B00089E19EE00E949A330E946C18FE01E05A83
:1007C000FC4F608371838283938380911B0E811120
:1007D0000DC08BE19EE00E942C32892B39F083E220
:1007E0009EE0B3D18BE19EE00E94353283E29EE031
:1007F0000E94710EFE01E659FC4F808310929F0EFD
:1008000081E03197808307C0FE01E759FC4F80816A
:10081000882309F48CC0FE01E05AFC4F208131810D
:100820004281538168EE73E080E090E00E94771887
:10083000882309F47CC08091110E81110EC081E1E2
:100840009EE00E942C32892B41F089E19EE00E94BB
:10085000393281E19EE00E94353261E772E089E140
:100860009EE00E949A33FE01E759FC4F10823196B8
:10087000108180911B0E81110DC08BE19EE00E94C2
:100880002C32892B39F083E29EE05FD18BE19EE030
:100890000E94353283E29EE00E94710E181347C019
:1008A000FE01E659FC4F8081882309F18091110EE9
:1008B00081110EC081E19EE00E942C32892B41F013
:1008C00089E19EE00E94393281E19EE00E9435324A
:1008D0006BE872E089E19EE00E949A3367E070E085
:1008E000CE0189DDFE01E559FC4F108220C08091C8
:1008F000110E81110EC081E19EE00E942C32892BE5
:1009000041F089E19EE00E94393281E19EE00E943F
:1009100035326CE972E089E19EE00E949A3368E02A
:1009200070E0CE0168DDFE01E559FC4F1082809138
:100930009E0E882339F010929E0E69E070E0CE0181
:100940005ADD68C080911B0E81110DC08BE19EE0C5
:100950000E942C32892B39F083E29EE0F6D08BE1A5
:100960009EE00E94353283E29EE04ED3882321F040
:1009700062E070E0CE013FDD80911B0E81110DC061
:100980008BE19EE00E942C32892B39F083E29EE0BD
:10099000DCD08BE19EE00E94353283E29EE0BDD345
:1009A000882321F063E070E0CE0125DD80911B0EED
:1009B00081110DC08BE19EE00E942C32892B39F011
:1009C00083E29EE0C2D08BE19EE00E94353283E25A
:1009D0009EE0AED3882321F065E070E0CE010BDD10
:1009E00080911B0E81110DC08BE19EE00E942C3284
:1009F000892B39F083E29EE0A8D08BE19EE00E9433
:100A0000353283E29EE0A3D3882321F064E070E0D6
:100A1000CE01F1DC80911B0E81110DC08BE19EE0B7
:100A20000E942C32892B39F083E29EE08ED08BE13C
:100A30009EE00E94353283E29EE098D3882329F01D
:100A4000188266E070E0CE01D6DCDF91CF911F9175
:100A500008951F93CF93DF93EC0180911B0E8111BA
:100A60000DC08BE19EE00E942C32892B39F083E28D
:100A70009EE06BD08BE19EE00E94353283E29EE0E7
:100A80000E94960FCE0177DEFE01E45AFC4F2081D2
:100A900031814281538162E370E080E090E00E9406
:100AA0007718882309F44DC080911B0E81110DC069
:100AB0008BE19EE00E942C32892B39F083E29EE08C
:100AC00044D08BE19EE00E9435328091250E882330
:100AD00081F161E070E0CE018EDC8091A90D811181
:100AE0000DC089EA9DE00E942C32892B39F081EB00
:100AF0009DE02ADB89EA9DE00E94353281EB9DE092
:100B0000FADB182F8091050E81110EC085E09EE062
:100B10000E942C32892B41F08DE09EE00E94EE1164
:100B200085E09EE00E943532612F8DE09EE00E94BC
:100B3000EA110E946C18C45ADC4F688379838A8357
:100B40009B83DF91CF911F910895CF93DF93EC01A9
:100B50001A821B8204960E94C018CE010D960E9434
:100B6000C018CE0146960E94C018CE014F960E9432
:100B7000C018CE0188960E94C018CE01C1960E946E
:100B8000C018CE01CA960E94C018FE01ED5BFF4F4F
:100B900010823196108231961082319610823596ED
:100BA0001082319610823596108211821282138241
:100BB000349610821182128213823496108211822E
:100BC0001282138234961082118212821382389616
:100BD00010823196108231961082C859DF4F1882E8
:100BE000DF91CF91089580EF81B980EC84B980E8DE
:100BF00087B91AB8089512B88FEF85B988EF8BB905
:100C00000895FC01E55BFF4F2081222309F45AC0BF
:100C100020919C0E30919D0E28373105CCF566232E
:100C2000B9F08091050E81110EC085E09EE00E9412
:100C30002C32892B41F08DE09EE00E94EE1185E080
:100C40009EE00E9435328DE09EE00C94461208959D
:100C50008091050E81110EC085E09EE00E942C322D
:100C6000892B41F08DE09EE00E94EE1185E09EE030
:100C70000E9435328DE09EE00E943F1280919C0ED2
:100C800090919D0E019690939D0E80939C0E0895D9
:100C9000FC01E55BFF4F10828091050E81110EC0B3
:100CA00085E09EE00E942C32892B41F08DE09EE091
:100CB0000E94EE1185E09EE00E9435328DE09EE0BC
:100CC0000C9446120895845B9F4FFC018081882319
:100CD00079F16623B9F08091050E81110EC085E08F
:100CE0009EE00E942C32892B41F08DE09EE00E9414
:100CF000EE1185E09EE00E9435328DE09EE00C947E
:100D0000541208958091050E81110EC085E09EE079
:100D10000E942C32892B41F08DE09EE00E94EE1162
:100D200085E09EE00E9435328DE09EE00C944D12ED
:100D30000895FC01EB59FF4F2081222309F44FC095
:100D4000749780819181A281B3810297A105B10539
:100D5000B8F08091050E81110EC085E09EE00E94E2
:100D60002C32892B41F08DE09EE00E94EE1185E04F
:100D70009EE00E9435328DE09EE00C94231208958F
:100D80006623B9F08091050E81110EC085E09EE0CA
:100D90000E942C32892B41F08DE09EE00E94EE11E2
:100DA00085E09EE00E9435328DE09EE00C942A1290
:100DB00008958091050E81110EC085E09EE00E948D
:100DC0002C32892B41F08DE09EE00E94EE1185E0EF
:100DD0009EE00E9435328DE09EE00C94231208952F
:100DE000FC01E959FF4F2081222309F44FC0769777
:100DF00080819181A281B3810297A105B105B8F0EC
:100E00008091050E81110EC085E09EE00E942C327B
:100E1000892B41F08DE09EE00E94EE1185E09EE07E
:100E20000E9435328DE09EE00C94311208956623C5
:100E3000B9F08091050E81110EC085E09EE00E9400
:100E40002C32892B41F08DE09EE00E94EE1185E06E
:100E50009EE00E9435328DE09EE00C943812089599
:100E60008091050E81110EC085E09EE00E942C321B
:100E7000892B41F08DE09EE00E94EE1185E09EE01E
:100E80000E9435328DE09EE00C9431120895FC01F1
:100E9000EA59FF4F2081222309F44FC071978081C6
:100EA0009181A281B3810297A105B105B8F080912B
:100EB000050E81110EC085E09EE00E942C32892B28
:100EC00041F08DE09EE00E94EE1185E09EE00E94E0
:100ED00035328DE09EE00C94F91108956623B9F047
:100EE0008091050E81110EC085E09EE00E942C329B
:100EF000892B41F08DE09EE00E94EE1185E09EE09E
:100F00000E9435328DE09EE00C940012089580918D
:100F1000050E81110EC085E09EE00E942C32892BC7
:100F200041F08DE09EE00E94EE1185E09EE00E947F
:100F300035328DE09EE00C94F9110895FC01E859DA
:100F4000FF4F2081222309F44FC073978081918144
:100F5000A281B3810297A105B105B8F08091050E79
:100F600081110EC085E09EE00E942C32892B41F059
:100F70008DE09EE00E94EE1185E09EE00E943532F9
:100F80008DE09EE00C94071208956623B9F08091DD
:100F9000050E81110EC085E09EE00E942C32892B47
:100FA00041F08DE09EE00E94EE1185E09EE00E94FF
:100FB00035328DE09EE00C940E1208958091050E5E
:100FC00081110EC085E09EE00E942C32892B41F0F9
:100FD0008DE09EE00E94EE1185E09EE00E94353299
:100FE0008DE09EE00C940712089584E080936B00DE
:100FF0008FE380936C0010926D0088EF80937300F4
:101000008BE0809368000895AF92BF92CF92DF92F9
:10101000EF92FF920F931F93CF93FC0181E0958590
:10102000911101C080E091E020919B0E281301C036
:1010300090E021E03481311101C020E0C1E0309125
:101040009A0E321301C0C0E09C2B31E0478D411154
:1010500001C030E0C1E04091990E431301C0C0E0EF
:101060009C2B01E04689411101C000E0C1E04091A4
:10107000980E401301C0C0E0C92B80939B0E2093B3
:101080009A0E3093990E0093980ECC23D9F110E06C
:10109000E32EF12CC22ED12CA82EB12C8091110E52
:1010A00081110EC081E19EE00E942C32892B41F01B
:1010B00089E19EE00E94393281E19EE00E94353252
:1010C00066EE73E089E19EE00E949A33B5010E94CA
:1010D00092336AE67AE00E949A33B6010E94923314
:1010E0006AE67AE00E949A33B7010E9492336AE678
:1010F0007AE00E949A33B8010E94923364EC7CE05B
:101100000E949A338C2FCF911F910F91FF90EF90F7
:10111000DF90CF90BF90AF90089593B19F7081E022
:101120002091970E291301C080E09093970E0895A7
:1011300021E0FC0180A5811101C020E081E09091B7
:10114000960E921301C080E02093960E089521E040
:10115000FC0181A9811101C020E081E09091950EF0
:10116000921301C080E02093950E089521E0FC01C8
:1011700082AD811101C020E081E09091940E921324
:1011800001C080E02093940E0895CF93DF93EC018B
:101190002ADDCE0130DD43E063E0CE01C1960E943E
:1011A000041944E063E0CE01CA960E94041945E0A8
:1011B00063E0CE0188960E94041946E063E0CE0108
:1011C0000D960E94041947E063E0CE0104960E9448
:1011D000041944E061E0CE014F960E94041945E0F5
:1011E00061E0CE0146960E940419CE01A1DFCE0136
:1011F000AEDFCE0109DFCE0190DFCE01B7DFFE0109
:10120000ED5BFF4F1082319610823196108231963D
:101210001082CE01EADE0E946C18FE01E95BFF4FEE
:1012200060837183828393830E946C18C35BDF4F5A
:10123000688379838A839B8383B7816083BFDF91CF
:10124000CF91089521E0FC0180A5811101C020E02B
:10125000822F089521E0FC0181A9811101C020E0C5
:10126000822F089521E0FC0182AD811101C020E0B0
:10127000822F0895CF93DF93EC01FC01EA59FF4FD1
:1012800081E080830E946C18FE01E75AFF4F608363
:101290007183828393838091A90D81110EC089EAA5
:1012A0009DE00E942C32892B41F081EB9DE00E9451
:1012B000A40089EA9DE00E94353281EB9DE00E9406
:1012C0003A01FE01ED59FF4F71836083CB5ADF4F26
:1012D0008AE090E0A0E0B0E088839983AA83BB8392
:1012E000159A8091050E81110EC085E09EE00E9446
:1012F0002C32892B41F08DE09EE00E94EE1185E0BA
:101300009EE00E9435328DE09EE00E94F911DF914F
:10131000CF9108958A599F4FFC01108215988091B2
:10132000050E81110EC085E09EE00E942C32892BB3
:1013300041F08DE09EE00E94EE1185E09EE00E946B
:1013400035328DE09EE00C9400120895CF93DF9328
:10135000EC01FC01E859FF4F81E080830E946C188A
:10136000FE01E75AFF4F60837183828393838091EC
:10137000A90D81110EC089EA9DE00E942C32892BB3
:1013800041F081EB9DE00E94A40089EA9DE00E946B
:10139000353281EB9DE00E943A01FE01ED59FF4F8D
:1013A00071836083CB5ADF4F8AE090E0A0E0B0E029
:1013B00088839983AA83BB83149A8091050E811137
:1013C0000EC085E09EE00E942C32892B41F08DE01A
:1013D0009EE00E94EE1185E09EE00E9435328DE095
:1013E0009EE00E940712DF91CF91089588599F4F88
:1013F000FC01108214988091050E81110DC085E0CA
:101400009EE00E942C32892B39F08DE09EE0E6D7D9
:1014100085E09EE00E9435328DE09EE0FFC7089592
:101420000F931F93CF93DF9320910201309103011B
:101430002617370709F484C0EB018C017093030170
:10144000609302018091110E81110EC081E19EE036
:101450000E942C32892B41F089E19EE00E943932B2
:1014600081E19EE00E9435326EEE73E089E19EE0FC
:101470000E949A33C130D10541F0C230D10509F440
:101480003EC0CD2B09F058C01DC08091110E8111B6
:101490000EC081E19EE00E942C32892B41F089E14F
:1014A0009EE00E94393281E19EE00E94353266EF73
:1014B00073E089E19EE00E949A33C8012BDFC801E6
:1014C00045DF3EC08091110E81110EC081E19EE08A
:1014D0000E942C32892B41F089E19EE00E94393232
:1014E00081E19EE00E9435326DEF73E089E19EE07C
:1014F0000E949A33C8017ADFC801BCDE21C0809106
:10150000110E81110EC081E19EE00E942C32892BC8
:1015100041F089E19EE00E94393281E19EE00E9423
:10152000353264E074E089E19EE00E949A33C8019C
:10153000F1DEC8015BDF04C0C801ECDEC80156DF84
:10154000DF91CF911F910F910895CF93DF93EC011D
:10155000FC01EB59FF4F81E080830E946C18FE0173
:10156000E35AFF4F60837183828393838091A90D37
:1015700081110EC089EA9DE00E942C32892B41F036
:1015800081EB9DE00E94A40089EA9DE00E94353233
:1015900081EB9DE00E94BC00FE01EF59FF4F71837B
:1015A0006083CF5ADF4F8AE090E0A0E0B0E088830C
:1015B0009983AA83BB83179A8091050E81110DC070
:1015C00085E09EE00E942C32892B39F08DE09EE070
:1015D00005D785E09EE00E9435328DE09EE033D74E
:1015E000DF91CF9108958B599F4FFC01108217987E
:1015F0008091050E81110DC085E09EE00E942C3285
:10160000892B39F08DE09EE0E9D685E09EE00E94CE
:1016100035328DE09EE01EC70895CF93DF93EC0135
:10162000FC01E959FF4F81E080830E946C18FE01A4
:10163000E35AFF4F60837183828393838091A90D66
:1016400081110EC089EA9DE00E942C32892B41F065
:1016500081EB9DE00E94A40089EA9DE00E94353262
:1016600081EB9DE00E94BC00FE01EF59FF4F7183AA
:101670006083CF5ADF4F8AE090E0A0E0B0E088833B
:101680009983AA83BB83169A8091050E81110DC0A0
:1016900085E09EE00E942C32892B39F08DE09EE09F
:1016A0009DD685E09EE00E9435328DE09EE0D9D641
:1016B000DF91CF91089589599F4FFC0110821698B0
:1016C0008091050E81110DC085E09EE00E942C32B4
:1016D000892B39F08DE09EE081D685E09EE00E9466
:1016E00035328DE09EE0C4C60895CF93DF93EC01C0
:1016F0009C8181E0911101C080E02091930E281718
:10170000F1F08093930E91111AC0FE01ED5BFF4F33
:101710008081882339F0CE01FDDDFE01ED5BFF4FB6
:1017200010820DC0CE0162DEFE01EC5BFF4F108225
:10173000CE01A0DD81E0FE01ED5BFF4F80839D8542
:1017400081E0911101C080E02091920E2817F1F004
:101750008093920E91111AC0FE01EC5BFF4F8081C5
:10176000882339F0CE0142DEFE01EC5BFF4F108290
:101770000DC0CE01CFDDFE01ED5BFF4F1082CE012B
:10178000E5DD81E0FE01EC5BFF4F80839E8981E017
:10179000911101C080E02091910E2817F1F0809303
:1017A000910E91111AC0FE01EB5BFF4F80818823DF
:1017B00039F0CE0118DFFE01EB5BFF4F10820DC048
:1017C000CE0179DFFE01EA5BFF4F1082CE01BDDE64
:1017D00081E0FE01EB5BFF4F80839F8D81E09111E3
:1017E00001C080E02091900E2817E1F08093900EC8
:1017F000911118C0FE01EA5BFF4F8081882331F010
:10180000CE0159DFCA5BDF4F18820CC0CE01EBDE80
:10181000FE01EB5BFF4F1082CE01FFDECA5BDF4FA4
:1018200081E08883DF91CF910895CF92DF92EF928C
:10183000FF920F931F93CF93DF93EC0183B101E0ED
:10184000282F2270D22E81FF00E083B1887093B1DF
:1018500011E0292F2170E22E90FF10E093B1FF24B8
:10186000F394292F2470C22E92FFF12C91E0811164
:1018700001C090E020918F0E921761F0882331F023
:10188000CE0163DE81E080938F0E04C0CE01ABDE1B
:1018900010928F0E80918E0EF81661F0CC2031F0F0
:1018A000CE01E8DC81E080938E0E04C0CE0132DDF3
:1018B00010928E0E80918D0E081761F0DD2031F0B0
:1018C000CE01ABDE81E080938D0E04C0CE01F3DE4D
:1018D00010928D0E80918C0E181761F0EE2031F071
:1018E000CE0134DD81E080938C0E04C0CE017EDD1C
:1018F00010928C0EDF91CF911F910F91FF90EF907E
:10190000DF90CF900895CF93DF93EC0103DDCE01FC
:101910006DDDCE0168DECE01CEDEFE01ED5BFF4F58
:1019200010823196108231961082CA5BDF4F188286
:10193000DF91CF9108950F931F93CF93DF93209161
:101940000001309101012617370709F43AC0EB0175
:101950008C0170930101609300018091110E81113F
:101960000EC081E19EE00E942C32892B41F089E17A
:101970009EE00E94393281E19EE00E9435326BE0A8
:1019800074E089E19EE00E949A33C130D10531F0C4
:10199000C230D10569F0CD2B81F405C0C80123DE2A
:1019A000C8013BDE0EC0C801D0DDC80184DE09C01D
:1019B000C80119DEC8017FDE04C0C80114DEC801F9
:1019C0007ADEDF91CF911F910F910895AF92BF9270
:1019D000CF92DF92EF92FF920F931F93CF93DF93FB
:1019E000EC01FC01EA5BFF4F008110E03197E080E1
:1019F000F12C3197C080D12C3197A080B12C8091EF
:101A0000110E81110EC081E19EE00E942C32892BC3
:101A100041F089E19EE00E94393281E19EE00E941E
:101A2000353262E174E089E19EE00E949A33B501AB
:101A30000E9492336AE67AE00E949A33B6010E94CD
:101A400092336AE67AE00E949A33B7010E94923399
:101A50006AE67AE00E949A33B8010E94923364ECFD
:101A60007CE00E949A33FE01ED5BFF4F8081811183
:101A70000CC03196808181110AC03196808181111C
:101A800008C0CA5BDF4F888105C081E003C081E0E8
:101A900001C081E0DF91CF911F910F91FF90EF90F6
:101AA000DF90CF90BF90AF900895479A08954798E0
:101AB0000895CF93DF93EC018091050E81110DC045
:101AC00085E09EE00E942C32892B39F08DE09EE06B
:101AD00085D485E09EE00E9435328DE09EE0EBD417
:101AE0001A82CE0110DFCE01E2DFA4E6B0E08C91D5
:101AF0008FEF8C9325E630E0F9018081816080834F
:101B0000CE018D5B9F4FFC0110820196FC0110827B
:101B10000196FC011082CA5BDF4F1882F89483B7EC
:101B2000817F846083BF83B7816083BF7894889509
:101B30008C911C92F90180818E7F808383B78E7F88
:101B400083BFDF91CF910895CF93DF93EC01ADDF99
:101B50008091110E81110EC081E19EE00E942C3215
:101B6000892B41F089E19EE00E94393281E19EE0BB
:101B70000E9435326CE174E089E19EE00E949A3364
:101B80008091050E81110DC085E09EE00E942C32EF
:101B9000892B39F08DE09EE021D485E09EE00E9403
:101BA00035328DE09EE023D48091110E81110EC05C
:101BB00081E19EE00E942C32892B41F089E19EE078
:101BC0000E94393281E19EE00E94353267E274E082
:101BD00089E19EE00E949A338091050E81110DC02B
:101BE00085E09EE00E942C32892B39F08DE09EE04A
:101BF000F5D385E09EE00E9435328DE09EE0F7D37C
:101C00008091110E81110EC081E19EE00E942C3264
:101C1000892B41F089E19EE00E94393281E19EE00A
:101C20000E94353262E374E089E19EE00E949A33BB
:101C30008091050E81110DC085E09EE00E942C323E
:101C4000892B39F08DE09EE0C9D385E09EE00E94AB
:101C500035328DE09EE0CBD38091110E81110EC004
:101C600081E19EE00E942C32892B41F089E19EE0C7
:101C70000E94393281E19EE00E9435326DE374E0CA
:101C800089E19EE00E949A338091050E81110DC07A
:101C900085E09EE00E942C32892B39F08DE09EE099
:101CA0009DD385E09EE00E9435328DE09EE09FD37B
:101CB0008091050E81110DC085E09EE00E942C32BE
:101CC000892B39F08DE09EE089D385E09EE00E946B
:101CD00035328DE09EE0A9D381E08A83DF91CF91F8
:101CE000089580B182FB882780F90895FC01ED5B9F
:101CF000FF4F2081222311F0BDCA0895FC01EC5B47
:101D0000FF4F2081222311F021CB0895FC01EB5BD2
:101D1000FF4F2081222311F018CC0895FC01EA5BCB
:101D2000FF4F2081211179CC0895855B9F4F21E0E1
:101D3000FC0120830895CF93DF93EC01662389F0A3
:101D4000FC01E45BFF4F8081811122C081E0808330
:101D50000E946C18C35BDF4F688379838A839B83FF
:101D600017C0C45BDF4F18828091050E81110DC032
:101D700085E09EE00E942C32892B39F08DE09EE0B8
:101D80002DD385E09EE00E9435328DE09EE085D324
:101D9000DF91CF910895CF92DF92EF92FF92CF9390
:101DA000DF93EC018091A90D81110EC089EA9DE0BD
:101DB0000E942C32892B41F081EB9DE00E94A4000F
:101DC00089EA9DE00E94353281EB9DE00E943A0154
:101DD0006B017C01FE01E75AFF4F20813181428176
:101DE000538160E177E280E090E00E9477188823D9
:101DF00061F1FE01ED59FF4F808191818C159D05A8
:101E000060F43E979601281B390BC901A0E0B0E0B1
:101E100080839183A283B3830BC0FE01EB5AFF4FF3
:101E20008C199D09A0E0B0E080839183A283B383E5
:101E30000E946C18FE01E75AFF4F60837183828312
:101E40009383CD59DF4FD982C882DF91CF91FF9024
:101E5000EF90DF90CF900895CF92DF92EF92FF92B4
:101E6000CF93DF93EC018091A90D81110EC089EA17
:101E70009DE00E942C32892B41F081EB9DE00E9475
:101E8000A40089EA9DE00E94353281EB9DE00E942A
:101E9000BC006B017C01FE01E35AFF4F20813181C0
:101EA0004281538160E177E280E090E00E94771800
:101EB000882361F1FE01EF59FF4F808191818C15DC
:101EC0009D0560F470979601281B390BC901A0E0AD
:101ED000B0E080839183A283B3830BC0FE01EF5AED
:101EE000FF4F8C199D09A0E0B0E080839183A2830D
:101EF000B3830E946C18FE01E35AFF4F6083718325
:101F000082839383CF59DF4FD982C882DF91CF91EB
:101F1000FF90EF90DF90CF900895CF93DF93EC0187
:101F20003ADFCE0199DFDF91CF910895CF93DF9310
:101F3000EC01F3DFFE01E35BFF4F20813181428141
:101F400053816AEF70E080E090E00E947718882368
:101F500069F160910401CE010E9463066091040161
:101F6000CE010E94010660910401CE010E949906F3
:101F700060910401CE010E94F00660910401CE013F
:101F80000E94470760910401CE010E949E07909134
:101F9000040181E08927809304010E946C18FE01EE
:101FA000E35BFF4F6083718382839383CE010D9641
:101FB0000E941019CE0104960E941019CE01469677
:101FC0000E941019CE014F960E941019CE01C196A1
:101FD0000E941019CE0188960E941019CE01CA964F
:101FE0000E941019DF91CF9108951F920F920FB6A2
:101FF0000F9211248F9381E080939F0E8F910F9009
:102000000FBE0F901F9018951F920F920FB60F9250
:1020100011248F9381E080939E0E8F910F900FBEBD
:102020000F901F9018951F920F920FB60F921124C8
:102030008F9381E080939E0E8F910F900FBE0F9033
:102040001F9018951F920F920FB60F9211248F9325
:1020500081E080939E0E8F910F900FBE0F901F9086
:1020600018958091110E81110EC081E19EE00E94B1
:102070002C32892B41F089E19EE00E94393281E1C6
:102080009EE00E94353289E19EE008952CE0FC013B
:1020900020832DE021830C94FF30089580E40E947A
:1020A0003D31811164C180E80E946A31811146C1CD
:1020B00080E80E946A31811128C10E946A31811131
:1020C0000BC18FEF0E946A318111EDC08FEF0E942A
:1020D0006A318111CFC08FEF0E946A318111B1C086
:1020E0008FEF0E946A31811193C08FEF0E946A3195
:1020F000811175C08FEF0E946A31811157C08FEF37
:102100000E946A31811139C08FEF0E946A318111BA
:102110002EC00E946A31811124C00E946A3181114F
:102120001AC00E946A31811110C00E946A31811167
:1021300006C097DF68E474E00E949A3330C191DFF3
:1021400067E674E00E949A332AC18BDF6DE874E081
:102150000E949A3324C185DF69EB74E00E949A33B0
:102160001EC17FDF63EE74E00E949A3318C179DFED
:102170006CE075E00E949A3312C18091110E8111BA
:102180000EC081E19EE00E942C32892B41F089E152
:102190009EE00E94393281E19EE00E94353264E384
:1021A00075E089E19EE00E949A33F9C08091110E9A
:1021B00081110EC081E19EE00E942C32892B41F0FA
:1021C00089E19EE00E94393281E19EE00E94353231
:1021D0006CE575E089E19EE00E949A33E0C0809151
:1021E000110E81110EC081E19EE00E942C32892BDC
:1021F00041F089E19EE00E94393281E19EE00E9437
:10220000353264E875E089E19EE00E949A33C7C0E8
:102210008091110E81110EC081E19EE00E942C324E
:10222000892B41F089E19EE00E94393281E19EE0F4
:102230000E9435326CEA75E089E19EE00E949A3393
:10224000AEC08091110E81110EC081E19EE00E940E
:102250002C32892B41F089E19EE00E94393281E1E4
:102260009EE00E94353265ED75E089E19EE00E94B6
:102270009A3395C08091110E81110EC081E19EE0CC
:102280000E942C32892B41F089E19EE00E94393274
:1022900081E19EE00E9435326DEF75E089E19EE0BC
:1022A0000E949A337CC08091110E81110EC081E191
:1022B0009EE00E942C32892B41F089E19EE00E9431
:1022C000393281E19EE00E94353265E276E089E1B3
:1022D0009EE00E949A3363C08091110E81110EC05E
:1022E00081E19EE00E942C32892B41F089E19EE041
:1022F0000E94393281E19EE00E9435326EE476E040
:1023000089E19EE00E949A334AC08091110E8111AA
:102310000EC081E19EE00E942C32892B41F089E1C0
:102320009EE00E94393281E19EE00E94353267E7EB
:1023300076E089E19EE00E949A3331C08091110ECF
:1023400081110EC081E19EE00E942C32892B41F068
:1023500089E19EE00E94393281E19EE00E9435329F
:1023600062EA76E089E19EE00E949A3318C080918B
:10237000110E81110EC081E19EE00E942C32892B4A
:1023800041F089E19EE00E94393281E19EE00E94A5
:1023900035326DEC76E089E19EE00E949A330C9430
:1023A00065310895CF93DF93C62FD42F80E40E9428
:1023B0003D3181110CC08C2F0E946A31811107C000
:1023C0008D2F0E946A31811102C00E946531DF9118
:1023D000CF910895462F6AE0E5CF0895CF93DF931C
:1023E000EC0154DE1A821B82DF91CF91089556CE04
:1023F0000895FC014281406342836081D3CF0895F8
:10240000FC0142814F7C42836081CCCF0895FC0166
:1024100043814C6043836181C5CF0895FC014381B2
:10242000437F43836181BECF0895FC014381406CAB
:1024300043836181B7CF0895FC0143814F73438388
:102440006181B0CF0895FC014281406C428360817C
:10245000A9CF0895FC0142814F7342836081A2CFCE
:102460000895FC0143814063438361819BCF0895BC
:10247000FC0143814F7C4383618194CF0895FC012B
:1024800043814360438361818DCF0895FC01438183
:102490004C7F4383618186CF0895FC0142814C606B
:1024A000428360817FCF0895FC014281437F428354
:1024B000608178CF0895CF93DF93EC01A1DFCE0147
:1024C000ADDFCE01B9DFCE01C5DFCE01D1DFCE0158
:1024D000DDDFCE01E9DFDF91CF910895FC0184813A
:1024E000882319F08130C1F02EC08091A90D81118F
:1024F0000EC089EA9DE00E942C32892B41F081EBCD
:102500009DE00E94A40089EA9DE00E94353281EBA3
:102510009DE00C94BC0008958091A90D81110EC01E
:1025200089EA9DE00E942C32892B41F081EB9DE0ED
:102530000E94A40089EA9DE00E94353281EB9DE073
:102540000C943A01089560E070E0CB010895CF93B8
:10255000DF93EC0184E690E0A0E0B0E08D839E8301
:10256000AF83B88719868E8F9F8FA8A3B9A39BA32B
:102570008AA38CE993E09DA38CA3FE01E65FFE4F46
:10258000108237961082A8D56A877B878C879D87B3
:10259000CE01A4DFDC01CB01072E7CE0880F991F60
:1025A000AA1FBB1F7A95D1F7702D8E879F87A88BA6
:1025B000B98B92D56E8B7F8B888F998FDF91CF915E
:1025C0000895FC018481882319F08130C1F00895B9
:1025D00080911B0E81110EC08BE19EE00E942C3277
:1025E000892B41F083E29EE00E94A5058BE19EE0ED
:1025F0000E94353283E29EE00C94A50A08958091F2
:102600001B0E81110EC08BE19EE00E942C32892BA3
:1026100041F083E29EE00E94A5058BE19EE00E94CE
:10262000353283E29EE00C943A090895FC018481DE
:10263000882319F08130C1F0089580911B0E81111B
:102640000EC08BE19EE00E942C32892B41F083E288
:102650009EE00E94A5058BE19EE00E94353283E258
:102660009EE00C94F30A089580911B0E81110EC018
:102670008BE19EE00E942C32892B41F083E29EE0A8
:102680000E94A5058BE19EE00E94353283E29EE028
:102690000C948A090895FC018481882319F0813003
:1026A000C1F0089580911B0E81110EC08BE19EE058
:1026B0000E942C32892B41F083E29EE00E94A50506
:1026C0008BE19EE00E94353283E29EE00C940D0B7C
:1026D000089580911B0E81110EC08BE19EE00E9437
:1026E0002C32892B41F083E29EE00E94A5058BE10C
:1026F0009EE00E94353283E29EE00C94A609089584
:10270000FC018481882319F08130C1F00895809103
:102710001B0E81110EC08BE19EE00E942C32892B92
:1027200041F083E29EE00E94A5058BE19EE00E94BD
:10273000353283E29EE00C945B0B089580911B0E72
:1027400081110EC08BE19EE00E942C32892B41F05A
:1027500083E29EE00E94A5058BE19EE00E94353257
:1027600083E29EE00C94F6090895EF92FF921F9386
:10277000CF93DF93EC01162F8091110E81110EC0C3
:1027800081E19EE00E942C32892B41F089E19EE09C
:102790000E94393281E19EE00E94353268EF76E096
:1027A00089E19EE00E949A33EC81F0E0EE0FFF1F7A
:1027B000E350F84FE080F1808091110E81110EC03E
:1027C00081E19EE00E942C32892B41F089E19EE05C
:1027D0000E94393281E19EE00E943532B70189E1E1
:1027E0009EE00E949A33E12FF0E0EE0FFF1FE951C7
:1027F000F84FE080F1808091110E81110EC081E1CF
:102800009EE00E942C32892B41F089E19EE00E94DB
:10281000393281E19EE00E943532B70189E19EE0C4
:102820000E949A338091110E81110EC081E19EE0C9
:102830000E942C32892B41F089E19EE00E943932BE
:1028400081E19EE00E94353264E17AE089E19EE018
:102850000E949A331987DF91CF911F91FF90EF90DB
:1028600008958F929F92AF92BF92CF92DF92EF9294
:10287000FF92CF93DF93EC0131DE6B017C014B01C2
:102880005C01072E7CE0880C991CAA1CBB1C7A9565
:10289000D1F7702D8E869F86A88AB98AFE01EE50E8
:1028A000FF4FBE016A5F7E4F3C2D2D2D832F922F4F
:1028B000C192D192E617F707C9F7FE01B6969E01BD
:1028C00022513F4F81939193E217F307D9F7072ED7
:1028D0007CE0B594A794979487947A95D1F7702D5E
:1028E000EC81F0E0EE0FFF1FE350F84FC081D18183
:1028F0008091110E81110EC081E19EE00E942C3268
:10290000892B41F089E19EE00E94393281E19EE00D
:102910000E943532BE0189E19EE00E949A33809187
:10292000110E81110EC081E19EE00E942C32892B94
:1029300041F089E19EE00E94393281E19EE00E94EF
:1029400035326BEF76E089E19EE00E949A33B70161
:10295000A6010E948A3369E077E00E949A33B501AC
:10296000A4010E948A3364EC7CE00E949A33DF91D8
:10297000CF91FF90EF90DF90CF90BF90AF909F905E
:102980008F900895CF93DF93EC01FC01E15FFE4F40
:10299000118210826C8334971182108232961182D8
:1029A0001082359610821182128213825ADF60E003
:1029B000CE01DBDEDF91CF910895CF92DF92EF92CF
:1029C000FF920F931F93CF93DF93FC01E65FFE4FBF
:1029D0002081222309F4A9C06A017B010B2EBCE0EF
:1029E000CC0CDD1CEE1CFF1CBA95D1F7B02DDC0120
:1029F0001E96CD92DD92ED92FC9251977897AA5F48
:102A0000BE4F342F252FC32FD22F41935193EA1756
:102A1000FB07C9F7FC01B6969C0122513F4FC193B9
:102A2000D193E217F307D9F78C010B2EBCE0F59494
:102A3000E794D794C794BA95D1F7B02DDC014D93A4
:102A40005D936D937C9313978091110E81110EC04D
:102A500081E19EE00E942C32892B41F089E19EE0C9
:102A60000E94393281E19EE00E9435328AE08093F3
:102A7000190ED8011496EC91F0E0EE0FFF1FE35011
:102A8000F84F008111818091110E81110EC081E1FA
:102A90009EE00E942C32892B41F089E19EE00E9449
:102AA000393281E19EE00E943532B80189E19EE031
:102AB0000E949A338091110E81110EC081E19EE037
:102AC0000E942C32892B41F089E19EE00E9439322C
:102AD00081E19EE00E94353260E177E089E19EE08D
:102AE0000E949A33BE010E9492336EE177E00E9409
:102AF0009A33B6010E94923364EC7CE00E949A33D0
:102B00008091110E81110EC081E19EE00E942C3255
:102B1000892B41F089E19EE00E94393281E19EE0FB
:102B20000E94353280E18093190EDF91CF911F9181
:102B30000F91FF90EF90DF90CF900895FC01E55F3B
:102B4000FE4F208131812436310514F0118210822C
:102B5000DC01A55FBE4F2D913C911197F901739651
:102B6000EE0FFF1FE80FF91F718360832F5F3F4F48
:102B70002D933C93FC01B6969C0122513F4F80E07F
:102B800090E0DC0141915191052E000C660B770B12
:102B9000840F951FA61FB71FE217F30799F7BC0113
:102BA000CD0124E630E040E050E00E940536C90146
:102BB00008950F931F93FC01E35FFE4F2081318145
:102BC0002A30310514F011821082DC01A35FBE4F60
:102BD0002D913C911197F901E758FF4FEE0FFF1F20
:102BE000E80FF91F718360832F5F3F4F2D933C9354
:102BF000FC01EE50FF4F8A5F9E4F00E010E098010D
:102C000041915191052E000C660B770B040F151F97
:102C1000261F371FE817F90799F7C901B8012AE0FD
:102C200030E040E050E00E940536C9011F910F914D
:102C30000895CF93DF93EC01FC01E65FFE4F8081A6
:102C4000811109C0662319F181E08083BA01A901CD
:102C5000CE01B3DE06C0FE01E65FFE4F10826623A2
:102C600049F088EE93E0A0E0B0E08D839E83AF83CF
:102C7000B88712C0FE01EF5EFE4F108284E690E03E
:102C8000A0E0B0E08D839E83AF83B88705C0FE01CE
:102C9000E65FFE4F1082EECFDF91CF910895FC01E9
:102CA000EF5EFE4F608360E060CD08958F5E9E4FC3
:102CB000FC01808108950F931F93CF93DF93EC0164
:102CC0000DDCCE0176DFFE01EA5FFE4FAC0160E075
:102CD00070E04083518362837383BC01CE012EDF99
:102CE000AC0160E070E0FE01E251FF4F4083518390
:102CF000628373838E859F85A889B9898C019D0124
:102D00000F2EFCE03595279517950795FA95D1F785
:102D1000F02D801B910BA20BB30B840F951FA61FE8
:102D2000B71F8E879F87A88BB98B072E7CE0B59540
:102D3000A795979587957A95D1F7702D8883998374
:102D4000AA83BB83C9D16A877B878C879D87DF91E4
:102D5000CF911F910F910895CF92DF92EF92FF9242
:102D6000CF93DF93EC016A017B01A5DFFE01E65FF3
:102D7000FE4F8081882319F06881798102C0CE01DD
:102D8000ADDBE9858E2F90E08A30910508F073C1A4
:102D9000FC01EA5BFF4F0C944336CE0147DCCE01C9
:102DA000AFDC61E0CE01E1DC85C1CB01770FAA0B7E
:102DB000BB0BB701A6014E51510961097109841776
:102DC0009507A607B707ECF4CE01FBDB80911B0E3D
:102DD00081110EC08BE19EE00E942C32892B41F0C4
:102DE00083E29EE00E94A5058BE19EE00E943532C1
:102DF00061E083E29EE00E949B0E63E0CE01B5DCC1
:102E000059C1B701A6014F505109610971098417D1
:102E10009507A607B7079CF4CE01D3DB8E8D9F8D57
:102E2000A8A1B9A18A8F9B8FAC8FBD8F55D16A8B1A
:102E30007B8B8C8B9D8B64E0CE0197DC3BC1B70113
:102E4000A601425E5F4F6F4F7F4F481759076A07D1
:102E50007B07ECF480911B0E81110EC08BE19EE08C
:102E60000E942C32892B41F083E29EE00E94A5054E
:102E70008BE19EE00E94353261E083E29EE00E9499
:102E80009B0E65E0CE0171DCCE0105DC13C12FE0A5
:102E9000C20ED11CE11CF11CC816D906EA06FB06BD
:102EA0009CF4CE01F8DB8E8D9F8DA8A1B9A18A8FED
:102EB0009B8FAC8FBD8F10D16A8B7B8B8C8B9D8B46
:102EC00066E0CE0152DCF6C0FE01EF5EFE4F81E00F
:102ED000808362E0CE0149DCEDC0CB01770FAA0B05
:102EE000BB0BB701A6014F50510961097109841745
:102EF0009507A607B7079CF4CE0163DB8E8D9F8DE7
:102F0000A8A1B9A18A8F9B8FAC8FBD8FE5D06A8BAA
:102F10007B8B8C8B9D8B64E0CE0127DCCBC02FE0BC
:102F2000C20ED11CE11CF11CC816D906EA06FB062C
:102F30000CF0C0C0CE01AFDB8E8D9F8DA8A1B9A1D2
:102F40008A8F9B8FAC8FBD8FC7D06A8B7B8B8C8B0E
:102F50009D8B66E0CE0109DCADC02A893B894C8996
:102F60005D896A8D7B8D8C8D9D8DC1D0882309F400
:102F7000A1C0CE015BDBB701A601CE011EDDACD046
:102F80006A8B7B8B8C8B9D8B68E0CE01EEDB92C0D5
:102F90002A893B894C895D896A8D7B8D8C8D9D8DBD
:102FA000A6D0882309F486C0CE01AADBB701A6010A
:102FB000CE0103DD91D06A8B7B8B8C8B9D8B68E07F
:102FC000CE01D3DB77C02A893B894C895D8968EEC5
:102FD00073E080E090E08BD0882309F46BC0FE01A1
:102FE000EF5EFE4F81E0808362E0CE01BEDB62C017
:102FF000CB01770FAA0BBB0B2EE1C21AD108E10857
:10300000F1088C159D05AE05BF050CF453C0CE012B
:103010000DDB62D06A8B7B8B8C8B9D8B69E0CE0144
:10302000A4DB48C0CB01770FAA0BBB0B2EE1C20E6D
:10303000D11CE11CF11CC816D906EA06FB060CF4EB
:1030400039C0CE015DDB48D06A8B7B8B8C8B9D8B2E
:1030500069E0CE018ADB2EC02A893B894C895D89D3
:1030600068EE73E080E090E042D0882319F161E0DF
:10307000CE017BDB1FC08091110E81110EC081E15A
:103080009EE00E942C32892B41F089E19EE00E9453
:10309000393281E19EE00E94353266E277E089E1D3
:1030A0009EE00E949A33CE01C1DACE0129DB61E0B5
:1030B000CE015BDBDF91CF91FF90EF90DF90CF905F
:1030C000089582E084BD93E095BD16BC99EF97BD4D
:1030D00018BC80936E00089578946091A00E709152
:1030E000A10E8091A20E9091A30EF89408958F9254
:1030F0009F92AF92BF92CF92DF92EF92FF926B01BD
:103100007C0149015A01E8DFDC01CB0188199909EA
:10311000AA09BB0921E0C816D906EA06FB0608F091
:1031200020E0822FFF90EF90DF90CF90BF90AF9084
:103130009F908F9008951F920F920FB60F921124B7
:103140008F939F93AF93BF938091A00E9091A10E08
:10315000A091A20EB091A30E0196A11DB11D809366
:10316000A00E9093A10EA093A20EB093A30EBF91B8
:10317000AF919F918F910F900FBE0F901F90189558
:10318000FC01108211828FEF8283138214821582D8
:103190001682178210860895FC019181913089F082
:1031A00028F09230C9F0933011F12CC020B130E0FA
:1031B000C901028002C0959587950A94E2F7817053
:1031C000089523B130E0C901028002C0959587952A
:1031D0000A94E2F78170089526B130E0C9010280B7
:1031E00002C0959587950A94E2F78170089529B1F8
:1031F00030E0C901028002C0959587950A94E2F7F4
:103200008170089580E00895CF93DF93EC01698386
:103210004A83C2DF888381E08887DF91CF91089558
:10322000CF93DF93EC018885811102C00E94603644
:103230008F81882319F0813089F026C0CE01ACDF60
:1032400090E0288130E082179307F1F045DF6B832F
:103250007C838D839E8381E08F8316C02B813C818C
:103260004D815E8164E170E080E090E040DF882382
:1032700059F0CE0191DF482F50E0288130E042170D
:10328000530711F088831F82DF91CF9108958091B9
:10329000110E81110EC081E19EE00E942C32892B1B
:1032A00041F089E19EE00E94393281E19EE00E9476
:1032B000353261E078E089E19EE00E949A338091A6
:1032C000050E81110DC085E09EE00E942C32892BF5
:1032D00039F08DE09EE082D885E09EE00E94353294
:1032E0008DE09EE0D3C80895DC01ED91FC913A9702
:1032F00020813181820F931FCACFFC01DC01AC58C1
:10330000BF4F13967C936E93129782E090E01596D0
:103310009C938E93149789E499E09183808389E547
:1033200099E08D939C93128213821482158284E615
:1033300090E0A0E0B0E082879387A487B5871686E7
:10334000178688EE93E0A0E0B0E0818B928BA38B90
:10335000B48BDF01A959BF4F11961C921E92129691
:1033600011961C921E92129611961C921E92129603
:103370001D921C92ED58FF4F81E080830895EF92DB
:10338000FF920F931F93CF938C01C62F8091110E44
:1033900081110EC081E19EE00E942C32892B41F008
:1033A00089E19EE00E94393281E19EE00E9435323F
:1033B00066E178E089E19EE00E949A33EC2FF0E02C
:1033C000EE0FFF1FED5CF64FE080F1808091110E53
:1033D00081110EC081E19EE00E942C32892B41F0C8
:1033E00089E19EE00E94393281E19EE00E943532FF
:1033F000B70189E19EE00E949A338091110E8111FC
:103400000EC081E19EE00E942C32892B41F089E1BF
:103410009EE00E94393281E19EE00E94353264ECE8
:103420007CE089E19EE00E949A33F801C08BCF9145
:103430001F910F91FF90EF9008950F931F93CF93DB
:10344000DF93FA01C9012081EB0134E0239FC00D15
:10345000D11D1124092E000CAA0BBB0B8883998364
:10346000AA83BB8380818F5F8A3010F4808301C080
:103470001082FB01AB01485D5F4F60E070E0CB0163
:103480000191119121913191600F711F821F931F42
:10349000E417F507A9F72AE030E040E050E00E9489
:1034A0002736C901DF91CF911F910F910895AF92F7
:1034B000BF92CF92DF92EF92FF920F931F93CF9321
:1034C000DF9300D000D000D0CDB7DEB78C01809163
:1034D000C30E81110EC083EC9EE00E942C32892B1A
:1034E00041F08BEC9EE00E94EE3383EC9EE00E9464
:1034F00035329E012B5F3F4FAE014D5F5F4FBE01E6
:103500006F5F7F4F8BEC9EE00E94EF33F801ED5828
:10351000FF4F8081882371F03C9789819A81919532
:1035200081959109918380838D819E8134969183C9
:1035300080830CC08D819E81F801E959FF4F9183F2
:10354000808389819A81349691838083680187E69C
:10355000C80ED11CF60120813181A8014B595F4F63
:10356000B8016B5E7F4FC80168DFF801E759FF4F74
:10357000918380837801FBE6EF0EF11CF701208137
:103580003181A8014A595F4FB801635C7F4FC80180
:1035900054DFF801E359FF4F91838083F601C08027
:1035A000D1803896808191815601A81AB90AF70115
:1035B000E080F1803696808191818701081B190B8C
:1035C0008091110E81110EC081E19EE00E942C328B
:1035D000892B41F089E19EE00E94393281E19EE031
:1035E0000E9435326BE17AE089E19EE00E949A33D5
:1035F000B6010E94923364E278E00E949A33B701E8
:103600000E94923368E278E00E949A33B8010E94E7
:10361000923360E378E00E949A33B5010E949233BE
:1036200064EC7CE00E949A3326960FB6F894DEBFD5
:103630000FBECDBFDF91CF911F910F91FF90EF9003
:10364000DF90CF90BF90AF900895EF92FF920F93CD
:103650001F93CF93DF93EC018091AC0E811182C058
:103660008CEA9EE00E942C32892B41F084EB9EE094
:103670000E947C358CEA9EE00E943532E090B90EC3
:10368000F090BA0E8091AC0E81110EC08CEA9EE0D3
:103690000E942C32892B41F084EB9EE00E947C3505
:1036A0008CEA9EE00E9435320091BD0E1091BE0E54
:1036B000C801112324F488279927801B910B81309E
:1036C000944034F1FE01ED58FF4F10828091110EAD
:1036D00081110EC081E19EE00E942C32892B41F0C5
:1036E00089E19EE00E94393281E19EE00E943532FC
:1036F00068E378E089E19EE00E949A33FE01E15997
:10370000FF4F11830083CF58DF4FF982E8822FC02B
:1037100081E0FE01ED58FF4F80838091110E8111F1
:103720000EC081E19EE00E942C32892B41F089E19C
:103730009EE00E94393281E19EE00E94353260E5D0
:1037400078E089E19EE00E949A33FE01E159FF4F43
:10375000F194E194F108F182E082CF58DF4F1983B0
:10376000088305C0E090B90EF090BA0E9DCFDF91AE
:10377000CF911F910F91FF90EF900895EF92FF92DC
:103780000F931F93CF93DF93EC018091050E81116E
:103790000EC085E09EE00E942C32892B41F08DE026
:1037A0009EE00E94EE1185E09EE00E9435328DE0A1
:1037B0009EE00E943F128091C30E81110EC083ECE7
:1037C0009EE00E942C32892B41F08BEC9EE00E94FF
:1037D000EE3383EC9EE00E9435324DE36AE28BECDF
:1037E0009EE00E94A3348091C30E81110EC083EC31
:1037F0009EE00E942C32892B41F08BEC9EE00E94CF
:10380000EE3383EC9EE00E94353242E06BE28BECBB
:103810009EE00E94A334CE0118DFFE01EF58FF4F57
:10382000008111813297E080F1808091110E811129
:103830000EC081E19EE00E942C32892B41F089E18B
:103840009EE00E94393281E19EE00E94353266E6B8
:1038500078E089E19EE00E949A33B7010E9492339A
:1038600066E878E00E949A33B8010E94923363E9D7
:1038700078E00E949A3364E170E00E94923364E140
:103880007AE00E949A3328DC6A837B838C839D8351
:103890001E861F86CE010BDEFE01E959FF4F4081D7
:1038A0005181052E000C660B770B34968081918137
:1038B000092E000CAA0BBB0BE655F1099E01235CF7
:1038C0003F4F419351936193719384A395A3A6A312
:1038D000B7A3E217F307A9F7FE01EB59FF4F1082D8
:1038E0003196108260E0CE014ADDF6DB6E837F8385
:1038F00088879987DF91CF911F910F91FF90EF906B
:103900000895DC01ED91FC91369720813181820F81
:10391000931F34CFFC01E559FF4F2081318166238D
:1039200031F032962081318168E270E002C064E1BA
:1039300070E0FC01ED58FF4F4081442359F032976D
:1039400040815181461B570B81E02417350774F0E5
:1039500080E00895FC01EF58FF4F40815181461BE4
:10396000570B81E0241735070CF080E00895FC0127
:10397000E559FF4F20813181662331F03296208155
:10398000318148E250E002C044E150E0FC01ED58D2
:10399000FF4F6081662359F0329780819181480FF3
:1039A000591F81E04217530774F080E00895FC012D
:1039B000EF58FF4F80819181480F591F81E04217D6
:1039C00053070CF080E00895CF93DF93EC0160E0A3
:1039D000CEDF811106C060E0CE019CDF91E0892737
:1039E00001C080E0DF91CF910895CF93DF93EC0188
:1039F0002091A80E3091A90E4091AA0E5091AB0EC5
:103A000064EF71E080E090E072DB882309F4DAC2B1
:103A100063DB6093A80E7093A90E8093AA0E909317
:103A2000AB0ECE0144DD8889823009F40DC130F43B
:103A3000882369F0813009F450C0C4C2843009F48D
:103A400074C208F4B8C1853009F47CC2BBC280914D
:103A50001B0E81110EC08BE19EE00E942C32892B3F
:103A600041F083E29EE00E94A5058BE19EE00E946A
:103A7000353262E070E083E29EE00E949B0C809110
:103A80001B0E81110EC08BE19EE00E942C32892B0F
:103A900041F083E29EE00E94A5058BE19EE00E943A
:103AA000353262E070E083E29EE00E94100A60E03E
:103AB000CE0130DF882321F061E0CE0160DC82C2DC
:103AC00060E0CE0154DF882321F062E0CE0157DCB4
:103AD00079C263E0CE0153DC75C260E0CE0147DFFE
:103AE000882321F062E0CE014ADC6CC2CE016CDF9B
:103AF000882321F063E0CE0142DC64C2FE01E95973
:103B0000FF4F20813181C159DF4F88819981AC01FC
:103B10004C5E5F4F421753078CF580911B0E81114D
:103B20000EC08BE19EE00E942C32892B41F083E293
:103B30009EE00E94A5058BE19EE00E94353262E086
:103B400070E083E29EE00E94100A80911B0E8111BA
:103B50000EC08BE19EE00E942C32892B41F083E263
:103B60009EE00E94A5058BE19EE00E94353260E058
:103B700070E083E29EE00E949B0C24C244972817C9
:103B800039078CF580911B0E81110EC08BE19EE0F0
:103B90000E942C32892B41F083E29EE00E94A50511
:103BA0008BE19EE00E94353262E070E083E29EE0AD
:103BB0000E949B0C80911B0E81110EC08BE19EE038
:103BC0000E942C32892B41F083E29EE00E94A505E1
:103BD0008BE19EE00E94353260E070E083E29EE07F
:103BE0000E94100AEFC180911B0E81110EC08BE163
:103BF0009EE00E942C32892B41F083E29EE00E94DD
:103C0000A5058BE19EE00E94353260E070E083E222
:103C10009EE00E949B0C80911B0E81110EC08BE1D7
:103C20009EE00E942C32892B41F083E29EE00E94AC
:103C3000A5058BE19EE00E94353260E070E083E2F2
:103C40009EE00E94100ABEC160E0CE0163DE8823C0
:103C500021F061E0CE0193DBB5C1CE01B5DE882352
:103C600021F063E0CE018BDBADC1FE01E959FF4FCE
:103C700020813181C159DF4F88819981AC014C5E2F
:103C80005F4F421753078CF580911B0E81110EC0B8
:103C90008BE19EE00E942C32892B41F083E29EE072
:103CA0000E94A5058BE19EE00E94353262E070E043
:103CB00083E29EE00E949B0C80911B0E81110EC03E
:103CC0008BE19EE00E942C32892B41F083E29EE042
:103CD0000E94A5058BE19EE00E94353261E070E014
:103CE00083E29EE00E94100A6DC1449728173907AD
:103CF0008CF580911B0E81110EC08BE19EE00E941D
:103D00002C32892B41F083E29EE00E94A5058BE1D5
:103D10009EE00E94353262E070E083E29EE00E9405
:103D2000100A80911B0E81110EC08BE19EE00E9453
:103D30002C32892B41F083E29EE00E94A5058BE1A5
:103D40009EE00E94353261E070E083E29EE00E94D6
:103D50009B0C38C180911B0E81110EC08BE19EE03F
:103D60000E942C32892B41F083E29EE00E94A5053F
:103D70008BE19EE00E94353261E070E083E29EE0DC
:103D80000E949B0C80911B0E81110EC08BE19EE066
:103D90000E942C32892B41F083E29EE00E94A5050F
:103DA0008BE19EE00E94353261E070E083E29EE0AC
:103DB0000E94100A07C160E0CE01ACDD882321F02B
:103DC00061E0CE01DCDAFEC060E0CE01D0DD882308
:103DD00021F062E0CE01D3DAF5C0FE01E959FF4FD0
:103DE00020813181389680819181AC014C5E5F4F9A
:103DF000421753078CF580911B0E81110EC08BE189
:103E00009EE00E942C32892B41F083E29EE00E94CA
:103E1000A5058BE19EE00E94353261E070E083E20F
:103E20009EE00E94100A80911B0E81110EC08BE152
:103E30009EE00E942C32892B41F083E29EE00E949A
:103E4000A5058BE19EE00E94353260E070E083E2E0
:103E50009EE00E949B0CB6C04497281739078CF54A
:103E600080911B0E81110EC08BE19EE00E942C32CE
:103E7000892B41F083E29EE00E94A5058BE19EE044
:103E80000E94353261E070E083E29EE00E949B0C6C
:103E900080911B0E81110EC08BE19EE00E942C329E
:103EA000892B41F083E29EE00E94A5058BE19EE014
:103EB0000E94353260E070E083E29EE00E94100ACA
:103EC00081C080911B0E81110EC08BE19EE00E948B
:103ED0002C32892B41F083E29EE00E94A5058BE104
:103EE0009EE00E94353262E070E083E29EE00E9434
:103EF0009B0C80911B0E81110EC08BE19EE00E94F5
:103F00002C32892B41F083E29EE00E94A5058BE1D3
:103F10009EE00E94353262E070E083E29EE00E9403
:103F2000100A64E0CE012BDA4DC0D6D86093A40EFF
:103F30007093A50E8093A60E9093A70E65E0CE0118
:103F40001EDA40C02091A40E3091A50E4091A60E1D
:103F50005091A70E65E070E080E090E0C8D888231B
:103F600089F161E0CE01D6DC882321F061E0CE0149
:103F700006DA28C061E0CE01FADC882321F062E095
:103F8000CE01FDD91FC0FE01E959FF4F20813181CB
:103F9000389680819181AC01485D5F4F421753078D
:103FA00024F088972817390724F463E0CE01E7D975
:103FB00009C092D86093A40E7093A50E8093A60EAC
:103FC0009093A70EDF91CF910895CF93DF93FB01DC
:103FD0003197E930F10508F050C1AB01EC01E05B2D
:103FE000FF4F0C94433601DD48C1E881F9813697D3
:103FF00080819181C80FD91F60E070E08A819B8128
:104000000E9421033AC180911B0E81110EC08BE1E9
:104010009EE00E942C32892B41F083E29EE00E94B8
:10402000A5058BE19EE00E94353283E29EE00E946E
:104030002209882309F421C18091110E81110EC03B
:1040400081E19EE00E942C32892B41F089E19EE0C3
:104050000E94393281E19EE00E9435326AE978E0BF
:1040600089E19EE00E949A33E881F9813697808148
:104070009181C80FD91F40E050E060E070E08A8174
:104080009B810E942103F9C080911B0E81110EC0FB
:104090008BE19EE00E942C32892B41F083E29EE06E
:1040A0000E94A5058BE19EE00E94353283E29EE0EE
:1040B0000E942A09882309F4E0C0E881F981369733
:1040C00080819181C80FD91F40E050E061E070E02D
:1040D0008A819B810E942103D0C080911B0E811197
:1040E0000EC08BE19EE00E942C32892B41F083E2CE
:1040F0009EE00E94A5058BE19EE00E94353283E29E
:104100009EE00E943209882309F4B7C0E881F98152
:10411000369780819181C80FD91F40E050E065E05B
:1041200070E08A819B810E942103A7C080911B0EB1
:1041300081119EC08BE19EE00E942C32892B41F0C0
:1041400083E29EE00E94A5058BE19EE00E9435324D
:104150008091250E811191C080911B0E81110EC09E
:104160008BE19EE00E942C32892B41F083E29EE09D
:104170000E94A5058BE19EE00E94353281E080938C
:10418000250E1E8680911B0E81110EC08BE19EE0D4
:104190000E942C32892B41F083E29EE00E94A5050B
:1041A0008BE19EE00E94353283E29EE00E94A40DE6
:1041B0008091050E81110EC085E09EE00E942C3298
:1041C000892B41F08DE09EE00E94EE1185E09EE09B
:1041D0000E9435328DE09EE00E943F1260E0CE01E9
:1041E000CED80E946C186A837B838C839D838091D8
:1041F000110E81110EC081E19EE00E942C32892BAC
:1042000041F089E19EE00E94393281E19EE00E9406
:10421000353264EB78E089E19EE00E949A332DC04C
:104220008091110E81110EC081E19EE00E942C321E
:10423000892B41F089E19EE00E94393281E19EE0C4
:104240000E9435326CEC78E089E19EE00E949A335E
:10425000E881F981369780819181C80FD91F48E0A4
:1042600050E060E070E08A819B810E94210305C0DC
:104270008091250E882309F481CFDF91CF91089595
:10428000DC01ED91FC91389720813181820F931FE1
:104290009CCE8091050E81110EC085E09EE00E94AB
:1042A0002C32892B41F08DE09EE00E94EE1185E0DA
:1042B0009EE00E9435328DE09EE00E9415128091B2
:1042C000110E81110EC081E19EE00E942C32892BDB
:1042D00041F089E19EE00E94393281E19EE00E9436
:1042E00035326FE579E089E19EE00C949A330895C8
:1042F000CF93DF93EC018091110E81110EC081E10B
:104300009EE00E942C32892B41F089E19EE00E94C0
:10431000393281E19EE00E94353267E779E089E138
:104320009EE00E949A330E946C186E837F83888778
:10433000998780911B0E81110EC08BE19EE00E9437
:104340002C32892B41F083E29EE00E94A5058BE18F
:104350009EE00E94353283E29EE00E94830CDF9152
:10436000CF910895AF92BF92CF92DF92EF92FF92DA
:104370000F931F93CF93DF9300D000D000D0CDB721
:10438000DEB78C016330710509F491C044F46130EB
:10439000710571F06230710509F4A3C1ABC16630DB
:1043A00071050CF49EC16630710509F4AFC0A2C15D
:1043B000FC0126813781408551856AEF70E080E0FD
:1043C00090E00E947718882309F494C18091CF0E61
:1043D000882399F18091050E81110EC085E09EE041
:1043E0000E942C32892B41F08DE09EE00E94EE115C
:1043F00085E09EE00E9435328DE09EE00E9415121D
:104400008091050E81110EC085E09EE00E942C3245
:10441000892B41F08DE09EE00E94EE1185E09EE048
:104420000E9435328DE09EE00E943F129091CF0EA7
:1044300081E089278093CF0E32C08091050E8111D3
:104440000EC085E09EE00E942C32892B41F08DE069
:104450009EE00E94EE1185E09EE00E9435328DE0E4
:104460009EE00E941C128091050E81110EC085E015
:104470009EE00E942C32892B41F08DE09EE00E944C
:10448000EE1185E09EE00E9435328DE09EE00E94B4
:1044900046129091CF0E81E089278093CF0E0E9423
:1044A0006C18F801668377838087918723C1809198
:1044B000110E81110EC081E19EE00E942C32892BE9
:1044C00041F089E19EE00E94393281E19EE00E9444
:1044D000353262E979E089E19EE00E949A33809169
:1044E0001B0E81110EC08BE19EE00E942C32892BA5
:1044F00041F083E29EE00E94A5058BE19EE00E94D0
:10450000353283E29EE00E94150CF4C080911B0EB0
:1045100081110EC08BE19EE00E942C32892B41F06C
:1045200083E29EE00E94A5058BE19EE00E94353269
:1045300083E29EE00E943209882309F4DBC0809167
:10454000110E81110EC081E19EE00E942C32892B58
:1045500041F089E19EE00E94393281E19EE00E94B3
:1045600035326BEA79E089E19EE00E949A338091CE
:10457000C30E81110EC083EC9EE00E942C32892B69
:1045800041F08BEC9EE00E94EE3383EC9EE00E94B3
:1045900035329E012F5F3F4FAE014D5F5F4FBE0131
:1045A0006B5F7F4F8BEC9EE00E94EF33ED80FE80CF
:1045B0008091AC0E81110EC08CEA9EE00E942C32DC
:1045C000892B41F084EB9EE00E947C358CEA9EE0D2
:1045D0000E943532F092BA0EE092B90EEB80FC8068
:1045E0008091AC0E81110EC08CEA9EE00E942C32AC
:1045F000892B41F084EB9EE00E947C358CEA9EE0A2
:104600000E943532F092BC0EE092BB0EE980FA8037
:104610008091AC0E81110EC08CEA9EE00E942C327B
:10462000892B41F084EB9EE00E947C358CEA9EE071
:104630000E943532F092BE0EE092BD0E8091AC0E1B
:1046400081110EC08CEA9EE00E942C32892B41F031
:1046500084EB9EE00E947C358CEA9EE00E9435321D
:1046600084EB9EE00E947D35E980FA80CB80DC807F
:10467000AD80BE808091110E81110EC081E19EE05F
:104680000E942C32892B41F089E19EE00E94393250
:1046900081E19EE00E9435326CEB79E089E19EE099
:1046A0000E949A33B5010E94923363ED79E00E9433
:1046B0009A33B6010E94923369ED79E00E949A33F1
:1046C000B7010E94923364EC7CE00E949A3340E090
:1046D00050E062E070E0F801828193810E94210342
:1046E00009C040E050E062E070E0F801828193810F
:1046F0000E94210326960FB6F894DEBF0FBECDBFF1
:10470000DF91CF911F910F91FF90EF90DF90CF90AD
:10471000BF90AF900895FC017383628385E090E0C1
:104720009583848383EE99E09183808308958091BB
:10473000110E81110EC081E19EE00E942C32892B66
:1047400041F089E19EE00E94393281E19EE00E94C1
:10475000353269EE79E089E19EE00C949A33089550
:104760008091050E81110EC085E09EE00E942C32E2
:10477000892B41F08DE09EE00E94EE1185E09EE0E5
:104780000E9435328DE09EE00E9415128091110E3C
:1047900081110EC081E19EE00E942C32892B41F0F4
:1047A00089E19EE00E94393281E19EE00E9435322B
:1047B00061E07AE089E19EE00C949A3308954F928B
:1047C0005F926F927F928F929F92AF92BF92CF92A1
:1047D000DF92EF92FF920F931F93CF93DF93EC0141
:1047E0006330710509F41FC144F46130710571F043
:1047F0006230710509F411C223C2663071050CF4F0
:104800000CC26630710509F43DC11AC22E813F8188
:10481000488559856AEF70E080E090E00E94771843
:10482000882309F40DC28091AC0E8111FFC18CEA7E
:104830009EE00E942C32892B41F084EB9EE00E9486
:104840007C358CEA9EE00E9435324090B50E509047
:10485000B60E8091AC0E81110EC08CEA9EE00E94D3
:104860002C32892B41F084EB9EE00E947C358CEA4F
:104870009EE00E9435320091B70E1091B80E8091E3
:10488000A90D81110EC089EA9DE00E942C32892B6E
:1048900041F081EB9DE00E94A40089EA9DE00E9426
:1048A000353281EB9DE00E94BC004B015C018091A0
:1048B000A90D81110EC089EA9DE00E942C32892B3E
:1048C00041F081EB9DE00E94A40089EA9DE00E94F6
:1048D000353281EB9DE00E943A016B017C018091B1
:1048E000110E81110EC081E19EE00E942C32892BB5
:1048F00041F089E19EE00E94393281E19EE00E9410
:1049000035328AE08093190E3601601A710A8401EB
:10491000041915098091110E81110EC081E19EE0EC
:104920000E942C32892B41F089E19EE00E943932AD
:1049300081E19EE00E943532B40189E19EE00E944F
:1049400092336AE67AE00E949A33B6010E9492336B
:1049500067E17AE00E949A33B8010E9492336AE6D6
:104960007AE00E949A33B3010E94923364EC7CE0B7
:104970000E949A338091110E81110EC081E19EE058
:104980000E942C32892B41F089E19EE00E9439324D
:1049900081E19EE00E94353280E18093190E809182
:1049A000D00E8823E9F08091050E81110EC085E0BC
:1049B0009EE00E942C32892B41F08DE09EE00E9407
:1049C000EE1185E09EE00E9435328DE09EE00E946F
:1049D00015129091D00E81E089278093D00E1CC0D3
:1049E0008091050E81110EC085E09EE00E942C3260
:1049F000892B41F08DE09EE00E94EE1185E09EE063
:104A00000E9435328DE09EE00E941C129091D00EE3
:104A100081E089278093D00E0E946C186E837F837B
:104A2000888799870DC18091110E81110EC081E197
:104A30009EE00E942C32892B41F089E19EE00E9489
:104A4000393281E19EE00E9435326EE17AE089E1FF
:104A50009EE00E949A3380911B0E81110EC08BE163
:104A60009EE00E942C32892B41F083E29EE00E945E
:104A7000A5058BE19EE00E94353283E29EE00E9414
:104A8000150CDEC08091A90D81110EC089EA9DE050
:104A90000E942C32892B41F081EB9DE00E94A40002
:104AA00089EA9DE00E94353281EB9DE00E94B900C9
:104AB0008C018091AC0E81110EC08CEA9EE00E94A8
:104AC0002C32892B41F084EB9EE00E947C358CEAED
:104AD0009EE00E9435321093C00E0093BF0E80916D
:104AE000A90D81110EC089EA9DE00E942C32892B0C
:104AF00041F081EB9DE00E94A40089EA9DE00E94C4
:104B0000353281EB9DE00E94FA008C018091AC0E61
:104B100081110EC08CEA9EE00E942C32892B41F05C
:104B200084EB9EE00E947C358CEA9EE00E94353248
:104B30001093C20E0093C10E8091AC0E81110EC075
:104B40008CEA9EE00E942C32892B41F084EB9EE09F
:104B50000E947C358CEA9EE00E94353284EB9EE018
:104B60000E947D358091AC0E811165C08CEA9EE07B
:104B70000E942C32892B41F084EB9EE00E947C3510
:104B80008CEA9EE00E9435320091C10E1091C20E57
:104B90008091AC0E81110EC08CEA9EE00E942C32F6
:104BA000892B41F084EB9EE00E947C358CEA9EE0EC
:104BB0000E943532E090BF0EF090C00E8091110E31
:104BC00081110EC081E19EE00E942C32892B41F0C0
:104BD00089E19EE00E94393281E19EE00E943532F7
:104BE00069E37AE089E19EE00E949A33B7010E946E
:104BF000823365E57AE00E949A33B8010E948233DD
:104C000064EC7CE00E949A3340E050E060E070E0A9
:104C10008A819B810E94210313C040E050E060E044
:104C200070E08A819B810E9421030AC04090B50EEA
:104C30005090B60E20CE0091C10E1091C20EBACF88
:104C4000DF91CF911F910F91FF90EF90DF90CF9068
:104C5000BF90AF909F908F907F906F905F904F909C
:104C60000895FC017383628383E090E095838483DD
:104C700083E69AE09183808308958091050E8111E7
:104C80000EC085E09EE00E942C32892B41F08DE021
:104C90009EE00E94EE1185E09EE00E9435328DE09C
:104CA0009EE00E9415128091110E81110EC081E1CB
:104CB0009EE00E942C32892B41F089E19EE00E9407
:104CC000393281E19EE00E94353266ED70E089E183
:104CD0009EE00C949A330895CF93DF93EC0180917A
:104CE000110E81110EC081E19EE00E942C32892BB1
:104CF00041F089E19EE00E94393281E19EE00E940C
:104D0000353268E779E089E19EE00E949A330E949B
:104D10006C186E837F838887998780911B0E811121
:104D20000EC08BE19EE00E942C32892B41F083E281
:104D30009EE00E94A5058BE19EE00E94353283E251
:104D40009EE00E94830CDF91CF910895EF92FF9235
:104D50000F931F93CF93DF93EC016330710509F438
:104D6000E3C044F46130710571F06230710509F4FB
:104D7000EEC1FBC1663071050CF4E9C16630710506
:104D800009F401C1F2C12E813F81488559856AEF3E
:104D900070E080E090E00E947718882309F4E5C174
:104DA0008091D10E882399F18091050E81110EC05A
:104DB00085E09EE00E942C32892B41F08DE09EE040
:104DC0000E94EE1185E09EE00E9435328DE09EE06B
:104DD0000E9415128091050E81110EC085E09EE0A3
:104DE0000E942C32892B41F08DE09EE00E94EE1152
:104DF00085E09EE00E9435328DE09EE00E944D12DB
:104E00009091D10E81E089278093D10E32C080919C
:104E1000050E81110EC085E09EE00E942C32892B88
:104E200041F08DE09EE00E94EE1185E09EE00E9440
:104E300035328DE09EE00E941C128091050E81119A
:104E40000EC085E09EE00E942C32892B41F08DE05F
:104E50009EE00E94EE1185E09EE00E9435328DE0DA
:104E60009EE00E9454129091D10E81E08927809398
:104E7000D10E0E946C186E837F83888799878091FA
:104E8000A90D81110EC089EA9DE00E942C32892B68
:104E900041F081EB9DE00E94A40089EA9DE00E9420
:104EA000353281EB9DE00E94B9008C018091A90D03
:104EB00081110EC089EA9DE00E942C32892B41F0BD
:104EC00081EB9DE00E94A40089EA9DE00E943532BA
:104ED00081EB9DE00E94FA00EC018091110E81119E
:104EE0000EC081E19EE00E942C32892B41F089E1C5
:104EF0009EE00E94393281E19EE00E94353269E6EF
:104F00007AE089E19EE00E949A33B8010E948233E0
:104F10006DE67AE00E949A33BE010E94823364EC0F
:104F20007CE00E949A3321C18091110E81110EC044
:104F300081E19EE00E942C32892B41F089E19EE0C4
:104F40000E94393281E19EE00E94353262E77AE0C8
:104F500089E19EE00E949A3380911B0E81110EC060
:104F60008BE19EE00E942C32892B41F083E29EE08F
:104F70000E94A5058BE19EE00E94353283E29EE00F
:104F80000E94150CF2C080911B0E81110EC08BE1A6
:104F90009EE00E942C32892B41F083E29EE00E9429
:104FA000A5058BE19EE00E94353283E29EE00E94DF
:104FB0003209882309F4D9C08091A90D81110EC04E
:104FC00089EA9DE00E942C32892B41F081EB9DE023
:104FD0000E94A40089EA9DE00E94353281EB9DE0A9
:104FE0000E94B9008C018091AC0E81110EC08CEA38
:104FF0009EE00E942C32892B41F084EB9EE00E94BF
:105000007C358CEA9EE00E9435321093B60E0093F8
:10501000B50E8091A90D81110EC089EA9DE00E9414
:105020002C32892B41F081EB9DE00E94A40089EA9B
:105030009DE00E94353281EB9DE00E94FA008C01D8
:105040008091AC0E81110EC08CEA9EE00E942C3241
:10505000892B41F084EB9EE00E947C358CEA9EE037
:105060000E9435321093B80E0093B70E8091AC0EAB
:1050700081110EC08CEA9EE00E942C32892B41F0F7
:1050800084EB9EE00E947C358CEA9EE00E943532E3
:1050900084EB9EE00E947D358091AC0E811160C052
:1050A0008CEA9EE00E942C32892B41F084EB9EE03A
:1050B0000E947C358CEA9EE00E943532E090B70E6B
:1050C000F090B80E8091AC0E81110EC08CEA9EE07B
:1050D0000E942C32892B41F084EB9EE00E947C35AB
:1050E0008CEA9EE00E9435320091B50E1091B60E0A
:1050F0008091110E81110EC081E19EE00E942C3240
:10510000892B41F089E19EE00E94393281E19EE0E5
:105110000E9435326DE87AE089E19EE00E949A3380
:10512000B8010E94823365E57AE00E949A33B701A4
:105130000E94823364EC7CE00E949A3340E050E0AD
:1051400061E070E08A819B810E9421030EC040E0F3
:1051500050E061E070E08A819B810E94210305C0DC
:10516000E090B70EF090B80EBFCFDF91CF911F91B6
:105170000F91FF90EF900895FC017383628384E0A8
:1051800090E0958384838DEA9AE0918380830895EB
:105190008091110E81110EC081E19EE00E942C329F
:1051A000892B41F089E19EE00E94393281E19EE045
:1051B0000E94353263EB7AE089E19EE00E949A33E7
:1051C00080911B0E81110EC08BE19EE00E942C325B
:1051D000892B41F083E29EE00E94A5058BE19EE0D1
:1051E0000E94353283E29EE00C94830C0895CF93A5
:1051F000DF93EC018091050E81110EC085E09EE0E9
:105200000E942C32892B41F08DE09EE00E94EE112D
:1052100085E09EE00E9435328DE09EE00E944612BD
:105220008091050E81110EC085E09EE00E942C3217
:10523000892B41F08DE09EE00E94EE1185E09EE01A
:105240000E9435328DE09EE00E94541280911B0E28
:1052500081110EC08BE19EE00E942C32892B41F01F
:1052600083E29EE00E94A5058BE19EE00E9435321C
:1052700083E29EE00E94830C8091110E81110EC08A
:1052800081E19EE00E942C32892B41F089E19EE071
:105290000E94393281E19EE00E9435326AEC7AE068
:1052A00089E19EE00E949A330E946C186E877F8786
:1052B000888B998B0E946C186E837F83888799876F
:1052C00080E69AEEA0E0B0E08A879B87AC87BD8736
:1052D000DF91CF910895CF93DF93FB013197E930B0
:1052E000F10508F044C2EC01E75AFF4F0C94433635
:1052F00080911B0E81110EC08BE19EE00E942C322A
:10530000892B41F083E29EE00E94A5058BE19EE09F
:105310000E94353283E29EE00E942A09882309F424
:1053200026C240E050E061E070E08A819B810E94EB
:1053300021031DC280911B0E81110EC08BE19EE0E6
:105340000E942C32892B41F083E29EE00E94A50549
:105350008BE19EE00E94353283E29EE00E942209AA
:10536000882309F404C240E050E062E070E08A81E2
:105370009B810E942103FBC180911B0E81110EC0F5
:105380008BE19EE00E942C32892B41F083E29EE06B
:105390000E94A5058BE19EE00E94353283E29EE0EB
:1053A0000E94750B80911B0E81110EC08BE19EE057
:1053B0000E942C32892B41F083E29EE00E94A505D9
:1053C0008BE19EE00E94353283E29EE00E94E60C73
:1053D000882309F18091110E81110EC081E19EE0B8
:1053E0000E942C32892B41F089E19EE00E943932E3
:1053F00081E19EE00E94353261EE7AE089E19EE033
:105400000E949A3380E69AEEA0E0B0E08A879B87FC
:10541000AC87BD8708C080E69AEEA0E0B0E08A873E
:105420009B87AC87BD870E946C186E837F838887BB
:1054300099879DC180911B0E81110EC08BE19EE06A
:105440000E942C32892B41F083E29EE00E94A50548
:105450008BE19EE00E94353283E29EE00E94E60CE2
:10546000882349F180911B0E81110CC08BE19EE0D5
:10547000F3D7892B39F083E29EE00E94A5058BE1EA
:105480009EE0F3D783E29EE00E94830C8091110E90
:1054900081110BC081E19EE0DFD7892B31F089E1DA
:1054A0009EE0E7D781E19EE0E0D762EF7AE089E114
:1054B0009EE00E949A3380911B0E81110CC08BE1FB
:1054C0009EE0CAD7892B39F083E29EE00E94A505B1
:1054D0008BE19EE0CAD783E29EE00E94150C80E635
:1054E0009AEEA0E0B0E08A879B87AC87BD87809169
:1054F000110E81110BC081E19EE0AED7892B31F0F6
:1055000089E19EE0B6D781E19EE0AFD76BEF7AE00C
:1055100089E19EE00E949A330E946C186E837F831B
:105520008887998724C180911B0E81110CC08BE163
:105530009EE092D7892B39F083E29EE00E94A50578
:105540008BE19EE092D78091260E882309F40FC14B
:105550002E813F81488559856A857B858C859D850F
:105560000E947718882309F402C180911B0E8111D3
:105570000CC08BE19EE070D7892B39F083E29EE06E
:105580000E94A5058BE19EE070D71092260E68E080
:1055900070E08A819B810E94FB01E9C080911B0E13
:1055A00081110CC08BE19EE057D7892B39F083E243
:1055B0009EE00E94A5058BE19EE057D71092260E33
:1055C00080911B0E81110CC08BE19EE045D7892B89
:1055D00039F083E29EE00E94A5058BE19EE045D76D
:1055E00083E29EE00E94A40D80911B0E81110CC0ED
:1055F0008BE19EE031D7892B39F083E29EE00E9457
:10560000A5058BE19EE031D783E29EE00E94760EF5
:105610008091110E81110BC081E19EE01DD7892B75
:1056200031F089E19EE025D781E19EE01ED76AE056
:105630007BE089E19EE00E949A3399C08091110E2F
:1056400081110BC081E19EE007D7892B31F089E100
:105650009EE00FD781E19EE008D764E27BE089E11C
:105660009EE00E949A3380911B0E81110CC08BE149
:105670009EE0F2D6892B39F083E29EE00E94A505D8
:105680008BE19EE0F2D683E29EE00E94590D6FC04E
:1056900080911B0E811166C08BE19EE0DDD6892BC7
:1056A00039F083E29EE00E94A5058BE19EE0DDD605
:1056B0008091250E81115BC080911B0E81110CC061
:1056C0008BE19EE0C9D6892B39F083E29EE00E94EF
:1056D000A5058BE19EE0C9D681E08093260E0E944D
:1056E0006C186E837F838887998780911B0E811148
:1056F0000CC08BE19EE0B0D6892B39F083E29EE0AE
:105700000E94A5058BE19EE0B0D683E29EE00E9458
:10571000A40D80911B0E81110CC08BE19EE09CD6E4
:10572000892B39F083E29EE00E94A5058BE19EE083
:105730009CD683E29EE00E94760E8091110E81112C
:105740000BC081E19EE088D6892B31F089E19EE093
:1057500090D681E19EE089D66FE37BE089E19EE00F
:10576000E9D705C08091250E882309F4B5CFDF91D4
:10577000CF910895FC0173836283158214828DE5B5
:105780009BE09183808380E69AEEA0E0B0E0828780
:105790009387A487B587089580911B0E81110CC053
:1057A0008BE19EE059D6892B39F083E29EE00E947E
:1057B000A5058BE19EE059D660E083E29EE00E9461
:1057C0009B0E8091110E81110BC081E19EE044D6A9
:1057D000892B31F089E19EE04CD681E19EE045D6EF
:1057E00063E67BE089E19EE0A5D78091050E8111FB
:1057F0000CC085E09EE030D6892B39F08DE09EE02C
:105800000E94EE1185E09EE030D68DE09EE00C9483
:1058100054120895CF93DF93EC017B836A8381E078
:1058200090E09D838C8380E59CE09983888360E091
:10583000CE0106960E94A71261E0CE01825B9E4FC8
:105840000E94A712FE01EA56FD4F81E08083319647
:105850001082118212821382349610821182128277
:105860001382C156DD4F1882DF91CF910895EF92D8
:10587000FF921F93CF93DF93EC01162F8091110EAF
:1058800081110BC081E19EE0E7D5892B31F089E1E0
:105890009EE0EFD581E19EE0E8D56AE77BE089E113
:1058A0009EE048D7E12FF0E0EE0FFF1FEA5BF34FD9
:1058B000E080F1808091110E81110BC081E19EE0AA
:1058C000CBD5892B31F089E19EE0D3D581E19EE0F3
:1058D000CCD5B70189E19EE02DD78091110E8111C1
:1058E0000BC081E19EE0B8D5892B31F089E19EE0C3
:1058F000C0D581E19EE0B9D564E17AE089E19EE01E
:1059000019D7C056DD4F1883DF91CF911F91FF90BB
:10591000EF900895EF92FF920F931F93CF93DF9331
:10592000EC018091050E81110CC085E09EE094D5BC
:10593000892B39F08DE09EE00E94EE1185E09EE01B
:1059400094D58DE09EE00E944D1280911B0E811136
:105950000CC08BE19EE080D5892B39F083E29EE07C
:105960000E94A5058BE19EE080D561E083E29EE088
:105970000E949B0E7E0186E0E80EF11C60E0C701EC
:105980000E94C2148E01025B1E4F61E0C8010E949A
:10599000C2148091AC0E81110CC08CEA9EE05CD5E3
:1059A000892B39F084EB9EE00E947C358CEA9EE0E6
:1059B0005CD52091B50E3091B60E40E050E060E02D
:1059C000C7010E9419168091AC0E81110CC08CEA9F
:1059D0009EE042D5892B39F084EB9EE00E947C3515
:1059E0008CEA9EE042D52091B70E3091B80E40E08F
:1059F00050E060E0C8010E94191660E0C7010E94F3
:105A00004F1660E0C8010E944F16FE01EA56FD4F96
:105A100081E08083399610820E946C18FE01E9565D
:105A2000FD4F608371838283938360E0CE011FDF2B
:105A30008091110E81110BC081E19EE00DD5892B63
:105A400031F089E19EE015D581E19EE00ED58AE036
:105A50008093190E8091110E81110BC081E19EE09F
:105A6000FBD4892B31F089E19EE003D581E19EE0F2
:105A7000FCD46AE87BE089E19EE05CD68091AC0EC4
:105A8000811155C08CEA9EE0E7D4892B39F084EB74
:105A90009EE00E947C358CEA9EE0E7D40091B70E30
:105AA0001091B80E8091AC0E81110CC08CEA9EE072
:105AB000D3D4892B39F084EB9EE00E947C358CEAAC
:105AC0009EE0D3D4C091B50ED091B60E8091110E48
:105AD00081110BC081E19EE0BFD4892B31F089E1B7
