:1000000078C00000A0C000009EC000009CC000009E
:100010000C94AD0D0C94C40D96C000000C94DB0D37
:1000200092C0000090C000008EC000008CC0000094
:100030008AC0000088C0000086C0000084C00000A4
:100040000C946A1980C000007EC000007CC00000D3
:100050007AC000000C94CB2F76C0000074C0000062
:1000600072C0000070C000006EC000006CC00000D4
:100070006AC0000068C0000066C0000064C00000E4
:1000800062C0000060C000005EC00000E4165218AC
:100090003B188D187618F9161C17B71CBB1CBB1C17
:1000A000D41C1B1DF11C331D4B1D791D4B1DB72787
:1000B00047277A279B2723273527AB27DF27F127D9
:1000C000FB272529F529F529022A1F2A132A312A77
:1000D0003D2A792A3D2A2046534D54726176656C3B
:1000E00043616C3A3A4F6E4578697428290D0A00CD
:1000F0001A3111241FBECFEFD0E4DEBFCDBF18E010
:10010000A0E0B1E0EAEFFBE600E00BBF02C0079021
:100110000D92A23FB107D9F721E1A2EFB8E001C0EB
:100120001D92AB3CB207E1F710E0C9E7D0E004C094
:100130002197FE010E948E35C837D107C9F70E946A
:10014000942D0C94FB355CCFCF93DF93CDB7DEB706
:1001500082EF98E0FC018081882391F482EF98E09F
:100160000E94F12D21E0892B09F420E0222341F0A7
:100170008AEF98E00E94182E82EF98E00E94072EE6
:100180008AEF98E0DF91CF910895CF93DF9300D06D
:10019000CDB7DEB79A8389830F900F90DF91CF910F
:1001A0000895CF93DF9300D0CDB7DEB79A838983CC
:1001B0008CE790E020E4FC0120838AE790E027E8C8
:1001C000FC0120838EE790E02BE0FC0120830F9060
:1001D0000F90DF91CF910895CF93DF9300D01F92BE
:1001E000CDB7DEB79A8389836B838B8187708B83CE
:1001F0008CE790E02CE730E0F9012081322F307E4F
:100200002B81232BFC0120838AE790E02AE730E052
:10021000F90120812064FC01208300008AE790E03E
:10022000FC018081882F90E08074992721E0892B40
:1002300009F420E0222391F788E790E0FC01808117
:1002400091810F900F900F90DF91CF910895CF93F0
:10025000DF9300D0CDB7DEB79A83898389819A81F5
:1002600060E0BADF0F900F90DF91CF910895CF93A8
:10027000DF9300D0CDB7DEB79A83898389819A81D5
:1002800061E0AADF0F900F90DF91CF910895CF9397
:10029000DF9300D0CDB7DEB79A83898381E00F90DA
:1002A0000F90DF91CF910895CF93DF9300D0CDB71A
:1002B000DEB79A83898381E00F900F90DF91CF9111
:1002C0000895CF93DF93CDB7DEB78CEF98E0FC01B4
:1002D0008081882389F48CEF98E00E94F12D21E041
:1002E000892B09F420E0222339F080E199E019D428
:1002F0008CEF98E00E94072E80E199E0DF91CF918A
:100300000895CF93DF93CDB7DEB784E099E0FC0189
:100310008081882391F484E099E00E94F12D21E00E
:10032000892B09F420E0222341F08CE099E00E941F
:10033000010F84E099E00E94072E8CE099E0DF91A4
:10034000CF910895CF93DF9300D0CDB7DEB79A83D6
:10035000898389819A81FC01108289819A81019621
:1003600029813A81B9010E94992689819A8143960F
:1003700029813A81B9010E943E2889819A818A5354
:100380009D4F29813A81B9010E946D1B89819A8113
:100390008D5C9C4F29813A81B9010E94E8238981B3
:1003A0009A81835C9C4F29813A81B9010E9444253E
:1003B00089819A81895B9C4F29813A81B9010E9488
:1003C000512289819A81815A9C4FFC0111821082AD
:1003D00089819A818B599C4FFC0110821182128273
:1003E000138289819A8187599C4FFC011082118266
:1003F0001282138289819A8183599C4FFC01108259
:1004000089819A8182599C4FFC01108289819A814D
:1004100081599C4FFC01108289819A8180599C4F9F
:10042000FC01108289819A819C012F5F3F4F898155
:100430009A818F5A9C4FFC013183208389819A8154
:100440009C012D5E3F4F89819A818D5A9C4FFC0102
:100450003183208389819A819C01235D3C4F89816E
:100460009A818B5A9C4FFC013183208389819A8128
:100470009C012D5C3C4F89819A81895A9C4FFC01DB
:100480003183208389819A819C01235C3C4F89813F
:100490009A81875A9C4FFC013183208389819A81FC
:1004A0009C01295B3C4F89819A81855A9C4FFC01B4
:1004B000318320830F900F90DF91CF9108950F9398
:1004C0001F93CF93DF9300D01F92CDB7DEB79B83EE
:1004D0008A838A819B81815A9C4FFC018081918112
:1004E0002A813B81880F991F820F931F8F5A9C4F3F
:1004F000FC0180819181FC0180819181FC0120813E
:1005000031818A819B81815A9C4FFC01808191813C
:100510004A815B81880F991F840F951F8F5A9C4FCA
:10052000FC0180819181F90109950E944719DC0144
:10053000CB012A813B812F593C4FF9018083918364
:10054000A283B3838A819B8162E070E036D0B9DEFA
:100550000E946B0D89838981082F10E0F5DD6AE325
:1005600071E00E94B22FB8010E94992F64E471E0FB
:100570000E94B22F8A819B8182599C4F21E0FC010D
:100580002083BFDE0E94D80F9CDE0E94B10C99DE52
:100590000E94410D8981882321F093DE21E0FC0136
:1005A00022838A819B81FC0110820F900F900F9013
:1005B000DF91CF911F910F9108950F931F93CF93C8
:1005C000DF9300D000D0CDB7DEB79A8389837C83D8
:1005D0006B838B819C810297ACF08B819C81880F0F
:1005E000991F80509F4FFC0100811181ADDD66E4B1
:1005F00071E00E94B22FB8010E94B22F64E471E052
:100600000E94B22F89819A81815A9C4FFC0180817E
:10061000918129813A81880F991F820F931F8F5AE8
:100620009C4FFC0180819181FC0180819181029627
:10063000FC012081318189819A81815A9C4FFC0182
:100640008081918149815A81880F991F840F951F5C
:100650008F5A9C4FFC01808191814B815C81BA0152
:10066000F90109950F900F900F900F90DF91CF91A6
:100670001F910F910895CF93DF9300D000D000D049
:10068000CDB7DEB79A8389837C836B835E834D838A
:1006900080914709882329F057DD68E571E00E94C1
:1006A000B22F81E08093470989819A81815A9C4FBA
:1006B000FC01208131818B819C812817390709F445
:1006C000ADC08B819C8107970CF098C089819A817D
:1006D000815A9C4FFC018081918129813A81880F48
:1006E000991F820F931F8F5A9C4FFC01808191812B
:1006F000FC01808191810496FC01208131818981F6
:100700009A81815A9C4FFC018081918149815A8153
:10071000880F991F840F951F8F5A9C4FFC01808171
:100720009181F901099589819A81815A9C4F2B8188
:100730003C81FC013183208389819A81815A9C4FBD
:10074000FC018081918129813A81880F991F820F54
:10075000931F8F5A9C4FFC0180819181FC01808105
:100760009181FC012081318189819A81815A9C4F3C
:10077000FC018081918149815A81880F991F840FE2
:10078000951F8F5A9C4FFC0180819181F901099539
:100790008D819E81892B09F441C089819A81815A7A
:1007A0009C4FFC018081918129813A81880F991F9A
:1007B000820F931F8F5A9C4FFC0180819181FC0115
:1007C000808191810296FC012081318189819A8109
:1007D000815A9C4FFC018081918149815A81880F07
:1007E000991F840F951F8F5A9C4FFC018081918126
:1007F0004D815E81BA01F901099510C0A5DC62E85E
:1008000071E00E94B22F9C018B819C81BC01C901C7
:100810000E94992F64E471E00E94B22F1092470960
:1008200026960FB6F894DEBF0FBECDBFDF91CF91F5
:1008300008951F93CF93DF9300D0CDB7DEB79A838F
:10084000898380915009882329F17EDC65E971E074
:100850000E94B22F0E944719DC01CB0129813A8105
:100860002B593C4FF90180839183A283B38329DD07
:100870000E946B0D282F89819A8181599C4FFC0120
:1008800020831092500989819A8182599C4F21E0DE
:10089000FC01208389819A8182599C4FFC018081CF
:1008A000882309F458C089819A818B599C4FFC0197
:1008B00080819181A281B3819C01AD0168EE73E0DA
:1008C00080E090E00E941519882309F444C03CDCC4
:1008D00067EA71E00E94B22F89819A8182599C4F08
:1008E000FC01108289819A8181599C4FFC01108101
:1008F000E8DC0E946B0D982F81E0191709F080E069
:10090000882349F189819A8181599C4FFC0180811A
:10091000882389F019DC61EC71E00E94B22F898193
:100920009A8168E070E049DE89819A8180599C4F04
:10093000FC01108210C008DC62ED71E00E94B22F51
:1009400089819A8169E070E038DE89819A818059D5
:100950009C4FFC01108280915109882369F010920C
:100960005109F2DB64EE71E00E94B22F89819A8115
:100970006AE070E022DE2DC0A4DCE5D1882329F0F6
:1009800089819A8162E070E018DE9BDC44D2882382
:1009900029F089819A8163E070E00FDE92DC7DD2DC
:1009A000882329F089819A8164E070E006DE89DC81
:1009B000B7D2882329F089819A8166E070E0FDDD55
:1009C00080DC03D3882329F089819A8165E070E077
:1009D000F4DD77DC4FD3882349F089819A81FC01CB
:1009E000108289819A8167E070E0E7DD0F900F90B7
:1009F000DF91CF911F910895CF93DF9300D0CDB7B2
:100A0000DEB79A8389835DDC59D189819A8111DFB0
:100A100089819A818F599C4FFC0180819181A281AB
:100A2000B3819C01AD0162E370E080E090E00E9440
:100A300015198823B9F045DCFC018281882329F04F
:100A400089819A8161E070E0B8DD0E944719DC017C
:100A5000CB0129813A812F593C4FF9018083918341
:100A6000A283B3830F900F90DF91CF910895CF931E
:100A7000DF9300D0CDB7DEB79A83898389819A81CD
:100A8000FC01908181E0992309F480E00F900F90A0
:100A9000DF91CF910895CF93DF9300D0CDB7DEB72C
:100AA0009A83898389819A81FC018081882F90E0D3
:100AB0000F900F90DF91CF910895CF93DF9300D0E7
:100AC000CDB7DEB79A83898389819A81FC0111AA07
:100AD00089819A81FC0112AA0F900F90DF91CF912A
:100AE0000895CF93DF93CDB7DEB788E499E0FC019A
:100AF0008081882389F488E499E00E94F12D21E027
:100B0000892B09F420E0222339F08DE599E03DDBC3
:100B100088E499E00E94072E8DE599E0DF91CF915E
:100B20000895CF93DF9300D0CDB7DEB79A83898342
:100B300089819A81FC01128289819A81FC01138248
:100B400089819A8104960E94971989819A810D96CC
:100B50000E94971989819A8146960E9497198981E6
:100B60009A814F960E94971989819A8188960E944E
:100B7000971989819A81FC0111AA89819A81FC01C6
:100B800012AA0F900F90DF91CF910895CF93DF932A
:100B900000D0CDB7DEB79A83898381E290E02CE064
:100BA000FC01208384E290E020EFFC0120838AE2B4
:100BB00090E022E0FC0120830F900F90DF91CF9115
:100BC0000895CF93DF9300D0CDB7DEB79A838983A2
:100BD00082E290E020EFFC01208385E290E0FC01BE
:100BE00010828BE290E0FC0110820F900F90DF9159
:100BF000CF910895CF93DF9300D0CDB7DEB79A831E
:100C0000898389819A81C2DF89819A81DADF89812A
:100C10009A81889642E063E00E94BF1989819A8197
:100C20000D9644E063E00E94BF1989819A81049681
:100C300045E063E00E94BF1989819A814F9646E0A2
:100C400063E00E94BF1989819A81469647E063E07C
:100C50000E94BF1989819A8163D189819A81B5D116
:100C600089819A8170D089819A81F6D089819A810F
:100C7000D2D089819A81FED189819A810ED18981D0
:100C80009A811BDF89819A813ED00E944719DC013D
:100C9000CB0129813A81F90183AB94ABA5ABB6AB0B
:100CA00083E590E023E530E0F90120812160FC013B
:100CB00020830F900F90DF91CF910895CF93DF9312
:100CC00000D0CDB7DEB79A83898389819A810D964A
:100CD0000E946F1A89819A8104960E946F1A8981F5
:100CE0009A814F960E946F1A89819A8146960E9436
:100CF0006F1A89819A8188960E946F1A0F900F90BF
:100D0000DF91CF910895CF93DF9300D0CDB7DEB7B9
:100D10009A8389838BE690E024E0FC0120838CE6B3
:100D200090E027E1FC01208383E790E028EEFC01BE
:100D3000208388E690E02BE0FC0120830F900F9049
:100D4000DF91CF910895EF92FF920F931F93CF936E
:100D5000DF9300D01F92CDB7DEB79B838A838A8151
:100D60009B810D9684DE282F9091520981E02917EE
:100D700009F480E089838A819B81049678DE282F9C
:100D80009091530981E0291709F480E09981292F76
:100D900030E0882F90E0822B932B21E0892B09F4FF
:100DA00020E029838A819B810D9661DE8093520920
:100DB0008A819B8104965BDE809353098981882315
:100DC000F9F08A819B81049652DE082F10E08A8117
:100DD0009B810D964CDEE82EF12CB6D963E972E0CA
:100DE0000E94B22FB7010E94992F6BE972E00E9416
:100DF000B22FB8010E94992F6EE972E00E94B22FC3
:100E000089810F900F900F90DF91CF911F910F91DB
:100E1000FF90EF900895CF93DF9300D000D0CDB72F
:100E2000DEB79C838B8383E290E0FC018081877135
:100E300089832091540981E09981291709F480E080
:100E40008A838981809354098A810F900F900F9033
:100E50000F90DF91CF910895CF93DF9300D000D012
:100E6000CDB7DEB79C838B8383E290E0FC01808169
:100E7000847289832091550981E09981291709F4A9
:100E800080E08A838981809355098A810F900F9031
:100E90000F900F90DF91CF910895CF93DF9300D003
:100EA00000D01F92CDB7DEB79D838C8383E290E0A4
:100EB000FC018081882F90E08170992721E0892BA7
:100EC00009F420E0298383E290E0FC018081882FEF
:100ED00090E08270992721E0892B09F420E02A8391
:100EE000909156098981981729F4909157098A8120
:100EF000981711F081E001C080E08B838B818823FB
:100F000031F08981809356098A81809357098B81BA
:100F10000F900F900F900F900F90DF91CF91089549
:100F20000F931F93CF93DF9300D000D0CDB7DEB7E0
:100F30009C838B8383E290E0FC018081882F90E08A
:100F40008870992721E0892B09F420E0298380917A
:100F50005809082F10E08B819C8146969CDD21E08A
:100F6000892B09F420E0822F90E021E0081719076F
:100F700009F420E02A838A81282F30E04091590922
:100F800081E09981491709F480E0882F90E0822B55
:100F9000932B21E0892B09F420E02A838B819C810B
:100FA000469679DD21E0892B09F420E02093580949
:100FB0008981809359098A810F900F900F900F902B
:100FC000DF91CF911F910F9108950F931F93CF93AE
:100FD000DF9300D000D0CDB7DEB79C838B8383E254
:100FE00090E0FC018081882F90E08470992721E0B7
:100FF000892B09F420E0298380915A09082F10E0F9
:101000008B819C814F9647DD21E0892B09F420E0FC
:10101000822F90E021E00817190709F420E02A83C5
:101020008A81282F30E040915B0981E0998149173E
:1010300009F480E0882F90E0822B932B21E0892B0C
:1010400009F420E02A838B819C814F9624DD21E0E6
:10105000892B09F420E020935A09898180935B0948
:101060008A810F900F900F900F90DF91CF911F9179
:101070000F9108950F931F93CF93DF9300D01F928A
:10108000CDB7DEB79B838A8319828A819B8188963C
:1010900002DD21E0892B09F020E02223A1F08091DC
:1010A0005C09082F10E08A819B818896F4DC21E09E
:1010B000892B09F420E0822F90E021E0081719071E
:1010C00009F420E029838A819B818896E4DC21E071
:1010D000892B09F420E020935C0989810F900F90FF
:1010E0000F90DF91CF911F910F910895CF93DF93D0
:1010F00000D0CDB7DEB79A83898389819A8104961F
:10110000B6DC982F81E08927882309F442C01CD8D7
:1011100060EA72E00E94B22F89819A81FC0181A964
:10112000882381F011D86AEA72E00E94B22F898187
:101130009A815BD389819A81F8D289819A81FC0155
:1011400011AA27C089819A81FC0182A9882381F094
:101150000E94A40064EB72E00E94B22F89819A8100
:1011600074D389819A8111D389819A81FC0112AA51
:101170000E94A4006EEB72E00E94B22F89819A81D6
:101180001CD389819A81B9D289819A8121E0FC019D
:1011900021AB89819A810D966ADC982F81E089279D
:1011A000882309F44CC00E94A40067EC72E00E94FE
:1011B000B22F89819A81FC0182A9882389F00E943B
:1011C000A40064EB72E00E94B22F89819A813DD322
:1011D00089819A81DAD289819A81FC0112AA2FC071
:1011E00089819A81FC0181A9882381F00E94A40051
:1011F0006AEA72E00E94B22F89819A81F6D28981CF
:101200009A8193D289819A81FC0111AA0E94A4003B
:1012100064ED72E00E94B22F64DC39D8882319F0A3
:1012200089819A81FAD25DDC3FD8882319F08981BF
:101230009A8193D289819A8121E0FC0122AB0F909F
:101240000F90DF91CF910895CF93DF9300D000D01E
:1012500000D0CDB7DEB79E838D8380E290E0FC01A5
:101260008081881F8827881F898380E290E0FC01A5
:101270008081882F90E08074992721E0892B09F4E0
:1012800020E02A8380E290E0FC018081882F90E0BA
:101290008072992721E0892B09F420E02B8380E2DA
:1012A00090E0FC018081882F90E08071992721E0F7
:1012B000892B09F420E02C838A81882349F08D81D1
:1012C0009E817BD28D819E8121E0FC0121AB07C0F4
:1012D0008D819E818AD28D819E81FC0111AA8C8193
:1012E000882349F08D819E8108D28D819E8121E0E5
:1012F000FC0121AB07C08D819E8117D28D819E811B
:10130000FC0111AA8981882371F0EBDB0E9447015F
:101310008823A9F08D819E8180D28D819E8121E0DC
:10132000FC0122AB0CC0DDDB0E945401882339F0A4
:101330008D819E818AD28D819E81FC0112AA8B8132
:10134000882371F0CEDB0E945401882381F08D81C7
:101350009E8103D28D819E8121E0FC0122AB07C0DA
:101360008D819E8112D28D819E81FC0112AA2696CA
:101370000FB6F894DEBF0FBECDBFDF91CF910895B9
:10138000CF93DF9300D000D0CDB7DEB79C838B83A3
:1013900083E290E0FC018081882F90E081709927A2
:1013A00021E0892B09F420E0298383E290E0FC010D
:1013B0008081882F90E08270992721E0892B09F4A1
:1013C00020E02A838981882381F18B819C81FC0123
:1013D00081A9882359F08B819C8107D28B819C81C4
:1013E000A4D18B819C81FC0111AA1FC08B819C819F
:1013F000FC0182A9882351F08B819C8126D28B81AC
:101400009C81C3D18B819C81FC0112AA8B819C8120
:10141000D4D18B819C8171D18B819C8121E0FC0195
:1014200021AB8B819C81FC0112AA8A81882309F45B
:1014300036C08B819C81FC0182A9882359F08B8165
:101440009C8103D28B819C81A0D18B819C81FC01EA
:1014500012AA25C08B819C81FC0181A9882351F0AF
:101460008B819C81C2D18B819C815FD18B819C813E
:10147000FC0111AA36DB0E944701882319F08B81F9
:101480009C81CBD12EDB0E945401882319F08B81E3
:101490009C8163D18B819C8121E0FC0122AB0F9068
:1014A0000F900F900F90DF91CF910895CF93DF931E
:1014B00000D000D0CDB7DEB79C838B8383E290E071
:1014C000FC018081882F90E08870992721E0892B8A
:1014D00009F420E02A8319828B819C814696C7DA21
:1014E000982F81E08927882319F48A81882311F0B5
:1014F00081E001C080E0882311F081E08983898147
:101500000F900F900F900F90DF91CF910895CF9390
:10151000DF9300D000D0CDB7DEB79C838B8383E20E
:1015200090E0FC018081882F90E08470992721E071
:10153000892B09F420E02A8319828B819C814F96A4
:1015400096DA982F81E08927882319F48A818823E5
:1015500011F081E001C080E0882311F081E08983EF
:1015600089810F900F900F900F90DF91CF91089588
:10157000CF93DF9300D0CDB7DEB79A83898389817B
:101580009A81D3D089819A8100D189819A812DD184
:1015900089819A815AD10F900F90DF91CF91089550
:1015A000CF93DF9300D000D0CDB7DEB79A83898385
:1015B0007C836B8380911601909117012B813C8174
:1015C0002817390709F445C08B819C819093170136
:1015D000809316010E94A4006DED72E00E94B22F6C
:1015E0008B819C818130910531F082309105E9F049
:1015F000892B71F027C00E94A40065EE72E00E9462
:10160000B22F89819A8191D089819A81A6D021C0F7
:101610000E94A4006CEE72E00E94B22F89819A8130
:10162000B4D089819A8169D014C00E94A40063EF6C
:1016300072E00E94B22F89819A8177D089819A8144
:10164000A4D007C089819A8170D089819A819DD068
:1016500000C00F900F900F900F90DF91CF910895E1
:10166000CF93DF9300D000D0CDB7DEB79A838983C4
:101670007C836B8380911801909119012B813C81AF
:101680002817390799F18B819C81909319018093D8
:1016900018010E94A4006AEF72E00E94B22F8B81B1
:1016A0009C818130910531F08230910589F0892B40
:1016B00041F015C089819A8198D089819A81ADD0F5
:1016C00015C089819A8179D089819A81BED00EC056
:1016D00089819A818AD089819A81B7D007C089810E
:1016E0009A8183D089819A81B0D000C00F900F90E9
:1016F0000F900F90DF91CF910895CF93DF9300D09B
:10170000CDB7DEB79A83898385E290E025E230E0A9
:10171000F90120812061FC0120830E948101B8D35E
:101720000F900F90DF91CF910895CF93DF9300D06A
:10173000CDB7DEB79A83898385E290E025E230E079
:10174000F90120812F7EFC0120830E948101C4D3F6
:101750000F900F90DF91CF910895CF93DF9300D03A
:10176000CDB7DEB79A83898385E290E025E230E049
:10177000F90120812062FC0120830E948101D0D3E5
:101780000F900F90DF91CF910895CF93DF9300D00A
:10179000CDB7DEB79A83898385E290E025E230E019
:1017A000F90120812F7DFC0120830E948101DCD37F
:1017B0000F900F90DF91CF910895CF93DF9300D0DA
:1017C000CDB7DEB79A83898385E290E025E230E0E9
:1017D000F90120812064FC0120830E94810130D422
:1017E0000F900F90DF91CF910895CF93DF9300D0AA
:1017F000CDB7DEB79A83898385E290E025E230E0B9
:10180000F90120812F7BFC0120830E9481013CD4BF
:101810000F900F90DF91CF910895CF93DF9300D079
:10182000CDB7DEB79A83898385E290E025E230E088
:10183000F90120812068FC0120830E94810148D4A5
:101840000F900F90DF91CF910895CF93DF9300D049
:10185000CDB7DEB79A83898385E290E025E230E058
:10186000F90120812F77FC0120830E94810154D44B
:101870000F900F90DF91CF910895EF92FF920F9309
:101880001F93CF93DF9300D01F92CDB7DEB79B831A
:101890008A8319828A819B81FC0182A9082F10E02A
:1018A0008A819B81FC0181A9E82EF12C0E94A40071
:1018B00061E073E00E94B22FB7010E94992F6BE99B
:1018C00072E00E94B22FB8010E94992F6EE972E077
:1018D0000E94B22F8A819B81FC0191A981E0892716
:1018E000882351F08A819B81FC0192A981E089279C
:1018F000882311F081E0898389810F900F900F90E8
:10190000DF91CF911F910F91FF90EF900895CF93AA
:10191000DF9300D0CDB7DEB79A83898382E290E06F
:1019200022E230E0F90120812460FC0120830F9045
:101930000F90DF91CF910895CF93DF9300D0CDB773
:10194000DEB79A83898382E290E022E230E0F901F7
:1019500020812B7FFC0120830F900F90DF91CF918E
:101960000895CF93DF9300D0CDB7DEB79A838983F4
:1019700082E290E022E230E0F90120812860FC015F
:1019800020830F900F90DF91CF910895CF93DF9335
:1019900000D0CDB7DEB79A83898382E290E022E25D
:1019A00030E0F9012081277FFC0120830F900F9008
:1019B000DF91CF910895CF93DF9300D0CDB7DEB7FD
:1019C0009A8389830E94810142D289819A81FC0194
:1019D000128289819A81CCDD89819A81D7DF8981C0
:1019E0009A81AADF84E690E0FC01808184E690E0A1
:1019F0002FEFFC01208385E690E025E630E0F90139
:101A000020812160FC01208389819A81FC0111AA37
:101A100089819A81FC0112AAF89483E590E023E57C
:101A200030E0F9012081217F2460FC01208383E5DF
:101A300090E023E530E0F90120812160FC01208362
:101A40007894889584E690E0FC01808184E690E0BB
:101A5000FC01108285E690E025E630E0F901208166
:101A60002E7FFC01208383E590E023E530E0F9013F
:101A700020812E7FFC0120830F900F90DF91CF916A
:101A80000895CF93DF9300D0CDB7DEB79A838983D3
:101A900089819A813CDF89819A8163DF0E9481017B
:101AA000C7D10E948101C4D10E948101C1D10E948D
:101AB0008101BED10E94810164E65ED10E94810154
:101AC00077D289819A8121E0FC0122830F900F90C7
:101AD000DF91CF910895CF93DF9300D01F92CDB7C0
:101AE000DEB79B838A8389E290E0FC018081898351
:101AF0008981882F90E08870992721E0892B09F44B
:101B000020E0822F0F900F900F90DF91CF910895DA
:101B1000CF93DF9300D0CDB7DEB79A8389838981D5
:101B20009A81FC0181A9882339F089819A8145DE57
:101B300089819A81E2DD0CC089819A81FC0182A9A8
:101B4000882331F089819A8180DE89819A811DDE26
:101B50000F900F90DF91CF9108951F920F920090F8
:101B60005F000F9211248F93CF93DF93CDB7DEB731
:101B700081E080935009DF91CF918F910F90009277
:101B80005F000F901F9018951F920F9200905F00BA
:101B90000F9211248F93CF93DF93CDB7DEB781E0FF
:101BA00080935109DF91CF918F910F9000925F0048
:101BB0000F901F9018951F920F9200905F000F9248
:101BC00011248F93CF93DF93CDB7DEB781E080935D
:101BD0005109DF91CF918F910F9000925F000F908C
:101BE0001F901895CF93DF9300D0CDB7DEB79A83BF
:101BF000898389819A812CE0FC01208389819A81E3
:101C00002DE0FC0121830E94A02A0F900F90DF910C
:101C1000CF910895CF93DF9300D01F92CDB7DEB759
:101C20009A83898380E40E94F12C982F81E0992384
:101C300009F080E0882309F497C080E80E944B2DCA
:101C4000982F81E0992309F080E0882309F48CC063
:101C500080E80E944B2D982F81E0992309F080E0C5
:101C6000882309F481C080E00E944B2D982F81E0E9
:101C7000992309F080E0882309F476C08FEF0E9451
:101C80004B2D982F81E0992309F080E0882309F4F7
:101C90006BC08FEF0E944B2D982F81E0992309F0A4
:101CA00080E0882309F460C08FEF0E944B2D982FAD
:101CB00081E0992309F080E0882309F455C08FEF73
:101CC0000E944B2D982F81E0992309F080E0882312
:101CD00009F44AC08FEF0E944B2D982F81E0992381
:101CE00009F080E0882309F43FC08FEF0E944B2D5C
:101CF000982F81E0992309F080E08823A9F18FEFE4
:101D00000E944B2D982F81E0992309F080E08823D1
:101D100059F18FEF0E944B2D982F81E0992309F004
:101D200080E0882309F18FEF0E944B2D982F81E0EE
:101D3000992309F080E08823B9F080E00E944B2DC0
:101D4000982F81E0992309F080E0882369F080E0F2
:101D50000E944B2D982F81E0992309F080E0882381
:101D600019F080E00E944B2D0E943E2D0F900F90A5
:101D70000F90DF91CF910895CF93DF9300D01F9202
:101D8000CDB7DEB79A8389836B8389819A814B8132
:101D90006AE006D00F900F900F90DF91CF910895D9
:101DA000CF93DF9300D000D0CDB7DEB79A8389837D
:101DB0006B834C8380E40E94F12C982F81E099235F
:101DC00009F080E08823B1F08B810E944B2D982F81
:101DD00081E0992309F080E0882361F08C810E94E2
:101DE0004B2D982F81E0992309F080E0882311F092
:101DF0000E943E2D0F900F900F900F90DF91CF918A
:101E00000895CF93DF9300D0CDB7DEB79A8389834F
:101E100089819A81E7DE89819A81FC011282898118
:101E20009A81FC0113820F900F90DF91CF9108955A
:101E3000CF93DF9300D0CDB7DEB79A8389838981B2
:101E40009A81E8DE0F900F90DF91CF910895CF93A4
:101E5000DF9300D0CDB7DEB79A83898389819A81D9
:101E60003BD089819A8180D089819A81C5D089812E
:101E70009A810AD189819A814FD189819A8194D19D
:101E800089819A81D9D10F900F90DF91CF910895D8
:101E9000CF93DF9300D0CDB7DEB79A838983898152
:101EA0009A81FC01928180E3292F282B89819A81D4
:101EB000FC01228389819A81FC01328189819A8186
:101EC000FC01208189819A81432F622F69DF0F9065
:101ED0000F90DF91CF910895CF93DF9300D0CDB7CE
:101EE000DEB79A83898389819A81FC0192818FEC84
:101EF000292F282389819A81FC01228389819A8153
:101F0000FC01328189819A81FC01208189819A8139
:101F1000432F622F45DF0F900F90DF91CF910895EF
:101F2000CF93DF9300D0CDB7DEB79A8389838981C1
:101F30009A81FC0193818CE0292F282B89819A8139
:101F4000FC01238389819A81FC01338189819A81F3
:101F5000FC01218189819A81432F622F21DF0F901B
:101F60000F90DF91CF910895CF93DF9300D0CDB73D
:101F7000DEB79A83898389819A81FC01938183EFFB
:101F8000292F282389819A81FC01238389819A81C1
:101F9000FC01338189819A81FC01218189819A81A7
:101FA000432F622FFDDE0F900F90DF91CF910895A8
:101FB000CF93DF9300D0CDB7DEB79A838983898131
:101FC0009A81FC01938180EC292F282B89819A81A9
:101FD000FC01238389819A81FC01338189819A8163
:101FE000FC01218189819A81432F622FD9DE0F90D4
:101FF0000F90DF91CF910895CF93DF9300D0CDB7AD
:10200000DEB79A83898389819A81FC0193818FE36A
:10201000292F282389819A81FC01238389819A8130
:10202000FC01338189819A81FC01218189819A8116
:10203000432F622FB5DE0F900F90DF91CF9108955F
:10204000CF93DF9300D0CDB7DEB79A8389838981A0
:102050009A81FC01928180EC292F282B89819A8119
:10206000FC01228389819A81FC01328189819A81D4
:10207000FC01208189819A81432F622F91DE0F908C
:102080000F90DF91CF910895CF93DF9300D0CDB71C
:10209000DEB79A83898389819A81FC0192818FE3DB
:1020A000292F282389819A81FC01228389819A81A1
:1020B000FC01328189819A81FC01208189819A8188
:1020C000432F622F6DDE0F900F90DF91CF91089517
:1020D000CF93DF9300D0CDB7DEB79A838983898110
:1020E0009A81FC01938180E3292F282B89819A8191
:1020F000FC01238389819A81FC01338189819A8142
:10210000FC01218189819A81432F622F49DE0F9042
:102110000F90DF91CF910895CF93DF9300D0CDB78B
:10212000DEB79A83898389819A81FC0193818FEC40
:10213000292F282389819A81FC01238389819A810F
:10214000FC01338189819A81FC01218189819A81F5
:10215000432F622F25DE0F900F90DF91CF910895CE
:10216000CF93DF9300D0CDB7DEB79A83898389817F
:102170009A81FC01938183E0292F282B89819A8100
:10218000FC01238389819A81FC01338189819A81B1
:10219000FC01218189819A81432F622F01DE0F90FA
:1021A0000F90DF91CF910895CF93DF9300D0CDB7FB
:1021B000DEB79A83898389819A81FC0193818CEFB0
:1021C000292F282389819A81FC01238389819A817F
:1021D000FC01338189819A81FC01218189819A8165
:1021E000432F622FDDDD0F900F90DF91CF91089587
:1021F000CF93DF9300D0CDB7DEB79A8389838981EF
:102200009A81FC0192818CE0292F282B89819A8167
:10221000FC01228389819A81FC01328189819A8122
:10222000FC01208189819A81432F622FB9DD0F90B3
:102230000F90DF91CF910895CF93DF9300D0CDB76A
:10224000DEB79A83898389819A81FC01928183EF29
:10225000292F282389819A81FC01228389819A81EF
:10226000FC01328189819A81FC01208189819A81D6
:10227000432F622F95DD0F900F90DF91CF9108953E
:10228000CF93DF9300D01F92CDB7DEB79A838983B7
:102290006B8389819A8127E030E0FC0131832083C0
:1022A00089819A8123E230E0FC01338322832981F2
:1022B0003A8184E690E0A0E0B0E0F901858396835E
:1022C000A783B08789819A81FC01118629813A818F
:1022D0008AEF90E0A0E0B0E0F90182A393A3A4A369
:1022E000B5A389819A8124E630E0FC0130A727A3B9
:1022F00089819A812CE933E0FC0132A721A78981E9
:102300009A81815F9E4FFC01108289819A81865E4D
:102310009E4FFC011082BBD7DC01CB0129813A81A1
:10232000F90182879387A487B58789819A81CAD06A
:10233000DC01CB01BA2FA92F982F882729813A8158
:10234000F90186879787A08BB18BA1D7DC01CB01E0
:1023500029813A81F901828F938FA48FB58F0F90D5
:102360000F900F90DF91CF910895CF93DF9300D01E
:1023700000D01F92CDB7DEB79C838B836D838B819A
:102380009C81885E9E4FFC01118210828B819C8112
:102390002D81FC0124838B819C81805F9E4FFC01F9
:1023A000118210828B819C818E5E9E4FFC01118276
:1023B00010828B819C81855E9E4FFC011082118270
:1023C000128213828B819C81A0D28B819C817AD0D6
:1023D000DC01CB012B813C81215E3E4FF9018083E2
:1023E0009183A283B38353D7DC01CB012B813C8142
:1023F0002D5D3E4FF90180839183A283B3838B814E
:102400009C81815B9E4FFC01118210821A8219828D
:102410001DC08B819C812AD0092E000CAA0BBB0BFE
:102420004B815C8129813A81220F331F220F331F98
:10243000240F351F295D3E4FF90180839183A283CC
:10244000B38389819A8101969A83898389819A814C
:102450000A97FCF28B819C8160E0D2D10F900F90A3
:102460000F900F900F90DF91CF910895CF93DF934E
:1024700000D000D0CDB7DEB79C838B831A8219823F
:102480008B819C81FC018481882F90E0009719F05A
:10249000019741F00EC00E9471050E9427019A83A6
:1024A000898307C00E9471050E9437019A8389833E
:1024B000000089819A810F900F900F900F90DF910B
:1024C000CF910895EF92FF920F931F93CF93DF93D5
:1024D000CDB7DEB760970FB6F894DEBF0FBECDBFA5
:1024E0009C878B8719821A821B821C828B859C8514
:1024F000BDDF092E000CAA0BBB0B8F839887A98721
:10250000BA878B859C85815B9E4FFC018081918180
:10251000AC014F5F5F4F2B853C85215B3E4FF9013E
:10252000518340832B853C85880F991F880F991F05
:10253000820F931F9C01295D3E4F8F819885A9854D
:10254000BA85F90180839183A283B3838B859C85AF
:10255000815B9E4FFC01808191810A973CF08B85C5
:102560009C85815B9E4FFC01118210821E821D8220
:1025700022C02B853C858D819E81880F991F880FF5
:10258000991F820F931F895D9E4FFC01808191816D
:10259000A281B38129813A814B815C81820F931F93
:1025A000A41FB51F89839A83AB83BC838D819E81D1
:1025B00001969E838D838D819E810A97D4F28981B5
:1025C0009A81AB81BC812AE030E040E050E0BC0160
:1025D000CD010E947235DA01C90189839A83AB83E8
:1025E000BC838B859C858D5D9E4FFC018081918194
:1025F000A281B3819C01AD0168EE73E080E090E0C0
:1026000014D6882309F469C08B859C85815E9E4F12
:10261000FC01208131814281538189819A81AB8182
:10262000BC81281739074A075B07FCF48B859C851A
:10263000815E9E4FFC0180819181A281B3812981BD
:102640003A814B815C8179018A01E81AF90A0A0B07
:102650001B0BD801C7012B853C85255E3E4FF90138
:1026600080839183A283B3831EC08B859C85815E0A
:102670009E4FFC01208131814281538189819A8161
:10268000AB81BC8179018A01E81AF90A0A0B1B0B9C
:10269000D801C7012B853C85255E3E4FF90180831B
:1026A0009183A283B3838B859C859C01215E3E4FE1
:1026B00089819A81AB81BC81F90180839183A28356
:1026C000B383E5D5DC01CB012B853C852D5D3E4FE9
:1026D000F90180839183A283B38389819A81AB813D
:1026E000BC81BC01CD0160960FB6F894DEBF0FBE71
:1026F000CDBFDF91CF911F910F91FF90EF90089583
:10270000CF93DF9300D0CDB7DEB79A8389838981D9
:102710009A81FC018481882F90E0009719F001973D
:1027200029F009C00E94610148D805C00E946101DA
:102730000E947D0B00000F900F90DF91CF910895C4
:10274000CF93DF9300D0CDB7DEB79A838983898199
:102750009A81FC018481882F90E0009719F00197FD
:1027600029F009C00E94610140D805C00E946101A2
:102770000E94950B00000F900F90DF91CF9108956C
:10278000CF93DF9300D0CDB7DEB79A838983898159
:102790009A81FC018481882F90E0009719F00197BD
:1027A00029F009C00E94610138D805C00E9461016A
:1027B0000E94AD0B00000F900F90DF91CF91089514
:1027C000CF93DF9300D0CDB7DEB79A838983898119
:1027D0009A81FC018481882F90E0009719F001977D
:1027E00029F009C00E94610130D805C00E94610132
:1027F0000E94C50B00000F900F90DF91CF910895BC
:102800000F931F93CF93DF9300D01F92CDB7DEB706
:102810009A8389836B830E94A4006BE073E00E941B
:10282000B22F89819A81FC018481882F90E0880FE2
:10283000991F865E9E4FFC01008111810E94A400B9
:10284000B8010E94B22F8B81882F90E0880F991FCA
:10285000825E9E4FFC01008111810E94A400B8019C
:102860000E94B22F0E94A40064E173E00E94B22F84
:1028700089819A812B81FC0121870F900F900F9005
:10288000DF91CF911F910F910895CF93DF9300D0E7
:10289000CDB7DEB79A83898389819A8151DF898197
:1028A0009A8165E0ADDF89819A812FD0F0D4DC0177
:1028B000CB0129813A81F901828B938BA48BB58B53
:1028C0000F900F90DF91CF910895CF93DF9300D0B9
:1028D000CDB7DEB79A83898389819A8171DF898137
:1028E0009A8165E08DDF89819A810FD0D0D4DC0197
:1028F000CB0129813A81F901828B938BA48BB58B13
:102900000F900F90DF91CF910895CF93DF93CDB7C4
:10291000DEB72C970FB6F894DEBF0FBECDBF9C87F5
:102920008B878B859C85A2DD092E000CAA0BBB0B27
:102930008B839C83AD83BE838B819C81AD81BE8163
:10294000BA2FA92F982F88272B853C85F9018687D8
:102950009787A08BB18B1A82198214C02B813C817E
:102960004B855C8589819A81880F991F840F951FFB
:1029700089509F4FFC013183208389819A81019680
:102980009A83898389819A810A9744F31A821982EA
:1029900013C02B813C814B855C8589819A81880F8E
:1029A000991F840F951F8B96FC01318320838981A9
:1029B0009A8101969A83898389819A8184369105C7
:1029C00044F38B859C85FC0186859785A089B18918
:1029D000892F9A2FAB2FBB27A7FDBA958F83988796
:1029E000A987BA870E94A40068E173E00E94B22F11
:1029F0009C018B819C81AD81BE81AC01BD01C9016F
:102A00000E94772F66E273E00E94B22F9C018F81B3
:102A10009885A985BA85AC01BD01C9010E94772FAF
:102A20006DE273E00E94B22F2C960FB6F894DEBFD1
:102A30000FBECDBFDF91CF910895CF93DF9300D02C
:102A40001F92CDB7DEB79A8389836B8389819A8180
:102A5000815F9E4FFC01908181E08927882331F0BE
:102A60008B81882319F089819A814FDF89819A812E
:102A7000815F9E4F2B81FC01208389819A81865E34
:102A80009E4FFC0110828B81882361F029813A815D
:102A900088E893E1A0E0B0E0F90185839683A783FD
:102AA000B0870BC029813A8184E690E0A0E0B0E0D5
:102AB000F90185839683A783B0870F900F900F90BD
:102AC000DF91CF910895CF93DF9300D01F92CDB7C0
:102AD000DEB79A8389836B8389819A81865E9E4F54
:102AE0002B81FC01208389819A8160E089DE0F902F
:102AF0000F900F90DF91CF910895CF93DF9300D087
:102B0000CDB7DEB79A83898389819A81865E9E4F8D
:102B1000FC0180810F900F90DF91CF9108950F936A
:102B20001F93CF93DF93CDB7DEB72A970FB6F894F4
:102B3000DEBF0FBECDBF9E838D834F8358876987CD
:102B40007A878D819E81BEDCDC01CB0189839A83EB
:102B5000AB83BC838D819E81FC01228533854485B6
:102B600055858D819E81FC0185819681A781B085E7
:102B7000BC01CD015AD3882309F4D9C08D819E812F
:102B8000FC0126853785408951898D819E81FC0114
:102B900086859785A089B189892F9A2FAB2FBB276E
:102BA000A7FDBA95281B390B4A0B5B0B89819A81CB
:102BB000AB81BC81820F931FA41FB51F2D813E8165
:102BC000F90186879787A08BB18B8D819E81FC014F
:102BD00086859785A089B189892F9A2FAB2FBB272E
:102BE000A7FDBA952D813E812C5E3E4FF901808371
:102BF0009183A283B3834BD3DC01CB012D813E8132
:102C0000F90182879387A487B5878D819E81FC0116
:102C1000828D938DA48DB58D9C01AD016AEF70E01E
:102C200080E090E002D3882309F481C08D819E81E9
:102C3000FC018481882F90E0009719F0019741F002
:102C40000EC00E94A4006FE273E00E94B22F07C082
:102C50000E94A4006AE373E00E94B22F0000098181
:102C60001A810E94A400B8010E94992F0E94A4001A
:102C700065E473E00E94B22F8D819E818C5E9E4F31
:102C8000FC0180819181A281B3818C010E94A4000A
:102C9000B8010E94992F0E94A40068E473E00E948A
:102CA000B22F0E94A4006AE473E00E94B22F29812F
:102CB0003A818F819885A901481B590BCA018C0163
:102CC0000E94A400B8010E94992F0E94A4006DE404
:102CD00073E00E94B22F0E94A40065E473E00E949A
:102CE000B22F8D819E818C5E9E4FFC0180819181EF
:102CF000A281B3819C018F819885A901481B590B42
:102D0000CA018C010E94A400B8010E94992F0E9460
:102D1000A4006FE473E00E94B22FB9D2DC01CB01B2
:102D20002D813E81F901828F938FA48FB58F2A96D2
:102D30000FB6F894DEBF0FBECDBFDF91CF911F91CC
:102D40000F910895AF92BF92CF92DF92EF92FF92D0
:102D50000F931F93CF93DF93CDB7DEB72C970FB6AA
:102D6000F894DEBF0FBECDBF9C838B834D835E8303
:102D70006F8378878B819C81A5DBDC01CB019A83F3
:102D800089838D819E81AF81B8852B813C81AC0187
:102D9000BD01C901C4DE8B819C81FC018185882F26
:102DA00090E0092E000CAA0BBB0B40E050E026E09F
:102DB00030E0841B950B2817390708F4CEC18A5BD5
:102DC0009F4FFC010C948E358B819C81B9DC8B81EB
:102DD0009C81F6DC8B819C8165E012DD58D2DC01A0
:102DE000CB012B813C81F901828B938BA48BB58B1A
:102DF000CEC18B819C81FC0182899389A489B5898C
:102E00009C01AD0168E873E180E090E00ED2882378
:102E100091F03DD2DC01CB012B813C81F901828B09
:102E2000938BA48BB58B8B819C81FC0116A28B812B
:102E30009C8166E0E5DCABC18B819C818C5E9E4F02
:102E4000FC0120813181428153818B819C81FC0175
:102E500080819181092E000CAA0BBB0BED80FE80B6
:102E60000F81188557016801A81AB90ACA0ADB0A36
:102E7000D601C501281739074A075B070CF06BC05C
:102E80008B819C8160E0D9DD8B819C8161E0B8DC25
:102E90008B819C8135DC89819A819C01990F440B3F
:102EA000550B8B819C81FC0182819381092E000C42
:102EB000AA0BBB0BED80FE800F81188557016801BE
:102EC000A81AB90ACA0ADB0AD601C50182179307F4
:102ED000A407B5070CF0CEC02D813E8189819A816F
:102EE0006901C81AD90AC60199231CF491958195E4
:102EF0009109AC018B819C81FC0120813181CA0147
:102F0000B9010E943D35CB019C01990F440B550B33
:102F10008B819C81FC0182A193A1A4A1B5A1BC01DC
:102F2000CD010E942E35DC01CB012B813C81F901C2
:102F3000868F978FA0A3B1A3AAD1DC01CB012B81EF
:102F40003C81F901868B978BA08FB18F8B819C81FF
:102F500062E056DC8FC08B819C818C5E9E4FFC01B1
:102F600020813181428153818B819C81FC01808150
:102F700091817C01990F000B110B8D819E81AF8196
:102F8000B8858E0D9F1DA01FB11F82179307A40740
:102F9000B5070CF067C08B819C8160E04EDD8B81B2
:102FA0009C8163E02DDC8B819C81EADB89819A81A5
:102FB0009C01990F440B550B8B819C81FC018281F4
:102FC00093817C01990F000B110B8D819E81AF8144
:102FD000B8858E0D9F1DA01FB11F281739074A07FE
:102FE0005B070CF047C029813A818D819E81590190
:102FF000A81AB90AC50199231CF4919581959109E4
:10300000AC018B819C81FC0120813181CA01B90115
:103010000E943D35CB019C01990F440B550B8B81D0
:103020009C81FC0182A193A1A4A1B5A1BC01CD0109
:103030000E942E35DC01CB012B813C81F901868F6A
:10304000978FA0A3B1A323D1DC01CB012B813C81BD
:10305000F901868B978BA08FB18F8B819C8164E067
:10306000CFDB08C08B819C81865E9E4F21E0FC01F6
:1030700020838DC08CC08B819C81FC01268937897F
:10308000408D518D8B819C81FC01868D978DA0A1F7
:10309000B1A1BC01CD01C9D0882319F08B819C81DD
:1030A000F4DB75C089819A819C01990F440B550B03
:1030B0008B819C81FC0182819381092E000CAA0BDB
:1030C000BB0BED80FE800F81188557016801A81A9F
:1030D000B90ACA0ADB0AD601C501281739074A0707
:1030E0005B071CF08B819C81D0DB51C08B819C8164
:1030F000FC0126893789408D518D8B819C81FC0193
:10310000868D978DA0A1B1A1BC01CD018ED0882361
:1031100019F08B819C81D9DB3AC089819A819C010D
:10312000990F440B550B8B819C81FC01828193810B
:103130007C01990F000B110B8D819E81AF81B885A9
:103140008E0D9F1DA01FB11F82179307A407B507FF
:103150001CF08B819C81B9DB1AC00E94A40062E53F
:1031600073E00E94B22F8B819C81EADA8B819C8173
:1031700027DB8B819C8165E043DB89D0DC01CB01BF
:103180002B813C81F901828B938BA48BB58B2C9680
:103190000FB6F894DEBF0FBECDBFDF91CF911F9168
:1031A0000F91FF90EF90DF90CF90BF90AF90089578
:1031B000CF93DF9300D0CDB7DEB79A83898378941D
:1031C0000F900F90DF91CF910895CF93DF9300D0B0
:1031D000CDB7DEB79A838983F8940F900F90DF9173
:1031E000CF910895CF93DF93CDB7DEB784E490E01D
:1031F00022E0FC01208385E490E023E0FC012083B1
:1032000086E490E0FC01108287E490E029EFFC0165
:10321000208388E490E0FC0110828EE690E022E0BA
:10322000FC012083DF91CF910895CF93DF93CDB739
:10323000DEB728970FB6F894DEBF0FBECDBF698307
:103240007A838B839C832D833E834F8358871FD043
:103250009B01AC018D819E81AF81B885281B390B04
:103260004A0B5B0B61E089819A81AB81BC8182173B
:103270009307A407B50708F060E0862F28960FB6DD
:10328000F894DEBF0FBECDBFDF91CF910895CF92EE
:10329000DF92EF92FF92CF93DF931F92CDB7DEB70D
:1032A000CE01019685DFC0905E09D0905F09E09065
:1032B0006009F0906109CE01019687DFD701C60150
:1032C000BC01CD010F90DF91CF91FF90EF90DF9087
:1032D000CF9008951F920F9200905F000F921124DB
:1032E0008F939F93AF93BF93CF93DF93CDB7DEB709
:1032F00080915E0990915F09A0916009B091610988
:103300000196A11DB11D80935E0990935F09A09362
:103310006009B0936109DF91CF91BF91AF919F9107
:103320008F910F9000925F000F901F901895CF9390
:10333000DF9300D0CDB7DEB79A83898389819A81E4
:10334000FC01108289819A81FC01118289819A8114
:103350002FEFFC01228389819A81FC011382148260
:103360001582168289819A81FC01178289819A814E
:10337000FC0110860F900F90DF91CF910895CF93AD
:10338000DF9300D000D0CDB7DEB79A8389836B83FB
:103390004C8389819A812B81FC01218389819A81C7
:1033A0002C81FC01228389819A8111D0282F898167
:1033B0009A81FC01208389819A8121E0FC01208788
:1033C0000F900F900F900F90DF91CF910895CF93B2
:1033D000DF9300D0CDB7DEB79A83898389819A8144
:1033E000FC018181882F90E08130910539F1823094
:1033F00091051CF4892B41F06CC082309105B9F124
:10340000039709F44DC065C080E290E0FC01808123
:10341000882F90E029813A81F9012281222F30E022
:1034200002C0959587952A95E2F79C012170332774
:1034300081E0232B09F04EC080E04CC083E290E095
:10344000FC018081882F90E029813A81F901228155
:10345000222F30E002C0959587952A95E2F79C01CE
:103460002170332781E0232BA9F580E033C086E269
:1034700090E0FC018081882F90E029813A81F90158
:103480002281222F30E002C0959587952A95E2F798
:103490009C012170332781E0232BE1F480E01AC0E6
:1034A00089E290E0FC018081882F90E029813A81B7
:1034B000F9012281222F30E002C0959587952A9547
:1034C000E2F79C012170332781E0232B19F480E07F
:1034D00001C080E00F900F90DF91CF910895CF93BE
:1034E000DF9300D000D0CDB7DEB79C838B838B8178
:1034F0009C81FC018085882311F40E94C4358B8156
:103500009C81FC018781882F90E0009719F001973A
:1035100019F14DC08B819C815ADF882F90E09A83EE
:1035200089838B819C81FC018081282F30E08981F7
:103530009A812817390779F0AADEDC01CB012B81AB
:103540003C81F90183839483A583B6838B819C811D
:1035500021E0FC0127832BC08B819C81FC018381AE
:103560009481A581B6819C01AD016AE070E080E0A4
:1035700090E05BDE8823D9F08B819C8128DF882F47
:1035800090E09A8389838B819C81FC018081282F24
:1035900030E089819A812817390749F029818B8188
:1035A0009C81FC0120838B819C81FC0117820F9000
:1035B0000F900F900F90DF91CF910895CF93DF93ED
:1035C00000D000D000D0CDB7DEB79A8389837C834A
:1035D0006B835E834D8389819A8129EB38E0FC01FE
:1035E0003183208389819A812B813C81FC01338343
:1035F000228389819A812D813E81FC013583248338
:1036000026960FB6F894DEBF0FBECDBFDF91CF91E7
:103610000895CF93DF93CDB7DEB782E699E0FC0142
:103620008081882391F482E699E00E94F12D21E0C7
:10363000892B09F420E0222341F081E899E00E94DF
:10364000263182E699E00E94072E81E899E0DF9119
:10365000CF910895CF93DF93CDB7DEB78AE699E097
:10366000FC018081882391F48AE699E00E94F12D83
:1036700021E0892B09F420E0222341F082E799E040
:103680000E94CF328AE699E00E94072E82E799E0F5
:10369000DF91CF910895CF93DF9300D0CDB7DEB700
:1036A0009A83898389819A81FC01878190850F9013
:1036B0000F90DF91CF910895CF93DF9300D0CDB7D6
:1036C000DEB79A83898389819A81FC0181859285FD
:1036D0000F900F90DF91CF910895CF93DF9300D09B
:1036E00000D0CDB7DEB79A8389837C836B838981D1
:1036F0009A8189599F4F2B813C8142E050E0B9016A
:103700005DDF2BE938E089819A81FC0131832083D8
:1037100087E690E029813A81820F931F2BEA38E0F7
:10372000FC013183208389819A81FC0112821382FA
:103730001482158229813A8184E690E0A0E0B0E00D
:10374000F90182879387A487B58789819A81FC01D3
:10375000168689819A81FC01178629813A8188EE33
:1037600093E0A0E0B0E0F901818B928BA38BB48B46
:103770000F900F900F900F90DF91CF910895CF93FE
:10378000DF93CDB7DEB72E970FB6F894DEBF0FBE2E
:10379000CDBF9E878D870E9481010E94B0105ADFA5
:1037A0007ADF9C838B8356DF87DF9E838D830E9425
:1037B000A40068EE73E00E94B22F9C018B819C8173
:1037C000BC01C9010E94992F68E074E00E94B22FE9
:1037D0009C018D819E81BC01C9010E94992F65E1E8
:1037E00074E00E94B22F64E170E00E94992F6CE1B6
:1037F00074E00E94B22F4BDDDC01CB012D853E85AC
:10380000F90182839383A483B58303DF4DE36AE2E6
:103810000E94A232FEDE42E06BE20E94A2328D855F
:103820009E85FC0116868D859E85FC011786F1DE3E
:10383000FC019E01255F3F4FAE01475F5F4FCE0108
:103840000796BC01CF010E9490311A82198233C0C1
:1038500089859A85092E000CAA0BBB0B4D855E85C8
:1038600029813A81220F331F220F331F240F351F66
:103870002B5E3F4FF90180839183A283B3838B85B5
:103880009C85092E000CAA0BBB0B4D855E852981FA
:103890003A81220F331F220F331F240F351F235C61
:1038A0003F4FF90180839183A283B38389819A81F9
:1038B00001969A83898389819A810A974CF28D8532
:1038C0009E858B599F4FFC01118210828D859E85AC
:1038D00060E08AD1DCDCDC01CB012D853E85F9017D
:1038E00086839783A087B1872E960FB6F894DEBFA4
:1038F0000FBECDBFDF91CF910895CF93DF9300D05E
:10390000CDB7DEB79A83898389819A81FC01808152
:1039100091810697FC01808191819C0189819A8126
:10392000820F931F2CDF0F900F90DF91CF9108959E
:10393000CF93DF9300D000D0CDB7DEB79A838983D1
:103940007C836B838B819C81092E000CAA0BBB0BA3
:1039500041E050E029E030E0841B950B281739073F
:1039600008F4E6C0835B9F4FFC010C948E3589817F
:103970009A8125D3DEC089819A81FC018081918161
:103980000697FC01808191819C0189819A81820F37
:10399000931FFC01828193812B813C81A90160E00E
:1039A00070E00E943B03C5C00E9461010E94C009F3
:1039B00089819A81FC01808191810697FC01808137
:1039C00091819C0189819A81820F931FFC018281E0
:1039D00093812B813C81A90160E070E00E943B0350
:1039E000A8C00E94A4006FE174E00E94B22F0E9460
:1039F00061010E94560A8823E9F00E94A40066E350
:103A000074E00E94B22F89819A81FC0180819181AA
:103A10000697FC01808191819C0189819A81820FA6
:103A2000931FFC018281938140E050E060E070E0F0
:103A30000E943B037EC089819A81FC018081918133
:103A40000697FC01808191819C0189819A81820F76
:103A5000931FFC018281938140E050E061E070E0BF
:103A60000E943B0366C089819A81FC01808191811B
:103A70000697FC01808191819C0189819A81820F46
:103A8000931FFC018281938140E050E065E070E08B
:103A90000E943B034EC00E946101FC01928181E0C3
:103AA0008927882329F10E94610121E0FC012283FA
:103AB00089819A81FC0116860E9461010E94410D54
:103AC0000E9481010E94B01089819A8160E08CD0AF
:103AD000DEDBDC01CB0129813A81F901828393830A
:103AE000A483B5830E94A40060E574E00E94B22F15
:103AF00020C00E94A40068E674E00E94B22F898171
:103B00009A81FC01808191810697FC0180819181DD
:103B10009C0189819A81820F931FFC01828193818C
:103B20002B813C81A90160E070E00E943B0301C051
:103B300000000F900F900F900F90DF91CF9108959C
:103B4000CF93DF9300D000D0CDB7DEB79A838983BF
:103B50007C836B8389819A81FC01808191810897A4
:103B6000FC01808191819C0189819A81820F931F40
:103B70002B813C81B901DCDE0F900F900F900F90EC
:103B8000DF91CF910895CF93DF9300D0CDB7DEB70B
:103B90009A8389830E94A40061E874E00E94B22F96
:103BA0000E9481010E94D4100F900F90DF91CF915D
:103BB0000895CF93DF9300D0CDB7DEB79A83898382
:103BC00089819A81FC01808191810A97FC01808121
:103BD00091819C0189819A81820F931FD4DF0F907C
:103BE0000F90DF91CF9108950F931F93CF93DF93A1
:103BF00000D01F92CDB7DEB79A8389836B830E9472
:103C0000A40066E974E00E94B22F8B81882F90E0B7
:103C1000880F991F825D9E4FFC01008111810E94D7
:103C2000A400B8010E94B22F0E94A40064EA74E0CC
:103C30000E94B22F89819A812B81FC01208B0F90E9
:103C40000F900F90DF91CF911F910F910895CF9218
:103C5000DF92EF92FF920F931F93CF93DF93CDB735
:103C6000DEB7AA970FB6F894DEBF0FBECDBF9A8F0E
:103C7000898F7C8F6B8F5E8F4D8F38A32F8F1AA308
:103C800009A31C8A1B8A1E8A1D8A188E1F8AE2DCE1
:103C900002DDCC01A0E0B0E08B879C87AD87BE87BA
:103CA000D9DC0ADDCC01A0E0B0E08F87988BA98B2E
:103CB000BA8BAFDCFC019E01295E3F4FAE014B5E2B
:103CC0005F4FCE014396BC01CF010E9490312D89F8
:103CD0003E898F8D98A1FC01318320832F89388DF7
:103CE00089A19AA1FC0131832083898D9A8D8B59FA
:103CF0009F4FFC01208131818D899E89092E000C06
:103D0000AA0BBB0B498D5A8D220F331F220F331F75
:103D1000240F351F2B5E3F4FF90180839183A283CF
:103D2000B383898D9A8D8B599F4FFC0120813181FE
:103D30008F89988D092E000CAA0BBB0B498D5A8DCB
:103D4000220F331F220F331F240F351F235C3F4FD9
:103D5000F90180839183A283B383898D9A8D8B59D6
:103D60009F4FFC01808191819C012F5F3F4F898D86
:103D70009A8D8B599F4FFC0131832083898D9A8DB9
:103D80008B599F4FFC018081918121E00A9708F4B3
:103D900020E0222339F0898D9A8D8B599F4FFC01A9
:103DA00011821082898D9A8DFC0185899689A78957
:103DB000B08D89839A83AB83BC83898D9A8DCD9690
:103DC000FC0180819181A281B3818D839E83AF8329
:103DD000B88781E090E09A8789873DC0298D3A8D28
:103DE00089859A85880F991F880F991F820F931FC5
:103DF0004596FC0180819181A281B38129813A811C
:103E00004B815C81820F931FA41FB51F89839A8306
:103E1000AB83BC83298D3A8D89859A85880F991F3C
:103E2000880F991F820F931FCD96FC01808191818D
:103E3000A281B3812D813E814F815885820F931FCE
:103E4000A41FB51F8D839E83AF83B88789859A850C
:103E500001969A87898789859A850A970CF4BECF3F
:103E600089819A81AB81BC812AE030E040E050E05A
:103E7000BC01CD010E947235DA01C90189839A83A0
:103E8000AB83BC838D819E81AF81B8852AE030E011
:103E900040E050E0BC01CD010E947235DA01C90159
:103EA0008D839E83AF83B88729813A818B8D9C8DCA
:103EB000FC01318320832D813E818D8D9E8DFC01FF
:103EC00031832083898D9A8DFC012681378140853D
:103ED0005185898D9A8DFC0181899289A389B48944
:103EE000BC01CD01A2D9882309F45AC029813A81A5
:103EF0008B859C85A901481B590BCA016C0109815E
:103F00001A81ED88FE880E94A40066EA74E00E948F
:103F1000B22FB7010E94992F6EEA74E00E94B22F6F
:103F2000B8010E94992F66EB74E00E94B22FB6018F
:103F30000E94992F64EA74E00E94B22F2D813E8185
:103F40008F859889F901E81BF90BCF016C010D8170
:103F50001E81EF88F88C0E94A4006EEB74E00E9432
:103F6000B22FB7010E94992F6EEA74E00E94B22F1F
:103F7000B8010E94992F66EB74E00E94B22FB6013F
:103F80000E94992F64EA74E00E94B22F80D9DC016C
:103F9000CB01298D3A8DF90186839783A087B1875C
:103FA000AA960FB6F894DEBF0FBECDBFDF91CF91BA
:103FB0001F910F91FF90EF90DF90CF9008950F9396
:103FC0001F93CF93DF93CDB7DEB72E970FB6F8943C
:103FD000DEBF0FBECDBF9E878D87809182099091F5
:103FE0008309A0918409B09185099C01AD0164E623
:103FF00070E080E090E019D9882309F4FFC147D927
:10400000DC01CB018093820990938309A0938409FA
:10401000B0938509FE013B969E01275F3F4FAE019D
:10402000495F5F4FBE016B5F7F4F8D859E858F011E
:104030000EDE10DB30DB9A8389830CDB3DDB9C8357
:104040008B838D859E85FC018089882F90E082304E
:10405000910509F4A9C08330910534F4009781F0EB
:10406000019709F43DC0CAC18430910509F45EC1CD
:10407000843091050CF4FCC0059709F468C1BEC1F9
:104080000E94610162E070E00E94300B0E946101B9
:1040900062E070E00E94D00A8B819C819C012C5EC2
:1040A0003F4F8B859C85281739072CF48D859E857D
:1040B00061E09ADD14C08B819C819C0124513109FF
:1040C0008B859C85821793072CF48D859E8562E0F5
:1040D0008BDD05C08D859E8563E086DD8FC18EC139
:1040E0008B819C819C01245131098B859C85821791
:1040F00093072CF48D859E8562E076DD54C08B811C
:104100009C819C01245131098B859C852817390796
:104110007CF48B819C819C012C5E3F4F8B859C8520
:10412000821793072CF48D859E8563E05DDD3BC08F
:1041300089819A819C012451310989859A85821748
:1041400093076CF40E94610162E070E00E94D00A63
:104150000E94610160E070E00E94300B24C0898100
:104160009A819C012C5E3F4F89859A8528173907D3
:104170006CF40E94610162E070E00E94300B0E94CA
:10418000610160E070E00E94D00A0DC00E946101F0
:1041900060E070E00E94300B0E94610160E070E01E
:1041A0000E94D00A2BC12AC18B819C819C012C5E6C
:1041B0003F4F8B859C85281739072CF48D859E856C
:1041C00061E012DD54C08B819C819C012451310936
:1041D0008B859C85281739077CF48B819C819C01F9
:1041E0002C5E3F4F8B859C85821793072CF48D8521
:1041F0009E8563E0F9DC3BC089819A819C01245152
:10420000310989859A85821793076CF40E946101B0
:1042100062E070E00E94300B0E94610161E070E09A
:104220000E94D00A24C089819A819C012C5E3F4F54
:1042300089859A85281739076CF40E94610162E02C
:1042400070E00E94D00A0E94610161E070E00E946B
:10425000300B0DC00E94610161E070E00E94300BE4
:104260000E94610161E070E00E94D00AC7C0C6C030
:104270008B819C819C012C5E3F4F8B859C852817F0
:1042800039072CF48D859E8561E0AEDC4EC08B81B4
:104290009C819C01245131098B859C858217930751
:1042A0002CF48D859E8562E09FDC3FC089819A81D8
:1042B0009C012451310989859A85821793076CF4F2
:1042C0000E94610161E070E00E94D00A0E946101D9
:1042D00060E070E00E94300B28C089819A819C01C7
:1042E0002C5E3F4F89859A85281739076CF40E9408
:1042F000610161E070E00E94300B0E94610160E0AA
:1043000070E00E94D00A11C00E94610162E070E07A
:104310000E94300B0E94610162E070E00E94D00AAE
:104320008D859E8564E060DC69C068C00E94471985
:10433000DC01CB018093860990938709A0938809BB
:10434000B09389098D859E8565E04EDC57C08091CC
:10435000860990918709A0918809B09189099C01EB
:10436000AD0165E070E080E090E00E9415198823BF
:1043700009F443C08B819C819C01285D3F4F8F8154
:104380009885281739072CF48D859E8561E02CDCF3
:1043900034C08B819C819C01285231098F81988582
:1043A000821793072CF48D859E8562E01DDC25C065
:1043B00089819A819C01285231098D819E818217C1
:1043C000930754F089819A819C01285D3F4F8D812C
:1043D0009E81281739072CF48D859E8563E004DCC7
:1043E0000CC00E944719DC01CB0180938609909391
:1043F0008709A0938809B093890900002E960FB60B
:10440000F894DEBF0FBECDBFDF91CF911F910F910A
:104410000895CF93DF9300D000D0CDB7DEB79A8355
:1044200089837C836B8389819A812B813C81FC0108
:10443000368325830F900F900F900F90DF91CF91CF
:104440000895CF93DF9300D000D0CDB7DEB79A8325
:1044500089837C836B8389819A812B813C81FC01D8
:10446000308727830F900F900F900F90DF91CF919F
:104470000895CF93DF9300D000D0CDB7DEB79A83F5
:1044800089837C836B8389819A812B813C81FC01A8
:10449000328721870F900F900F900F90DF91CF916F
:1044A0000895CF93DF9300D000D0CDB7DEB79A83C5
:1044B00089837C836B8389819A812B813C8145E050
:1044C00050E0B9017BD889819A8123EC38E0FC0166
:1044D000318320830F900F900F900F90DF91CF9139
:1044E0000895CF93DF9300D0CDB7DEB79A83898349
:1044F0000E94A40064E175E00E94B22F0E94471957
:10450000DC01CB0129813A81F90186839783A08759
:10451000B1870E9461010E94B80A0F900F90DF914D
:10452000CF910895CF92DF92EF92FF920F931F9356
:10453000CF93DF93CDB7DEB72A970FB6F894DEBFDF
:104540000FBECDBF98878F837A87698789859A85C3
:104550008330910509F454C0843091053CF48130D6
:10456000910581F0029709F4AFC0BAC0853091057A
:104570000CF4B6C0873091050CF4A6C0079709F477
:104580004AC0AEC08F819885FC0186819781A08545
:10459000B1859C01AD016AEF70E080E090E00E947F
:1045A0001519882361F180918A09882379F00E9486
:1045B00081010E94D80F0E9481010E94B010909149
:1045C0008A0981E0892780938A090EC00E948101AF
:1045D0000E94FC0F0E9481010E94D41090918A09D0
:1045E00081E0892780938A090E944719DC01CB0169
:1045F0002F813885F90186839783A087B18771C0A1
:104600000E94A4006FE275E00E94B22F0E94610137
:104610000E94240966C00E94A40068E475E00E941C
:10462000B22F0E94091BFC019E012B5F3F4FCE0160
:104630000396AC01CE010196BC01CF010E949031DE
:1046400089819A818C0106D8B801E3DE8B819C8137
:104650008C0100D8B801F5DE8D819E818C010E940D
:104660002A1BB80106DF0E942A1B0E9467330D81B6
:104670001E81EB80FC80C980DA800E94A40069E57D
:1046800075E00E94B22FB6010E94992F60E775E095
:104690000E94B22FB7010E94992F66E775E00E9431
:1046A000B22FB8010E94992F6CE775E00E94B22FDB
:1046B0008F819885FC018281938140E050E062E027
:1046C00070E00E943B030DC08F819885FC018281C0
:1046D000938140E050E062E070E00E943B03000004
:1046E00000002A960FB6F894DEBF0FBECDBFDF9153
:1046F000CF911F910F91FF90EF90DF90CF90089591
:10470000CF93DF9300D0CDB7DEB79A8389830E9421
:1047100081010E94D80F0E94A4006EE775E00E94FC
:10472000B22F0F900F90DF91CF910895CF93DF9329
:1047300000D000D0CDB7DEB79A8389837C836B83AA
:1047400089819A812B813C81FC01348723870F90DA
:104750000F900F900F90DF91CF910895CF93DF933B
:1047600000D000D0CDB7DEB79A8389837C836B837A
:1047700089819A812B813C81FC01368725870F90A6
:104780000F900F900F90DF91CF910895CF93DF930B
:1047900000D0CDB7DEB79A83898389819A81FC01E5
:1047A000838594850F900F90DF91CF910895CF93DB
:1047B000DF9300D0CDB7DEB79A83898389819A8150
:1047C000FC01858596850F900F90DF91CF9108951C
:1047D000CF93DF9300D000D0CDB7DEB79A83898323
:1047E0007C836B8389819A812B813C8143E050E0FB
:1047F000B9010E94DE1A89819A812DEC38E0FC0112
:10480000318320830F900F900F900F90DF91CF9105
:104810000895CF93DF9300D0CDB7DEB79A83898315
:104820000E94A40068E975E00E94B22F0F900F90DB
:10483000DF91CF910895EF92FF920F931F93CF9343
:10484000DF9300D000D0CDB7DEB79A8389837C8315
:104850006B838B819C818330910509F44CC084303B
:1048600091053CF48130910581F0029709F48CC0E8
:1048700097C0853091050CF493C0873091050CF4F6
:1048800083C0079709F442C08BC089819A81FC01DB
:1048900086819781A085B1859C01AD016AEF70E0AA
:1048A00080E090E00E941519882321F180918B0906
:1048B000882359F00E9481010E94D80F90918B09A2
:1048C00081E0892780938B090AC00E9481010E94A0
:1048D000FC0F90918B0981E0892780938B090E94BE
:1048E0004719DC01CB0129813A81F901868397833D
:1048F000A087B18756C00E94A40060EB75E00E94BB
:10490000B22F0E9461010E9424094BC00E947105D0
:104910000E9427018C010E942A1BB80107DF0E9418
:1049200071050E9437018C010E942A1BB80116DF15
:104930000E942A1B0E9467330E942A1B38DF8C01C9
:104940000E942A1B23DF7C010E94A4006BEC75E00F
:104950000E94B22FB7010E945E2F67EE75E00E94A1
:10496000B22FB8010E945E2F61EF75E00E94B22F56
:1049700089819A81FC018281938140E050E060E06E
:1049800070E00E943B030DC089819A81FC01828105
:10499000938140E050E060E070E00E943B0301C082
:1049A00000000F900F900F900F90DF91CF911F910B
:1049B0000F91FF90EF900895CF93DF9300D0CDB784
:1049C000DEB79A8389830E9481010E94D80F0E94DA
:1049D000A40063EF75E00E94B22F0F900F90DF915B
:1049E000CF910895CF93DF9300D000D0CDB7DEB73D
:1049F0009A8389837C836B8389819A812B813C8113
:104A0000FC01328321830F900F900F900F90DF9164
:104A1000CF910895CF93DF9300D000D0CDB7DEB70C
:104A20009A8389837C836B8389819A812B813C81E2
:104A3000FC01348323830F900F900F900F90DF9130
:104A4000CF910895CF93DF9300D0CDB7DEB79A838F
:104A5000898389819A81FC01818192810F900F90D5
:104A6000DF91CF910895CF93DF9300D0CDB7DEB71C
:104A70009A83898389819A81FC01838194810F9033
:104A80000F90DF91CF910895CF93DF9300D000D0A6
:104A9000CDB7DEB79A8389837C836B8389819A81C2
:104AA0002B813C8144E050E0B9010E94DE1A8981EB
:104AB0009A8127ED38E0FC01318320830F900F901D
:104AC0000F900F90DF91CF910895CF93DF9300D097
:104AD000CDB7DEB79A8389830E94A40069E076E0AF
:104AE0000E94B22F0E944719DC01CB0129813A8133
:104AF000F90186839783A087B1870E9461010E9494
:104B0000B80A0F900F90DF91CF910895EF92FF9226
:104B10000F931F93CF93DF93CDB7DEB728970FB6D0
:104B2000F894DEBF0FBECDBF9E838D8378876F83E1
:104B30008F8198858330910509F47DC0843091057B
:104B40003CF48130910581F0029709F4BDC0C8C0E2
:104B5000853091050CF4C4C0873091050CF4B4C0C5
:104B6000079709F473C0BCC08D819E81FC018681CA
:104B70009781A085B1859C01AD016AEF70E080E06E
:104B800090E00E941519882309F454C080918C0983
:104B9000882379F00E9481010E94D80F0E94810130
:104BA0000E94F81090918C0981E0892780938C09EC
:104BB0000EC00E9481010E94FC0F0E9481010E9490
:104BC0001C1190918C0981E0892780938C090E94A7
:104BD0004719DC01CB012D813E81F9018683978342
:104BE000A087B1870E9471050E9427019A8389835B
:104BF0000E9471050E9437019C838B830E94A40050
:104C000063E276E00E94B22F9C0189819A81BC0107
:104C1000C9010E945E2F67E276E00E94B22F9C01DC
:104C20008B819C81BC01C9010E945E2F6CE276E001
:104C30000E94B22F56C00E94A4006EE276E00E944D
:104C4000B22F0E9461010E9424094BC00E9471058D
:104C50000E9427018C010E942A1BB801C3DE0E941A
:104C600071050E9437018C010E942A1BB801D2DE17
:104C70000E942A1B0E9467330E942A1BF4DE8C01CB
:104C80000E942A1BDFDE7C010E94A40069E476E01A
:104C90000E94B22FB7010E945E2F65E676E00E9467
:104CA000B22FB8010E945E2F6CE276E00E94B22F14
:104CB0008D819E81FC018281938140E050E061E022
:104CC00070E00E943B030DC08D819E81FC018281BA
:104CD000938140E050E061E070E00E943B0301C03E
:104CE000000028960FB6F894DEBF0FBECDBFDF914F
:104CF000CF911F910F91FF90EF9008950F931F9305
:104D0000CF93DF9300D0CDB7DEB79A8389830E941B
:104D100081010E94D80F06ED10E00E94A400B801A6
:104D20000E94B22F0F900F90DF91CF911F910F91A2
:104D30000895CF93DF9300D000D0CDB7DEB79A832C
:104D400089837C836B8389819A812B813C8140E0BC
:104D500050E0B9010E94DE1A89819A8121EE38E083
:104D6000FC013183208329813A8180E395E7A0E02B
:104D7000B0E0F90182879387A487B5870F900F90E1
:104D80000F900F90DF91CF910895CF93DF9300D0D4
:104D9000CDB7DEB79A8389830E9481010E94D41027
:104DA0000E9481010E941C110E9461010E94B80AA8
:104DB0000E94A4006FE676E00E94B22F0E9447197D
:104DC000DC01CB0129813A81F90186879787A08B85
:104DD000B18B0E944719DC01CB0129813A81F9018D
:104DE00086839783A087B18729813A8180E395E7FD
:104DF000A0E0B0E0F90182879387A487B5870F9080
:104E00000F90DF91CF910895CF93DF9300D000D022
:104E1000CDB7DEB79A8389837C836B838B819C813A
:104E2000092E000CAA0BBB0B41E050E029E030E05A
:104E3000841B950B2817390708F403C1895A9F4F23
:104E4000FC010C948E350E9461010E94870A882320
:104E500059F089819A81FC018281938140E050E080
:104E600061E070E00E943B03EDC00E9461010E947E
:104E7000560A882359F089819A81FC0182819381A5
:104E800040E050E062E070E00E943B03DBC00E9423
:104E900061010E9476080E9461010E943D0C8823F6
:104EA00091F00E94A40066E876E00E94B22F29816A
:104EB0003A8180E395E7A0E0B0E0F901828793872B
:104EC000A487B5870BC029813A8180E69AEEA0E0DD
:104ED000B0E0F90182879387A487B5870E944719BC
:104EE000DC01CB0129813A81F90186839783A08770
:104EF000B187A8C00E9461010E94240929813A81DA
:104F000080E69AEEA0E0B0E0F90182879387A4875B
:104F1000B5870E94A40067E976E00E94B22F0E9444
:104F20004719DC01CB0129813A81F90186839783F6
:104F3000A087B18787C00E9461010E94C0092981B2
:104F40003A8180E69AEEA0E0B0E0F901828793878B
:104F5000A487B58777C089819A81FC01828193817A
:104F600040E050E063E070E00E943B036BC00E94B1
:104F70006101FC018381882309F189819A81FC0107
:104F8000268137814085518589819A81FC018285FE
:104F90009385A485B585BC01CD010E941519882390
:104FA00069F00E946101FC01138289819A81FC01F0
:104FB0008281938169E070E00E94DD0243C00E941B
:104FC0006101FC0113820E9461010E94410D0E9457
:104FD00061010E94880D0E94A40066EA76E0C2D7B3
:104FE00031C00E94A40060EC76E0BCD70E94610151
:104FF0000E94DB0C27C00E946101FC01928181E0CC
:1050000089278823E9F00E94610121E0FC012383C4
:105010000E944719DC01CB0129813A81F90186837D
:105020009783A087B1870E9461010E94410D0E9471
:1050300061010E94880D0E94A4006BED76E092D77A
:1050400001C000000F900F900F900F90DF91CF9153
:105050000895CF93DF9300D0CDB7DEB79A838983CD
:105060000E94A40065EF76E07DD70E9461010E9456
:10507000B80A0F900F90DF91CF910895CF93DF93EF
:1050800000D000D0CDB7DEB79A8389837C836B8351
:1050900089819A812B813C8141E050E0B9010E94D5
:1050A000DE1A89819A812BEE38E0FC01318320835E
:1050B00089819A81069660E00E94401189819A81D7
:1050C000895A9E4F61E00E94401189819A818855DA
:1050D0009D4F21E0FC01208389819A8187559D4F56
:1050E000FC01108211821282138289819A81835578
:1050F0009D4FFC01108211821282138289819A8154
:105100008F549D4FFC0110820F900F900F900F90C5
:10511000DF91CF910895EF92FF920F931F93CF935A
:10512000DF9300D0CDB7DEB79A8389830E948101D7
:105130000E94F81089819A81069660E00E94B5115C
:1051400089819A81895A9E4F61E00E94B5118981B7
:105150009A81069660E00E941D1589819A81895A7C
:105160009E4F60E00E941D1589819A81069660E03D
:105170000E94631589819A81895A9E4F60E00E943E
:10518000631589819A8188559D4F21E0FC01208318
:1051900089819A818F549D4FFC0110820E9447198A
:1051A000DC01CB0129813A8127553D4FF9018083EC
:1051B0009183A283B38389819A818E549D4FFC0190
:1051C00010820E94A4006CE077E0CCD60E942A1BDB
:1051D0004ADC8C010E942A1B35DC7C010E94A40061
:1051E00064E277E0BFD6B70169D66CE377E0BAD660
:1051F000B80164D666E477E0B5D60F900F90DF91E2
:10520000CF911F910F91FF90EF900895CF93DF936F
:1052100000D000D0CDB7DEB79A8389837C836B83BF
:105220008B819C81092E000CAA0BBB0B41E050E046
:1052300029E030E0841B950B2817390708F463C177
:105240008F599F4FFC010C948E350E942A1BFADB6C
:10525000CC01A0E0B0E029813A812A5F3F4FAC0148
:10526000BD01C9010E94A2160E942A1BFCDBCC01D1
:10527000A0E0B0E029813A81295A3E4FAC01BD013E
:10528000C9010E94A21689819A818E549D4FFC010A
:105290008081882F90E08130910581F182309105E5
:1052A00009F481C0892B09F02FC189819A81069662
:1052B0000E947D15882351F089819A81895A9E4FD9
:1052C0000E947D15882311F081E001C080E08823D1
:1052D000A1F00E944719DC01CB0129813A812355B5
:1052E0003D4FF90180839183A283B38389819A81A1
:1052F0008E549D4F21E0FC01208376C089819A81E4
:1053000083559D4FFC0180819181A281B38120E171
:1053100037E240E050E0BC01CD010E94151988231E
:10532000D1F00E94A40068E477E01CD689819A81BC
:10533000069661E00E941D1589819A81895A9E4FC7
:1053400061E00E941D1589819A818E549D4F22E053
:10535000FC01208327C089819A8106960E947D15D1
:10536000982F81E08927882359F489819A81895A65
:105370009E4F0E947D15982F81E08927882311F088
:1053800081E001C080E0882369F00E944719DC01B8
:10539000CB0129813A8123553D4FF90180839183C7
:1053A000A283B38321C089819A8106960E947D15CC
:1053B000982F81E08927882359F489819A81895A15
:1053C0009E4F0E947D15982F81E08927882311F038
:1053D00081E001C080E0882331F089819A818E5478
:1053E0009D4FFC01108200008FC089819A81FC01D1
:1053F000828193812B813C81A90160E070E00E9451
:105400003B0382C00E9461010E94C00989819A8188
:10541000FC01828193812B813C81A90160E070E0D5
:105420000E943B0371C089819A81FC018281938132
:1054300040E050E062E070E00E943B0365C00E94E3
:1054400061010E94870A882359F089819A81FC01B1
:105450008281938140E050E060E070E00E943B0375
:1054600053C089819A81FC018281938140E050E0A0
:1054700064E070E00E943B0347C00E946101FC01B0
:10548000928181E08927882399F10E94610121E0BE
:10549000FC0122830E9461010E94410D0E94810152
:1054A0000E94F81089819A81069660E00E94631537
:1054B00089819A81895A9E4F60E00E946315898193
:1054C0009A81069660E00E941D1589819A81895A09
:1054D0009E4F60E00E941D1589819A8188559D4FDD
:1054E00021E0FC0120830E94A40064E777E03AD524
:1054F0000BC00E94A4006EE877E034D50E946101E1
:105500000E94DB0C01C000000F900F900F900F90D5
:10551000DF91CF910895CF93DF9300D0CDB7DEB761
:105520009A8389830E94A40069EA77E01BD50E94D0
:1055300081010E941C110F900F90DF91CF9108956F
:10554000CF93DF93CDB7DEB789EB90E0FC011082FB
:1055500088EB90E028E3FC012083DF91CF91089550
:10556000CF93DF93CDB7DEB7A3970FB6F894DEBF26
:105570000FBECDBF84E690E09A838983F8C080E0B7
:1055800090E0A0E8BFE38B839C83AD83BE832BEACE
:105590003AEA4AEA50E46B817C818D819E810E94C7
:1055A000CB34DC01CB018F839887A987BA8720E0B1
:1055B00030E040E850E46B817C818D819E810E94C7
:1055C000CB34DC01CB018B879C87AD87BE8720E085
:1055D00030E040E85FE36F81788589859A850E9495
:1055E000BA3388231CF481E08F87B6C020E03FEFF8
:1055F0004FE757E46B857C858D859E850E94C73477
:1056000018160CF07FC020E030E04AE754E46B81CC
:105610007C818D819E810E94BE33DC01CB01888B11
:10562000998BAA8BBB8B20E030E04AE755E4688970
:1056300079898A899B890E94CB34DC01CB018C8BD0
:105640009D8BAE8BBF8B20E030E040E85FE36C8940
:105650007D898E899F890E94BA3388232CF481E04A
:1056600090E0998F888F41C020E03FEF4FE757E4EB
:105670006C897D898E899F890E94C73418165CF5D4
:1056800020E030E040E251E4688979898A899B8989
:105690000E94CB34DC01CB01BC01CD010E94263439
:1056A000DC01CB01998F888F0FC080E991E09B8F3F
:1056B0008A8F8A8D9B8D0197F1F79B8F8A8F888DBA
:1056C000998D0197998F888F888D998D892B69F78E
:1056D0008BA18F8741C06C897D898E899F890E94AB
:1056E0002634DC01CB01998F888F888D998D9D8F11
:1056F0008C8F8C8D9D8D0197F1F79D8F8C8F8BA159
:105700008F872AC020E030E04FE753E46F8178852F
:1057100089859A850E94C7341816ACF46B857C8500
:105720008D859E850E942634DC01CB019F8F8E8F54
:105730008E8D9F8D99A388A388A199A10197F1F7D8
:1057400099A388A30FC06F81788589859A850E9467
:105750002634DC01CB018F878F858AA38AA18A95A5
:10576000F1F78AA389819A8101979A8389838CEBC7
:1057700090E0FC01808188232CF089819A81892B1B
:1057800009F0FDCE21E089819A81892B09F420E07E
:10579000822FA3960FB6F894DEBF0FBECDBFDF9168
:1057A000CF910895CF93DF93CDB7DEB7A3970FB610
:1057B000F894DEBF0FBECDBF84E690E09A83898364
:1057C000F1C080E090E0A0E8BFE38B839C83AD83D1
:1057D000BE832BEA3AEA4AEA50E46B817C818D81F0
:1057E0009E810E94CB34DC01CB018F839887A987EF
:1057F000BA8720E030E040E850E46B817C818D8105
:105800009E810E94CB34DC01CB018B879C87AD87C6
:10581000BE8720E030E040E85FE36F8178858985CE
:105820009A85A8D788231CF481E08F87B0C020E038
:105830003FEF4FE757E46B857C858D859E850E9401
:10584000C73418160CF07BC020E030E04AE754E47F
:105850006B817C818D819E8191D7DC01CB01888B0E
:10586000998BAA8BBB8B20E030E04AE755E468892E
:1058700079898A899B890E94CB34DC01CB018C8B8E
:105880009D8BAE8BBF8B20E030E040E85FE36C89FE
:105890007D898E899F896ED788232CF481E090E0E2
:1058A000998F888F3FC020E03FEF4FE757E46C8926
:1058B0007D898E899F890E94C734181654F520E08F
:1058C00030E040E251E4688979898A899B890E94A5
:1058D000CB34DC01CB01BC01CD01B8D7DC01CB015D
:1058E000998F888F0FC080E991E09B8F8A8F8A8D76
:1058F0009B8D0197F1F79B8F8A8F888D998D0197EA
:10590000998F888F888D998D892B69F78BA18F87C7
:105910003EC06C897D898E899F8998D7DC01CB0137
:10592000998F888F888D998D9D8F8C8F8C8D9D8D73
:105930000197F1F79D8F8C8F8BA18F8728C020E076
:1059400030E04FE753E46F81788589859A850E941E
:10595000C7341816A4F46B857C858D859E8576D713
:10596000DC01CB019F8F8E8F8E8D9F8D99A388A395
:1059700088A199A10197F1F799A388A30EC06F811F
:10598000788589859A8562D7DC01CB018F878F85E1
:105990008AA38AA18A95F1F78AA389819A810197BE
:1059A0009A8389838CEB90E0FC018081882F90E0C2
:1059B00080719927892B29F089819A81892B09F097
:1059C00000CF21E089819A81892B09F420E0822F80
:1059D000A3960FB6F894DEBF0FBECDBFDF91CF9177
:1059E0000895CF93DF9300D0CDB7DEB78A838CEBD9
:1059F00090E024EAFC012083B3DD882311F480E0E9
:105A00002CC089EB90E0FC018081887F89838981AB
:105A1000883029F08981803111F081E01EC08BEB44
:105A200090E02A81FC0120838CEB90E024E8FC01CB
:105A3000208396DD882311F480E00FC089EB90E08D
:105A4000FC018081887F89838981883129F089815F
:105A5000803411F081E001C080E00F900F90DF9161
:105A6000CF910895CF93DF931F92CDB7DEB789838F
:105A70008981B7DF0F90DF91CF910895CF93DF93A6
:105A8000CDB7DEB78CEB90E024E9FC0120838ADE01
:105A9000DF91CF910895CF93DF9300D0CDB7DEB7DC
:105AA0008A838BEB90E02A81FC0120838CEB90E0D1
:105AB00024E8FC01208354DD89EB90E0FC01808127
:105AC000887F89838981883211F081E001C080E07C
:105AD0000F900F90DF91CF910895CF93DF93CDB7C3
