S01200004D6963726F4C6576656C2E7372656320
S113000078C00000A0C000009EC000009CC000009A
S11300100C941C0B0C942B0B96C000000C943A0B04
S113002092C0000090C000008EC000008CC0000090
S11300308AC0000088C0000086C0000084C00000A0
S11300400C94A41280C000007EC000007CC000009C
S11300507AC000000C94582976C0000074C00000D7
S113006072C0000070C000006EC000006CC00000D0
S11300706AC0000068C0000066C0000064C00000E0
S113008062C0000060C000005EC00000FC100212EC
S1130090F3112412151209113111F218F418F4187D
S11300A00219C8192819D819E819491AAA1AE522EF
S11300B032228822BF22F2211222DC222023BD23F5
S11300C0F823ED248C258C259325B925B025F62518
S11300D0FF255726A4262046534D54726176656C3D
S11300E043616C3A3A4F6E4578697428290D0A00C9
S11300F0972911241FBECFEFD0E4DEBFCDBF18E097
S1130100A0E0B1E0E2EAF7E500E00BBF02C007902F
S11301100D92AC3FB107D9F721E1ACEFB8E001C0D3
S11301201D92AD3CB207E1F710E0C9E7D0E004C08E
S11301302197FE010E94602BC837D107C9F70E949E
S11301400B280C94CF2B5CCF089580E480937C0023
S113015087E880937A008BE080937E000895ECE733
S1130160F0E080816770807E682B6083EAE7F0E0CE
S1130170808180648083808186FDFDCF80917800BA
S113018090917900089560E0EACF61E0E8CF81E0E2
S1130190089581E008958F929F92AF92BF92CF927B
S11301A0DF92EF92FF920F931F93CF93DF93EC01B3
S11301B0FC0111924F01BC01CF010E9448245E0151
S11301C0FFE0AF0EB11CBE01C5010E942727BE018E
S11301D0CE0188599D4F0E943A146E0186E8C81AD0
S11301E08DEFD80ABE01C6010E943D1F7E01ECE7D7
S11301F0EE1AEDEFFE0ABE01C7010E944D218E01E9
S113020002571D4FBE01C8010E946A1DFE01EA5536
S1130210FD4F11821082369610821182128213824F
S1130220349610821182128213823496108231968F
S1130230108231961082319610827F97918280824B
S11302403296B182A0823296CE018C589D4F918312
S113025080833296D182C0823296F182E082CE557A
S1130260DD4F19830883DF91CF911F910F91FF9088
S1130270EF90DF90CF90BF90AF909F908F900895B4
S1130280EF92FF920F931F93CF93DF938C01EB01B7
S11302906230710534F1FB01EE0FFF1FE95AFD4F87
S11302A0E080F1808091420981110EC082E499E0DE
S11302B00E947328892B41F088E399E00E948028EA
S11302C082E499E00E947C2860E071E088E399E090
S11302D00E945029B7010E94502964EA78E00E94E4
S11302E05029F801EA55FD4F20813181F901E45B81
S11302F0FE4FEE0FFF1FE00FF11F80819181DC01A3
S1130300ED91FC910280F381E02DBE010995DF910E
S1130310CF911F910F91FF90EF900895EF92FF926C
S11303201F93CF93DF93EC01FC01EA55FD4F01903D
S1130330F081E02DE45BFE4FEE0FFF1FE80FF91F85
S113034080819181DC01ED91FC910190F081E02D9F
S113035009950E947612FE01E855FD4F6083718372
S11303608283938362E070E0CE018ADF80914A0940
S113037081110DC08AE499E00E947328892B39F019
S11303808DEF98E010D38AE499E00E947C288DEFE9
S113039098E00E94020B182FE82EF12C809142095C
S11303A081110EC082E499E00E947328892B41F0E8
S11303B088E399E00E94802882E499E00E947C28E6
S11303C062E171E088E399E00E945029B7010E943C
S11303D0482964EA78E00E94502981E0FE01EB5448
S11303E0FD4F808380913A0981110EC08AE399E020
S11303F00E947328892B41F084E399E00E94B70B93
S11304008AE399E00E947C2884E399E00E94DA0B55
S113041080914A0981110DC08AE499E00E947328F1
S1130420892B39F08DEF98E0BED28AE499E00E94DE
S11304307C288DEF98E00E944D0A80914A09811131
S11304400DC08AE499E00E947328892B39F08DEF5E
S113045098E0A9D28AE499E00E947C288DEF98E084
S11304600E94800A1123A1F080914A0981110DC0D4
S11304708AE499E00E947328892B39F08DEF98E083
S113048092D28AE499E00E947C2881E08093FF085C
S11304901882DF91CF911F91FF90EF900895EF9212
S11304A0FF920F931F93CF93DF938C01EB017A019B
S11304B08091FC088823C1F08091420981110EC00B
S11304C082E499E00E947328892B41F088E399E043
S11304D00E94802882E499E00E947C286CE171E00B
S11304E088E399E00E94502981E08093FC08F80198
S11304F0EA55FD4F208131812C173D0709F460C076
S1130500C730D105F4F5F901E45BFE4FEE0FFF1F90
S1130510E00FF11F80819181DC01ED91FC91048059
S1130520F581E02D0995F801EA55FD4FD183C0838B
S1130530C45BDE4FCC0FDD1FC00FD11F88819981B2
S1130540DC01ED91FC910190F081E02D0995E1141D
S1130550F104B1F1F801EA55FD4F80819181845B8A
S11305609E4F880F991FF801E80FF91F8081918130
S1130570DC01ED91FC910280F381E02DB701099536
S11305801FC08091420981110EC082E499E00E944B
S11305907328892B41F088E399E00E94802882E443
S11305A099E00E947C2866E471E088E399E00E9467
S11305B05029BE010E94482964EA78E00E9450292B
S11305C01092FC08DF91CF911F910F91FF90EF9053
S11305D008951F93CF93DF93EC0180915F098823E3
S11305E009F43FC08091420981110EC082E499E070
S11305F00E947328892B41F088E399E00E948028A7
S113060082E499E00E947C2869E571E088E399E03E
S11306100E9450290E947612FE01E455FD4F60832A
S113062071838283938380914A0981110DC08AE486
S113063099E00E947328892B39F08DEF98E0B3D1AB
S11306408AE499E00E947C288DEF98E0DBD7FE01D4
S1130650EA54FD4F808310925F0981E031978083D3
S113066007C0FE01EB54FD4F8081882309F48BC041
S1130670FE01E455FD4F208131814281538168EEB2
S113068073E080E090E00E948112882309F47BC02B
S11306908091420981110EC082E499E00E9473287E
S11306A0892B41F088E399E00E94802882E499E054
S11306B00E947C286BE671E088E399E00E9450294F
S11306C0FE01EB54FD4F10823196108180914A094E
S11306D081110DC08AE499E00E947328892B39F0B6
S11306E08DEF98E060D18AE499E00E947C288DEF38
S11306F098E088D7181347C0FE01EA54FD4F808163
S1130700882309F18091420981110EC082E499E0A5
S11307100E947328892B41F088E399E00E94802885
S113072082E499E00E947C2865E871E088E399E01E
S11307300E94502968E070E0CE01A2DDFE01E95478
S1130740FD4F108220C08091420981110EC082E4C5
S113075099E00E947328892B41F088E399E00E9474
S1130760802882E499E00E947C2866E971E088E3AD
S113077099E00E94502969E070E0CE0181DDFE011C
S1130780E954FD4F108280915E098823F9F010929C
S11307905E098091420981110EC082E499E00E94B1
S11307A07328892B41F088E399E00E94802882E431
S11307B099E00E947C2868EA71E088E399E00E944D
S11307C050296AE070E0CE015BDD82C080914A0965
S11307D081110DC08AE499E00E947328892B39F0B5
S11307E08DEF98E0E0D08AE499E00E947C288DEFB8
S11307F098E02AD1882321F062E070E0CE0140DD48
S113080080914A0981110DC08AE499E00E947328FD
S1130810892B39F08DEF98E0C6D08AE499E00E94E4
S11308207C288DEF98E063D1882321F063E070E0A9
S1130830CE0126DD80914A0981110DC08AE499E038
S11308400E947328892B39F08DEF98E0ACD08AE4AC
S113085099E00E947C288DEF98E05FD1882321F0F5
S113086064E070E0CE010CDD80914A0981110DC075
S11308708AE499E00E947328892B39F08DEF98E07F
S113088092D08AE499E00E947C288DEF98E05DD1B3
S1130890882321F066E070E0CE01F2DC80914A0901
S11308A081110DC08AE499E00E947328892B39F0E4
S11308B08DEF98E078D08AE499E00E947C288DEF4F
S11308C098E05FD1882321F065E070E0CE01D8DCA8
S11308D080914A0981110DC08AE499E00E9473282D
S11308E0892B39F08DEF98E05ED08AE499E00E947C
S11308F07C288DEF98E061D1882329F0188267E085
S113090070E0CE01BDDCDF91CF911F910895CF93AC
S1130910DF93EC0180914A0981110DC08AE499E0CA
S11309200E947328892B39F08DEF98E03CD08AE43B
S113093099E00E947C288DEF98E060D0CE0149DEDA
S1130940FE01E855FD4F208131814281538162E3EC
S113095070E080E090E00E948112882309F1809188
S11309604A0981110DC08AE499E00E947328892BF9
S113097039F08DEF98E017D08AE499E00E947C2842
S11309808091FF08882321F061E070E0CE0178DCDB
S11309900E947612C855DD4F688379838A839B83CE
S11309A0DF91CF910895CF93DF93EC011A821B82DC
S11309B004960E94C912CE010D960E94C912CE015E
S11309C046960E94C912CE014F960E94C912CE01CA
S11309D088960E94C91219AA1AAADF91CF91089584
S11309E080EF81B914B880E887B986E08AB90895A0
S11309F012B88FEF85B988EF8BB90895CF93DF9341
S1130A00EC010D960E941913CE0104960E9419134D
S1130A10CE014F960E941913CE0146960E941913D7
S1130A20CE0188960E941913DF91CF91089584E036
S1130A3080936B0087E180936C0088EE8093730051
S1130A408BE0809368000895EF92FF920F931F93B9
S1130A50CF93FC0191E08585811101C090E001E014
S1130A608481811101C000E0C1E080915C098013A0
S1130A7001C0C0E081E020915D09291301C080E03C
S1130A80C82B90935D0900935C09CC2349F110E0D5
S1130A90E92EF12C8091420981110EC082E499E083
S1130AA00E947328892B41F088E399E00E948028F2
S1130AB082E499E00E947C286DE672E088E399E084
S1130AC00E945029B7010E94482961E276E00E9401
S1130AD05029B8010E94482964EA78E00E9450290C
S1130AE08C2FCF911F910F91FF90EF90089593B1A8
S1130AF0977181E020915B09291301C080E09093F4
S1130B005B09089593B1947281E020915A092913E5
S1130B1001C080E090935A09089583B183FB88272C
S1130B2080F993B196FB992790F9209159092813DC
S1130B3004C020915809921731F080935909909379
S1130B40580981E0089580E0089523B1221F2227E7
S1130B50221F31E0FC018689811101C030E091E05F
S1130B6080915609821301C090E081E040915709B9
S1130B70431301C080E03093570920935609892B11
S1130B80089523B125FB222720F931E0FC01878D4C
S1130B90811101C030E091E080915409821301C0B9
S1130BA090E081E040915509431301C080E0309307
S1130BB0550920935409892B0895FC0190A591119E
S1130BC003C08091530901C080E021E0911101C06C
S1130BD020E0209353090895CF93DF93EC0100DFC5
S1130BE0CE0106DF43E063E0CE014F960E940D1371
S1130BF044E063E0CE0188960E940D1345E063E073
S1130C00CE0146960E940D1346E063E0CE010D9698
S1130C100E940D1347E063E0CE0104960E940D1379
S1130C20CE0193DFCE01ADDFCE010EDFCE016ADF50
S1130C30CE015DDFCE01C1DFCE016FDF19AA1AAA92
S1130C40CE01F5DE0E9476126BAB7CAB8DAB9EAB16
S1130C50DF91CF91089521E0FC018689811120E084
S1130C60822F089521E0FC01878D811120E0822FDD
S1130C7008958091420981110EC082E499E00E9496
S1130C807328892B41F088E399E00E94802882E44C
S1130C9099E00E947C2865E772E088E399E00E946D
S1130CA05029159A80913A0981110DC08AE399E07F
S1130CB00E947328892B39F084E399E058D58AE39C
S1130CC099E00E947C2884E399E05CC58091420904
S1130CD081110EC082E499E00E947328892B41F0AF
S1130CE088E399E00E94802882E499E00E947C28AD
S1130CF063E872E088E399E00E9450291598809196
S1130D003A0981110DC08AE399E00E947328892B66
S1130D1039F084E399E02BD58AE399E00E947C289A
S1130D2084E399E035C58091420981110EC082E4C3
S1130D3099E00E947328892B41F088E399E00E948E
S1130D40802882E499E00E947C2862E972E088E3CA
S1130D5099E00E945029149A80913A0981110DC09A
S1130D608AE399E00E947328892B39F084E399E09F
S1130D70FED48AE399E00E947C2884E399E00EC5BE
S1130D808091420981110EC082E499E00E94732887
S1130D90892B41F088E399E00E94802882E499E05D
S1130DA00E947C2860EA72E088E399E00E9450295E
S1130DB0149880913A0981110DC08AE399E00E9448
S1130DC07328892B39F084E399E0D1D48AE399E03C
S1130DD00E947C2884E399E0E7C4CF93DF93EC017D
S1130DE06130710531F06230710559F0672B69F497
S1130DF004C06CDFCE0197DF0BC0C2DFCE0139DF48
S1130E0007C064DFCE01BCDF03C060DFCE01B8DF02
S1130E10DF91CF9108958091420981110EC082E43F
S1130E2099E00E947328892B41F088E399E00E949D
S1130E30802882E499E00E947C286FEA72E088E3CB
S1130E4099E00E945029179A80913A0981110DC0A6
S1130E508AE399E00E947328892B39F084E399E0AE
S1130E6086D48AE399E00E947C2884E399E0AEC4A6
S1130E708091420981110EC082E499E00E94732896
S1130E80892B41F088E399E00E94802882E499E06C
S1130E900E947C286CEB72E088E399E00E94502960
S1130EA0179880913A0981110DC08AE399E00E9454
S1130EB07328892B39F084E399E059D48AE399E0C3
S1130EC00E947C2884E399E087C4809142098111BF
S1130ED00EC082E499E00E947328892B41F088E3D4
S1130EE099E00E94802882E499E00E947C286AECC0
S1130EF072E088E399E00E945029169A80913A0999
S1130F0081110DC08AE399E00E947328892B39F07E
S1130F1084E399E02CD48AE399E00E947C2884E35A
S1130F2099E060C48091420981110EC082E499E085
S1130F300E947328892B41F088E399E00E9480285D
S1130F4082E499E00E947C2867ED72E088E399E0EE
S1130F500E945029169880913A0981110DC08AE3A4
S1130F6099E00E947328892B39F084E399E0FFD338
S1130F708AE399E00E947C2884E399E039C4CF9302
S1130F80DF93EC018C81811177C08091420981113A
S1130F900EC082E499E00E947328892B41F088E313
S1130FA099E00E94802882E499E00E947C2865EE02
S1130FB072E088E399E00E94502989A98823F1F01E
S1130FC08091420981110EC082E499E00E94732845
S1130FD0892B41F088E399E00E94802882E499E01B
S1130FE00E947C286FEE72E088E399E00E94502909
S1130FF0CE013EDFCE016ADE19AA3EC08AA988234B
S1131000E9F08091420981110EC082E499E00E94C6
S11310107328892B41F088E399E00E94802882E4B8
S113102099E00E947C2869EF72E088E399E00E94CD
S11310305029CE0177DFCE01A3DE1AAA809142099E
S113104081110EC082E499E00E947328892B41F03B
S113105088E399E00E94802882E499E00E947C2839
S113106063E073E088E399E00E945029CE01D3DE67
S1131070CE01FFDD81E089AB8D858111A6C0809111
S1131080420981110EC082E499E00E947328892BE1
S113109041F088E399E00E94802882E499E00E946C
S11310A07C286CE073E088E399E00E9450298AA9C7
S11310B08823F1F08091420981110EC082E499E005
S11310C00E947328892B41F088E399E00E948028CC
S11310D082E499E00E947C2869EF72E088E399E059
S11310E00E945029CE011EDFCE014ADE1AAA6DC02D
S11310F089A98823E9F08091420981110EC082E414
S113110099E00E947328892B41F088E399E00E94BA
S1131110802882E499E00E947C286FEE72E088E3E4
S113112099E00E945029CE01A3DECE01CFDD19AA99
S11311308091420981110EC082E499E00E947328D3
S1131140892B41F088E399E00E94802882E499E0A9
S11311500E947C2869E173E088E399E00E945029A9
S11311608091600981110EC080E699E00E94732885
S1131170892B41F082E599E00E94A40080E699E081
S11311800E947C2882E599E002D8882311F0CE01E0
S11311909CDE8091600981110EC080E699E00E9476
S11311A07328892B41F082E599E00E94A40080E62F
S11311B099E00E947C2882E599E00E94C900882376
S11311C011F0CE01B0DD81E08AABDF91CF910895BB
S11311D0FF920F931F93CF93DF93EC0103B102703F
S11311E093B113B1117083B18470F82E94FF05C0CC
S11311F0CE0111DE81E089AB03C0CE0139DE19AA2C
S1131200FF2029F0CE0135DD81E089AB03C0CE019A
S11312105DDD19AA0023E9F08091600981110EC0F7
S113122080E699E00E947328892B41F082E599E0D9
S11312300E94A40080E699E00E947C2882E599E05F
S11312400E94C700882301F1CE013FDE81E08AAB12
S11312501BC08091600981110EC080E699E00E9454
S11312607328892B41F082E599E00E94A40080E66E
S113127099E00E947C2882E599E00E94C9008823B5
S113128019F0CE014FDE1AAA1123E9F0809160090A
S113129081110EC080E699E00E947328892B41F0E9
S11312A082E599E00E94A40080E699E00E947C28EF
S11312B082E599E00E94C900882341F0CE0133DD24
S11312C081E08AAB03C0CE015BDD1AAADF91CF9126
S11312D01F910F91FF9008951F93CF93DF93EC011B
S11312E083B113B1107483FF1BC089A9882331F023
S11312F0CE01BEDDCE01EADC19AA12C08AA9882378
S113130029F0CE010FDECE013BDD1AAACE0183DD2A
S1131310CE01AFDC81E089AB1AAA11110DC04AC01D
S1131320112309F447C08AA9882331F0CE01FADDDC
S1131330CE0126DD1AAA3EC089A9882329F0CE0150
S113134097DDCE01C3DC19AA8091600981110EC01A
S113135080E699E00E947328892B41F082E599E0A8
S11313600E94A40080E699E00E947C2882E599E02E
S11313700E94C700882311F0CE01A7DD8091600987
S113138081110EC080E699E00E947328892B41F0F8
S113139082E599E00E94A40080E699E00E947C28FE
S11313A082E599E00E94C900882311F0CE01BBDCDC
S11313B081E08AABDF91CF911F910895CF93DF93A2
S11313C0EC0184DCCE01DCDCCE0152DDCE01AADDF1
S11313D0DF91CF910895CF93DF93EC0161307105D4
S11313E031F06230710559F0672B69F404C040DDB7
S11313F0CE016BDD0BC00FDDCE0194DD07C038DDFF
S1131400CE0190DD03C034DDCE018CDDDF91CF91C0
S11314100895EF92FF920F931F93CF93DF93EC0104
S11314200AA910E0E9A8F12C8091420981110EC0AB
S113143082E499E00E947328892B41F088E399E0C3
S11314400E94802882E499E00E947C2862E273E092
S113145088E399E00E945029B7010E94482961E27B
S113146076E00E945029B8010E94482964EA78E095
S11314700E94502989A9811104C09AA981E0892771
S113148001C080E0DF91CF911F910F91FF90EF9009
S113149008955A9A08955A980895479A089547982E
S11314A00895CF93DF93EC0180913A0981110DC027
S11314B08AE399E00E947328892B39F084E399E048
S11314C056D18AE399E00E947C2884E399E0AED166
S11314D0CE0174DFCE01E3DFCE01DDDF19AA1AAA43
S11314E0F89483B7817F846083BF83B7816083BFAF
S11314F07894889583B78E7F83BFDF91CF910895C9
S1131500CF93DF93EC01C5DFCE01C7DF80913A09A9
S113151081110DC08AE399E00E947328892B39F068
S113152084E399E024D18AE399E00E947C2884E34F
S113153099E026D180913A0981110DC08AE399E09E
S11315400E947328892B39F084E399E010D18AE34F
S113155099E00E947C2884E399E012D180913A09B1
S113156081110DC08AE399E00E947328892B39F018
S113157084E399E0FCD08AE399E00E947C2884E328
S113158099E0FED080913A0981110DC08AE399E077
S11315900E947328892B39F084E399E0E8D08AE328
S11315A099E00E947C2884E399E0EAD080913A098A
S11315B081110DC08AE399E00E947328892B39F0C8
S11315C084E399E0D4D08AE399E00E947C2864E61D
S11315D084E399E0C9D080913A0981110DC08AE36E
S11315E099E00E947328892B39F084E399E0BFD0F5
S11315F08AE399E00E947C2884E399E0DBD0DF91C0
S1131600CF91089580B182FB882780F90895CF9304
S1131610DF93EC0189A9882329F0CE01FCDBCE01FC
S113162028DB07C08AA9882321F0CE017BDCCE0108
S1131630A7DBDF91CF9108951F920F920FB60F92FF
S113164011248F9381E080935F098F910F900FBED7
S11316500F901F9018951F920F920FB60F9211249E
S11316608F9381E080935E098F910F900FBE0F904E
S11316701F9018951F920F920FB60F9211248F93FB
S113168081E080935E098F910F900FBE0F901F90A1
S113169018952CE0FC0120832DE021830C944D2728
S11316A080E40E948B27811145C080E80E94B727FF
S11316B0811140C080E80E94B72781113BC00E947D
S11316C0B727811137C08FEF0E94B727811132C02D
S11316D08FEF0E94B72781112DC08FEF0E94B7278B
S11316E0811128C08FEF0E94B727811123C08FEF8B
S11316F00E94B72781111EC08FEF0E94B727811166
S113170019C08FEF0E94B727811114C08FEF0E9478
S1131710B72781110FC08FEF0E94B72781110AC02C
S11317200E94B727811106C00E94B727811102C009
S11317300E94B7270C94B327CF93DF93C62FD42FDF
S113174080E40E948B2781110CC08C2F0E94B72744
S1131750811107C08D2F0E94B727811102C00E94FA
S1131760B327DF91CF910895462F6AE0E5CFCF9359
S1131770DF93EC018EDF1A821B82DF91CF910895F3
S11317808FCF0895FC014281406342836081D4CFAE
S1131790FC0142814F7C42836081CECFFC014381B6
S11317A04C6043836181C8CFFC014381437F438301
S11317B06181C2CFFC014381406C43836181BCCF12
S11317C0FC0143814F7343836181B6CFFC014281A5
S11317D0406C42836081B0CFFC0142814F734283ED
S11317E06081AACFFC014381406343836181A4CF1C
S11317F0FC0143814F7C438361819ECFFC01438183
S113180043604383618198CFFC0143814C7F4383D0
S1131810618192CFFC0142814C60428360818CCF14
S1131820FC014281437F4283608186CFCF93DF9363
S1131830EC01AEDFCE01B8DFCE01C2DFCE01CCDFDA
S1131840CE01D6DFCE01E0DFCE01EADFDF91CF911A
S11318500895CF92DF92EF92FF92CF93DF93EC0142
S11318608C81882319F08130D9F034C080916009CB
S113187081110EC080E699E00E947328892B41F003
S113188082E599E00E94A40080E699E00E947C2809
S113189082E599E00E94C3006C01E12CF12C1DC08B
S11318A08091600981110EC080E699E00E9473283E
S11318B0892B41F082E599E00E94A40080E699E03A
S11318C00E947C2882E599E00E94C5006C01E12C0D
S11318D0F12C03C0C12CD12C7601FE01ED5DFE4F2D
S11318E0208131814281538168EE73E080E090E091
S11318F008D6882389F1FE01E15EFE4F8081918143
S1131900A281B3818C159D05AE05BF0564F434979F
S1131910A7019601281B390B4A0B5B0B20833183EB
S1131920428353830BC0FE01E55EFE4F8C199D0973
S1131930AE09BF0980839183A283B383FE01E15E74
S1131940FE4FC082D182E282F382D0D5CD5DDE4FDC
S1131950688379838A839B83C701B601DF91CF9122
S1131960FF90EF90DF90CF900895CF93DF93EC0139
S11319708AE090E09983888384E690E0A0E0B0E078
S11319808D839E83AF83B88719868AEF90E0A0E0A9
S1131990B0E08AA39BA3ACA3BDA384E690E098A780
S11319A08FA38CE993E09AA789A7FE01E15FFE4F1C
S11319B010823B9610829AD56A877B878C879D8795
S11319C0CE0147DFB82FA72F962F88278E879F87B2
S11319D0A88BB98B8BD56A8F7B8F8C8F9D8FDF9172
S11319E0CF910895CF92DF92EF92FF921F93CF93FE
S11319F0DF93EC01162F2DDFFE01E950FF4F9E010E
S1131A00255F3E4F61937193E217F307D9F7AB015A
S1131A10FE01BB969E012D503F4F41935193E21717
S1131A20F307D9F7CC24D62EE72EF82ECE86DF8600
S1131A30E88AF98AFE01E85EFE4F118210821C8357
S1131A403897118210823296118210823996108250
S1131A50118212821382349660837183828393830A
S1131A6045D5CD5DDE4F688379838A839B83DF917F
S1131A70CF911F91FF90EF90DF90CF900895FC01DC
S1131A808481882319F08130B1F0089580914A0946
S1131A9081110EC08AE499E00E947328892B41F0D9
S1131AA08DEF98E00E94D3048AE499E00E947C2898
S1131AB08DEF98E0B0C980914A0981110EC08AE483
S1131AC099E00E947328892B41F08DEF98E00E94E1
S1131AD0D3048AE499E00E947C288DEF98E0C9C879
S1131AE0FC018481882319F08130B1F0089580913C
S1131AF04A0981110EC08AE499E00E947328892B57
S1131B0041F08DEF98E00E94D3048AE499E00E94AA
S1131B107C288DEF98E0ACC980914A0981110EC0F0
S1131B208AE499E00E947328892B41F08DEF98E0B4
S1131B300E94D3048AE499E00E947C288DEF98E007
S1131B40C5C8FC018481882319F08130B1F008955F
S1131B5080914A0981110EC08AE499E00E94732899
S1131B60892B41F08DEF98E00E94D3048AE499E038
S1131B700E947C288DEF98E0A8C980914A098111C0
S1131B800EC08AE499E00E947328892B41F08DEFFE
S1131B9098E00E94D3048AE499E00E947C288DEFA7
S1131BA098E0C1C8FC018481882319F08130B1F028
S1131BB0089580914A0981110EC08AE499E00E9437
S1131BC07328892B41F08DEF98E00E94D3048AE4B6
S1131BD099E00E947C288DEF98E0A4C980914A097D
S1131BE081110EC08AE499E00E947328892B41F088
S1131BF08DEF98E00E94D3048AE499E00E947C2847
S1131C008DEF98E0BDC8EF92FF921F93CF93DF93BF
S1131C10EC01162F8091420981110EC082E499E0F3
S1131C200E947328892B41F088E399E00E94802860
S1131C3082E499E00E947C286CE273E088E399E0F6
S1131C400E945029EC81F0E0EE0FFF1FED50FC4F95
S1131C50E080F1808091420981110EC082E499E014
S1131C600E947328892B41F088E399E00E94802820
S1131C7082E499E00E947C28B70188E399E00E94FD
S1131C805029E12FF0E0EE0FFF1FED51FC4FE080F3
S1131C90F1808091420981110EC082E499E00E9492
S1131CA07328892B41F088E399E00E94802882E41C
S1131CB099E00E947C28B70188E399E00E945029AA
S1131CC08091420981110EC082E499E00E94732838
S1131CD0892B41F088E399E00E94802882E499E00E
S1131CE00E947C2865E373E088E399E00E94502910
S1131CF01987DF91CF911F91FF90EF900895CF93B3
S1131D00DF93EC01EDDE65E0CE017DDFEFD36A8B7E
S1131D107B8B8C8B9D8BDF91CF910895CF93DF9339
S1131D20EC0140DF65E0CE016EDFE0D36A8B7B8B94
S1131D308C8B9D8BDF91CF910895FC01E05FFE4F6A
S1131D40208131812436310514F011821082DC01A6
S1131D50A05FBE4F2D913C911197F901EE0FFF1F2B
S1131D60E80FF91F74A763A72F5F3F4F2D933C9390
S1131D70FC01BB969C012D503F4F40E050E0BA015E
S1131D8081919191092E000CAA0BBB0B480F591F8E
S1131D906A1F7B1FE217F30799F7CB01BA0124E608
S1131DA030E040E050E00E943E2BC9010895FC0160
S1131DB0EE5EFE4F208131812A30310514F011820C
S1131DC01082DC01AE5EBE4F2D913C911197F9015A
S1131DD0EE0FFF1FE80FF91FE950FF4F7183608377
S1131DE02F5F3F4F2D933C93FC01E950FF4F9C0123
S1131DF0255F3E4F80E090E0DC0141915191052E3A
S1131E00000C660B770B840F951FA61FB71FE217F4
S1131E10F30799F7BC01CD012AE030E040E050E03F
S1131E200E943E2BC90108950F931F93FC01E15FAB
S1131E30FE4F2081211111C0662309F44CC0349750
S1131E4040815181E05EF1099C012D503F4F419347
S1131E505193E217F307D9F729C0FC01E55FFE4F60
S1131E600081118122813381322F212F102F0027ED
S1131E70FC0106871787208B318BE15FFE4F60835F
S1131E80662351F048E853E160E070E0FC014583CB
S1131E9056836783708733C044E650E060E070E0A7
S1131EA0FC01458356836783708729C0FC01E55F85
S1131EB0FE4F4081518162817381762F652F542FAB
S1131EC04427FC0146875787608B718B21E0E15FD3
S1131ED0FE4F2083D7CFFC01E55FFE4F4081518147
S1131EE062817381762F652F542F4427FC01468726
S1131EF05787608B718BE15FFE4F1082CDCF1F91AE
S1131F000F910895FC01E65EFE4F608360E07BCE96
S1131F10FC01E65EFE4F80810895CF92DF92EF923E
S1131F20FF920F931F93CF93DF93EC016A017B0120
S1131F302A853B854C855D856D817E818F81988561
S1131F40E0D2882309F40DC1FE01E15FFE4F8081D8
S1131F50882309F44BC0B601CE0129DFFE01E55FF9
S1131F60FE4FAC0160E070E0408351836283738371
S1131F703D96208131812A3031057CF11182108215
S1131F80BC01CE01DADEA0E0B0E0FE01ED50FF4F6F
S1131F9080839183A283B3834E855F856889798921
S1131FA0052F162F272F332727FD3A95401B510B5A
S1131FB0620B730B840F951FA61FB71F8E879F8715
S1131FC0A88BB98BB196892F9A2FAB2FBB27A7FD6E
S1131FD0BA9580839183A283B383FE01E85EFE4FAA
S1131FE08081918101969183808328C0FE01E55F01
S1131FF0FE4FC082D182E282F3828E859F85A889BA
S1132000B989492F5A2F6B2F772767FD7A95841B3F
S1132010950BA60BB70B8C0D9D1DAE1DBF1D8E879A
S11320209F87A88BB98B3996892F9A2FAB2FBB2703
S1132030A7FDBA9580839183A283B38357D26A871D
S11320407B878C879D872A8D3B8D4C8D5D8D6AEFB8
S113205070E080E090E055D2882309F482C08C813E
S1132060882319F0813089F177C080914209811168
S11320700EC082E499E00E947328892B41F088E322
S113208099E00E94802882E499E00E947C2869E318
S113209073E088E399E00E945029809142098111FC
S11320A00EC082E499E00E947328892B41F088E3F2
S11320B099E00E94802882E499E00E947C28B6017D
S11320C088E399E00E94402947C080914209811128
S11320D00EC082E499E00E947328892B41F088E3C2
S11320E099E00E94802882E499E00E947C2862E4BE
S11320F073E088E399E00E9450298091420981119C
S11321000EC082E499E00E947328892B41F088E391
S113211099E00E94802882E499E00E947C28B6011C
S113212088E399E00E9440298091420981110EC000
S113213082E499E00E947328892B41F088E399E0B6
S11321400E94802882E499E00E947C2865E676E07B
S113215088E399E00E945029C9D16A8F7B8F8C8FC4
S11321609D8FDF91CF911F910F91FF90EF90DF90A2
S1132170CF9008954F925F926F927F928F929F9229
S1132180AF92BF92CF92DF92EF92FF920F931F9381
S1132190CF93DF93EC014A015B015BDB6B017C01B4
S11321A049A45AA4052C000C66087708481459045D
S11321B06A047B047CF08FA198A5092E000CAA0B5D
S11321C0BB0B2401350188169906AA06BB0614F434
S11321D02C013D0193018201B701A601CE019DDED0
S11321E0E9858E2F90E08730910508F03FC1FC010E
S11321F0EA5BFF4F0C94602BCE0172DCCE01D2DC83
S113220066E0CE0100DD72D16A8B7B8B8C8B9D8B5B
S113221051C12A893B894C895D8968EE73E080E06D
S113222090E06FD1882309F445C1BE2DAD2D9C2DBE
S113223088278E879F87A88BB98BFE01BB96CE011A
S11322408D509F4FC192D192E817F907D9F74ED11B
S11322506A8B7B8B8C8B9D8B1EA266E0CE01D3DCBC
S113226029C1FE01EC5EFE4F408151816281738180
S113227088819981092E000CAA0BBB0B53014201E2
S1132280881A990AAA0ABB0A481559056A057B05E2
S11322900CF04DC035978081882361F02A893B89F1
S11322A04C895D8968E873E180E090E02AD1882355
S11322B009F400C161E0CE01A6DCCE01E0DB688157
S11322C07981CB01880F991F880F991F860F971F5B
S11322D0092E000CAA0BBB0BA3019201281B390B7E
S11322E04A0B5B0B2C153D054E055F050CF0E2C057
S11322F04C185D08C201992324F48827992784196E
S113230095090E942B2B2AA13BA14CA15DA1DB01C5
S11323100E94692B6E8F7F8F88A399A3E7D06E8B61
S11323207F8B888F998F62E0CE016DDCC3C0840DF2
S1132330951DA61DB71D84179507A607B7070CF0B2
S11323404DC0FE01E15FFE4F8081882361F02A8940
S11323503B894C895D8968E873E180E090E0D1D0E5
S1132360882309F4A7C063E0CE014DDCCE01E9DB8C
S113237068817981CB01880F991F880F991F860F77
S1132380971F092E000CAA0BBB0B840D951DA61DCF
S1132390B71DC816D906EA06FB060CF08BC0C41894
S11323A0D508C601992324F4882799278C199D09F7
S11323B00E942B2B2AA13BA14CA15DA1DB010E9411
S11323C0692B6E8F7F8F88A399A390D06E8B7F8BA0
S11323D0888F998F64E0CE0116DC6CC0C65EDE4F38
S11323E081E0888367C02E893F89488D598D6E8D21
S11323F07F8D88A199A185D0882309F45BC0CE0183
S11324007EDC58C088819981092E000CAA0BBB0B75
S1132410481A590A6A0A7B0AC414D504E604F70464
S11324200CF448C0CE016BDC45C02E893F89488D31
S1132430598D6E8D7F8D88A199A163D0882309F46D
S113244039C0CE016BDC36C088819981092E000C1D
S1132450AA0BBB0B480E591E6A1E7B1E4C145D044E
S11324606E047F043CF1CE0159DC24C08091420902
S113247081110EC082E499E00E947328892B41F0F7
S113248088E399E00E94802882E499E00E947C28F5
S11324906DE473E088E399E00E945029CE0120DBCB
S11324A0CE0180DB65E0CE01AEDB20D06A8B7B8B76
S11324B08C8B9D8BDF91CF911F910F91FF90EF90AB
S11324C0DF90CF90BF90AF909F908F907F906F9050
S11324D05F904F90089582E084BD93E095BD16BC53
S11324E099EF97BD18BC80936E000895789460911D
S11324F068097091690980916A0990916B09F8944F
S113250008958F929F92AF92BF92CF92DF92EF92F3
S1132510FF926B017C0149015A01E8DFAB01BC0168
S1132520481959096A097B0981E0C416D506E606EB
S1132530F70608F080E0FF90EF90DF90CF90BF9017
S1132540AF909F908F9008951F920F920FB60F92A5
S113255011248F939F93AF93BF93809168099091B7
S11325606909A0916A09B0916B090196A11DB11D79
S11325708093680990936909A0936A09B0936B09E1
S1132580BF91AF919F918F910F900FBE0F901F90AD
S11325901895FC01108211828FEF828313821482BA
S11325A015821682178210860895FC01918191305C
S11325B089F028F09230C9F0933011F12CC020B189
S11325C030E0C901028002C0959587950A94E2F72C
S11325D08170089523B130E0C901028002C095954D
S11325E087950A94E2F78170089526B130E0C90115
S11325F0028002C0959587950A94E2F78170089548
S113260029B130E0C901028002C0959587950A94EA
S1132610E2F78170089580E00895CF93DF93EC0191
S113262069834A83C2DF888381E08887DF91CF9101
S11326300895CF93DF93EC018F81882319F08130C3
S113264089F026C0CE01B1DF288130E090E0281760
S11326503907F1F04BDF6B837C838D839E8381E0AC
S11326608F8316C02B813C814D815E816AE070E0CE
S113267080E090E046DF882359F0CE0196DF288180
S113268030E0482F50E02417350711F088831F826B
S1132690DF91CF9108958091420981110EC082E4A7
S11326A099E00E947328892B41F088E399E00E9405
S11326B0802882E499E00E947C2867EF73E088E335
S11326C099E00E94502980913A0981110DC08AE352
S11326D099E00E947328892B39F084E399E047D864
S11326E08AE399E00E947C2884E399E08DC8DC01A8
S11326F0ED91FC913A9720813181820F931FCBCFCA
S1132700EF92FF920F931F93CF93DF93EC0180918D
S11327103A0981110DC08AE399E00E947328892B3C
S113272039F084E399E023D88AE399E00E947C2875
S113273084E399E063D880917C09811186C08CE799
S113274099E00E947328892B41F08DE699E00E945C
S1132750B52A8CE799E00E947C28E0907409F090F7
S1132760750980917C0981110EC08CE799E00E9463
S11327707328892B41F08DE699E00E94B52A8CE7F5
S113278099E00E947C280091760910917709809144
S1132790420981110EC082E499E00E947328892BBA
S11327A041F088E399E00E94802882E499E00E9445
S11327B07C286CE074E088E399E00E945029B7011A
S11327C00E9448296CE274E00E945029B8010E94DA
S11327D0482965E676E00E94502988DE6A837B8377
S11327E08C839D838091840981110EC084E899E0D3
S11327F00E947328892B41F08CE699E00E94AC2951
S113280084E899E00E947C284DE36AE28CE699E032
S11328100E94252A8091840981110EC084E899E0E0
S11328200E947328892B41F08CE699E00E94AC2920
S113283084E899E00E947C2842E06BE28CE699E00F
S11328400E94252A1A861B8605C0E0907409F09020
S1132850750999CFDF91CF911F910F91FF90EF9060
S11328600895DC01ED91FC91369720813181820F2E
S1132870931F46CFFC017787668782E090E0918BB7
S1132880808B88E995E09183808388EA95E0958739
S1132890848712821382148215828AEF90E0A0E06A
S11328A0B0E086839783A087B18712861386089544
S11328B08F929F92AF92BF92CF92DF92EF92FF924C
S11328C00F931F93CF93DF9300D000D000D0CDB7E8
S11328D0DEB75C011E821D821C821B821A82198251
S11328E08091840981110EC084E899E00E947328C4
S11328F0892B41F08CE699E00E94AC2984E899E0A8
S11329000E947C289E012F5F3F4FAE014D5F5F4FB9
S1132910BE016B5F7F4F8CE699E00E94AD298091E8
S11329207C09811139C48CE799E00E947328892BB2
S113293041F08DE699E00E94B52A8CE799E00E9467
S11329407C28009174091091750980917C0981118A
S11329500EC08CE799E00E947328892B41F08DE624
S113296099E00E94B52A8CE799E00E947C28E090C7
S11329707609F0907709C980DA808B809C808091F9
S1132980420981110EC082E499E00E947328892BC8
S113299041F088E399E00E94802882E499E00E9453
S11329A07C2869E374E088E399E00E945029B4012B
S11329B00E9448296DE374E00E945029B6010E94E8
S11329C04829C980DA80CE18DF088B809C80801A61
S11329D0910A8091420981110EC082E499E00E941B
S11329E07328892B41F088E399E00E94802882E4CF
S11329F099E00E947C2863E474E088E399E00E94F3
S1132A005029B4010E9448296CE474E00E945029C2
S1132A10B6010E94482964EA78E00E94502989811D
S1132A209A8197012E5C3F4F281739070CF023C178
S1132A308B819C8198012E5C3F4F281739070CF03D
S1132A405CC0F5012281338144815581668177819F
S1132A508085918556DD882309F4A3C380914209BA
S1132A6081110EC082E499E00E947328892B41F001
S1132A7088E399E00E94802882E499E00E947C28FF
S1132A8068E574E088E399E00E94502980914A093E
S1132A9081110EC08AE499E00E947328892B41F0C9
S1132AA08DEF98E00E94D3048AE499E00E947C2888
S1132AB060E070E08DEF98E00E94EB0980914A0994
S1132AC081110EC08AE499E00E947328892B41F099
S1132AD08DEF98E00E94D3048AE499E00E947C2858
S1132AE062E070E08DEF98E00E94ED06FFDCF501F6
S1132AF0628373838483958354C3025311098017BB
S1132B0091070CF05CC0F501228133814481558129
S1132B106681778180859185F4DC882309F441C33B
S1132B208091420981110EC082E499E00E947328C9
S1132B30892B41F088E399E00E94802882E499E09F
S1132B400E947C2861E674E088E399E00E945029A1
S1132B5080914A0981110EC08AE499E00E94732889
S1132B60892B41F08DEF98E00E94D3048AE499E028
S1132B700E947C2862E070E08DEF98E00E94EB09EF
S1132B8080914A0981110EC08AE499E00E94732859
S1132B90892B41F08DEF98E00E94D3048AE499E0F8
S1132BA00E947C2860E070E08DEF98E00E94ED06C2
S1132BB09DDCF5016283738384839583F2C2F501FE
S1132BC02281338144815581668177818085918515
S1132BD098DC882309F4E5C28091420981110EC072
S1132BE082E499E00E947328892B41F088E399E0FC
S1132BF00E94802882E499E00E947C2868E574E0C1
S1132C0088E399E00E94502980914A0981110EC0FD
S1132C108AE499E00E947328892B41F08DEF98E0B3
S1132C200E94D3048AE499E00E947C2860E070E06A
S1132C308DEF98E00E94EB0980914A0981110EC042
S1132C408AE499E00E947328892B41F08DEF98E083
S1132C500E94D3048AE499E00E947C2860E070E03A
S1132C608DEF98E00E94ED0641DCF50162837383E9
S1132C708483958396C2F2E3EF1AF1088E159F05BB
S1132C800CF023C18B819C8198012E5C3F4F281747
S1132C9039070CF05CC0F5012281338144815581F0
S1132CA066817781808591852CDC882309F479C23B
S1132CB08091420981110EC082E499E00E94732838
S1132CC0892B41F088E399E00E94802882E499E00E
S1132CD00E947C286BE674E088E399E00E94502906
S1132CE080914A0981110EC08AE499E00E947328F8
S1132CF0892B41F08DEF98E00E94D3048AE499E097
S1132D000E947C2861E070E08DEF98E00E94EB095E
S1132D1080914A0981110EC08AE499E00E947328C7
S1132D20892B41F08DEF98E00E94D3048AE499E066
S1132D300E947C2862E070E08DEF98E00E94ED062E
S1132D40D5DBF50162837383848395832AC202539E
S1132D501109801791070CF05CC0F50122813381C1
S1132D60448155816681778180859185CADB88237A
S1132D7009F417C28091420981110EC082E499E0DE
S1132D800E947328892B41F088E399E00E948028EF
S1132D9082E499E00E947C2866E774E088E399E085
S1132DA00E94502980914A0981110EC08AE499E059
S1132DB00E947328892B41F08DEF98E00E94D30480
S1132DC08AE499E00E947C2862E070E08DEF98E04C
S1132DD00E94EB0980914A0981110EC08AE499E0AE
S1132DE00E947328892B41F08DEF98E00E94D30450
S1132DF08AE499E00E947C2861E070E08DEF98E01D
S1132E000E94ED0673DBF5016283738384839583EB
S1132E10C8C1F5012281338144815581668177815E
S1132E20808591856EDB882309F4BBC180914209BA
S1132E3081110EC082E499E00E947328892B41F02D
S1132E4088E399E00E94802882E499E00E947C282B
S1132E5062E874E088E399E00E94502980914A096D
S1132E6081110EC08AE499E00E947328892B41F0F5
S1132E708DEF98E00E94D3048AE499E00E947C28B4
S1132E8061E070E08DEF98E00E94EB0980914A09BF
S1132E9081110EC08AE499E00E947328892B41F0C5
S1132EA08DEF98E00E94D3048AE499E00E947C2884
S1132EB061E070E08DEF98E00E94ED0617DBF5010C
S1132EC062837383848395836CC18B819C81980115
S1132ED02E5C3F4F281739070CF05CC0F5012281A6
S1132EE0338144815581668177818085918509DBB1
S1132EF0882309F456C18091420981110EC082E4ED
S1132F0099E00E947328892B41F088E399E00E949C
S1132F10802882E499E00E947C2863E974E088E3D5
S1132F2099E00E94502980914A0981110EC08AE4D7
S1132F3099E00E947328892B41F08DEF98E00E945C
S1132F40D3048AE499E00E947C2860E070E08DEF6D
S1132F5098E00E94EB0980914A0981110EC08AE42D
S1132F6099E00E947328892B41F08DEF98E00E942C
S1132F70D3048AE499E00E947C2861E070E08DEF3C
S1132F8098E00E94ED06B2DAF501628373838483CC
S1132F90958307C102531109801791070CF05CC097
S1132FA0F501228133814481558166817781808551
S1132FB09185A7DA882309F4F4C08091420981112C
S1132FC00EC082E499E00E947328892B41F088E3C3
S1132FD099E00E94802882E499E00E947C2867EAB4
S1132FE074E088E399E00E94502980914A09811194
S1132FF00EC08AE499E00E947328892B41F08DEF7A
S113300098E00E94D3048AE499E00E947C2861E05D
S113301070E08DEF98E00E94EB0980914A098111DC
S11330200EC08AE499E00E947328892B41F08DEF49
S113303098E00E94D3048AE499E00E947C2860E02E
S113304070E08DEF98E00E94ED0650DAF50162839E
S1133050738384839583A5C080914A0981110EC02E
S11330608AE499E00E947328892B41F08DEF98E05F
S11330700E94D3048AE499E00E947C2862E070E014
S11330808DEF98E00E94EB0980914A0981110EC0EE
S11330908AE499E00E947328892B41F08DEF98E02F
S11330A00E94D3048AE499E00E947C2862E070E0E4
S11330B08DEF98E00E94ED06F50122813381448171
S11330C0558160E177E280E090E01BDA882309F41F
S11330D068C081E0F50182878091420981110EC0A8
S11330E082E499E00E947328892B41F088E399E0F7
S11330F00E94802882E499E00E947C286BEB74E0B3
S113310088E399E00E945029F5018385882359F1C9
S113311080914A0981110EC08AE499E00E947328C3
S1133120892B41F08DEF98E00E94D3048AE499E062
S11331300E947C281092FF0880914A0981110EC0D8
S11331408AE499E00E947328892B41F08DEF98E07E
S11331500E94D3048AE499E00E947C288DEF98E0D1
S11331600E94510A1EC08091420981110EC082E45E
S113317099E00E947328892B41F088E399E00E942A
S1133180802882E499E00E947C2860ED74E088E362
S113319099E00E94502905C00091740910917509A5
S11331A0E6CB26960FB6F894DEBF0FBECDBFDF91F7
S11331B0CF911F910F91FF90EF90DF90CF90BF9030
S11331C0AF909F908F900895CF93DF93FB01319739
S11331D0EA30F10508F046C2AB01EC01E35BFF4FB6
S11331E00C94602B65DB3EC2E881F98136978081BF
S11331F09181C80FD91F60E070E08A819B810E9491
S11332004F0230C280914A0981110EC08AE499E0CC
S11332100E947328892B41F08DEF98E00E94D3041B
S11332208AE499E00E947C288DEF98E00E946C0962
S1133230E881F981369780819181C80FD91F44E0D4
S113324050E060E070E08A819B810E944F020AC2D4
S11332508091420981110EC082E499E00E94732892
S1133260892B41F088E399E00E94802882E499E068
S11332700E947C2864EE74E088E399E00E9450295F
S1133280E881F98136970190F081E02DEC0FFD1F64
S11332900280F381E02D80818823C9F18091420965
S11332A081110EC082E499E00E947328892B41F0B9
S11332B088E399E00E94802882E499E00E947C28B7
S11332C06BEF74E088E399E00E94502980913A09F9
S11332D081110EC08AE399E00E947328892B41F082
S11332E084E399E00E94B70B8AE399E00E947C286A
S11332F084E399E00E94FE0BE881F981369780818E
S11333009181C80FD91FEA81FB811082ABC18091E2
S11333104A0981110EC08AE499E00E947328892B1E
S113332041F08DEF98E00E94D3048AE499E00E9472
S11333307C288DEF98E00E942B06882309F492C123
S11333408091420981110EC082E499E00E947328A1
S1133350892B41F088E399E00E94802882E499E077
S11333600E947C2869E175E088E399E00E94502975
S1133370E881F981369780819181C80FD91F40E097
S113338050E060E070E08A819B810E944F026AC134
S1133390E881F981369780819181C80FD91F40E077
S11333A050E061E070E08A819B810E944F025AC123
S11333B0E881F981369780819181C80FD91F40E057
S11333C050E065E070E08A819B810E944F024AC10F
S11333D080914A0981110EC08AE499E00E94732801
S11333E0892B41F08DEF98E00E94D3048AE499E0A0
S11333F00E947C2881E08093FF081B861A868091B6
S11334004A0981110EC08AE499E00E947328892B2D
S113341041F08DEF98E00E94D3048AE499E00E9481
S11334207C288DEF98E00E94800A80913A098111EE
S11334300EC08AE399E00E947328892B41F084E34B
S113344099E00E94B70B8AE399E00E947C2884E308
S113345099E00E94FE0B4AD86A837B838C839D8308
S11334608091420981110EC082E499E00E94732880
S1133470892B41F088E399E00E94802882E499E056
S11334800E947C2863E375E088E399E00E94502958
S1133490E9C08A85882309F442C0809142098111D8
S11334A00EC082E499E00E947328892B41F088E3DE
S11334B099E00E94802882E499E00E947C286BE4D1
S11334C075E088E399E00E94502980914A098111AE
S11334D00EC08AE499E00E947328892B41F08DEF95
S11334E098E00E94D3048AE499E00E947C28109218
S11334F0FF0880914A0981110EC08AE499E00E9474
S11335007328892B41F08DEF98E00E94D3048AE45C
S113351099E00E947C288DEF98E00E94510A81E096
S11335208B878091420981110EC082E499E00E9448
S11335307328892B41F088E399E00E94802882E473
S113354099E00E947C286DE575E088E399E00E948B
S1133550502988C080914A0981117FC08AE499E08A
S11335600E947328892B41F08DEF98E00E94D304C8
S11335708AE499E00E947C288091FF0881116AC046
S113358080914A0981110EC08AE499E00E9473284F
S1133590892B41F08DEF98E00E94D3048AE499E0EE
S11335A00E947C288DEF98E00E94800A80914A094D
S11335B081110EC08AE499E00E947328892B41F09E
S11335C08DEF98E00E94D3048AE499E00E947C285D
S11335D081E0809300098091420981110EC082E448
S11335E099E00E947328892B41F088E399E00E94B6
S11335F0802882E499E00E947C2866E775E088E3ED
S113360099E00E9450290E9476126A837B838C83FE
S11336109D83E881F98136970190F081E02DEC0FCC
S1133620FD1F0280F381E02D108280914A098111EF
S11336300EC08AE499E00E947328892B41F08DEF33
S113364098E00E94D3048AE499E00E947C2881E0F7
S11336508093FF0881E08B8705C08091FF0881116A
S1133660F9CFA0CFDF91CF910895DC01ED91FC91CA
S1133670389720813181820F931FA6CD80913A091A
S113368081110EC08AE399E00E947328892B41F0CE
S113369084E399E00E94B70B8AE399E00E947C28B6
S11336A084E399E00E94DA0B8091420981110EC0F3
S11336B082E499E00E947328892B41F088E399E021
S11336C00E94802882E499E00E947C286EEA75E0DA
S11336D088E399E00C945029CF93DF93EC01809117
S11336E0420981110EC082E499E00E947328892B5B
S11336F041F088E399E00E94802882E499E00E94E6
S11337007C2868EC75E088E399E00E9450290E94C7
S113371076126E837F838887998780914A09811105
S11337200EC08AE499E00E947328892B41F08DEF42
S113373098E00E94D3048AE499E00E947C288DEFEB
S113374098E00E94DE09DF91CF910895AF92BF9275
S1133750CF92DF92EF92FF920F931F93CF93DF9359
S113376000D000D000D0CDB7DEB78C016330710536
S113377009F495C044F46130710591F0623071052B
S113378009F48EC196C1653071050CF492C167309D
S113379071050CF485C16730710509F4AFC089C1A6
S11337A0FC0126813781408551856AEF70E080E015
S11337B090E00E948112882309F47BC180918C09D6
S11337C0882399F180913A0981110EC08AE399E026
S11337D00E947328892B41F084E399E00E94B70B7F
S11337E08AE399E00E947C2884E399E00E94DA0B42
S11337F080913A0981110EC08AE399E00E947328EE
S1133800892B41F084E399E00E94B70B8AE399E0A5
S11338100E947C2884E399E00E94FE0B90918C091D
S113382081E0892780938C0932C080913A09811103
S11338300EC08AE399E00E947328892B41F084E347
S113384099E00E94B70B8AE399E00E947C2884E304
S113385099E00E94E00B80913A0981110EC08AE33D
S113386099E00E947328892B41F084E399E00E9437
S1133870B70B8AE399E00E947C2884E399E00E94D4
S1133880040C90918C0981E0892780938C090E9413
S11338907612F80166837783808791870AC18091C5
S11338A0420981110EC082E499E00E947328892B99
S11338B041F088E399E00E94802882E499E00E9424
S11338C07C2863EE75E088E399E00E94502980919A
S11338D04A0981110EC08AE499E00E947328892B59
S11338E041F08DEF98E00E94D3048AE499E00E94AD
S11338F07C288DEF98E00E94E808DBC080914209A3
S113390081110EC082E499E00E947328892B41F052
S113391088E399E00E94802882E499E00E947C2850
S11339206CEF75E088E399E00E9450298091840946
S113393081110EC084E899E00E947328892B41F01C
S11339408CE699E00E94AC2984E899E00E947C28E6
S11339509E012F5F3F4FAE014D5F5F4FBE016B5F16
S11339607F4F8CE699E00E94AD29ED80FE80809126
S11339707C0981110EC08CE799E00E947328892B81
S113398041F08DE699E00E94B52A8CE799E00E9407
S11339907C28F0927309E0927209EB80FC8080919C
S11339A07C0981110EC08CE799E00E947328892B51
S11339B041F08DE699E00E94B52A8CE799E00E94D7
S11339C07C28F0927509E0927409E980FA8080916C
S11339D07C0981110EC08CE799E00E947328892B21
S11339E041F08DE699E00E94B52A8CE799E00E94A7
S11339F07C28F0927709E092760980917C09811104
S1133A000EC08CE799E00E947328892B41F08DE663
S1133A1099E00E94B52A8CE799E00E947C288DE603
S1133A2099E00E94B62AE980FA80CB80DC80AD80E0
S1133A30BE808091420981110EC082E499E00E9407
S1133A407328892B41F088E399E00E94802882E45E
S1133A5099E00E947C286DE076E088E399E00E947A
S1133A605029B5010E94482964E276E00E94502959
S1133A70B6010E9448296AE276E00E945029B70103
S1133A800E94482964EA78E00E94502940E050E00E
S1133A9062E070E0F801828193810E944F0209C0C4
S1133AA040E050E062E070E0F801828193810E947E
S1133AB04F0226960FB6F894DEBF0FBECDBFDF913E
S1133AC0CF911F910F91FF90EF90DF90CF90BF9017
S1133AD0AF900895FC017383628385E090E0958341
S1133AE0848384E396E091838083089580914209DE
S1133AF081110EC082E499E00E947328892B41F061
S1133B0088E399E00E94802882E499E00E947C285E
S1133B106AE376E088E399E00C94502980913A09AD
S1133B2081110EC08AE399E00E947328892B41F029
S1133B3084E399E00E94B70B8AE399E00E947C2811
S1133B4084E399E00E94DA0B8091420981110EC04E
S1133B5082E499E00E947328892B41F088E399E07C
S1133B600E94802882E499E00E947C2862E576E045
S1133B7088E399E00C945029EF92FF920F931F93DE
S1133B80CF93DF93EC016330710509F467C044F40B
S1133B906130710591F06230710509F459C166C153
S1133BA0653071050CF462C1673071050CF450C1C5
S1133BB06730710509F481C059C12E813F81488560
S1133BC059856AEF70E080E090E00E9481128823BA
S1133BD009F44CC180918D098823E9F080913A0958
S1133BE081110EC08AE399E00E947328892B41F069
S1133BF084E399E00E94B70B8AE399E00E947C2851
S1133C0084E399E00E94DA0B90918D0981E0892781
S1133C1080938D091CC080913A0981110EC08AE3FA
S1133C2099E00E947328892B41F084E399E00E9473
S1133C30B70B8AE399E00E947C2884E399E00E9410
S1133C40E00B90918D0981E0892780938D090E9472
S1133C5076126E837F838887998708C18091420991
S1133C6081110EC082E499E00E947328892B41F0EF
S1133C7088E399E00E94802882E499E00E947C28ED
S1133C8068E676E088E399E00E94502980914A0929
S1133C9081110EC08AE499E00E947328892B41F0B7
S1133CA08DEF98E00E94D3048AE499E00E947C2876
S1133CB08DEF98E00E94E808D9C0809160098111D5
S1133CC00EC080E699E00E947328892B41F082E5BA
S1133CD099E00E94A40080E699E00E947C2882E595
S1133CE099E00E94C3008C0180917C0981110EC06F
S1133CF08CE799E00E947328892B41F08DE699E0C6
S1133D000E94B52A8CE799E00E947C2810937909D7
S1133D10009378098091600981110EC080E699E0D2
S1133D200E947328892B41F082E599E00E94A40047
S1133D3080E699E00E947C2882E599E00E94C50013
S1133D408C0180917C0981110EC08CE799E00E945E
S1133D507328892B41F08DE699E00E94B52A8CE7FF
S1133D6099E00E947C2810937B0900937A09809142
S1133D707C0981110EC08CE799E00E947328892B7D
S1133D8041F08DE699E00E94B52A8CE799E00E9403
S1133D907C288DE699E00E94B62A80917C098111E5
S1133DA060C08CE799E00E947328892B41F08DE66E
S1133DB099E00E94B52A8CE799E00E947C28009142
S1133DC07A0910917B0980917C0981110EC08CE7DE
S1133DD099E00E947328892B41F08DE699E00E94B6
S1133DE0B52A8CE799E00E947C28E0907809F0904D
S1133DF079098091420981110EC082E499E00E9400
S1133E007328892B41F088E399E00E94802882E49A
S1133E1099E00E947C2863E876E088E399E00E94B8
S1133E205029B7010E9440296FE976E00E94502989
S1133E30B8010E94402964EA78E00E94502940E0D9
S1133E4050E060E070E08A819B810E944F020EC0C6
S1133E5040E050E060E070E08A819B810E944F0264
S1133E6005C000917A0910917B09BFCFDF91CF91F2
S1133E701F910F91FF90EF900895FC01738362836B
S1133E8083E090E0958384838DEA96E09183808338
S1133E900895CF93DF93EC018091420981110EC004
S1133EA082E499E00E947328892B41F088E399E029
S1133EB00E94802882E499E00E947C2869EC75E0E5
S1133EC088E399E00E9450290E9476126E837F83D2
S1133ED08887998780914A0981110EC08AE499E004
S1133EE00E947328892B41F08DEF98E00E94D3043F
S1133EF08AE499E00E947C288DEF98E00E94DE0914
S1133F00DF91CF91089580913A0981110EC08AE31F
S1133F1099E00E947328892B41F084E399E00E9480
S1133F20B70B8AE399E00E947C2884E399E00E941D
S1133F30DA0B8091420981110EC082E499E00E945B
S1133F407328892B41F088E399E00E94802882E459
S1133F5099E00E947C2866ED70E088E399E00C9477
S1133F605029EF92FF920F931F93CF93DF93EC01AD
S1133F706330710509F493C044F46130710591F024
S1133F806230710509F474C181C1653071050CF4A6
S1133F907DC1673071050CF46BC16730710509F49C
S1133FA0ADC074C12E813F81488559856AEF70E0A8
S1133FB080E090E00E948112882309F467C1809117
S1133FC08E09882399F180913A0981110EC08AE300
S1133FD099E00E947328892B41F084E399E00E94C0
S1133FE0B70B8AE399E00E947C2884E399E00E945D
S1133FF0DA0B80913A0981110EC08AE399E00E949C
S11340007328892B41F084E399E00E94B70B8AE37B
S113401099E00E947C2884E399E00E940A0C909124
S11340208E0981E0892780938E0932C080913A09F4
S113403081110EC08AE399E00E947328892B41F014
S113404084E399E00E94B70B8AE399E00E947C28FC
S113405084E399E00E94E00B80913A0981110EC03B
S11340608AE399E00E947328892B41F084E399E064
S11340700E94B70B8AE399E00E947C2884E399E0CC
S11340800E94100C90918E0981E0892780938E09FB
S11340900E9476126E837F8388879987F7C0809108
S11340A0420981110EC082E499E00E947328892B91
S11340B041F088E399E00E94802882E499E00E941C
S11340C07C2863EB76E088E399E00E945029809194
S11340D04A0981110EC08AE499E00E947328892B51
S11340E041F08DEF98E00E94D3048AE499E00E94A5
S11340F07C288DEF98E00E94E808C8C08091600990
S113410081110CC080E699E0EED7892B39F082E565
S113411099E00E94A40080E699E0EED782E599E058
S11341200E94C3008C0180917C0981110CC08CE732
S113413099E0D9D7892B39F08DE699E00E94B52A08
S11341408CE799E0D9D710936F0900936E09809199
S1134150600981110CC080E699E0C5D7892B39F03C
S113416082E599E00E94A40080E699E0C5D782E543
S113417099E00E94C5008C0180917C0981110CC0DA
S11341808CE799E0B0D7892B39F08DE699E00E944D
S1134190B52A8CE799E0B0D71093710900937009A0
S11341A080917C0981110CC08CE799E09CD7892B04
S11341B039F08DE699E00E94B52A8CE799E09CD706
S11341C08DE699E00E94B62A80917C09811159C03C
S11341D08CE799E088D7892B39F08DE699E00E9425
S11341E0B52A8CE799E088D700917009109171097C
S11341F080917C0981110CC08CE799E074D7892BDC
S113420039F08DE699E00E94B52A8CE799E074D7DD
S1134210E0906E09F0906F098091420981110BC002
S113422082E499E060D7892B31F088E399E068D77C
S113423082E499E061D76EEC76E088E399E00E942D
S11342405029B7010E9440296FE976E00E94502965
S1134250B8010E94402964EA78E00E94502940E0B5
S113426050E061E070E08A819B810E944F020EC0A1
S113427040E050E061E070E08A819B810E944F023F
S113428005C00091700910917109C2CFDF91CF91DF
S11342901F910F91FF90EF900895FC017383628347
S11342A084E090E0958384838EEE96E0918380830E
S11342B008958091420981110BC082E499E013D7DB
S11342C0892B31F088E399E01BD782E499E014D775
S11342D064EF76E088E399E0E3D780914A0981119D
S11342E00CC08AE499E0FFD6892B39F08DEF98E071
S11342F00E94D3048AE499E0FFD68DEF98E00C94F1
S1134300DE09CF93DF93EC0180913A0981110CC04F
S11343108AE399E0E8D6892B39F084E399E00E9496
S1134320B70B8AE399E0E8D684E399E00E94040C91
S113433080913A0981110CC08AE399E0D4D6892B83
S113434039F084E399E00E94B70B8AE399E0D4D66C
S113435084E399E00E94100C80914A0981110CC0F9
S11343608AE499E0C0D6892B39F08DEF98E00E9459
S1134370D3048AE499E0C0D68DEF98E00E94DE0968
S11343808091420981110BC082E499E0ACD6892B5B
S113439031F088E399E0B4D682E499E0ADD66BE0DD
S11343A077E088E399E07CD70E9476126E837F835E
S11343B08887998780E395E7A0E0B0E08A879B87A8
S11343C0AC87BD87DF91CF910895CF93DF93FB0135
S11343D03197EA30F10508F058C2EC01E95AFF4F71
S11343E00C94602B80914A0981110CC08AE499E0F5
S11343F07AD6892B39F08DEF98E00E94D3048AE4B1
S113440099E07AD68DEF98E00E943206882309F469
S11344103CC240E050E061E070E08A819B810E94F0
S11344204F0233C280914A0981110CC08AE499E099
S11344305AD6892B39F08DEF98E00E94D3048AE490
S113444099E05AD68DEF98E00E942B06882309F450
S11344501CC240E050E062E070E08A819B810E94CF
S11344604F0213C280914A0981110CC08AE499E079
S11344703AD6892B39F08DEF98E00E94D3048AE470
S113448099E03AD68DEF98E00E94BF0780914A09DF
S113449081110CC08AE499E026D6892B39F08DEF7E
S11344A098E00E94D3048AE499E026D68DEF98E040
S11344B00E94090A8823E9F08091420981110BC006
S11344C082E499E010D6892B31F088E399E018D67C
S11344D082E499E011D663E277E088E399E0E0D6DC
S11344E080E395E7A0E0B0E08A879B87AC87BD872F
S11344F008C080EE93E9A4E0B0E08A879B87AC878C
S1134500BD870E9476126E837F8388879987BDC199
S113451080914A0981110CC08AE499E0E4D5892B81
S113452039F08DEF98E00E94D3048AE499E0E4D551
S11345308DEF98E00E94E80880E69AEEA0E0B0E0F3
S11345408A879B87AC87BD878091420981110BC004
S113455082E499E0C8D5892B31F088E399E0D0D57D
S113456082E499E0C9D564E377E088E399E098D6DA
S11345700E9476126E837F838887998786C1809193
S11345804A0981110CC08AE499E0ADD5892B39F030
S11345908DEF98E00E94D3048AE499E0ADD58DEFC5
S11345A098E00E946C0980E69AEEA0E0B0E08A8769
S11345B09B87AC87BD8769C140E050E063E070E051
S11345C08A819B810E944F0260C180914A098111B6
S11345D00CC08AE499E087D5892B39F08DEF98E0F7
S11345E00E94D3048AE499E087D580910009882346
S11345F009F44BC12E813F81488559856A857B85A5
S11346008C859D850E948112882309F43EC1809186
S11346104A0981110CC08AE499E065D5892B39F0E7
S11346208DEF98E00E94D3048AE499E065D5109256
S1134630000969E070E08A819B810E94400125C1E4
S113464080914A0981111CC18AE499E04CD5892BD7
S113465039F08DEF98E00E94D3048AE499E04CD5B8
S11346608091FF08811162C080914A0981110CC0B8
S11346708AE499E038D5892B39F08DEF98E00E94CF
S1134680D3048AE499E038D51092000980914A094C
S113469081110CC08AE499E026D5892B39F08DEF7D
S11346A098E00E94D3048AE499E026D581E08093BF
S11346B0FF0880914A0981110CC08AE499E013D55E
S11346C0892B39F08DEF98E00E94D3048AE499E0B5
S11346D013D58DEF98E00E94800A80914A098111D8
S11346E00CC08AE499E0FFD4892B39F08DEF98E06F
S11346F00E94D3048AE499E0FFD48DEF98E00E94ED
S1134700070B8091420981110BC082E499E0EBD43C
S1134710892B31F088E399E0F3D482E499E0ECD476
S113472063E477E088E399E0BBD5AFC080914209A8
S113473081110BC082E499E0D6D4892B31F088E34F
S113474099E0DED482E499E0D7D46DE577E088E39C
S113475099E0A6D580914A0981110CC08AE499E0B8
S1134760C2D4892B39F08DEF98E00E94D3048AE4F7
S113477099E0C2D41092000988C080914A0981113D
S11347800CC08AE499E0AFD4892B39F08DEF98E01E
S11347900E94D3048AE499E0AFD41092FF08809178
S11347A0420981110BC082E499E09DD4892B31F038
S11347B088E399E0A5D482E499E09ED46CE677E09E
S11347C088E399E06DD580914A0981110CC08AE48F
S11347D099E089D4892B39F08DEF98E00E94D304B5
S11347E08AE499E089D48DEF98E00E94510A4DC083
S11347F080914A0981110CC08AE499E074D4892B10
S113480039F08DEF98E00E94D3048AE499E074D4DF
S113481081E0809300090E9476126E837F838887EB
S1134820998780914A0981110CC08AE499E05BD48C
S1134830892B39F08DEF98E00E94D3048AE499E043
S11348405BD48091FF08811120C068E070E08A8108
S11348509B810E9440018091420981110BC082E436
S113486099E041D4892B31F088E399E049D482E47A
S113487099E042D467E877E088E399E011D505C070
S11348808091FF08811152CFFFCEDF91CF9108951F
S1134890FC01738362831582148285EA97E0918315
S11348A0808380E395E7A0E0B0E082879387A487C4
S11348B0B58708958091420981110BC082E499E083
S11348C012D4892B31F088E399E01AD482E499E078
S11348D013D46BEA77E088E399E0E2D480913A0953
S11348E081110CC08AE399E0FED3892B39F084E36B
S11348F099E00E94B70B8AE399E0FED384E399E040
S11349000C94100CEF92FF920F931F93CF93DF93AD
S1134910EC0180913A0981110CC08AE399E0E3D358
S1134920892B39F084E399E00E94B70B8AE399E07C
S1134930E3D384E399E00E940A0C7E0186E0E80E4A
S1134940F11C60E0C7010E94F20C8E01035D1E4F52
S113495061E0C8010E94F20C60E0C7010E94140FDC
S113496060E0C8010E94140FFE01EC5AFD4F81E083
S113497080830E947612CB5ADD4F688379838A83C1
S11349809B838091420981110BC082E499E0ABD3EF
S1134990892B31F088E399E0B3D382E499E0ACD376
S11349A062EC77E088E399E07BD4DF91CF911F91AB
S11349B00F91FF90EF900895EF92FF920F931F9342
S11349C0CF93DF93FB013197EA30F10508F038C249
S11349D0AB01EC01EF59FF4F73C680917C09811143
S11349E00BC08CE799E07FD3892B31F08DE699E0F9
S11349F0BCD58CE799E080D38E010A5F1F4F4091AC
S1134A006E0950916F0960E070E0C8010E94BA100D
S1134A1080917C0981110BC08CE799E064D3892BC8
S1134A2031F08DE699E0A1D58CE799E065D37E015C
S1134A3083EDE81A8EEFF80A4091700950917109DC
S1134A4060E070E0C7010E94BA10FE01EC5AFD4F0D
S1134A5080818823A9F1C8010E94880F882309F462
S1134A60EFC1C7010E94880F882309F4E9C180912E
S1134A70420981110BC082E499E035D3892B31F0CE
S1134A8088E399E03DD382E499E036D36AED77E098
S1134A9088E399E005D461E0C8010E94140F61E045
S1134AA0C7010E94140FFE01EC5AFD4F10820E94B0
S1134AB07612CB5ADD4F688379838A839B83C0C186
S1134AC080914A0981110CC08AE499E00CD3892BA6
S1134AD039F08DEF98E00E94D3048AE499E00CD376
S1134AE080910009882309F4ABC1FE01EB5AFD4F04
S1134AF0208131814281538168E873E180E090E054
S1134B000E948112882309F49BC169E070E08A81C4
S1134B109B810E94400194C160E070E08A819B8186
S1134B200E944F028DC180914A0981110CC08AE410
S1134B3099E0D9D2892B39F08DEF98E00E94D30403
S1134B408AE499E0D9D28DEF98E00E946C0944E0A0
S1134B5050E060E070E08A819B810E944F0270C146
S1134B6040E050E062E070E08A819B810E944F0245
S1134B7067C1EA81FB8180818823C1F080913A0971
S1134B8081110CC08AE399E0AED2892B39F084E319
S1134B9099E00E94B70B8AE399E0AED284E399E0EE
S1134BA00E940A0CEA81FB8110824AC180914A0961
S1134BB081110CC08AE499E096D2892B39F08DEFEB
S1134BC098E00E94D3048AE499E096D28DEF98E0AD
S1134BD00E943206882309F433C140E050E060E0CB
S1134BE070E08A819B810E944F022AC140E050E01C
S1134BF064E070E08A819B810E944F0221C1809110
S1134C004A0981110CC08AE499E06DD2892B39F0EC
S1134C108DEF98E00E94D3048AE499E06DD28DEF81
S1134C2098E00E94800A80913A0981110CC08AE3BD
S1134C3099E059D2892B39F084E399E00E94B70BAB
S1134C408AE399E059D284E399E00E940A0C7E0138
S1134C5086E0E80EF11C60E0C7010E94820F8E011D
S1134C60035D1E4F60E0C8010E94820F60E0C7012F
S1134C700E94140F60E0C8010E94140FCC5ADD4F4B
S1134C8081E088838091420981110BC082E499E01C
S1134C902AD2892B31F088E399E032D282E499E078
S1134CA02BD266E078E088E399E0FAD2C9C080911B
S1134CB04A0981110CC08AE499E015D2892B39F094
S1134CC08DEF98E00E94D3048AE499E015D2109203
S1134CD0FF0880914A0981110CC08AE499E003D24B
S1134CE0892B39F08DEF98E00E94D3048AE499E08F
S1134CF003D2109200098091420981110BC082E411
S1134D0099E0F1D1892B31F088E399E0F9D182E47B
S1134D1099E0F2D160E278E088E399E0C1D2809131
S1134D204A0981110CC08AE499E0DDD1892B39F05C
S1134D308DEF98E00E94D3048AE499E0DDD18DEFF1
S1134D4098E00E94510A7CC080914A09811173C085
S1134D508AE499E0C8D1892B39F08DEF98E00E945C
S1134D60D3048AE499E0C8D18091FF08811168C016
S1134D7080914A0981110CC08AE499E0B4D1892B4D
S1134D8039F08DEF98E00E94D3048AE499E0B4D11D
S1134D9081E08093FF0880914A0981110CC08AE464
S1134DA099E0A1D1892B39F08DEF98E00E94D304CA
S1134DB08AE499E0A1D18DEF98E00E94800A809165
S1134DC03A0981110CC08AE399E08DD1892B39F01D
S1134DD084E399E00E94B70B8AE399E08DD184E3E0
S1134DE099E00E940A0C80914A0981110CC08AE45E
S1134DF099E079D1892B39F08DEF98E00E94D304A2
S1134E008AE499E079D181E0809300098091420994
S1134E1081110BC082E499E066D1892B31F088E3DB
S1134E2099E06ED182E499E067D166E775E088E3A2
S1134E3099E036D205C08091FF08882309F4A8CFF1
S1134E40DF91CF911F910F91FF90EF900895CF9331
S1134E50DF93EC017B836A8381E090E09D838C8304
S1134E608FE398E09983888360E0CE0106960E94E0
S1134E70B50C61E0CE01835D9E4F0E94B50CFE012E
S1134E80EC5AFD4F81E08083CB5ADD4F18821982A2
S1134E901A821B82DF91CF9108951092B90088E3A2
S1134EA08093B80008958091BC0088238CF024E698
S1134EB030E0ECEBF0E085E08A95F1F7000021505A
S1134EC031098081882334F021153105A1F702C00E
S1134ED024E630E081E0232B09F480E008958091FA
S1134EE0BC0084FF11C024E630E0ECEBF0E085E088
S1134EF08A95F1F7000021503109808184FF06C0B2
S1134F0021153105A1F702C024E630E081E0232B0E
S1134F1009F480E00895CF93C82F94EA9093BC00DD
S1134F20C2DF8823E1F09091B900987F983011F0A6
S1134F30903191F4C093BB0084E88093BC00B3DF4C
S1134F40882369F09091B900987F983139F081E015
S1134F50903429F480E003C081E001C080E0CF9167
S1134F600895D9CF089584E98093BC00B8CF809385
S1134F70BB0084E88093BC0096DF9091B900987FD1
S1134F8081E0983209F480E0089584EC8093BC00B9
S1134F908ADF8091BB00089584E88093BC0083DF9E
S1134FA08091BB0008958091420981110BC082E475
S1134FB099E099D0892B31F088E399E0A1D082E47B
S1134FC099E09AD088E399E0089580914A09811183
S1134FD00CC08AE499E087D0892B39F08DEF98E0F2
S1134FE00E94D3048AE499E087D08DEF98E0089575
S1134FF080913A0981110CC08AE399E074D0892B1D
S113500039F084E399E00E94B70B8AE399E074D005
S113501084E399E00895CF93DF93CDB7DEB7C85BFF
S1135020D2400FB6F894DEBF0FBECDBFCE010196BD
S11350300E94CB00CADF0E94EC05C7DF0E94490A28
S1135040B2DF63D0B0DF62E778E02AD165E878E0C8
S113505027D10E946B12CCDF0E94C00BC9DF64E62B
S11350600E94B40BCE0101960E948E0180916009CA
S113507081110CC080E699E036D0892B39F082E5A5
S113508099E00E94A40080E699E036D082E599E098
S11350900E94A5008091840981110BC084E899E0E5
S11350A022D0892B31F08CE699E056D184E899E03E
S11350B023D08CE699E0DDD180917C0981110BC06D
S11350C08CE799E010D0892B31F08DE699E04DD230
S11350D08CE799E011D08DE699E075D2CE01019666
S11350E00E948704FBCFFC0181E090E02081222311
S11350F011F080E090E0089521E0FC012083089500
S113510020E1FC01208311820895FC011182109298
S1135110C50080E18093C400A0ECB0E09C91926053
S11351209C9386E08093C20088E18093C10081E073
S1135130818378940895FB012081222339F18091A1
S1135140C7119091C8114091CB115091CC11319657
S113515060E030E0DC01A953B64F2C930196811531
S113516028E0920710F0862F932F411528E052076C
S113517010F44F5F5F4F21912111ECCF9093C81130
S11351808093C7115093CC114093CB11E1ECF0E024
S11351908081806280830895CF92DF92EF92FF92A4
S11351A00F931F93CF93DF93CDB7DEB760970FB6FE
S11351B0F894DEBF0FBECDBF8C01CB01FE0131964A
S11351C020E1DF011D922A95E9F799230CF03DC0F7
S11351D0919581959109A1F141E001C040E0F80168
S11351E0C080D12C7E01F0E1EF0EF11C2EE030E006
S11351F0B60131D2FC01E855F74F8081D7018E9377
S11352007D0121503109862F972F009719F0211520
S1135210310571F7442361F061E070E06C0F7D1F8C
S1135220620F731F8DE2FB018083C80184DF10C00D
S1135230BE01620F731F6E5F7F4FC8017CDF08C021
S113524066EA78E0C80177DF03C0009739F6F8CF43
S113525060960FB6F894DEBF0FBECDBFDF91CF913D
S11352601F910F91FF90EF90DF90CF900895CF930F
S1135270DF93EC0170E090DFCE01DF91CF910895D0
S1135280CF93DF93EC0188DFCE01DF91CF910895B6
S1135290CF93DF93EC0180DFCE01DF91CF910895AE
S11352A0CF93DF93EC0147DFCE01DF91CF910895D7
S11352B01F920F920FB60F9211240BB60F922F93D9
S11352C03F938F939F93EF93FF938091C911909194
S11352D0CA112091C7113091C8112817390771F0EC
S11352E0FC01E953F64F20810196811538E09307BC
S11352F058F01092CA111092C9110AC0E1ECF0E002
S113530080818F7B808306C09093CA118093C911DA
S11353102093C600FF91EF919F918F913F912F9120
S11353200F900BBE0F900FBE0F901F901895109208
S1135330C8111092C7111092CA111092C91110927B
S1135340CC111092CB11EFE8F9E013AA12AA15AA16
S113535014AA17AA16AA08950895DF92EF92FF924D
S11353600F931F93CF93DF937B018A01E90188E3B5
S1135370D2DD811134C081E0FADD811130C089E3CE
S1135380F0DD81112CC001DED82EFFDD2D2D30E0A3
S1135390322F2227282B3595279535952795F70108
S11353A031832083F2DDF82EF0DD2F2D30E0322F13
S11353B02227282B3595279535952795F801318394
S11353C02083E3DD082FE8DD182FCDDD812F90E069
S11353D0902B959587959595879599838883DF91EB
S11353E0CF911F910F91FF90EF90DF9008950F934D
S11353F01F93CF93C62F8A0188E38DDD81110EC0E0
S11354008C2FB5DD81110CC089E3ABDD81110AC09D
S1135410C3DDF8018083A7DD81E005C080E003C01F
S113542080E001C080E0CF911F910F910895CF9348
S1135430DF931F92CDB7DEB7AE014F5F5F4FD7DF6B
S113544089810F90DF91CF910895CF93DF93C62F79
S1135450D42F88E360DD811109C08C2F88DD811190
S113546005C08D2F84DD811101C07DDDDF91CF91D9
S11354700895FF920F931F93CF93DF931F92CDB79D
S1135480DEB78C0182E48983AE014F5F5F4F6DE02C
S1135490C801ADDF882309F443C0F9808AE1F8121A
S11354A024C08091420981110BC082E499E01BDE83
S11354B0892B31F088E399E023DE82E499E01CDE55
S11354C066EC78E088E399E0EBDE40E46BE2C80147
S11354D0BCDF6BE2C801ABDF86FDFBCF41E06AE2D3
S11354E0C801B3DFFF24F39430C0809142098111D5
S11354F00BC082E499E0F7DD892B31F088E399E071
S1135500FFDD82E499E0F8DD65ED78E088E399E079
S1135510C7DE6F2DACDE64EA78E0C2DEF12C15C084
S11355208091420981110BC082E499E0DCDD892B72
S113553031F088E399E0E4DD82E499E0DDDD66EEB4
S113554078E088E399E0ACDEF12C40E46BE2C8013A
S11355507CDF41E06AE2C80178DF8F2D0F90DF9194
S1135560CF911F910F91FF9008950895CF93DF93EA
S1135570EC0168818EE090E0ECD069817A818CE066
S113558090E0F9D06B817C818AE090E0F4D06D8169
S11355907E8188E090E0EFD06F81788586E090E0AE
S11355A0EAD069857A8584E090E0E5D06B857C85D6
S11355B082E090E0E0D06D857E8580E090E0DBD0F5
S11355C0DF91CF9108951F93CF93DF93EC018EE089
S11355D090E0B2D0182F88838CE090E0B5D09A8305
S11355E089838AE090E0B0D09C838B8388E090E04C
S11355F0ABD09E838D8386E090E0A6D098878F837E
S113560084E090E0A1D09A87898782E090E09CD0E2
S11356109C878B8780E090E097D09E878D8712349B
S1135620B1F082E4888380E092E09A8389839C834A
S11356308B8380E59BE09E838D8398878F831A8676
S113564019861C861B861E861D86CE018FDFDF9180
S1135650CF911F91089597FB072E16F4009406D05E
S113566077FD08D03CD007FC05D03EF49095819599
S11356709F4F0895709561957F4F0895A1E21A2E6A
S1135680AA1BBB1BFD010DC0AA1FBB1FEE1FFF1FE2
S1135690A217B307E407F50720F0A21BB30BE40B32
S11356A0F50B661F771F881F991F1A9469F7609579
S11356B07095809590959B01AC01BD01CF01089533
S11356C0EE0FFF1F0024001C0BBE0790F691E02D87
S11356D00994B7FF18C017D0821B930B0895AA1B17
S11356E0BB1B51E107C0AA1FBB1FA617B70710F0C9
S11356F0A61BB70B881F991F5A95A9F780959095FB
S1135700BC01CD01089509D0A59F900DB49F900DC3
S1135710A49F800D911D11240895A29FB001B39FF1
S1135720C001A39F700D811D1124911DB29F700DA6
S1135730811D1124911D0895F999FECF92BD81BD5B
S1135740F89A992780B50895A8E1B0E042E050E0C6
S113575018C0262FF999FECF92BD81BDF89A019702
S113576000B4021639F01FBA20BD0FB6F894FA9AA5
S1135770F99A0FBE08950196272FECDFEACFDC01DA
S1135780CB01FC01F999FECF06C0F2BDE1BDF89A48
S1135790319600B40D9241505040B8F70895F894F2
S10557A0FFCF35
S11357A22A2A2A5374617465204368616E67653AD4
S11357B2200069676E6974696F6E2000444F204E41
S11357C24F542043616C6C2066726F6D204F6E459E
S11357D26E7472792829206F72204F6E457869742D
S11357E2282921210A002A2A2A696C6C6567616CBE
S11357F220537461746521200049676E6974696F6E
S11358026E204368616E6765640A0049676E697455
S1135812696F6E2070656E64696E672074696D6568
S11358226F75740A0049676E6974696F6E4F6E45CD
S113583276656E740A0049676E6974696F6E4F66A5
S1135842664576656E740A00427574746F6E5761AC
S11358526B654576656E740A004E6F204576656EFB
S1135862740054696D6572204576656E7400526FDA
S1135872636B6572204576656E74004F7574736947
S11358826465204576656E74005374656572696E4D
S113589267204576656E740054726176656C2045A6
S11358A276656E740043616D70204576656E740092
S11358B243616C696272617465204576656E740039
S11358C249676E6974696F6E204F6E204576656E06
S11358D2740049676E6974696F6E204F666620456D
S11358E276656E7400427574746F6E2057616B65D1
S11358F2204576656E7400B901C201CE01DB01E96F
S113590201F80105021002200232024502504F52F0
S113591254423B20002A526967687446696C6C4F92
S11359226E0A002A526967687446696C6C4F66662F
S11359320A002A526967687444756D704F6E0A00D2
S11359422A526967687444756D704F66660A002A44
S11359524C65667446696C6C4F6E0A002A4C656627
S11359627446696C6C4F66660A002A4C6566744418
S1135972756D704F6E0A002A4C65667444756D70BD
S11359824F66660A00427574746F6E55700A00663B
S1135992696C6C206F66660A0064756D70206F66B0
S11359A2660A0066696C6C206F6E0A004275747434
S11359B26F6E20446F776E0A0064756D70206F6E8F
S11359C20A00686F6C64696E673F20003E436F7221
S11359D26E65722C003C0D0A004C5F486768742C9B
S11359E220002C20525F486768742C20003E436FCD
S11359F2726E65722C44656661756C742C537461A5
S1135A02746521213C0056616C7665496E6974693E
S1135A126E670056616C766546696C6C696E6700E8
S1135A2256616C766546696C6C50756C736500568C
S1135A32616C766544756D70696E670056616C764B
S1135A426544756D7050756C73650056616C76654E
S1135A52486F6C64456E7472790056616C76654861
S1135A626F6C64696E670056616C76654C61737421
S1135A725374617465004C6566742C0052696768DE
S1135A82742C006603730380038F039C03AB03BA75
S1135A9203C703D603DC032046736D43616D703A7A
S1135AA23A4F6E4578697428290D0A002046736DB1
S1135AB243616D703A3A4F6E456E74727928292C9F
S1135AC220726F6C6C2063616C3B200020706974DF
S1135AD263682063616C3B2000593B20002C205AF0
S1135AE23B20002059206572723B20003B2020207D
S1135AF25A206572723B20006C6566742075700AC8
S1135B020052696768742075700A006C65667420B7
S1135B12446F776E0A00526967687420646F776E07
S1135B220A006C65667420726967687420646F7712
S1135B326E0A006C656674207570207269676874F9
S1135B4220646F776E0A006C65667420646F776EEA
S1135B522072696768742075700A006C6566742027
S1135B6272696768742050757272666563740A009C
S1135B724E6F7420726561647920746F20736C6552
S1135B8265700A002046736D43616D703A3A436151
S1135B926D70206576656E740D0A002046736D4340
S1135BA2616D703A3A627574746F6E2077616B65D9
S1135BB22066697273740D0A002046736D43616D29
S1135BC2703A3A63616D70207377697463686573C0
S1135BD20D0A002046736D43616D703A3A49676E4F
S1135BE26974696F6E204F6E0D0A002046736D430F
S1135BF2616D703A3A536C6565700D0A0020467304
S1135C026D43616D703A3A49676E6974696F6E20CB
S1135C124F66660D0A002046736D43616D703A3A11
S1135C22427574746F6E2077616B650D0A00980576
S1135C32A8050C00000000008013E4184B13F4FFC5
S1135C42F4FFF4FFF4FF00003114351B77132046F0
S1135C52534D54726176656C43616C3A3A4F6E45AA
S1135C6278697428290D0A002046534D54726176CE
S1135C72656C43616C3A3A4F6E456E7472792829A9
S1135C820D0A0043616D702063616C2C206F757482
S1135C9273696465206576656E740A0063616C6974
S1135CA26272617465206576656E740A0043616D83
S1135CB2702043616C20436F6D706C6574653B208A
S1135CC2582C20002C20592C20002C205A2C200047
S1135CD2000000006C1BA61B3E1B204D616E75610B
S1135CE26C43616C3A3A4F6E456E74727928290D91
