:100000004DC000007AC0000078C0000076C000003B
:1000100074C0000072C0000070C000006EC000001C
:100020006CC000006AC0000068C0000066C000002C
:1000300064C0000062C0000060C000005EC000003C
:100040000C945F095AC0000058C0000056C0000060
:1000500054C000000C943D0D50C000004EC0000084
:100060004CC000004AC0000048C0000046C000006C
:1000700044C0000042C0000040C000003EC000007C
:100080003CC000003AC0000038C0000091077E0864
:100090006008AD088F089707C6077B0D11241FBEA7
:1000A000CFEFD0E4DEBFCDBF13E0A0E0B1E0E0E1F0
:1000B000FCE100E00BBF02C007900D92AC3CB10721
:1000C000D9F724E0ACECB3E001C01D92AB3FB2071E
:1000D000E1F710E0CCE9D0E000E006C0229701098A
:1000E000FE010BBF0E94D50DCA39D10780E0080779
:1000F000A9F70E94150C0C94060E82CF089580E497
:1001000080937C0087E880937A0083E080937E0070
:10011000089580917C006770807E682B60937C00DE
:1001200080917A00806480937A0080917A0086FDC5
:10013000FCCF809178009091790008958091FD0323
:1001400081110DC08DEF93E00E94730C892B39F063
:100150008CEC93E093D18DEF93E00E947C0C8CECBF
:1001600093E008958091F50381110EC085EF93E02F
:100170000E94730C892B41F083EF93E00E94800C66
:1001800085EF93E00E947C0C83EF93E00895AF929B
:10019000BF92CF92DF92EF92FF920F931F93CF9374
:1001A000DF93EC01BC010E94250B5E0185E0A80EE7
:1001B000B11CBE01C5010E94820BBE01CE01885A4E
:1001C0009D4F0E94370A6E0181EAC81A8DEFD80A46
:1001D000BE01C6010E94860A7E018BE9E81A8DEFF6
:1001E000F80ABE01C7010E94D00A8E0106591D4FB0
:1001F000BE01C8010E94780AFE01E558FD4F108239
:100200003C97D183C0833296B182A0823296CE01D0
:10021000865A9D4F918380833296D182C0823296D6
:10022000F182E082C758DD4F19830883DF91CF91B7
:100230001F910F91FF90EF90DF90CF90BF90AF9004
:100240000895CF93DF93EC01FC01E558FD4F8081C9
:100250009E01280F311D280F311DF901E159FD4F75
:1002600080819181DC01ED91FC910190F081E02D84
:100270000995EED7C458DD4F688379838A839B83C1
:10028000DF91CF910895FF920F931F93CF93DF9348
:10029000EC01F62E81E08617A0F4E62FF0E0EE0FD9
:1002A000FF1FEE55FE4F008111815CDF60E071E0C1
:1002B0000E94350DB8010E94350D6BE573E00E9478
:1002C000350DFE01E558FD4F2081CE01820F911DB5
:1002D000820F911DFC01E159FD4F80819181DC016C
:1002E000ED91FC910280F381E02D6F2DDF91CF9194
:1002F0001F910F91FF900994EF92FF920F931F931C
:10030000CF93DF93EC01E62EF42E8091F203882345
:1003100029F028DF61E171E00E94350D81E08093D2
:10032000F2038E0105581D4FD8018C918E15D1F125
:100330009E01280F311D280F311DF901E159FD4F94
:1003400080819181DC01ED91FC910480F581E02DAB
:100350000995F801E0829E012E0D311D2E0D311DF3
:10036000F901E159FD4F80819181DC01ED91FC9112
:100370000190F081E02D0995FF20A1F0F801208186
:10038000CE01820F911D820F911DFC01E159FD4F9D
:1003900080819181DC01ED91FC910280F381E02D5F
:1003A0006F2D09951092F203DF91CF911F910F915C
:1003B000FF90EF900895CF93DF93EC01BFDE7ED0E6
:1003C000882319F062E0CE015EDFB8DE8FD088238B
:1003D00019F063E0CE0157DFB1DE93D0882319F026
:1003E00064E0CE0150DFAADE97D0882319F066E0E2
:1003F000CE0149DFA3DEA5D0882329F065E0CE0138
:10040000DF91CF9140CFDF91CF9108950F931F934C
:10041000CF93DF938C0192DE41D0C801CCDFE8019D
:10042000C458DD4F288139814A815B8164E670E0E0
:1004300080E090E018D7882341F061E0C80123DF15
:1004400007D7688379838A839B83DF91CF911F913C
:100450000F9108958091110481110DC081E194E004
:100460000E94730C892B39F085E094E0C5D181E1BD
:1004700094E00E947C0C85E094E00895CF93DF9394
:10048000EC01029641D7CE010B963ED7CE014496A1
:100490003BD7CE014D96DF91CF9136C7CF93DF93F7
:1004A000EC010B9664D7CE01029661D7CE014D9632
:1004B0005ED7CE014496DF91CF9159C731E0FC0160
:1004C0002385211101C030E021E0FC0182818111EE
:1004D00001C020E090910F0492278091100483279F
:1004E0003093100420930F04892B089590B1907FCE
:1004F00081E020910E04291301C080E090930E0446
:10050000089593B1957081E020910D04291301C0E5
:1005100080E090930D04089533B13695317021E059
:10052000FC018489811101C020E090910C04922784
:1005300080910B04832720930C0430930B04892BA8
:10054000089533B133FB332730F921E0FC01858D69
:10055000811101C020E090910A0492278091090442
:10056000832720930A0430930904892B0895FC0102
:100570008489811104C06EDF79D16CDF89C108954F
:10058000FC01858D811104C065DF76D163DF7AC1FE
:1005900008952C9A5FDF3AC12C985CDF3DC12D9AFB
:1005A00059DF40C12D9856DF43C12E9A53DF46C113
:1005B0002E9850DF49C12F9A4DDF4CC12F984ADF4A
:1005C0004FC1CF93DF93EC018A81882331F0CE01B4
:1005D000ECDFCE01DF91CF91DCCF8B85882331F02A
:1005E000CE01E9DFCE01DF91CF91D9CFCE01E6DF99
:1005F000CE01D8DFCE01DCDFCE01DF91CF91CCCFB1
:10060000FF920F931F93CF93DF93EC0180B110B152
:10061000107400B10072F0B084FF03C0CE01C5DFDA
:1006200002C0CE01C5DFCE01002311F0B2DF01C050
:10063000B3DFCE01112311F0BEDF01C0BFDFCE0159
:10064000F7FE06C0DF91CF911F910F91FF90A7CFCA
:10065000DF91CF911F910F91FF90A4CF1F93CF9364
:10066000DF93EC0183B113B1117082FF05C0CE019D
:100670009CDFCE018EDF04C0CE019ADFCE018CDF7D
:10068000CE01112331F097DFCE01DF91CF911F9181
:1006900086CF94DFCE01DF91CF911F9183CFCF938F
:1006A000DF93EC018CE081B980EF84B982E08AB9F4
:1006B00044E063E0CE010B964ED645E063E0CE0108
:1006C000029649D646E063E0CE014D9644D647E017
:1006D00063E0CE0144963FD6CE01E0DECE0171DF6D
:1006E000CE018EDFCE01BADFCE0116DFCE01DF9163
:1006F000CF9127CFFC018281811103C081E09385D6
:10070000911180E008952CE0FC0120832DE02183ED
:100710000C94980B80E40E94C80B882309F445C010
:1007200080E80E94070C811140C080E80E94070CFD
:1007300081113BC00E94070C811137C08FEF0E94CE
:10074000070C811132C08FEF0E94070C81112DC060
:100750008FEF0E94070C811128C08FEF0E94070CB9
:10076000811123C08FEF0E94070C81111EC08FEFF3
:100770000E94070C811119C08FEF0E94070C811194
:1007800014C08FEF0E94070C81110FC08FEF0E94E1
:10079000070C81110AC00E94070C811106C00E943B
:1007A000070C811102C00E94070C0C94030C1F93CC
:1007B000CF93DF931F92CDB7DEB7142F80E4698308
:1007C000E7D76981882381F0862F0E94070C811169
:1007D0000BC0812F0E94070C811106C00F90DF9182
:1007E000CF911F910C94030C0F90DF91CF911F912B
:1007F0000895462F6AE0DBCFCF93DF93EC0183DFD0
:100800001A821B82DF91CF91089584CFFC0142812F
:10081000436042836081CBCFFC0142814C7F4283A5
:100820006081C5CFFC0142814C6042836081BFCFB3
:10083000FC014281437F42836081B9CFFC01428148
:10084000406C42836081B3CFFC0142814F7342838D
:100850006081ADCFFC014381436043836181A7CFB9
:10086000FC0143814C7F43836181A1CFFC01438123
:100870004C60438361819BCFFC014381437F438371
:10088000618195CFFC014381406C438361818FCFAF
:10089000FC0143814F734383618189CF80911A04A6
:1008A00081110DC08AE194E00E94730C892B39F00C
:1008B00089E194E023DC8AE194E00E947C0C89E1E8
:1008C00094E00895CF92DF92EF92FF920F931F93DF
:1008D000CF93DF93EC018C81882329F0813051F490
:1008E000DDDF61E002C0DADF60E013DC6C01E12CE7
:1008F000F12C03C0C12CD12C76018E010D5D1E4F51
:10090000F801208131814281538168EE73E080E0FB
:1009100090E0A9D4882349F1FE01E15EFE4F808179
:100920009181A281B381C55EDE4F8C159D05AE0518
:10093000BF054CF4A7019601281B390B4A0B5B0B32
:10094000DA01C90104C08C199D09AE09BF09888369
:100950009983AA83BB83C082D182E282F38278D456
:10096000F8016083718382839383C701B601DF91AD
:10097000CF911F910F91FF90EF90DF90CF9008954E
:10098000CF93DF93EC018AE090E09983888344E67B
:1009900050E060E070E04D835E836F837887198656
:1009A0004AEF50E060E070E04AA35BA36CA37DA334
:1009B00084E690E098A78FA38CE993E09AA789A793
:1009C000FE01E15FFE4F10823B96108241D46A87A0
:1009D0007B878C879D87CE0175DF4427562F672F35
:1009E000782F4E875F87688B798B32D46A8F7B8FA5
:1009F0008C8F9D8FDF91CF910895FF920F931F935E
:100A0000CF93DF93EC01F62E5DDF20E030E0FE01B6
:100A1000E20FF31FE950FF4F718360832E5F3F4F5A
:100A200024313105A1F7AB0120E030E0FE01E20FF7
:100A3000F31F54A743A72E5F3F4F283C3105B1F762
:100A40000027162F272F382F0E871F87288B398BCB
:100A5000FE01E85EFE4F11821082FC8238971182FF
:100A6000108232961182108239961082118212827F
:100A7000138234966083718382839383E9D3CD5D3F
:100A8000DE4F688379838A839B83DF91CF911F91A7
:100A90000F91FF900895FC018481882319F0813023
:100AA00019F008954BDB81CD49DB73CDFC018481C6
:100AB000882319F0813019F0089540DB79CD3EDBB1
:100AC0006BCDFC018481882319F0813019F00895E1
:100AD00035DB71CD33DB63CDFC018481882319F0D4
:100AE000813019F008952ADB69CD28DB5BCDFF92B8
:100AF0000F931F93CF93DF93EC01F62E33DB62EB62
:100B000071E0B3D7EC81F0E0EE0FFF1FE752FD4F2D
:100B10000081118127DBB801A8D7EF2DF0E0EE0F9F
:100B2000FF1FE753FD4F008111811CDBB8019DD7EA
:100B300019DB6BEB71E099D7F986DF91CF911F91AB
:100B40000F91FF900895CF93DF93EC01AFDF65E045
:100B5000CE01CDDF7DD36A8B7B8B8C8B9D8BDF9120
:100B6000CF910895CF93DF93EC01B6DF65E0CE011E
:100B7000BEDF6ED36A8B7B8B8C8B9D8BDF91CF918D
:100B800008950F931F93CF93DF93DC01FC01E05F87
:100B9000FE4F808191818436910514F0118210827C
:100BA00080819181EC01CC0FDD1FCA0FDB1F7CA778
:100BB0006BA701969183808340E050E060E070E095
:100BC000CB01FD01E40FF51F03A514A5222717FD96
:100BD0002095322F600F711F821F931F4E5F5F4F52
:100BE000483C510571F724E630E040E050E0AFD7D3
:100BF000C901DF91CF911F910F9108950F931F931A
:100C0000CF93DF93DC01FC01EE5EFE4F808191818A
:100C10000A9714F01182108220813181C901880F56
:100C2000991F8A0F9B1FEC01C950DF4F798368839E
:100C30002F5F3F4F3183208340E050E060E070E061
:100C4000CB01FD01E40FF51FE950FF4F0081118139
:100C5000222717FD2095322F600F711F821F931FCF
:100C60004E5F5F4F4431510561F72AE030E040E0CC
:100C700050E06DD7C901DF91CF911F910F91089579
:100C80004F925F926F927F928F929F92AF92BF929C
:100C9000CF92DF92EF92FF920F931F93CF93DF9348
:100CA000EC016A017B01480159012A853B854C858D
:100CB0005D856D817E818F819885D5D2882309F4E9
:100CC000DFC0FE01E15FFE4F80818E01055F1E4F98
:100CD000882309F449C0B601CE0190DFAC0160E081
:100CE00070E0F8014083518362837383035F1F4F79
:100CF000F801208131812A3031057CF11182108286
:100D0000BC01CE013EDFA0E0B0E0FE01ED50FF4FA0
:100D100080839183A283B3834E855F8568897989B7
:100D2000452E562E672E772467FC7A944419550970
:100D300066097709480F591F6A1F7B1F4E875F8717
:100D4000688B798BB196452F562F672F772767FDD4
:100D50007A954083518362837383F8018081918106
:100D600001969183808328C0F801C082D182E282FB
:100D7000F3828E859F85A889B989492F5A2F6B2FB9
:100D8000772767FD7A95841B950BA60BB70B8C0D07
:100D90009D1DAE1DBF1D8E879F87A88BB98BFE0141
:100DA000EC5EFE4F892F9A2FAB2FBB27A7FDBA957C
:100DB00080839183A283B3834BD26A877B878C879E
:100DC0009D872A8D3B8D4C8D5D8D6AEF70E080E0B4
:100DD00090E049D2882309F453C08C81882301F123
:100DE000813009F048C0BED968EF71E03ED6860177
:100DF00008191909B7D9B80130D6B4D96AE472E034
:100E000034D6B0D969E072E030D6ACD9B60125D677
:100E1000A9D96AE472E029D6A5D96FE172E01CC0B5
:100E2000A1D96FEB71E021D68601081919099AD969
:100E3000B80113D697D96AE472E017D693D960ED5A
:100E400071E013D68FD9B60108D68CD96AE472E066
:100E50000CD688D965EE71E008D6FE01EC5EFE4F37
:100E600000811181081919097DD9B801F6D57AD9FF
:100E70006BEB71E0FAD5ECD16A8F7B8F8C8F9D8FF5
:100E8000DF91CF911F910F91FF90EF90DF90CF9066
:100E9000BF90AF909F908F907F906F905F904F909A
:100EA00008954F925F926F927F928F929F92AF922E
:100EB000BF92CF92DF92EF92FF920F931F93CF9347
:100EC000DF93EC012A013B01FDDC4B015C01C9A46D
:100ED000DAA4EE24D7FCE094FE2CC414D504E60476
:100EE000F7047CF08FA198A5AA2797FDA095BA2FAB
:100EF00073016201481659066A067B0614F46C01F8
:100F00007D0197018601B501A401CE01B9DE898575
:100F100090E08730910508F031C1FC01EA5BFF4F9A
:100F200038C6CE01C3DDCE01D7DD66E031C12A89E6
:100F30003B894C895D8968EE73E080E090E093D155
:100F4000882309F469C1BA2DA92D982D88278E8789
:100F50009F87A88BB98B80E090E0FE01E80FF91F16
:100F600094A683A60296883C9105B9F771D16A8B45
:100F70007B8B8C8B9D8B1EA284E690E0A0E0B0E082
:100F80008D839E83AF83B88766E067C0FE01EC5E09
:100F9000FE4F80819181A281B3814881598166276A
:100FA00057FD6095762F26013701441A550A660AC7
:100FB000770A84159505A605B7050CF060C035972E
:100FC0008081882361F02A893B894C895D8968E8A2
:100FD00073E180E090E047D1882309F41DC161E00E
:100FE000CE0185DDCE0157DD84E690E0A0E0B0E0E3
:100FF0008D839E83AF83B8876881798125E0269FA2
:10100000C001279F900D1124AA2797FDA095BA2F04
:10101000A7019601281B390B4A0B5B0B28153905D4
:101020004A055B050CF0F8C0C6018819990997FFBD
:1010300003C091958195910977D52AA13BA14CA137
:101040005DA1DB01ACD56E8F7F8F88A399A300D102
:101050006E8B7F8B888F998F62E0CE01DF91CF916D
:101060001F910F91FF90EF90DF90CF90BF90AF90C6
:101070009F908F907F906F905F904F9038CD4C0DE8
:101080005D1D6E1D7F1D481759076A077B079CF47D
:10109000FE01E15FFE4F8081882309F481C02A8927
:1010A0003B894C895D8968E873E180E090E0DBD0A2
:1010B000811176C0B1C0C65EDE4F81E08883ACC0CE
:1010C0002E893F89488D598D6E8D7F8D88A199A17C
:1010D000CAD0882309F4A0C0CE01DF91CF911F911F
:1010E0000F91FF90EF90DF90CF90BF90AF909F90C7
:1010F0008F907F906F905F904F9025CD88819981E0
:10110000AA2797FDA095BA2FC81AD90AEA0AFB0A9E
:101110008C149D04AE04BF040CF47EC0DDCF2E8978
:101120003F89488D598D6E8D7F8D88A199A19BD067
:10113000882309F471C0CE01DF91CF911F910F91E7
:10114000FF90EF90DF90CF90BF90AF909F908F90E7
:101150007F906F905F904F9005CD88819981AA27ED
:1011600097FDA095BA2F8C0D9D1DAE1DBF1D881536
:101170009905AA05BB050CF44FC0DDCF0E94B20053
:1011800063E372E072D4CE0191DCCE01A5DC65E0B0
:10119000CE01ADDC5DD06A8B7B8B8C8B9D8B3CC094
:1011A00063E0CE01A4DCCE018CDC84E690E0A0E01C
:1011B000B0E08D839E83AF83B8876881798125E015
:1011C000269FC001279F900D1124AA2797FDA09567
:1011D000BA2F8C0D9D1DAE1DBF1D88169906AA063F
:1011E000BB06D4F4C4018C199D0997FF03C09195E7
:1011F0008195910999D42AA13BA14CA15DA1DB0164
:10120000CED46E8F7F8F88A399A322D06E8B7F8BD5
:10121000888F998F64E021CFDF91CF911F910F913B
:10122000FF90EF90DF90CF90BF90AF909F908F9006
:101230007F906F905F904F90089582E084BD93E01F
:1012400095BD16BC99EF97BD18BC80936E000895AC
:1012500078946091220470912304809124049091E9
:101260002504F8940895CF92DF92EF92FF92CF93E6
:10127000DF9300D000D0CDB7DEB76B017C012983AE
:101280003A834B835C83E4DF29813A814B815C8123
:10129000621B730B840B950B21E0C616D706E8067C
:1012A000F90608F020E0822F0F900F900F900F901A
:1012B000DF91CF91FF90EF90DF90CF9008951F9234
:1012C0000F920FB60F9211248F939F93AF93BF93FA
:1012D0008091220490912304A0912404B0912504CC
:1012E0000196A11DB11D8093220490932304A09325
:1012F0002404B0932504BF91AF919F918F910F90DB
:101300000FBE0F901F901895FC01108211828FEF75
:1013100082831382148215821682178210860895A2
:10132000FC018181813049F030F0823041F083301E
:1013300081F489B105C080B103C083B101C086B119
:1013400090E0028002C0959587950A94E2F781703B
:10135000089580E00895CF93DF93EC0169834A8379
:10136000DFDF888381E08887DF91CF910895CF9375
:10137000DF93EC018F81882319F0813089F026C03A
:10138000CE01CEDF90E0288130E082179307F1F0A4
:101390005FDF6B837C838D839E8381E08F8316C0A8
:1013A0002B813C814D815E816AE070E080E090E0BD
:1013B0005ADF882359F0CE01B3DF482F50E028814F
:1013C00030E04217530711F088831F82DF91CF91DD
:1013D0000895FC01462F653029F118F4623030F48D
:1013E0000895663069F0673041F10895A081B181B8
:1013F00016970D90BC91A02DA80FB91F60E027C0D3
:101400008091FD0381110BC08DEF93E06CD2892B8D
:1014100031F08CEC93E032D88DEF93E06DD28CEC10
:1014200093E0A5C8A081B18116970D90BC91A02D25
:10143000A80FB91F45E061E00AC0A081B1811697ED
:101440000D90BC91A02DA80FB91F47E065E0129642
:101450008D919C9113970C947C010E94B2006DEDCC
:1014600072E003C30E94B20063EF72E0FEC2FC01AF
:101470007583648382E0868382E193E09183808335
:1014800082E293E0938382830895DC01ED91FC91E5
:10149000389720813181820F931F9BCFDC01ED9122
:1014A000FC91369720813181820F931FD6CFDC01CA
:1014B000ED91FC913A9720813181820F931FD2CF19
:1014C00008950895FC01653051F018F4613020F45E
:1014D0000895673039F0089540E060E005C040E0CD
:1014E00061E002C040E065E0828193810C947C0160
:1014F000FC017383628314828CE293E09183808386
:10150000089521E0FC01258308950895FC0173836B
:10151000628383E0848386E393E0918380831582F2
:101520000895CF93DF93EC018D818330A1F030F4E7
:10153000813079F08230A1F483E010C0843069F00A
:10154000853071F440E060E08A819B810E947C01DB
:1015500007C082E003C084E001C085E08D8301C044
:101560001D82DF91CF910895613009F4DACF08959B
:1015700008950895FC01653051F018F4613020F4AD
:101580000895673039F0089540E060E005C040E01C
:1015900061E002C040E065E0828193810C947C01AF
:1015A000FC017383628384E0848380E493E091830D
:1015B00080830895CF93DF93EC01643041F148F4C8
:1015C0006230F9F0633071F50E949E00DF91CF9197
:1015D00017C8663071F028F0673021F547E063E006
:1015E0001BC00E949E0086D88823E1F045E061E0A0
:1015F00013C00E949E007ED88823A1F046E062E0DE
:101600000BC00E949E00DF91CF910C94E1020E94DA
:101610009E00DF91CF9122C88A819B81DF91CF917B
:101620000C947C01DF91CF9108950E94B20066E492
:1016300073E01BC20E942A021FD90E942A0228D9E5
:101640000E94B2006DE573E010C2FC0173836283F7
:10165000148289E793E0918380830895462F653053
:1016600028F4623080F4613039F00895663069F012
:1016700078F0673009F1089540E052E060E070E0F2
:10168000845D9E4F0ECC60E019C046E062E016C05B
:101690008091FD0381110CC08DEF93E024D1892B43
:1016A00039F08CEC93E00E943E028DEF93E024D160
:1016B0008CEC93E00C94C00247E064E0FC01828172
:1016C00093810C947C01CF93DF93EC0180912604ED
:1016D00081110CC060E0CE0105968FD961E0CE018A
:1016E000845D9E4F8AD981E0809326040E94B200D7
:1016F0006FE773E0DF91CF91B8C10E94B20067E954
:1017000073E0B3C1CF93DF93EC017B836A8381E005
:101710008C8382EB93E09983888360E0CE01059609
:101720002FD961E0CE01845D9E4FDF91CF9128C912
:101730001092B90088E38093B800089524E630E061
:101740008091BC0087FD0AC02115310539F085E084
:101750008A95F1F7000021503109F2CF81E0232B67
:1017600009F480E0089524E630E08091BC0084FF15
:101770000AC02115310539F085E08A95F1F700009E
:1017800021503109F2CF81E0232B09F480E0089544
:10179000EF92FF920F931F93CF93DF93182FC0ED1B
:1017A000D7E004EA84E8F82E94E9E92E0093BC001F
:1017B000C5DF811102C080E01FC09091B900987F01
:1017C000983011F0903191F71093BB00F092BC006B
:1017D000B5DF882381F39091B900987F903211F0A2
:1017E000983549F4E092BC00BEDF8823F9F22097D7
:1017F00011F32197DBCF81E0DF91CF911F910F9102
:10180000FF90EF90089584E98093BC00ACCF809363
:10181000BB0084E88093BC0091DF9091B900987F71
:1018200081E0983209F480E00895CF93DF93CDB73B
:10183000DEB7C058D2400FB6F894DEBF0FBECDBFA2
:10184000CE0101960E94C7000A9A129A8091F50370
:1018500081110BC085EF93E046D0892B31F083EFE7
:1018600093E04ED085EF93E047D083EF93E04DD0E7
:10187000E4DC0E942A020E9405040E942A0264E617
:101880000E94F9038091FD0381110CC08DEF93E05C
:101890002AD0892B39F08CEC93E00E943E028DEF28
:1018A00093E02AD08CEC93E00E944F03CE01019686
:1018B0000E94210180911A0481110CC08AE194E0F8
:1018C00012D0892B39F089E194E00E947E008AE1F0
:1018D00094E012D089E194E00E947F00CE0101964D
:1018E0000E940602FBCFFC0181E090E020812223D0
:1018F00011F080E090E0089521E0FC01208308953C
:101900002AE0FC01208311820895FC0111821092CB
:10191000C50020E12093C400E0ECF0E020812260CB
:10192000208326E02093C20028E12093C10021E01B
:10193000FC01218378940895CF93DF934091F704BD
:101940005091F804FB01A191AA23D1F02091F50454
:101950003091F604C9010196BC016F5F7F4F633679
:10196000710510F080E090E08417950761F3E901BC
:10197000CF56DB4FA8839093F6048093F504E3CF12
:101980008091C10080628093C100DF91CF91089562
:10199000AF92BF92CF92DF92EF92FF920F931F937D
:1019A000CF93DF93CDB7DEB760970FB6F894DEBF65
:1019B0000FBECDBF8C019B01CE0101967C0180E161
:1019C000D7011D928A95E9F777FF05C031952195DA
:1019D000310941E004C06115710551F140E0F801A1
:1019E000A080B12C6E01F0E1CF0ED11CEEE0F0E052
:1019F000C901B50199D0DC01A654BC4F8C91D60128
:101A00008E936D0131979B016115710511F030972F
:101A100079F7442339F0B7016E0F7F1F8DE2FB0188
:101A2000808308C0BF016F5F7F4F6E0D7F1D02C0B6
:101A300068EB73E0C80180DF60960FB6F894DEBFF4
:101A40000FBECDBFDF91CF911F910F91FF90EF900F
:101A5000DF90CF90BF90AF900895CF93DF93EC01CC
:101A600097DFCE01DF91CF910895CF93DF93EC0103
:101A700063DFCE01DF91CF9108951F920F920FB6D1
:101A80000F9211240BB60F922F933F938F939F9336
:101A9000EF93FF938091F7049091F8042091F5045F
:101AA0003091F6042817390769F0FC01EF56FB4F17
:101AB000208101968436910558F01092F804109216
:101AC000F7040AC08091C1008F7B8093C10006C0DB
:101AD0009093F8048093F7042093C600FF91EF9150
:101AE0009F918F913F912F910F900BBE0F900FBE42
:101AF0000F901F9018951092F6041092F504109212
:101B0000F8041092F7041092FA041092F90410925B
:101B10008C0410928B0410928E0410928D041092FB
:101B2000900410928F04089597FB072E16F40094EA
:101B300006D077FD08D03DD007FC05D03EF4909547
:101B400081959F4F0895709561957F4F0895A1E20B
:101B50001A2EAA1BBB1BFD010DC0AA1FBB1FEE1F27
:101B6000FF1FA217B307E407F50720F0A21BB30B72
:101B7000E40BF50B661F771F881F991F1A9469F7EE
:101B800060957095809590959B01AC01BD01CF014A
:101B90000895EE0FFF1F0590F491E02D0994B7FF13
:101BA0001CC01BD0821B930B08950790F691E02D6B
:101BB0000994AA1BBB1B51E107C0AA1FBB1FA61794
:101BC000B70710F0A61BB70B881F991F5A95A9F7E6
:101BD00080959095BC01CD01089509D0A59F900DE9
:101BE000B49F900DA49F800D911D11240895A29F74
:101BF000B001B39FC001A39F700D811D1124911DE1
:101C0000B29F700D811D1124911D0895F894FFCF8E
:101C10004576656E742072656365697665643A2001
:101C200000444F204E4F542043616C6C2066726F0D
:101C30006D204F6E456E7472792829206F72204F87
:101C40006E45786974282921210A004E6F20457657
:101C5000656E740054696D6572204576656E74001A
:101C6000526F636B6572204576656E74004F7574B4
:101C700073696465204576656E740053746565729A
:101C8000696E67204576656E740054726176656C86
:101C9000204576656E740043616D70204576656EF3
:101CA000740043616C696272617465204576656E8B
:101CB00074003B01440150015D016B017A01870111
:101CC00092013E436F726E65722C003C0D0A003E1D
:101CD000436F726E65722C204C4572726F722C00CD
:101CE0003E436F726E65722C204C65667448656960
:101CF0006768742C003E436F726E65722C204C65D1
:101D00006674536C6F772C003E436F726E65722C55
:101D100020524572726F722C003E436F726E657274
:101D20002C2052696768744865696768742C003EA6
:101D3000436F726E65722C205269676874536C6FC2
:101D4000772C003E436F726E65722C446566617538
:101D50006C742C537461746521213C0056616C765F
:101D600065496E6974696E670056616C766546698F
:101D70006C6C696E670056616C766546696C6C5078
:101D8000756C73650056616C766544756D70696E2F
:101D9000670056616C766544756D7050756C73653F
:101DA0000056616C7665486F6C64456E747279009C
:101DB00056616C7665486F6C64696E670056616C3D
:101DC00076654C6173745374617465004C65667418
:101DD0002C0052696768742C004C02590266027527
:101DE0000282029102A002AD02BC02C2022046732E
:101DF0006D43616D703A3A4F6E456E747279282961
:101E00000D0A002046736D43616D703A3A4F6E457E
:101E100078697428290D0A001203220302000000C9
:101E200000002D0AE909320AFEFFFEFFFEFFFEFF59
:101E300000004E0A450A570A00000000600A620AC4
:101E4000610A00000000810AB40A850A000000004F
:101E5000B80ABA0AB90A2046736D4D616E75616C95
:101E60003A3A4F6E4578697428290D0A0020467366
:101E70006D4D616E75616C3A3A4F6E456E74727954
:101E800028290D0A00000000001A0BDA0A150B20A1
:101E900046736D54726176656C3A3A4F6E456E7456
:101EA000727928290D0A002046736D547261766597
:101EB0006C3A3A4F6E4578697428290D0A00000083
:101EC0000000630B2E0B7D0B300030313233343584
:0C1ED000363738396162636465660000D3
:00000001FF
