S01200004D6963726F4C6576656C2E7372656320
S113000078C00000A0C000009EC000009CC000009A
S11300100C941D0B0C942C0B96C000000C943B0B01
S113002092C0000090C000008EC000008CC0000090
S11300308AC0000088C0000086C0000084C00000A0
S11300400C948F1380C000007EC000007CC00000B0
S11300507AC000000C94972A76C0000074C0000097
S113006072C0000070C000006EC000006CC00000D0
S11300706AC0000068C0000066C0000064C00000E0
S113008062C0000060C000005EC000001112E912EE
S1130090DA120F1300131E123412EF1AF11AF11AA6
S11300A0FF1A7E1B251B8E1B9E1B181C9E1B48249F
S11300B09523EB232224552375233F248324D22420
S11300C0FB246A26182718271F2745273C2765275E
S11300D06E27ED276E272046534D54726176656C6A
S11300E043616C3A3A4F6E4578697428290D0A00C9
S11300F0D62A11241FBECFEFD0E4DEBFCDBF18E057
S1130100A0E0B1E0E8E5FAE500E00BBF02C007902B
S11301100D92AC39B107D9F721E1ACE9B8E001C0DF
S11301201D92A537B207E1F710E0C9E7D0E004C09B
S11301302197FE010E94BB2CC837D107C9F70E9442
S11301400D290C942A2D5CCF089580E480937C00C3
S113015087E880937A008BE080937E000895ECE733
S1130160F0E080816770807E682B6083EAE7F0E0CE
S1130170808180648083808186FDFDCF80917800BA
S113018090917900089560E0EACF61E0E8CF81E0E2
S1130190089581E008958F929F92AF92BF92CF927B
S11301A0DF92EF92FF920F931F93CF93DF93EC01B3
S11301B0FC0111924F01BC01CF010E946D255E012B
S11301C0F3E1AF0EB11CBE01C5010E942228BE019D
S11301D0CE018A539D4F0E946D146E018DECC81A96
S11301E08CEFD80ABE01C6010E9450207E01E3ECC8
S11301F0EE1AECEFFE0ABE01C7010E94AA228E018C
S1130200095B1C4FBE01C8010E947D1EFE01E15A1C
S1130210FC4F118210823696108211821282138250
S1130220349610821182128213823496108231968F
S1130230108231961082319610827F97918280824B
S11302403296B182A0823296CE01835D9C4F918317
S113025080833296D182C0823296F182E082C55A7E
S1130260DC4F19830883DF91CF911F910F91FF9089
S1130270EF90DF90CF90BF90AF909F908F900895B4
S1130280EF92FF920F931F93CF93DF938C01EB01B7
S11302906230710534F1FB01EE0FFF1FE55AFD4F8B
S11302A0E080F18080919E0881110EC08EE998E073
S11302B00E948829892B41F08CE998E00E949529B5
S11302C08EE998E00E94912964E071E08CE998E05D
S11302D00E948F2AB7010E948F2A65E378E00E946A
S11302E08F2AF801E15AFC4F0190F081E02DEE0FC6
S11302F0FF1FE00FF11FEF5AFC4F80819181DC0159
S1130300ED91FC910280F381E02DBE010995DF910E
S1130310CF911F910F91FF90EF900895EF92FF926C
S11303201F93CF93DF93EC01FC01E15AFC4F019042
S1130330F081E02DEE0FFF1FE80FF91FEF5AFC4F7D
S113034080819181DC01ED91FC910190F081E02D9F
S113035009950E946113FE01EF59FC4F608371837C
S11303608283938362E070E0CE018ADF8091EA08A1
S113037081110DC08AEE98E00E948829892B39F0FA
S113038087EA98E012D38AEE98E00E94912987EADE
S113039098E00E94030B182FE82EF12C80919E0800
S11303A081110EC08EE998E00E948829892B41F0C2
S11303B08CE998E00E9495298EE998E00E949129A1
S11303C066E171E08CE998E00E948F2AB7010E94EF
S11303D0872A65E378E00E948F2A81E0FE01E259D2
S11303E0FC4F80838091E20881110EC082EE98E078
S11303F00E948829892B41F08EED98E00E94B80B69
S113040082EE98E00E9491298EED98E00E94DB0B29
S11304108091EA0881110DC08AEE98E00E94882933
S1130420892B39F087EA98E0C0D28AEE98E00E94DE
S1130430912987EA98E00E943C0A8091EA08811198
S11304400DC08AEE98E00E948829892B39F087EA4A
S113045098E0ABD28AEE98E00E94912987EA98E06E
S11304600E947F0A1123A1F08091EA0881110DC036
S11304708AEE98E00E948829892B39F087EA98E06F
S113048094D28AEE98E00E94912981E08093A90891
S11304901882DF91CF911F91FF90EF900895EF9212
S11304A0FF920F931F93CF93DF938C01EB017A019B
S11304B08091A6088823C1F080919E0881110EC006
S11304C08EE998E00E948829892B41F08CE998E014
S11304D00E9495298EE998E00E94912960E271E0DA
S11304E08CE998E00E948F2A81E08093A608F801A5
S11304F0E15AFC4F208131812C173D0709F462C079
S1130500C730D1050CF03FC0220F331F200F311F1D
S1130510F901EF5AFC4F80819181DC01ED91FC914E
S11305200480F581E02D0995F801E15AFC4FD1834F
S1130530C083CC0FDD1FC00FD11FCF5ADC4F888181
S11305409981DC01ED91FC910190F081E02D0995F8
S1130550E114F104B9F1F801E15AFC4F0190F08182
S1130560E02DEE0FFF1F0E0F1F1FF801EF5AFC4F77
S113057080819181DC01ED91FC910280F381E02D79
S1130580B70109951FC080919E0881110EC08EE9A4
S113059098E00E948829892B41F08CE998E00E9418
S11305A095298EE998E00E9491296AE471E08CE92A
S11305B098E00E948F2ABE010E94872A65E378E0B2
S11305C00E948F2A1092A608DF91CF911F910F915C
S11305D0FF90EF9008951F93CF93DF93EC018091E8
S11305E0FF08882309F43FC080919E0881110EC042
S11305F08EE998E00E948829892B41F08CE998E0E3
S11306000E9495298EE998E00E9491296DE571E098
S11306108CE998E00E948F2A0E946113FE01EB5935
S1130620FC4F60837183828393838091EA088111F4
S11306300DC08AEE98E00E948829892B39F087EA58
S113064098E0B3D18AEE98E00E94912987EA98E075
S1130650DAD7FE01E159FC4F80831092FF0881E054
S11306603197808307C0FE01E259FC4F80818823C3
S113067009F48BC0FE01EB59FC4F2081318142818A
S1130680538168EE73E080E090E00E946C1388234D
S113069009F47BC080919E0881110EC08EE998E018
S11306A00E948829892B41F08CE998E00E949529C1
S11306B08EE998E00E9491296FE671E08CE998E058
S11306C00E948F2AFE01E259FC4F1082319610815C
S11306D08091EA0881110DC08AEE98E00E94882971
S11306E0892B39F087EA98E060D18AEE98E00E947D
S11306F0912987EA98E087D7181347C0FE01E1598A
S1130700FC4F8081882309F180919E0881110EC0DD
S11307108EE998E00E948829892B41F08CE998E0C1
S11307200E9495298EE998E00E94912969E871E078
S11307308CE998E00E948F2A68E070E0CE01A0DD89
S1130740FE01E059FC4F108220C080919E08811167
S11307500EC08EE998E00E948829892B41F08CE92B
S113076098E00E9495298EE998E00E9491296AE90F
S113077071E08CE998E00E948F2A69E070E0CE0174
S11307807FDDFE01E059FC4F10828091FE08882332
S1130790F9F01092FE0880919E0881110EC08EE936
S11307A098E00E948829892B41F08CE998E00E9406
S11307B095298EE998E00E9491296CEA71E08CE910
S11307C098E00E948F2A6AE070E0CE0159DD82C071
S11307D08091EA0881110DC08AEE98E00E94882970
S11307E0892B39F087EA98E0E0D08AEE98E00E94FD
S11307F0912987EA98E02AD1882321F062E070E009
S1130800CE013EDD8091EA0881110DC08AEE98E0A8
S11308100E948829892B39F087EA98E0C6D08AEEAD
S113082098E00E94912987EA98E063D1882321F017
S113083063E070E0CE0124DD8091EA0881110DC0EF
S11308408AEE98E00E948829892B39F087EA98E09B
S1130850ACD08AEE98E00E94912987EA98E05FD1B3
S1130860882321F064E070E0CE010ADD8091EA087B
S113087081110DC08AEE98E00E948829892B39F0F5
S113088087EA98E092D08AEE98E00E94912987EA5C
S113089098E05DD1882321F066E070E0CE01F0DCC1
S11308A08091EA0881110DC08AEE98E00E9488299F
S11308B0892B39F087EA98E078D08AEE98E00E9494
S11308C0912987EA98E05FD1882321F065E070E000
S11308D0CE01D6DC8091EA0881110DC08AEE98E041
S11308E00E948829892B39F087EA98E05ED08AEE45
S11308F098E00E94912987EA98E061D1882329F041
S1130900188267E070E0CE01BBDCDF91CF911F91CC
S11309100895CF93DF93EC018091EA0881110DC013
S11309208AEE98E00E948829892B39F087EA98E0BA
S11309303CD08AEE98E00E94912987EA98E060D042
S1130940CE0149DEFE01EF59FC4F20813181428105
S1130950538162E370E080E090E00E946C1388238E
S113096009F18091EA0881110DC08AEE98E00E9495
S11309708829892B39F087EA98E017D08AEE98E025
S11309800E9491298091A908882321F061E070E0F8
S1130990CE0176DC0E946113CF59DC4F68837983E2
S11309A08A839B83DF91CF910895CF93DF93EC01EA
S11309B01A821B8204960E94B413CE010D960E94E3
S11309C0B413CE0146960E94B413CE014F960E94F2
S11309D0B413CE0188960E94B41319AA1AAADF91FF
S11309E0CF91089580EF81B914B880E887B986E083
S11309F08AB9089512B88FEF85B988EF8BB9089535
S1130A00CF93DF93EC010D960E940414CE0104965B
S1130A100E940414CE014F960E940414CE014696FF
S1130A200E940414CE0188960E940414DF91CF9191
S1130A30089584E080936B0087E180936C0088EED6
S1130A40809373008BE0809368000895EF92FF9287
S1130A500F931F93CF93FC0191E08585811101C011
S1130A6090E001E08481811101C000E0C1E0809147
S1130A70FC08801301C0C0E081E02091FD08291327
S1130A8001C080E0C82B9093FD080093FC08CC23A0
S1130A9049F110E0E92EF12C80919E0881110EC0DD
S1130AA08EE998E00E948829892B41F08CE998E02E
S1130AB00E9495298EE998E00E94912961E772E0ED
S1130AC08CE998E00E948F2AB7010E94872A6CE281
S1130AD076E00E948F2AB8010E94872A65E378E0B5
S1130AE00E948F2A8C2FCF911F910F91FF90EF902E
S1130AF0089593B1977181E02091FB08291301C0F7
S1130B0080E09093FB08089593B1947281E0209162
S1130B10FA08291301C080E09093FA08089583B17C
S1130B2083FB882780F993B196FB992790F920914C
S1130B30F908281304C02091F808921731F0809323
S1130B40F9089093F80881E0089580E0089523B1AE
S1130B50221F2227221F31E0FC018689811101C056
S1130B6030E091E08091F608821301C090E081E0CA
S1130B704091F708431301C080E03093F7082093B5
S1130B80F608892B089523B125FB222720F931E0AB
S1130B90FC01878D811101C030E091E08091F4085F
S1130BA0821301C090E081E04091F508431301C035
S1130BB080E03093F5082093F408892B0895FC0114
S1130BC090A5911103C08091F30801C080E021E059
S1130BD0911101C020E02093F3080895CF93DF938F
S1130BE0EC0100DFCE0106DF43E063E0CE014F9667
S1130BF00E94F81344E063E0CE0188960E94F81343
S1130C0045E063E0CE0146960E94F81346E063E0B7
S1130C10CE010D960E94F81347E063E0CE010496DE
S1130C200E94F813CE0193DFCE01ADDFCE010EDFBB
S1130C30CE016ADFCE015DDFCE01C1DFCE016FDF01
S1130C4019AA1AAACE01F5DE0E9461136BAB7CAB24
S1130C508DAB9EAB83B7816083BFDF91CF91089545
S1130C6023B1FC018689882329F0822F881F8827D5
S1130C70881F089581E0089523B1FC01878D88239E
S1130C8021F025FB882780F9089581E00895159ABD
S1130C908091E20881110DC082EE98E00E948829BB
S1130CA0892B39F08EED98E063D582EE98E00E94AE
S1130CB091298EED98E067C515988091E20881111D
S1130CC00DC082EE98E00E948829892B39F08EEDC0
S1130CD098E04ED582EE98E00E9491298EED98E03E
S1130CE058C5149A8091E20881110DC082EE98E0F3
S1130CF00E948829892B39F08EED98E039D582EE4F
S1130D0098E00E9491298EED98E049C5149880914D
S1130D10E20881110DC082EE98E00E948829892B97
S1130D2039F08EED98E024D582EE98E00E94912966
S1130D308EED98E03AC50F931F93CF93DF932091E4
S1130D400201309103016217730709F484C0EB01B7
S1130D508C01709303016093020180919E088111BC
S1130D600EC08EE998E00E948829892B41F08CE915
S1130D7098E00E9495298EE998E00E94912969E7FC
S1130D8072E08CE998E00E948F2AC130D10541F0CD
S1130D90C230D10509F43EC0CD2B09F058C01DC0A6
S1130DA080919E0881110EC08EE998E00E948829E6
S1130DB0892B41F08CE998E00E9495298EE998E00E
S1130DC00E94912961E872E08CE998E00E948F2AE0
S1130DD0C80172DFC80185DF3EC080919E08811181
S1130DE00EC08EE998E00E948829892B41F08CE995
S1130DF098E00E9495298EE998E00E94912968E87C
S1130E0072E08CE998E00E948F2AC8017FDFC80154
S1130E103EDF21C080919E0881110EC08EE998E0CA
S1130E200E948829892B41F08CE998E00E94952939
S1130E308EE998E00E9491296FE872E08CE998E0CD
S1130E400E948F2AC80138DFC80160DF04C0C801CE
S1130E5033DFC8015BDFDF91CF911F910F910895BC
S1130E60179A8091E20881110DC082EE98E00E94E9
S1130E708829892B39F08EED98E07AD482EE98E0B7
S1130E800E9491298EED98E0A2C417988091E208FF
S1130E9081110DC082EE98E00E948829892B39F0D7
S1130EA08EED98E065D482EE98E00E9491298EED53
S1130EB098E093C4169A8091E20881110DC082EEE5
S1130EC098E00E948829892B39F08EED98E050D45F
S1130ED082EE98E00E9491298EED98E084C41698E1
S1130EE08091E20881110DC082EE98E00E94882969
S1130EF0892B39F08EED98E03BD482EE98E00E9485
S1130F0091298EED98E075C4CF93DF93EC018C8129
S1130F10811177C080919E0881110EC08EE998E0FE
S1130F200E948829892B41F08CE998E00E94952938
S1130F308EE998E00E94912966E972E08CE998E0D4
S1130F400E948F2A89A98823F1F080919E0881113B
S1130F500EC08EE998E00E948829892B41F08CE923
S1130F6098E00E9495298EE998E00E94912960EA10
S1130F7072E08CE998E00E948F2ACE0186DFCE01D0
S1130F809BDE19AA3EC08AA98823E9F080919E08B5
S1130F9081110EC08EE998E00E948829892B41F0C6
S1130FA08CE998E00E9495298EE998E00E949129A5
S1130FB06AEA72E08CE998E00E948F2ACE018FDF02
S1130FC0CE01A4DE1AAA80919E0881110EC08EE97A
S1130FD098E00E948829892B41F08CE998E00E94CE
S1130FE095298EE998E00E94912964EB72E08CE9DE
S1130FF098E00E948F2ACE0133DFCE0148DE81E0E3
S113100089AB8D858111A3C080919E0881110EC08A
S11310108EE998E00E948829892B41F08CE998E0B8
S11310200E9495298EE998E00E9491296DEB72E067
S11310308CE998E00E948F2A8AA98823F1F0809194
S11310409E0881110EC08EE998E00E948829892BA0
S113105041F08CE998E00E9495298EE998E00E947D
S113106091296AEA72E08CE998E00E948F2ACE0105
S113107036DFCE014BDE1AAA6AC089A98823E9F0BB
S113108080919E0881110EC08EE998E00E94882903
S1131090892B41F08CE998E00E9495298EE998E02B
S11310A00E94912960EA72E08CE998E00E948F2AFC
S11310B0CE01EBDECE0100DE19AA80919E088111DB
S11310C00EC08EE998E00E948829892B41F08CE9B2
S11310D098E00E9495298EE998E00E9491296AEC93
S11310E072E08CE998E00E948F2A809100098111B6
S11310F00DC080E099E00E948829892B39F082EFA5
S113110098E022D880E099E00E94912982EF98E04B
S11311103ED8882311F0CE01CDDE809100098111E3
S11311200DC080E099E00E948829892B39F082EF74
S113113098E00AD880E099E00E94912982EF98E033
S113114028D8882311F0CE01CCDD81E08AABDF9171
S1131150CF910895FF920F931F93CF93DF93EC01E8
S113116003B1027093B113B1117083B18470F82E7E
S113117094FF05C0CE0174DE81E089AB03C0CE01CB
S113118084DE19AAFF2029F0CE0181DD81E089AB3C
S113119003C0CE0191DD19AA0023E9F08091000972
S11311A081110EC080E099E00E948829892B41F0CA
S11311B082EF98E00E94A40080E099E00E949129C7
S11311C082EF98E00E94C700882301F1CE0172DE0D
S11311D081E08AAB1BC08091000981110EC080E0C0
S11311E099E00E948829892B41F082EF98E00E94BF
S11311F0A40080E099E00E94912982EF98E00E9487
S1131200C900882319F0CE016ADE1AAA1123E9F075
S11312108091000981110EC080E099E00E94882924
S1131220892B41F082EF98E00E94A40080E099E0CD
S11312300E94912982EF98E00E94C900882341F01E
S1131240CE014FDD81E08AAB03C0CE015FDD1AAA77
S1131250DF91CF911F910F91FF9008951F93CF932A
S1131260DF93EC0183B113B1107483FF1BC089A910
S1131270882331F0CE0109DECE011EDD19AA12C089
S11312808AA9882329F0CE012ADECE013FDD1AAADD
S1131290CE01E6DDCE01FBDC81E089AB1AAA111197
S11312A00DC04AC0112309F447C08AA9882331F02C
S11312B0CE0115DECE012ADD1AAA3EC089A98823F3
S11312C029F0CE01E2DDCE01F7DC19AA80910009F4
S11312D081110EC080E099E00E948829892B41F099
S11312E082EF98E00E94A40080E099E00E94912996
S11312F082EF98E00E94C700882311F0CE01DADD66
S11313008091000981110EC080E099E00E94882933
S1131310892B41F082EF98E00E94A40080E099E0DC
S11313200E94912982EF98E00E94C900882311F05D
S1131330CE01D7DC81E08AABDF91CF911F91089574
S1131340CF93DF93EC01B8DCCE01E0DCCE019DDD70
S1131350CE01C5DDDF91CF9108950F931F93CF93F5
S1131360DF9320910001309101016217730709F4A2
S11313703AC0EB018C0170930101609300018091EC
S11313809E0881110EC08EE998E00E948829892B5D
S113139041F08CE998E00E9495298EE998E00E943A
S11313A0912963ED72E08CE998E00E948F2AC130A4
S11313B0D10531F0C230D10569F0CD2B81F405C0DF
S11313C0C80163DDC80176DD0EC0C80149DDC8016E
S11313D086DD09C0C80159DDC80181DD04C0C8012A
S11313E054DDC8017CDDDF91CF911F910F910895E9
S11313F0EF92FF920F931F93CF93DF93EC010AA90F
S113140010E0E9A8F12C80919E0881110EC08EE9AC
S113141098E00E948829892B41F08CE998E00E9489
S113142095298EE998E00E9491296AED72E08CE991
S113143098E00E948F2AB7010E94872A6CE276E026
S11314400E948F2AB8010E94872A65E378E00E94EF
S11314508F2A89A9811104C09AA981E0892701C032
S113146080E0DF91CF911F910F91FF90EF9008954D
S11314705A9A08955A980895479A0895479808954E
S1131480CF93DF93EC018091E20881110DC082EECD
S113149098E00E948829892B39F08EED98E068D174
S11314A082EE98E00E9491298EED98E0C0D11A82D4
S11314B0CE0146DFCE01E2DFCE01DCDFA4E6B0E000
S11314C08C918FEF8C93E5E6F0E0808181608083DE
S11314D019AA1AAAF89483B7817F846083BF83B75B
S11314E0816083BF789488958C911C9280818E7FD3
S11314F0808383B78E7F83BFDF91CF910895CF938D
S1131500DF93EC01B5DFCE01B7DF8091E2088111F2
S11315100DC082EE98E00E948829892B39F08EED67
S113152098E026D182EE98E00E9491298EED98E011
S113153028D18091E20881110DC082EE98E00E94CA
S11315408829892B39F08EED98E012D182EE98E04B
S11315500E9491298EED98E014D18091E2088111C6
S11315600DC082EE98E00E948829892B39F08EED17
S113157098E0FED082EE98E00E9491298EED98E0EA
S113158000D18091E20881110DC082EE98E00E94A2
S11315908829892B39F08EED98E0EAD082EE98E024
S11315A00E9491298EED98E0ECD08091E20881119F
S11315B00DC082EE98E00E948829892B39F08EEDC7
S11315C098E0D6D082EE98E00E94912964E68EEDF0
S11315D098E0CBD08091E20881110DC082EE98E0B2
S11315E00E948829892B39F08EED98E0C1D082EED3
S11315F098E00E9491298EED98E0DDD081E08A8305
S1131600DF91CF91089580B182FB882780F90895F6
S1131610CF93DF93EC0189A9882329F0CE0120DC44
S1131620CE0135DB07C08AA9882321F0CE0157DC1F
S1131630CE016CDBDF91CF9108951F920F920FB60C
S11316400F9211248F9381E08093FF088F910F9064
S11316500FBE0F901F9018951F920F920FB60F9206
S113166011248F9381E08093FE088F910F900FBE19
S11316700F901F9018951F920F920FB60F9211247E
S11316808F9381E08093FE088F910F900FBE0F908F
S11316901F9018952CE0FC0120832DE021830C94ED
S11316A04F2880E40E948D28811145C080E80E9463
S11316B0B928811140C080E80E94B92881113BC03B
S11316C00E94B928811137C08FEF0E94B928811177
S11316D032C08FEF0E94B92881112DC08FEF0E9474
S11316E0B928811128C08FEF0E94B928811123C025
S11316F08FEF0E94B92881111EC08FEF0E94B92874
S1131700811119C08FEF0E94B928811114C08FEF85
S11317100E94B92881110FC08FEF0E94B92881114E
S11317200AC00E94B928811106C00E94B9288111FB
S113173002C00E94B9280C94B528CF93DF93C62F1A
S1131740D42F80E40E948D2881110CC08C2F0E941C
S1131750B928811107C08D2F0E94B928811102C0B8
S11317600E94B528DF91CF910895462F6AE0E5CF16
S1131770CF93DF93EC018EDF1A821B82DF91CF912E
S113178008958FCF0895FC014281406342836081B4
S1131790D4CFFC0142814F7C42836081CECFFC01D7
S11317A043814C6043836181C8CFFC014381437F03
S11317B043836181C2CFFC014381406C43836181D7
S11317C0BCCFFC0143814F7343836181B6CFFC01DD
S11317D04281406C42836081B0CFFC0142814F73EF
S11317E042836081AACFFC014381406343836181CA
S11317F0A4CFFC0143814F7C438361819ECFFC01D4
S1131800438143604383618198CFFC0143814C7FD2
S11318104383618192CFFC0142814C6042836081A9
S11318208CCFFC014281437F4283608186CFCF937A
S1131830DF93EC01AEDFCE01B8DFCE01C2DFCE0113
S1131840CCDFCE01D6DFCE01E0DFCE01EADFDF91CF
S1131850CF910895FC018481882319F08130B9F077
S11318602CC08091000981110EC080E099E00E9493
S11318708829892B41F082EF98E00E94A40080E03F
S113188099E00E94912982EF98E00C94C300809122
S1131890000981110EC080E099E00E948829892BFB
S11318A041F082EF98E00E94A40080E099E00E9459
S11318B0912982EF98E00C94C50080E090E00895AF
S11318C08F929F92AF92BF92CF92DF92EF92FF924C
S11318D00F931F93CF93DF93EC01BCDFFE01E15B19
S11318E0FE4F20813181A9014F5F5F4F51834083B7
S11318F0220F331F220F331F2C0F3D1FF901E95D07
S1131900FE4F092E000CAA0BBB0B80839183A2838C
S1131910B3834A3051052CF0FE01E15BFE4F118286
S11319201082FE01E95DFE4FAE01415B5E4F60E057
S113193070E0CB010191119121913191600F711FE0
S1131940821F931FE417F507A9F72AE030E040E06F
S113195050E00E949F2C69017A01FE01ED5DFE4F6B
S1131960208131814281538168EE73E080E090E010
S1131970B3D6882389F1FE01E15EFE4F8081918117
S1131980A281B3818C159D05AE05BF0564F434971F
S1131990A7019601281B390B4A0B5B0B208331836B
S11319A0428353830BC0FE01E55EFE4F8C199D09F3
S11319B0AE09BF0980839183A283B383FE01E15EF4
S11319C0FE4FC082D182E282F3827BD6CD5DDE4FB0
S11319D0688379838A839B83C701B601DF91CF91A2
S11319E01F910F91FF90EF90DF90CF90BF90AF9039
S11319F09F908F900895CF93DF93EC0187E090E060
S1131A009983888383E290E09B838A8384E690E0D1
S1131A10A0E0B0E08D839E83AF83B88719868AEFF8
S1131A2090E0A0E0B0E08AA39BA3ACA3BDA384E6AE
S1131A3090E098A78FA38CE993E09AA789A7FE0169
S1131A40E15FFE4F10823B9610823BD66A877B870C
S1131A508C879D87CE0134DFB82FA72F962F882738
S1131A608E879F87A88BB98B2CD66A8F7B8F8C8FA0
S1131A709D8FDF91CF910895FC018481882319F013
S1131A808130B1F008958091EA0881110EC08AEE88
S1131A9098E00E948829892B41F087EA98E00E9407
S1131AA0D5048AEE98E00E94912987EA98E0D8C983
S1131AB08091EA0881110EC08AEE98E00E9488297C
S1131AC0892B41F087EA98E00E94D5048AEE98E0D9
S1131AD00E94912987EA98E0DAC8FC01848188236E
S1131AE019F08130B1F008958091EA0881110EC097
S1131AF08AEE98E00E948829892B41F087EA98E0D1
S1131B000E94D5048AEE98E00E94912987EA98E021
S1131B10BCC98091EA0881110EC08AEE98E00E9447
S1131B208829892B41F087EA98E00E94D5048AEE3F
S1131B3098E00E94912987EA98E0BEC8FC0184815C
S1131B40882319F08130B1F008958091EA08811159
S1131B500EC08AEE98E00E948829892B41F087EA1A
S1131B6098E00E94D5048AEE98E00E94912987EAC1
S1131B7098E0A0C98091EA0881110EC08AEE98E02D
S1131B800E948829892B41F087EA98E00E94D504B5
S1131B908AEE98E00E94912987EA98E0A2C8FC01A5
S1131BA08481882319F08130B1F008958091EA0886
S1131BB081110EC08AEE98E00E948829892B41F099
S1131BC087EA98E00E94D5048AEE98E00E94912961
S1131BD087EA98E084C98091EA0881110EC08AEEF0
S1131BE098E00E948829892B41F087EA98E00E94B6
S1131BF0D5048AEE98E00E94912987EA98E086C885
S1131C00EF92FF921F93CF93DF93EC01162F8091F5
S1131C109E0881110EC08EE998E00E948829892BC4
S1131C2041F08CE998E00E9495298EE998E00E94A1
S1131C30912964EE72E08CE998E00E948F2AEC818D
S1131C40F0E0EE0FFF1FE153FC4FE080F180809144
S1131C509E0881110EC08EE998E00E948829892B84
S1131C6041F08CE998E00E9495298EE998E00E9461
S1131C709129B7018CE998E00E948F2AE12FF0E0C6
S1131C80EE0FFF1FE154FC4FE080F18080919E082D
S1131C9081110EC08EE998E00E948829892B41F0B9
S1131CA08CE998E00E9495298EE998E00E94912998
S1131CB0B7018CE998E00E948F2A80919E088111D7
S1131CC00EC08EE998E00E948829892B41F08CE9A6
S1131CD098E00E9495298EE998E00E9491296DEE82
S1131CE072E08CE998E00E948F2A1987DF91CF91E6
S1131CF01F91FF90EF9008958F929F92AF92BF92A1
S1131D00CF92DF92EF92FF92CF93DF93EC01A2DDAB
S1131D109C016C01990FEE08FF087E2D6D2D5C2D42
S1131D2044274E875F87688B798BFE01E950FF4F0C
S1131D30CE01855F9E4F21933193E817F907D9F7B8
S1131D40FE01BB96CE018D509F4F21933193E8172E
S1131D50F907D9F7852E962EA72EBB24A7FCBA9493
S1131D6080919E0881110EC08EE998E00E94882916
S1131D70892B41F08CE998E00E9495298EE998E03E
S1131D800E94912961EF72E08CE998E00E948F2A09
S1131D90B701A6010E947F2A6FEF72E00E948F2A8A
S1131DA0B501A4010E947F2A65E378E00E948F2A8E
S1131DB0DF91CF91FF90EF90DF90CF90BF90AF90E5
S1131DC09F908F900895EF92FF920F931F93CF935C
S1131DD0DF938C01FC01E85EFE4F11821082FC014E
S1131DE06483E05FFE4F118210823296118210826A
S1131DF0399610821182128213827EDFC80160DD5F
S1131E00F801E15EFE4F608371838283938359D42A
S1131E10F801ED5DFE4F6083718382839383BC96EA
S1131E2011821082E801C95DDE4F7F01C80112DD15
S1131E30AC01990F660B770B499359936993799386
S1131E40CE15DF0599F760E0C801DADEDF91CF91A6
S1131E501F910F91FF90EF900895CF93DF93EC01C2
S1131E603CDE65E0CE01CCDECE0146DF2AD46A8BAF
S1131E707B8B8C8B9D8BDF91CF910895CF93DF93D8
S1131E80EC018DDE65E0CE01BBDECE0135DF19D479
S1131E906A8B7B8B8C8B9D8BDF91CF910895FC019A
S1131EA0E05FFE4F208131812436310514F0118228
S1131EB01082DC01A05FBE4F2D913C911197F90176
S1131EC0EE0FFF1FE80FF91F74A763A72F5F3F4FA3
S1131ED02D933C93FC01BB969C012D503F4F40E059
S1131EE050E0BA0181919191092E000CAA0BBB0B11
S1131EF0480F591F6A1F7B1FE217F30799F7CB019D
S1131F00BA0124E630E040E050E00E947D2CC90193
S1131F100895FC01EE5EFE4F208131812A303105A7
S1131F2014F011821082DC01AE5EBE4F2D913C9103
S1131F301197F901EE0FFF1FE80FF91FE950FF4F4A
S1131F40718360832F5F3F4F2D933C93FC01E950D5
S1131F50FF4F9C01255F3E4F80E090E0DC01419102
S1131F605191052E000C660B770B840F951FA61F4D
S1131F70B71FE217F30799F7BC01CD012AE030E05F
S1131F8040E050E00E947D2CC9010895CF93DF9377
S1131F90EC01FC01E15FFE4F808181110CC06623DE
S1131FA021F1CE01A9DE81E0FE01E15FFE4F8083D5
S1131FB03B96108208C0FE01E15FFE4F60833B96B2
S1131FC01082662349F088E893E1A0E0B0E08D83B5
S1131FD09E83AF83B8870EC084E690E0A0E0B0E0B3
S1131FE08D839E83AF83B88705C0FE01E65EFE4FF6
S1131FF01082F2CFDF91CF910895FC01E65EFE4F8F
S1132000608360E0FDCDFC01E65EFE4F80810895B3
S11320108F929F92AF92BF92CF92DF92EF92FF92F4
S11320200F931F93CF93DF93EC014A015B0148DCCC
S11320306B017C012A853B854C855D856D817E81A4
S11320408F81988549D3882309F4BCC1FE01E15FDF
S1132050FE4F8081882309F44BC0B601CE0159DFBD
S1132060FE01E55FFE4FAC0160E070E04083518308
S1132070628373833D96208131812A3031057CF15E
S113208011821082BC01CE010ADFA0E0B0E0FE01A3
S1132090ED50FF4F80839183A283B3834E855F8588
S11320A068897989052F162F272F332727FD3A951D
S11320B0401B510B620B730B840F951FA61FB71F98
S11320C08E879F87A88BB98BB196892F9A2FAB2FB8
S11320D0BB27A7FDBA9580839183A283B383FE01B6
S11320E0E85EFE4F8081918101969183808323C0B5
S11320F08E859F85A889B989492F5A2F6B2F7727F9
S113210067FD7A95841B950BA60BB70B8C0D9D1D53
S1132110AE1DBF1D8E879F87A88BB98BFE01EC5E19
S1132120FE4F892F9A2FAB2FBB27A7FDBA9580832B
S11321309183A283B383C5D26A877B878C879D876B
S11321402A8D3B8D4C8D5D8D6AEF70E080E090E0D0
S1132150C3D2882309F436C18C81882319F08130D5
S1132160D1F031C080919E0881110EC08EE998E0B3
S11321700E948829892B41F08CE998E00E949529D6
S11321808EE998E00E94912966E073E08CE998E07A
S11321900E948F2A18C080919E0881110EC08EE97A
S11321A098E00E948829892B41F08CE998E00E94EC
S11321B095298EE998E00E94912961E173E08CE908
S11321C098E00E948F2A80919E0881110EC08EE9AA
S11321D098E00E948829892B41F08CE998E00E94BC
S11321E095298EE998E00E949129B6018CE998E03E
S11321F00E94872A80919E0881110EC08EE998E082
S11322000E948829892B41F08CE998E00E94952945
S11322108EE998E00E9491296CE173E08CE998E0E2
S11322200E948F2AFE01EC5EFE4F00811181809195
S11322309E0881110EC08EE998E00E948829892B9E
S113224041F08CE998E00E9495298EE998E00E947B
S11322509129B8018CE998E00E94872A80919E0810
S113226081110EC08EE998E00E948829892B41F0E3
S11322708CE998E00E9495298EE998E00E949129C2
S11322806FE173E08CE998E00E948F2A80919E08A8
S113229081110EC08EE998E00E948829892B41F0B3
S11322A08CE998E00E9495298EE998E00E94912992
S11322B061E273E08CE998E00E948F2AC818D9087B
S11322C080919E0881110EC08EE998E00E948829B1
S11322D0892B41F08CE998E00E9495298EE998E0D9
S11322E00E949129B6018CE998E00E94872A809186
S11322F09E0881110EC08EE998E00E948829892BDE
S113230041F08CE998E00E9495298EE998E00E94BA
S1132310912964E273E08CE998E00E948F2A80910D
S11323209E0881110EC08EE998E00E948829892BAD
S113233041F08CE998E00E9495298EE998E00E948A
S113234091296CE173E08CE998E00E948F2AFE01E8
S1132350EC5EFE4F008111810819190980919E08D5
S113236081110EC08EE998E00E948829892B41F0E2
S11323708CE998E00E9495298EE998E00E949129C1
S1132380B8018CE998E00E94872A80919E08811107
S11323900EC08EE998E00E948829892B41F08CE9CF
S11323A098E00E9495298EE998E00E94912966E2BE
S11323B073E08CE998E00E948F2A83D16A8F7B8F27
S11323C08C8F9D8FDF91CF911F910F91FF90EF9094
S11323D0DF90CF90BF90AF909F908F9008958F9291
S11323E09F92AF92BF92CF92DF92EF92FF920F93A0
S11323F01F93CF93DF93EC016A017B0161DA4B01F8
S11324005C01B701A601CE0103DEE9858E2F90E0C1
S11324108730910508F019C1FC01EA5BFF4F0C9469
S1132420BB2CCE015ADBCE01BADB65E0CE01E8DB82
S113243048D16A8B7B8B8C8B9D8B2BC12A893B89E2
S11324404C895D8968E873E180E090E045D1882398
S113245009F41FC136D16A8B7B8B8C8B9D8B1EA29A
S113246066E0CE01CDDB15C1FE01EC5EFE4F40817E
S113247051816281738188819981092E000CAA0B94
S1132480BB0B97018601081B190B2A0B3B0B40174A
S11324905107620773070CF040C060E0CE0176DD9F
S11324A061E0CE01ADDBCE01E7DA8A819B81092EA2
S11324B0000CAA0BBB0BB701A601481B590B6A0BF6
S11324C07B0BC401092C000CAA0BBB0B4817590742
S11324D06A077B070CF0DDC0C818D908C601992328
S11324E024F4882799278C199D09688179810E9491
S11324F06A2C2AA13BA14CA15DA1DB010E94C42C42
S11325006E8F7F8F88A399A3DCD06E8B7F8B888F8F
S1132510998F62E0CE0174DBBCC08C0D9D1DAE1D95
S1132520BF1D84179507A607B7070CF03EC060E0EF
S1132530CE012CDD63E0CE0163DBCE01FFDA8A81BC
S11325409B81092E000CAA0BBB0B8C0D9D1DAE1D8F
S1132550BF1DA401092C000C660B770B4817590703
S11325606A077B070CF095C08C189D08C401992359
S113257024F48827992788199909688179810E9408
S11325806A2C2AA13BA14CA15DA1DB010E94C42CB1
S11325906E8F7F8F88A399A394D06E8B7F8B888F47
S11325A0998F64E0CE012CDB74C0C65EDE4F81E0FF
S11325B088836FC02E893F89488D598D6E8D7F8D9C
S11325C088A199A189D0882309F463C0CE0145DC90
S11325D060C0092C000CAA08BB088A819B81092EC3
S11325E0000CAA0BBB0BC81AD90AEA0AFB0A8C1402
S11325F09D04AE04BF040CF44CC0CE012EDC49C0D3
S11326002E893F89488D598D6E8D7F8D88A199A122
S113261063D0882309F43DC0CE0130DC3AC0092CD4
S1132620000CAA08BB088A819B81092E000CAA0B06
S1132630BB0BC80ED91EEA1EFB1EC814D904EA043B
S1132640FB043CF1CE011ADC24C080919E08811168
S11326500EC08EE998E00E948829892B41F08CE90C
S113266098E00E9495298EE998E00E94912969E2F8
S113267073E08CE998E00E948F2ACE012EDACE0115
S11326808EDA65E0CE01BCDA1CD06A8B7B8B8C8B36
S11326909D8BDF91CF911F910F91FF90EF90DF9071
S11326A0CF90BF90AF909F908F90089582E084BDAB
S11326B093E095BD16BC99EF97BD18BC80936E004E
S11326C008957894609108097091090980910A0924
S11326D090910B09F89408958F929F92AF92BF92B4
S11326E0CF92DF92EF92FF926B017C0149015A0174
S11326F0E8DFAB01BC01481959096A097B0981E08B
S1132700C416D506E606F70608F080E0FF90EF90C1
S1132710DF90CF90BF90AF909F908F9008951F92BD
S11327200F920FB60F9211248F939F93AF93BF9381
S11327308091080990910909A0910A09B0910B09A7
S11327400196A11DB11D8093080990930909A093D6
S11327500A09B0930B09BF91AF919F918F910F908C
S11327600FBE0F901F901895FC01108211828FEFFD
S1132770828313821482158216821782108608952A
S1132780FC019181913089F028F09230C9F09330A6
S113279011F12CC020B130E0C901028002C095952E
S11327A087950A94E2F78170089523B130E0C90156
S11327B0028002C0959587950A94E2F78170089586
S11327C026B130E0C901028002C0959587950A942C
S11327D0E2F78170089529B130E0C901028002C096
S11327E0959587950A94E2F78170089580E008959D
S11327F0CF93DF93EC0169834A83C2DF888381E04E
S11328008887DF91CF910895CF93DF93EC018F8177
S1132810882319F0813089F026C0CE01B1DF2881E8
S113282030E090E028173907F1F04BDF6B837C83AD
S11328308D839E8381E08F8316C02B813C814D81E3
S11328405E816AE070E080E090E046DF882359F022
S1132850CE0196DF288130E0482F50E02417350759
S113286011F088831F82DF91CF91089580919E0893
S113287081110EC08EE998E00E948829892B41F0CD
S11328808CE998E00E9495298EE998E00E949129AC
S113289063ED73E08CE998E00E948F2A8091E2084E
S11328A081110EC082EE98E00E948829892B41F0A4
S11328B08EED98E00E94B80B82EE98E00E94912978
S11328C08EED98E00C94050CDC01ED91FC913A97A7
S11328D020813181820F931FC9CFFC01DC01A959EA
S11328E0BF4F13967C936E93129782E090E01596F7
S11328F09C938E93149780E195E09183808380E28A
S113290095E08D939C93128213821482158284E63F
S113291090E0A0E0B0E082879387A487B58716860D
S1132920178688EE93E0A0E0B0E0818B928BA38BB6
S1132930B48B0895EF92FF920F931F93CF938C0162
S1132940C62F80919E0881110EC08EE998E00E94E6
S11329508829892B41F08CE998E00E9495298EE919
S113296098E00E94912968EE73E08CE998E00E9457
S11329708F2AEC2FF0E0EE0FFF1FE650FB4FE080B4
S1132980F18080919E0881110EC08EE998E00E942A
S11329908829892B41F08CE998E00E9495298EE9D9
S11329A098E00E949129B7018CE998E00E948F2A4F
S11329B080919E0881110EC08EE998E00E948829BA
S11329C0892B41F08CE998E00E9495298EE998E0E2
S11329D00E94912965E378E08CE998E00E948F2AAF
S11329E0F801C08BCF911F910F91FF90EF90089544
S11329F0CF92DF92EF92FF920F931F93CF93DF93C7
S1132A0000D000D000D0CDB7DEB78C018091E208B1
S1132A1081110EC082EE98E00E948829892B41F032
S1132A208EED98E00E94B80B82EE98E00E94912906
S1132A308EED98E00E94FF0B809124098111D9C08A
S1132A4084E299E00E948829892B41F085E199E08C
S1132A500E94F42B84E299E00E949129E0901C09E1
S1132A60F0901D098091240981110EC084E299E03F
S1132A700E948829892B41F085E199E00E94F42B7A
S1132A8084E299E00E949129C0901E09D0901F0908
S1132A9080919E0881110EC08EE998E00E948829D9
S1132AA0892B41F08CE998E00E9495298EE998E001
S1132AB00E94912966EF73E08CE998E00E948F2AC6
S1132AC0B7010E94872A66E174E00E948F2AB6014A
S1132AD00E94872A63E274E00E948F2A64E170E016
S1132AE00E94872A6DED75E00E948F2AEADDF801C5
S1132AF0628373838483958380912C0981110EC032
S1132B008CE299E00E948829892B41F084E199E0C4
S1132B100E94EB2A8CE299E00E9491294DE36AE23B
S1132B2084E199E00E94642B80912C0981110EC0EC
S1132B308CE299E00E948829892B41F084E199E094
S1132B400E94EB2A8CE299E00E94912942E06BE218
S1132B5084E199E00E94642BF8011686178680911F
S1132B602C0981110EC08CE299E00E948829892BDE
S1132B7041F084E199E00E94EB2A8CE299E00E9402
S1132B8091299E012F5F3F4FAE014D5F5F4FBE0104
S1132B906B5F7F4F84E199E00E94EC2ACB80DC805C
S1132BA00D2C000CEE08FF0849815A81052E000CFB
S1132BB0660B770BF8017596C801CD96DC01C192BE
S1132BC0D192E192F1924D935D936D937D938E1723
S1132BD09F07A9F7F801EB59FF4F1182108260E0BB
S1132BE0C801A8DE6EDDF80166837783808791874C
S1132BF005C0E0901C09F0901D0946CF26960FB63B
S1132C00F894DEBF0FBECDBFDF91CF911F910F911E
S1132C10FF90EF90DF90CF900895DC01ED91FC914F
S1132C20369720813181820F931FE2CE2F923F92FB
S1132C304F925F926F927F928F929F92AF92BF92C8
S1132C40CF92DF92EF92FF920F931F93CF93DF9374
S1132C50CDB7DEB72A970FB6F894DEBF0FBECDBF4F
S1132C605C0178876F835A87498779011E821D82A8
S1132C701C821B821A82198280912409811135C118
S1132C8084E299E00E948829892B41F085E199E04A
S1132C900E94F42B84E299E00E94912980901C09FF
S1132CA090901D098091240981110EC084E299E05D
S1132CB00E948829892B41F085E199E00E94F42B38
S1132CC084E299E00E94912920901E0930901F0906
S1132CD080912C0981110EC08CE299E00E94882910
S1132CE0892B41F084E199E00E94EB2A8CE299E07F
S1132CF00E9491299E012F5F3F4FAE014D5F5F4FB0
S1132D00BE016B5F7F4F84E199E00E94EC2A2B8126
S1132D103C81F7013183208349815A81F801518331
S1132D204083F501EB59FF4F80819181FC01EE0F47
S1132D30FF1FEE0FFF1FEA0DFB1D8901330F220B4E
S1132D40330B058B168B278B308FFD96052E000CCD
S1132D50660B770B408351836283738301968A30B9
S1132D60910530F4F501EB59FF4F9183808305C041
S1132D70F501EB59FF4F11821082F50145895689FF
S1132D806789708DC501CD96FC01C080D180E28039
S1132D90F380B497D501AF5BBF4F0191119121919D
S1132DA03191400F511F621F731F0D911D912D9181
S1132DB03D91C00ED11EE21EF31EE817F90769F714
S1132DC0CB01BA012AE030E040E050E00E949F2CA1
S1132DD029013A01C701B6012AE030E040E050E0A1
S1132DE00E949F2C69017A01EF81F885518240820B
S1132DF0E985FA8531832083F50126813781408571
S1132E005185618972898389948966DC882309F4F0
S1132E1071C0C201881999094C010B811C818091F0
S1132E209E0881110EC08EE998E00E948829892BA2
S1132E3041F08CE998E00E9495298EE998E00E947F
S1132E4091296AE274E08CE998E00E948F2AB80123
S1132E500E94872A62E374E00E948F2AB2010E94D2
S1132E60872A6AE374E00E948F2AB4010E94872AA9
S1132E7065E378E00E948F2A86010219130989808C
S1132E809A8080919E0881110EC08EE998E00E947C
S1132E908829892B41F08CE998E00E9495298EE9D4
S1132EA098E00E94912962E474E08CE998E00E9421
S1132EB08F2AB4010E94872A62E374E00E948F2A59
S1132EC0B6010E94872A6AE374E00E948F2AB8013F
S1132ED00E94872A65E378E00E948F2AF2DBF501DD
S1132EE0668377838087918705C080901C099090C2
S1132EF01D09EACE2A960FB6F894DEBF0FBECDBFE9
S1132F00DF91CF911F910F91FF90EF90DF90CF90C1
S1132F10BF90AF909F908F907F906F905F904F90F5
S1132F203F902F900895CF92DF92EF92FF920F93EC
S1132F301F93CF93DF93CDB7DEB728970FB6F894DE
S1132F40DEBF0FBECDBF7C01209110093091110965
S1132F50409112095091130964E670E080E090E01A
S1132F60BBDB882309F41EC3ACDB609310097093A8
S1132F70110980931209909313098E010F5F1F4F5B
S1132F809E012D5F3F4FAE014B5F5F4FBE01695FF6
S1132F907F4FC7014BDE809124098111FEC284E278
S1132FA099E00E948829892B41F085E199E00E94EB
S1132FB0F42B84E299E00E949129C0901C09D090DE
S1132FC01D098091240981110EC084E299E00E94B8
S1132FD08829892B41F085E199E00E94F42B84E251
S1132FE099E00E94912900911E0910911F09F7018F
S1132FF08089823009F412C130F4882369F0813069
S113300009F453C0CFC2843009F47AC208F4BFC1B2
S1133010853009F482C2C6C28091EA0881110EC0CB
S11330208AEE98E00E948829892B41F087EA98E08B
S11330300E94D5048AEE98E00E94912962E070E033
S113304087EA98E00E94AD098091EA0881110EC0D8
S11330508AEE98E00E948829892B41F087EA98E05B
S11330600E94D5048AEE98E00E94912962E070E003
S113307087EA98E00E949B0689819A8198012C5ED8
S11330803F4F2817390724F461E0C70153DC8AC293
S1133090045111098017910724F462E0C7014ADC46
S11330A081C263E0C70146DC7DC298012451310925
S11330B089819A818217930724F462E0C7013ADC7C
S11330C071C2281739074CF40C5E1F4F8017910703
S11330D024F463E0C7012EDC65C28B819C819601D8
S11330E024513109821793078CF58091EA088111E4
S11330F00EC08AEE98E00E948829892B41F087EA65
S113310098E00E94D5048AEE98E00E94912962E03A
S113311070E087EA98E00E949B068091EA0881119A
S11331200EC08AEE98E00E948829892B41F087EA34
S113313098E00E94D5048AEE98E00E94912960E00C
S113314070E087EA98E00E94AD092CC2F4E1CF0E4A
S1133150D11CC816D9068CF58091EA0881110EC0DD
S11331608AEE98E00E948829892B41F087EA98E04A
S11331700E94D5048AEE98E00E94912962E070E0F2
S113318087EA98E00E94AD098091EA0881110EC097
S11331908AEE98E00E948829892B41F087EA98E01A
S11331A00E94D5048AEE98E00E94912960E070E0C4
S11331B087EA98E00E949B06F5C18091EA08811194
S11331C00EC08AEE98E00E948829892B41F087EA94
S11331D098E00E94D5048AEE98E00E94912960E06C
S11331E070E087EA98E00E94AD098091EA088111B5
S11331F00EC08AEE98E00E948829892B41F087EA64
S113320098E00E94D5048AEE98E00E94912960E03B
S113321070E087EA98E00E949B06C4C198012C5E86
S11332203F4F89819A812817390724F461E0C70147
S113323081DBB8C104511109081719073CF482173E
S1133240930724F463E0C70175DBACC18B819C81D7
S1133250960124513109821793078CF58091EA086D
S113326081110EC08AEE98E00E948829892B41F0D2
S113327087EA98E00E94D5048AEE98E00E9491299A
S113328062E070E087EA98E00E94AD098091EA0864
S113329081110EC08AEE98E00E948829892B41F0A2
S11332A087EA98E00E94D5048AEE98E00E9491296A
S11332B061E070E087EA98E00E949B0673C124E114
S11332C0C20ED11CC816D9068CF58091EA0881116A
S11332D00EC08AEE98E00E948829892B41F087EA83
S11332E098E00E94D5048AEE98E00E94912962E059
S11332F070E087EA98E00E949B068091EA088111B9
S11333000EC08AEE98E00E948829892B41F087EA52
S113331098E00E94D5048AEE98E00E94912961E029
S113332070E087EA98E00E94AD093CC18091EA0808
S113333081110EC08AEE98E00E948829892B41F001
S113334087EA98E00E94D5048AEE98E00E949129C9
S113335061E070E087EA98E00E94AD098091EA0894
S113336081110EC08AEE98E00E948829892B41F0D1
S113337087EA98E00E94D5048AEE98E00E94912999
S113338061E070E087EA98E00E949B060BC18981A6
S11333909A8198012C5E3F4F2817390724F461E085
S11333A0C701C8DAFFC0045111098017910724F43A
S11333B062E0C701BFDAF6C08B819C81960124517B
S11333C03109821793078CF58091EA0881110EC0A8
S11333D08AEE98E00E948829892B41F087EA98E0D8
S11333E00E94D5048AEE98E00E94912961E070E081
S11333F087EA98E00E949B068091EA0881110EC03A
S11334008AEE98E00E948829892B41F087EA98E0A7
S11334100E94D5048AEE98E00E94912960E070E051
S113342087EA98E00E94AD09BDC0E4E1CE0ED11C4C
S1133430C816D9068CF58091EA0881110EC08AEE6F
S113344098E00E948829892B41F087EA98E00E943D
S1133450D5048AEE98E00E94912961E070E087EA41
S113346098E00E94AD098091EA0881110EC08AEEAD
S113347098E00E948829892B41F087EA98E00E940D
S1133480D5048AEE98E00E94912960E070E087EA12
S113349098E00E949B0686C08091EA0881110EC0C4
S11334A08AEE98E00E948829892B41F087EA98E007
S11334B00E94D5048AEE98E00E94912962E070E0AF
S11334C087EA98E00E94AD098091EA0881110EC054
S11334D08AEE98E00E948829892B41F087EA98E0D7
S11334E00E94D5048AEE98E00E94912962E070E07F
S11334F087EA98E00E949B0664E0C7011BDA52C089
S1133500E0D860930C0970930D0980930E09909391
S11335100F0965E0C7010EDA45C020910C0930910E
S11335200D0940910E0950910F0965E070E080E0AB
S113353090E0D2D88823B1F18D819E819801285DD5
S11335403F4F2817390724F461E0C701F3D92AC093
S1133550085211098017910724F462E0C701EAD9DF
S113356021C08F81988596012852310982179307CB
S113357034F0F8E2CF0ED11CC816D90624F463E067
S1133580C701D8D90FC09DD860930C0970930D0959
S113359080930E0990930F0905C0C0901C09D09028
S11335A01D0921CD28960FB6F894DEBF0FBECDBFFE
S11335B0DF91CF911F910F91FF90EF90DF90CF900B
S11335C00895CF93DF93FB013197EA30F10508F0BA
S11335D05CC1AB01EC01E35BFF4F0C94BB2CA3DC9F
S11335E054C1E881F981369780819181C80FD91F30
S11335F060E070E08A819B810E944F0246C1809105
S1133600EA0881110EC08AEE98E00E948829892B6D
S113361041F087EA98E00E94D5048AEE98E00E947F
S1133620912987EA98E00E942E09E881F98136976A
S113363080819181C80FD91F44E050E060E070E0C0
S11336408A819B810E944F0220C180919E08811132
S11336500EC08EE998E00E948829892B41F08CE9FC
S113366098E00E9495298EE998E00E9491296AE4E5
S113367074E08CE998E00E948F2A8091EA08811115
S11336800EC08AEE98E00E948829892B41F087EACF
S113369098E00E94D5048AEE98E00E94912987EA76
S11336A098E00E943006882309F4EFC080919E08B8
S11336B081110EC08EE998E00E948829892B41F07F
S11336C08CE998E00E9495298EE998E00E9491295E
S11336D061E674E08CE998E00E948F2AE881F98120
S11336E0369780819181C80FD91F40E050E060E097
S11336F070E08A819B810E944F02C7C0E881F981F2
S1133700369780819181C80FD91F40E050E061E075
S113371070E08A819B810E944F02B7C0E881F981E1
S1133720369780819181C80FD91F40E050E065E051
S113373070E08A819B810E944F02A7C08091EA08B1
S113374081119EC08AEE98E00E948829892B41F05D
S113375087EA98E00E94D5048AEE98E00E949129B5
S11337608091A908811191C08091EA0881110EC04D
S11337708AEE98E00E948829892B41F087EA98E034
S11337800E94D5048AEE98E00E94912981E08093FA
S1133790A9081E868091EA0881110EC08AEE98E07D
S11337A00E948829892B41F087EA98E00E94D50479
S11337B08AEE98E00E94912987EA98E00E947F0AA5
S11337C08091E20881110EC082EE98E00E9488295F
S11337D0892B41F08EED98E00E94B80B82EE98E0C0
S11337E00E9491298EED98E00E94FF0B60E0CE01CB
S11337F0A1D80E9461136A837B838C839D8380910B
S11338009E0881110EC08EE998E00E948829892BB8
S113381041F08CE998E00E9495298EE998E00E9495
S113382091296BE774E08CE998E00E948F2A2DC0FF
S113383080919E0881110EC08EE998E00E9488292B
S1133840892B41F08CE998E00E9495298EE998E053
S11338500E94912963E974E08CE998E00E948F2A20
S1133860E881F981369780819181C80FD91F49E099
S113387050E060E070E08A819B810E944F0205C0A5
S11338808091A908882309F481CFDF91CF9108950D
S1133890DC01ED91FC91389720813181820F931FD7
S11338A090CE8091E20881110EC082EE98E00E94D1
S11338B08829892B41F08EED98E00E94B80B82EEA6
S11338C098E00E9491298EED98E00E94DB0B809194
S11338D09E0881110EC08EE998E00E948829892BE8
S11338E041F08CE998E00E9495298EE998E00E94C5
S11338F0912966E275E08CE998E00C948F2ACF93C5
S1133900DF93EC0180919E0881110EC08EE998E04E
S11339100E948829892B41F08CE998E00E9495291E
S11339208EE998E00E94912960E475E08CE998E0C2
S11339300E948F2A0E9461136E837F8388879987F0
S11339408091EA0881110EC08AEE98E00E948829CD
S1133950892B41F087EA98E00E94D5048AEE98E02A
S11339600E94912987EA98E00E94A009DF91CF91F3
S11339700895AF92BF92CF92DF92EF92FF920F938E
S11339801F93CF93DF9300D000D000D0CDB7DEB724
S11339908C016330710509F495C044F461307105FC
S11339A091F06230710509F48EC196C165307105DC
S11339B00CF492C1673071050CF485C16730710550
S11339C009F4AFC089C1FC01268137814085518546
S11339D06AEF70E080E090E00E946C13882309F4A1
S11339E07BC180913409882399F18091E208811187
S11339F00EC082EE98E00E948829892B41F08EED5A
S1133A0098E00E94B80B82EE98E00E9491298EED16
S1133A1098E00E94DB0B8091E20881110EC082EED7
S1133A2098E00E948829892B41F08EED98E00E944D
S1133A30B80B82EE98E00E9491298EED98E00E94E6
S1133A40FF0B9091340981E089278093340932C0B7
S1133A508091E20881110EC082EE98E00E948829CC
S1133A60892B41F08EED98E00E94B80B82EE98E02D
S1133A700E9491298EED98E00E94E10B8091E2086A
S1133A8081110EC082EE98E00E948829892B41F0B2
S1133A908EED98E00E94B80B82EE98E00E94912986
S1133AA08EED98E00E94050C9091340981E08927FD
S1133AB0809334090E946113F801668377838087B9
S1133AC091870AC180919E0881110EC08EE998E009
S1133AD00E948829892B41F08CE998E00E9495295D
S1133AE08EE998E00E9491296BE575E08CE998E0F5
S1133AF00E948F2A8091EA0881110EC08AEE98E014
S1133B000E948829892B41F087EA98E00E94D50415
S1133B108AEE98E00E94912987EA98E00E94AA0818
S1133B20DBC080919E0881110EC08EE998E00E944E
S1133B308829892B41F08CE998E00E9495298EE927
S1133B4098E00E94912964E775E08CE998E00E946E
S1133B508F2A80912C0981110EC08CE299E00E9479
S1133B608829892B41F084E199E00E94EB2A8CE2B8
S1133B7099E00E9491299E012F5F3F4FAE014D5F56
S1133B805F4FBE016B5F7F4F84E199E00E94EC2A96
S1133B90ED80FE808091240981110EC084E299E0B9
S1133BA00E948829892B41F085E199E00E94F42B39
S1133BB084E299E00E949129F0921B09E0921A098B
S1133BC0EB80FC808091240981110EC084E299E08D
S1133BD00E948829892B41F085E199E00E94F42B09
S1133BE084E299E00E949129F0921D09E0921C0957
S1133BF0E980FA808091240981110EC084E299E061
S1133C000E948829892B41F085E199E00E94F42BD8
S1133C1084E299E00E949129F0921F09E0921E0922
S1133C208091240981110EC084E299E00E948829C0
S1133C30892B41F085E199E00E94F42B84E299E01C
S1133C400E94912985E199E00E94F52BE980FA8090
S1133C50CB80DC80AD80BE8080919E0881110EC037
S1133C608EE998E00E948829892B41F08CE998E03C
S1133C700E9495298EE998E00E94912965E875E0F3
S1133C808CE998E00E948F2AB5010E94872A6CE98A
S1133C9075E00E948F2AB6010E94872A62EA75E0C5
S1133CA00E948F2AB7010E94872A65E378E00E9468
S1133CB08F2A40E050E062E070E0F8018281938155
S1133CC00E944F0209C040E050E062E070E0F80159
S1133CD0828193810E944F0226960FB6F894DEBF2C
S1133CE00FBECDBFDF91CF911F910F91FF90EF9049
S1133CF0DF90CF90BF90AF900895FC0173836283EF
S1133D0085E090E0958384838CEA95E091838083B9
S1133D10089580919E0881110EC08EE998E00E945A
S1133D208829892B41F08CE998E00E9495298EE935
S1133D3098E00E94912962EB75E08CE998E00C947C
S1133D408F2A8091E20881110EC082EE98E00E94D1
S1133D508829892B41F08EED98E00E94B80B82EE01
S1133D6098E00E9491298EED98E00E94DB0B8091EF
S1133D709E0881110EC08EE998E00E948829892B43
S1133D8041F08CE998E00E9495298EE998E00E9420
S1133D9091296AEC75E08CE998E00C948F2AEF92F3
S1133DA0FF920F931F93CF93DF93EC016330710560
S1133DB009F467C044F46130710591F06230710513
S1133DC009F459C166C1653071050CF462C16730EC
S1133DD071050CF450C16730710509F481C059C1F3
S1133DE02E813F81488559856AEF70E080E090E03C
S1133DF00E946C13882309F44CC1809135098823EF
S1133E00E9F08091E20881110EC082EE98E00E94F0
S1133E108829892B41F08EED98E00E94B80B82EE40
S1133E2098E00E9491298EED98E00E94DB0B90911E
S1133E30350981E08927809335091CC08091E20807
S1133E4081110EC082EE98E00E948829892B41F0EE
S1133E508EED98E00E94B80B82EE98E00E949129C2
S1133E608EED98E00E94E10B9091350981E089275D
S1133E70809335090E9461136E837F8388879987B5
S1133E8008C180919E0881110EC08EE998E00E94BD
S1133E908829892B41F08CE998E00E9495298EE9C4
S1133EA098E00E94912960EE75E08CE998E00E9408
S1133EB08F2A8091EA0881110EC08AEE98E00E9450
S1133EC08829892B41F087EA98E00E94D5048AEE7C
S1133ED098E00E94912987EA98E00E94AA08D9C034
S1133EE08091000981110EC080E099E00E94882928
S1133EF0892B41F082EF98E00E94A40080E099E0D1
S1133F000E94912982EF98E00E94C3008C01809165
S1133F10240981110EC084E299E00E948829892B2A
S1133F2041F085E199E00E94F42B84E299E00E943B
S1133F30912910932109009320098091000981118E
S1133F400EC080E099E00E948829892B41F082EF1D
S1133F5098E00E94A40080E099E00E94912982EFF9
S1133F6098E00E94C5008C018091240981110EC043
S1133F7084E299E00E948829892B41F085E199E047
S1133F800E94F42B84E299E00E9491291093230962
S1133F90009322098091240981110EC084E299E0E2
S1133FA00E948829892B41F085E199E00E94F42B35
S1133FB084E299E00E94912985E199E00E94F52B21
S1133FC080912409811160C084E299E00E948829CB
S1133FD0892B41F085E199E00E94F42B84E299E079
S1133FE00E949129009122091091230980912409AA
S1133FF081110EC084E299E00E948829892B41F046
S113400085E199E00E94F42B84E299E00E949129D1
S1134010E0902009F090210980919E0881110EC042
S11340208EE998E00E948829892B41F08CE998E078
S11340300E9495298EE998E00E9491296BEF75E022
S11340408CE998E00E948F2AB7010E94772A67E1E1
S113405076E00E948F2AB8010E94772A65E378E00F
S11340600E948F2A40E050E060E070E08A819B81EA
S11340700E944F020EC040E050E060E070E08A8190
S11340809B810E944F0205C00091220910912309CF
S1134090BFCFDF91CF911F910F91FF90EF900895C3
S11340A0FC017383628383E090E09583848385E2DB
S11340B096E09183808308958091E20881110EC077
S11340C082EE98E00E948829892B41F08EED98E0D9
S11340D00E94B80B82EE98E00E9491298EED98E040
S11340E00E94DB0B80919E0881110EC08EE998E03E
S11340F00E948829892B41F08CE998E00E94952937
S11341008EE998E00E94912966ED70E08CE998E0D0
S11341100C948F2ACF93DF93EC0180919E08811138
S11341200EC08EE998E00E948829892B41F08CE921
S113413098E00E9495298EE998E00E94912961E413
S113414075E08CE998E00E948F2A0E9461136E83C7
S11341507F83888799878091EA0881110EC08AEE4F
S113416098E00E948829892B41F087EA98E00E9410
S1134170D5048AEE98E00E94912987EA98E00E948B
S1134180A009DF91CF910895EF92FF920F931F93AF
S1134190CF93DF93EC016330710509F4E4C044F478
S11341A06130710591F06230710509F4BEC1CBC173
S11341B0653071050CF4C7C1673071050CF4B5C1E5
S11341C06730710509F4F9C0BEC12E813F8148856D
S11341D059856AEF70E080E090E00E946C138823B8
S11341E009F4B1C180913609882399F18091E208DC
S11341F081110EC082EE98E00E948829892B41F03B
S11342008EED98E00E94B80B82EE98E00E9491290E
S11342108EED98E00E94DB0B8091E20881110EC0C4
S113422082EE98E00E948829892B41F08EED98E077
S11342300E94B80B82EE98E00E9491298EED98E0DE
S11342400E940B0C9091360981E0892780933609EE
S113425032C08091E20881110EC082EE98E00E9483
S11342608829892B41F08EED98E00E94B80B82EEEC
S113427098E00E9491298EED98E00E94E10B8091D4
S1134280E20881110EC082EE98E00E948829892BF1
S113429041F08EED98E00E94B80B82EE98E00E9407
S11342A091298EED98E00E94110C9091360981E0DD
S11342B08927809336090E9461136E837F838887E0
S11342C099878091000981110EC080E099E00E94D5
S11342D08829892B41F082EF98E00E94A40080E0B5
S11342E099E00E94912982EF98E00E94C3008C011A
S11342F08091000981110EC080E099E00E94882914
S1134300892B41F082EF98E00E94A40080E099E0BC
S11343100E94912982EF98E00E94C500EC018091EF
S11343209E0881110BC08EE998E0F2D7892B31F0F9
S11343308CE998E0FAD78EE998E0F3D76BE276E05F
S11343408CE998E00E948F2AB8010E94772A6FE2D4
S113435076E00E948F2ABE010E94772A65E378E006
S11343600E948F2AF0C080919E0881110BC08EE9B3
S113437098E0CED7892B31F08CE998E0D6D78EE936
S113438098E0CFD764E376E08CE998E00E948F2A26
S11343908091EA0881110CC08AEE98E0B9D7892B84
S11343A039F087EA98E00E94D5048AEE98E0B9D7FC
S11343B087EA98E00E94AA08C6C08091000981118A
S11343C00CC080E099E0A4D7892B39F082EF98E003
S11343D00E94A40080E099E0A4D782EF98E00E94B4
S11343E0C3008C018091240981110CC084E299E0FE
S11343F08FD7892B39F085E199E00E94F42B84E270
S113440099E08FD71093170900931609809100093A
S113441081110CC080E099E07BD7892B39F082EFC1
S113442098E00E94A40080E099E07BD782EF98E0B6
S11344300E94C5008C018091240981110CC084E282
S113444099E066D7892B39F085E199E00E94F42B35
S113445084E299E066D710931909009318098091B2
S1134460240981110CC084E299E052D7892B39F0D8
S113447085E199E00E94F42B84E299E052D785E12A
S113448099E00E94F52B80912409811157C084E2A0
S113449099E03ED7892B39F085E199E00E94F42B0D
S11344A084E299E03ED7009118091091190980918E
S11344B0240981110CC084E299E02AD7892B39F0B0
S11344C085E199E00E94F42B84E299E02AD7E090F8
S11344D01609F090170980919E0881110BC08EE98E
S11344E098E016D7892B31F08CE998E01ED78EE935
S11344F098E017D76FE476E08CE998E00E948F2A61
S1134500B701F5D767E176E00E948F2AB801EFD7AB
S113451065E378E00E948F2A40E050E061E070E0BB
S11345208A819B810E944F020EC040E050E061E00E
S113453070E08A819B810E944F0205C00091180996
S113454010911909C4CFDF91CF911F910F91FF9062
S1134550EF900895FC017383628384E090E0958377
S113456084838FE696E091838083089580919E08EA
S113457081110BC08EE998E0CBD6892B31F08CE900
S113458098E0D3D68EE998E0CCD665E776E08CE95E
S113459098E0C5D78091EA0881110CC08AEE98E0B2
S11345A0B7D6892B39F087EA98E00E94D5048AEEC1
S11345B098E0B7D687EA98E00C94A009CF93DF93EC
S11345C0EC018091E20881110CC082EE98E0A0D643
S11345D0892B39F08EED98E00E94B80B82EE98E0BA
S11345E0A0D68EED98E00E94050C8091E20881111E
S11345F00CC082EE98E08CD6892B39F08EED98E0D1
S11346000E94B80B82EE98E08CD68EED98E00E9462
S1134610110C8091EA0881110CC08AEE98E078D6DA
S1134620892B39F087EA98E00E94D5048AEE98E055
S113463078D687EA98E00E94A00980919E088111AB
S11346400BC08EE998E064D6892B31F08CE998E0B0
S11346506CD68EE998E065D66CE876E08CE998E053
S11346605ED70E9461136E877F87888B998B0E9427
S113467061136E837F838887998780E395E7A0E041
S1134680B0E08A879B87AC87BD87DF91CF9108957F
S1134690CF93DF93FB013197EA30F10508F01AC29A
S11346A0EC01E95AFF4F0C94BB2C8091EA0881116C
S11346B00CC08AEE98E02CD6892B39F087EA98E072
S11346C00E94D5048AEE98E02CD687EA98E00E94EE
S11346D03C06882309F4FEC140E050E061E070E04C
S11346E08A819B810E944F02F5C18091EA08811161
S11346F00CC08AEE98E00CD6892B39F087EA98E052
S11347000E94D5048AEE98E00CD687EA98E00E94CD
S11347103006882309F4DEC140E050E062E070E036
S11347208A819B810E944F02D5C18091EA08811140
S11347300CC08AEE98E0ECD5892B39F087EA98E032
S11347400E94D5048AEE98E0ECD587EA98E00E94AE
S113475084078091EA0881110CC08AEE98E0D8D5CC
S1134760892B39F087EA98E00E94D5048AEE98E014
S1134770D8D587EA98E00E94F8098823E9F0809167
S11347809E0881110BC08EE998E0C2D5892B31F0C7
S11347908CE998E0CAD58EE998E0C3D563EA76E05F
S11347A08CE998E0BCD680E395E7A0E0B0E08A8786
S11347B09B87AC87BD8708C080E69AEEA0E0B0E096
S11347C08A879B87AC87BD870E9461136E837F8332
S11347D0888799877FC18091EA0881110CC08AEE8D
S11347E098E096D5892B39F087EA98E00E94D504A1
S11347F08AEE98E096D587EA98E00E94AA0880E6B7
S11348009AEEA0E0B0E08A879B87AC87BD87809151
S11348109E0881110BC08EE998E07AD5892B31F07E
S11348208CE998E082D58EE998E07BD564EB76E05C
S11348308CE998E074D60E9461136E837F83888725
S1134840998748C18091EA0881110CC08AEE98E0EA
S11348505FD5892B39F087EA98E00E94D5048AEE67
S113486098E05FD587EA98E00E942E0980E69AEEE8
S1134870A0E0B0E08A879B87AC87BD872BC140E06E
S113488050E063E070E08A819B810E944F0222C164
S11348908091EA0881110CC08AEE98E039D5892B01
S11348A039F087EA98E00E94D5048AEE98E039D579
S11348B08091AA08882309F40DC12E813F8148857F
S11348C059856A857B858C859D850E946C13882318
S11348D009F400C18091EA0881110CC08AEE98E0C5
S11348E017D5892B39F087EA98E00E94D5048AEE1F
S11348F098E017D51092AA0869E070E08A819B813C
S11349000E944001E7C08091EA0881110CC08AEE40
S113491098E0FED4892B39F087EA98E00E94D50408
S11349208AEE98E0FED41092AA088091EA088111D8
S11349300CC08AEE98E0ECD4892B39F087EA98E031
S11349400E94D5048AEE98E0ECD487EA98E00E94AD
S11349507F0A8091EA0881110CC08AEE98E0D8D4CD
S1134960892B39F087EA98E00E94D5048AEE98E012
S1134970D8D487EA98E00E94080B80919E088111A0
S11349800BC08EE998E0C4D4892B31F08CE998E00F
S1134990CCD48EE998E0C5D463EC76E08CE998E059
S11349A0BED598C080919E0881110BC08EE998E015
S11349B0AFD4892B31F08CE998E0B7D48EE998E034
S11349C0B0D46DED76E08CE998E0A9D58091EA0841
S11349D081110CC08AEE98E09BD4892B39F087EAC8
S11349E098E00E94D5048AEE98E09BD487EA98E088
S11349F00E94400A6FC08091EA08811166C08AEE65
S1134A0098E086D4892B39F087EA98E00E94D5048F
S1134A108AEE98E086D48091A90881115BC08091C8
S1134A20EA0881110CC08AEE98E072D4892B39F01F
S1134A3087EA98E00E94D5048AEE98E072D481E077
S1134A408093AA080E9461136E837F838887998765
S1134A508091EA0881110CC08AEE98E059D4892B20
S1134A6039F087EA98E00E94D5048AEE98E059D498
S1134A7087EA98E00E947F0A8091EA0881110CC0BD
S1134A808AEE98E045D4892B39F087EA98E00E94B1
S1134A90D5048AEE98E045D487EA98E00E94080B92
S1134AA080919E0881110BC08EE998E031D4892B46
S1134AB031F08CE998E039D48EE998E032D468EF8B
S1134AC076E08CE998E02BD505C08091A90888236D
S1134AD009F4B5CFDF91CF910895FC01738362830C
S1134AE01582148286E197E09183808380E395E7C1
S1134AF0A0E0B0E082879387A487B587089580916A
S1134B009E0881110BC08EE998E002D4892B31F004
S1134B108CE998E00AD48EE998E003D46CE177E05C
S1134B208CE998E0FCD48091E20881110CC082EEFB
S1134B3098E0EED3892B39F08EED98E00E94B80B03
S1134B4082EE98E0EED38EED98E00C94110CEF9287
S1134B50FF920F931F93CF93DF93EC018091E208B0
S1134B6081110CC082EE98E0D3D3892B39F08EEDFD
S1134B7098E00E94B80B82EE98E0D3D38EED98E0D3
S1134B800E940B0C7E0186E0E80EF11C60E0C70178
S1134B900E94E30E8E01095A1E4F61E0C8010E9473
S1134BA0E30E60E0C7010E94C60F60E0C8010E94E6
S1134BB0C60F60E0C7010E94FD0F60E0C8010E94BB
S1134BC0FD0FFE01E855FD4F81E080833996108288
S1134BD00E946113FE01E755FD4F60837183828358
S1134BE09383CE54DD4F188280919E0881110BC0AF
S1134BF08EE998E08DD3892B31F08CE998E095D338
S1134C008EE998E08ED363E377E08CE998E087D46B
S1134C1080912409811141C084E299E079D3892BE0
S1134C2031F085E199E0E0D584E299E07AD300910E
S1134C301809109119098091240981110BC084E28B
S1134C4099E066D3892B31F085E199E0CDD584E2F2
S1134C5099E067D3C0911609D091170980919E08F5
S1134C6081110BC08EE998E053D3892B31F08CE984
S1134C7098E05BD38EE998E054D36BE477E08CE959
S1134C8098E04DD4BE0133D467E176E048D4B8014E
S1134C902ED465E378E043D405C00091180910913F
S1134CA01909D8CFDF91CF911F910F91FF90EF9009
S1134CB00895EF92FF920F931F93CF93DF93FB011D
S1134CC03197EA30F10508F0B6C1AB01EC01EF59B8
S1134CD0FF4F51C68091240981110BC084E299E0F1
S1134CE017D3892B31F085E199E07ED584E299E0F0
S1134CF018D38E010A5F1F4F40911609509117096E
S1134D0060E070E0C8010E94EF11809124098111D4
S1134D100BC084E299E0FCD2892B31F085E199E063
S1134D2063D584E299E0FDD27E0189EAE81A8EEF28
S1134D30F80A409118095091190960E070E0C70120
S1134D400E94EF11FE01EE54FD4F80818130F9F095
S1134D5020F0823009F45EC06EC1C8010E940310C5
S1134D60882309F468C1C7010E940310882309F449
S1134D7062C10E946113FE01E355FD4F608371839C
S1134D8082839383CE54DD4F81E0888354C1FE0136
S1134D90E355FD4F608171818281938120E137E287
S1134DA040E050E00E946C13882309F180919E0832
S1134DB081110BC08EE998E0ABD2892B31F08CE9DC
S1134DC098E0B3D28EE998E0ACD263E677E08CE960
S1134DD098E0A5D361E0C8010E94C60F61E0C70155
S1134DE00E94C60FCE54DD4F82E0888324C1C801DF
S1134DF00E940310882329F0C7010E940310811127
S1134E001AC10E946113C355DD4F688379838A8375
S1134E109B8311C1C8010E940310882329F0C70194
S1134E200E940310811107C1CE54DD4F188203C1C3
S1134E3060E070E08A819B810E944F02FCC08091F7
S1134E40EA0881110CC08AEE98E062D2892B39F00D
S1134E5087EA98E00E94D5048AEE98E062D287EA55
S1134E6098E00E942E0944E050E060E070E08A81FE
S1134E709B810E944F02DFC040E050E062E070E09E
S1134E808A819B810E944F02D6C08091EA088111D9
S1134E900CC08AEE98E03CD2892B39F087EA98E07E
S1134EA00E94D5048AEE98E03CD287EA98E00E94FA
S1134EB03C06882309F4BFC040E050E060E070E0A5
S1134EC08A819B810E944F02B6C040E050E064E0BA
S1134ED070E08A819B810E944F02ADC08091EA08F4
S1134EE08111A4C08AEE98E013D2892B39F087EAA5
S1134EF098E00E94D5048AEE98E013D28091A90824
S1134F00811199C08091EA0881110CC08AEE98E061
S1134F10FFD1892B39F087EA98E00E94D5048AEE04
S1134F2098E0FFD181E08093A9088091EA0881117B
S1134F300CC08AEE98E0ECD1892B39F087EA98E02E
S1134F400E94D5048AEE98E0ECD187EA98E00E94AA
S1134F507F0A8091E20881110CC082EE98E0D8D1DA
S1134F60892B39F08EED98E00E94B80B82EE98E020
S1134F70D8D18EED98E00E940B0C7E0186E0E80EFD
S1134F80F11C60E0C7010E94FD0F8E01095A1E4FFB
S1134F9060E0C8010E94FD0F60E0C7010E94C60FD7
S1134FA060E0C8010E94C60FC855DD4F81E08883C8
S1134FB080919E0881110BC08EE998E0A9D1892BBC
S1134FC031F08CE998E0B1D18EE998E0AAD16FE88C
S1134FD077E08CE998E0A3D22EC080919E088111DD
S1134FE00BC08EE998E094D1892B31F08CE998E0DC
S1134FF09CD18EE998E095D169EA77E08CE998E054
S11350008ED28091EA0881110CC08AEE98E080D19A
S1135010892B39F087EA98E00E94D5048AEE98E05B
S113502080D187EA98E00E94400A05C08091A908CF
S1135030882309F477CFDF91CF911F910F91FF90CF
S1135040EF900895CF93DF93EC017B836A8381E033
S113505090E09D838C8388EC97E09983888360E05B
S1135060CE0106960E94FB0C61E0CE01895A9E4F48
S11350700E94FB0CFE01E855FD4F81E080833196D0
S1135080108211821282138234961082118212824B
S11350901382CF54DD4F1882DF91CF91089510927F
S11350A0B90088E38093B80008958091BC008823F8
S11350B08CF024E630E0ECEBF0E085E08A95F1F743
S11350C00000215031098081882334F021153105F5
S11350D0A1F702C024E630E081E0232B09F480E04C
S11350E008958091BC0084FF11C024E630E0ECEB0D
S11350F0F0E085E08A95F1F70000215031098081C4
S113510084FF06C021153105A1F702C024E630E072
S113511081E0232B09F480E00895CF93C82F94EA0B
S11351209093BC00C2DF8823E1F09091B900987F8E
S1135130983011F0903191F4C093BB0084E88093CF
S1135140BC00B3DF882369F09091B900987F98314F
S113515039F081E0903429F480E003C081E001C09B
S113516080E0CF910895D9CF089584E98093BC005D
S1135170B8CF8093BB0084E88093BC0096DF909105
S1135180B900987F81E0983209F480E0089584ECB6
S11351908093BC008ADF8091BB00089584E88093EB
S11351A0BC0083DF8091BB00089580919E0881112B
S11351B00BC08EE998E0ACD0892B31F08CE998E0F3
S11351C0B4D08EE998E0ADD08CE998E00895809150
S11351D0EA0881110CC08AEE98E09AD0892B39F044
S11351E087EA98E00E94D5048AEE98E09AD087EA8C
S11351F098E008958091E20881110CC082EE98E055
S113520087D0892B39F08EED98E00E94B80B82EE9E
S113521098E087D08EED98E00895CF93DF93CDB7D3
S1135220DEB7C157D3400FB6F894DEBF0FBECDBF73
S113523084B78093751114BECE0101960E94CB00F1
S1135240C6DF0E94EE05C3DF0E94380AAEDF72D0CB
S1135250ACDF6BEF77E063D169E078E060D165E1C2
S113526078E05DD110917511A0DF67E378E057D144
S1135270612F70E04CD165E378E051D10E94561360
S1135280B9DF0E94C10BB6DF64E60E94B50BCE0104
S113529001960E948E018091000981110CC080E06A
S11352A099E036D0892B39F082EF98E00E94A4006F
S11352B080E099E036D082EF98E00E94A5008091CA
S11352C02C0981110BC08CE299E022D0892B31F09A
S11352D084E199E080D18CE299E023D084E199E0E3
S11352E007D28091240981110BC084E299E010D087
S11352F0892B31F085E199E077D284E299E011D0ED
S113530085E199E09FD2CE0101960E948904FBCFEA
S1135310FC0181E090E02081222311F080E090E004
S1135320089521E0FC012083089520E1FC012083FD
S113533011820895FC0111821092C50080E18093CE
S1135340C400A0ECB0E09C9192609C9386E08093B2
S1135350C20088E18093C10081E08183789408953C
S1135360FB012081222339F180916F1190917011FA
S11353704091731150917411319660E030E0DC017A
S1135380A159B64F2C930196811528E0920710F08D
S1135390862F932F411528E0520710F44F5F5F4F7B
S11353A021912111ECCF9093701180936F11509340
S11353B0741140937311E1ECF0E08081806280838A
S11353C00895CF92DF92EF92FF920F931F93CF93A2
S11353D0DF93CDB7DEB760970FB6F894DEBF0FBE8C
S11353E0CDBF8C01CB01FE01319620E1DF011D927E
S11353F02A95E9F799230CF03DC09195819591097F
S1135400A1F141E001C040E0F801C080D12C7E014F
S1135410F0E1EF0EF11C2EE030E0B6015BD2FC01AE
S1135420E75BF74F8081D7018E937D0121503109CD
S1135430862F972F009719F02115310571F7442312
S113544061F061E070E06C0F7D1F620F731F8DE2ED
S1135450FB018083C80184DF10C0BE01620F731F8B
S11354606E5F7F4FC8017CDF08C067E478E0C80145
S113547077DF03C0009739F6F8CF60960FB6F8943B
S1135480DEBF0FBECDBFDF91CF911F910F91FF9073
S1135490EF90DF90CF900895CF92DF92EF92FF923A
S11354A0CF93DF93EC016A017B01BA01772789DF8F
S11354B0CC24EE24FF2461E070E081E1C816D1041D
S11354C0E104F10414F460E070E0CE017ADFDF91CE
S11354D0CF91FF90EF90DF90CF900895CF93DF931B
S11354E0EC0170E06EDFCE01DF91CF910895CF9390
S11354F0DF93EC0166DFCE01DF91CF910895CF9366
S1135500DF93EC01C9DFCE01DF91CF910895CF93F2
S1135510DF93EC0156DFCE01DF91CF910895CF9355
S1135520DF93EC011DDFCE01DF91CF9108951F922F
S11355300F920FB60F9211240BB60F922F933F9335
S11355408F939F93EF93FF938091711190917211B8
S113555020916F11309170112817390771F0FC01F7
S1135560E159F64F20810196811538E0930758F0F0
S113557010927211109271110AC0E1ECF0E0808176
S11355808F7B808306C09093721180937111209356
S1135590C600FF91EF919F918F913F912F910F90B2
S11355A00BBE0F900FBE0F901F90189510927011A4
S11355B010926F1110927211109271111092741155
S11355C010927311E7E3F9E013AA12AA15AA14AA18
S11355D017AA16AA08950895DF92EF92FF920F93E7
S11355E01F93CF93DF937B018A01E90188E395DD63
S11355F0811134C081E0BDDD811130C089E3B3DDA8
S113560081112CC0C4DDD82EC2DD2D2D30E0322F07
S11356102227282B3595279535952795F701318332
S11356202083B5DDF82EB3DD2F2D30E0322F222775
S1135630282B3595279535952795F80131832083B7
S1135640A6DD082FABDD182F90DD812F90E0902B85
S1135650959587959595879599838883DF91CF91C3
S11356601F910F91FF90EF90DF9008950F931F9378
S1135670CF93C62F8A0188E350DD81110EC08C2F91
S113568078DD81110CC089E36EDD81110AC086DDED
S1135690F80180836ADD81E005C080E003C080E01A
S11356A001C080E0CF911F910F910895CF93DF93B4
S11356B01F92CDB7DEB7AE014F5F5F4FD7DF898151
S11356C00F90DF91CF910895CF93DF93C62FD42FFE
S11356D088E323DD811109C08C2F4BDD811105C0C6
S11356E08D2F47DD811101C040DDDF91CF910895F9
S11356F0FF920F931F93CF93DF931F92CDB7DEB723
S11357008C0182E48983AE014F5F5F4F6DE0C80175
S1135710ADDF882309F443C0F9808AE1F81224C07C
S113572080919E0881110BC08EE998E0F1DD892BF0
S113573031F08CE998E0F9DD8EE998E0F2DD67E676
S113574078E08CE998E0EBDE40E46BE2C801BCDF72
S11357506BE2C801ABDF86FDFBCF41E06AE2C80122
S1135760B3DFFF24F39430C080919E0881110BC0F5
S11357708EE998E0CDDD892B31F08CE998E0D5DD18
S11357808EE998E0CEDD66E778E08CE998E0C7DE44
S11357906F2DA4DE65E378E0C2DEF12C15C08091A4
S11357A09E0881110BC08EE998E0B2DD892B31F09F
S11357B08CE998E0BADD8EE998E0B3DD67E878E03B
S11357C08CE998E0ACDEF12C40E46BE2C8017CDFAC
S11357D041E06AE2C80178DF8F2D0F90DF91CF910D
S11357E01F910F91FF9008950895CF93DF93EC01DB
S11357F068818EE090E008D169817A818CE090E044
S113580015D16B817C818AE090E010D16D817E811D
S113581088E090E00BD16F81788586E090E006D136
S113582069857A8584E090E001D16B857C8582E08E
S113583090E0FCD06D857E8580E090E0F7D0DF912C
S1135840CF9108951F93CF93DF93EC018EE090E006
S1135850CED0182F88838CE090E0D1D09A838983AE
S11358608AE090E0CCD09C838B8388E090E0C7D022
S11358709E838D8386E090E0C2D098878F8384E0F6
S113588090E0BDD09A87898782E090E0B8D09C8769
S11358908B8780E090E0B3D09E878D871234B1F07F
S11358A082E4888380E092E09A8389839C838B835B
S11358B080E59BE09E838D8398878F831A86198663
S11358C01C861B861E861D86CE018FDFDF91CF913D
S11358D01F91089597FB072E16F4009406D077FDC8
S11358E008D058D007FC05D03EF4909581959F4F81
S11358F00895709561957F4F0895A1E21A2EAA1B11
S1135900BB1BFD010DC0AA1FBB1FEE1FFF1FA2176B
S1135910B307E407F50720F0A21BB30BE40BF50B68
S1135920661F771F881F991F1A9469F760957095F1
S1135930809590959B01AC01BD01CF010895052E82
S113594097FB16F400940FD057FD05D0D6DF07FC63
S113595002D046F408C050954095309521953F4FAC
S11359604F4F5F4F089590958095709561957F4F47
S11359708F4F9F4F0895EE0FFF1F0024001C0BBE96
S11359800790F691E02D0994B7FF18C017D0821B39
S1135990930B0895AA1BBB1B51E107C0AA1FBB1F91
S11359A0A617B70710F0A61BB70B881F991F5A95A7
S11359B0A9F780959095BC01CD01089509D0A59FC4
S11359C0900DB49F900DA49F800D911D11240895F6
S11359D0A29FB001B39FC001A39F700D811D11242C
S11359E0911DB29F700D811D1124911D0895F99987
S11359F0FECF92BD81BDF89A992780B50895A8E19C
S1135A00B0E042E050E018C0262FF999FECF92BDD5
S1135A1081BDF89A019700B4021639F01FBA20BD6F
S1135A200FB6F894FA9AF99A0FBE08950196272FA3
S1135A30ECDFEACFDC01CB01FC01F999FECF06C013
S1135A40F2BDE1BDF89A319600B40D924150504038
S10B5A50B8F70895F894FFCFA4
S1135A58030003002A2A2A53746174652043686189
S1135A686E67653A200069676E6974696F6E200015
S1135A78444F204E4F542043616C6C2066726F6D06
S1135A88204F6E456E7472792829206F72204F6EEC
S1135A9845786974282921210A002A2A2A696C6C04
S1135AA86567616C20537461746521200049676ED1
S1135AB86974696F6E204368616E6765640A00499A
S1135AC8676E6974696F6E2070656E64696E6720AD
S1135AD874696D656F75740A0049676E6974696FD6
S1135AE86E4F6E4576656E740A0049676E6974690F
S1135AF86F6E4F66664576656E740A0042757474F7
S1135B086F6E57616B654576656E740A004E6F203B
S1135B184576656E740054696D6572204576656EC8
S1135B287400526F636B6572204576656E74004F1E
S1135B38757473696465204576656E74005374657D
S1135B486572696E67204576656E74005472617675
S1135B58656C204576656E740043616D70204576EA
S1135B68656E740043616C69627261746520457680
S1135B78656E740049676E6974696F6E204F6E2094
S1135B884576656E740049676E6974696F6E204F57
S1135B986666204576656E7400427574746F6E206F
S1135BA857616B65204576656E7400BD01C601D2E8
S1135BB801DF01ED01FC0109021402240236024945
S1135BC802504F5254423B20002A5269676874209D
S1135BD8002044756D700A002046696C6C0A002028
S1135BE8486F6C640A00427574746F6E55700A00CD
S1135BF866696C6C206F66660A0064756D70206F48
S1135C0866660A0066696C6C206F6E0A00427574D9
S1135C18746F6E20446F776E0A0064756D70206F20
S1135C286E0A002A4C6566742000686F6C64696E9D
S1135C38673F20003E436F726E65722C003C0D0A6C
S1135C480046696C74657220726573657420002C53
S1135C582072656720004C204865696768743A209B
S1135C680052204865696768743A2000205B005D2B
S1135C780020280029005D0A003E436F726E657299
S1135C882C44656661756C742C53746174652121A8
S1135C983C0056616C7665496E6974696E67005696
S1135CA8616C766546696C6C696E670056616C76E2
S1135CB86546696C6C50756C73650056616C7665E5
S1135CC844756D70696E670056616C766544756DD0
S1135CD87050756C73650056616C7665486F6C64BA
