S01200004D6963726F4C6576656C2E7372656320
S113000087C00000AFC00000ADC00000ABC000005E
S11300100C94B50D0C94CC0DA5C000000C94E30D0C
S1130020A1C000009FC000009DC000009BC0000054
S113003099C0000097C0000095C0000093C0000064
S11300400C94A41A8FC000008DC000008BC0000067
S113005089C000000C942D3185C0000083C00000CD
S113006081C000007FC000007DC000007BC0000094
S113007079C0000077C0000075C0000073C00000A4
S113008071C000006FC000006DC00000BD1794195E
S11300907D19C919B219D2172018561D5A1D5A1D97
S11300A0731D031E901D1B1E331E591E791E5527DA
S11300B0FE24212555258325B125DF2550275027EA
S11300C041266F269D26CB26F9262727C8296B298A
S11300D09129B72947295929BC29F029192A272AFE
S11300E0162B9A2B9A2BA72BC42BB82BEB2BF72B65
S11300F0262C382C2046534D54726176656C43612E
S11301006C3A3A4F6E4578697428290D0A007C329E
S113011011241FBECFEFD0E4DEBFCDBF19E0A0E0B5
S1130120B1E0EEE7FEE600E00BBF02C007900D92DF
S1130130AC32B107D9F722E1ACE2B9E001C01D92BB
S1130140A131B207E1F710E0C8E8D0E004C021977C
S1130150FE010E94D436C738D107C9F70E94662F22
S11301600C943D374DCFCF93DF93CDB7DEB78CE200
S113017099E0FC018081882391F48CE299E00E944B
S1130180A62F21E0892B09F420E0222341F084E307
S113019099E00E9431348CE299E00E94BC2F84E300
S11301A099E0DF91CF910895CF93DF9300D0CDB73D
S11301B0DEB79A83898389819A81FC01838594853A
S11301C00F900F90DF91CF910895CF93DF9300D0DC
S11301D0CDB7DEB79A83898389819A81FC018585AD
S11301E096850F900F90DF91CF910895CF93DF9371
S11301F000D0CDB7DEB79A8389830F900F90DF913B
S1130200CF910895CF93DF9300D0CDB7DEB79A8313
S113021089838CE790E020E4FC0120838AE790E066
S113022027E8FC0120838EE790E02BE0FC0120838B
S11302300F900F90DF91CF910895CF93DF9300D06B
S11302401F92CDB7DEB79A8389836B838B818770C6
S11302508B838CE790E02CE730E0F9012081322F8A
S1130260307E2B81232BFC0120838AE790E02AE750
S113027030E0F90120812064FC01208300008AE73A
S113028090E0FC018081882F90E08074992721E020
S1130290892B09F420E0222391F788E790E0FC0100
S11302A0808191810F900F900F90DF91CF910895ED
S11302B0CF93DF9300D0CDB7DEB79A83898389814A
S11302C09A8160E0BADF0F900F90DF91CF9108958B
S11302D0CF93DF9300D0CDB7DEB79A83898389812A
S11302E09A8161E0AADF0F900F90DF91CF9108957A
S11302F0CF93DF9300D000D01F92CDB7DEB79D839C
S11303008C8381E089832FDF4FDF9B838A838A81FB
S11303109B81892B81F019828C819D81C9DF9C018D
S113032041E08A819B818217930708F040E04423CF
S113033011F081E0898389810F900F900F900F90C5
S11303400F90DF91CF910895CF93DF9300D000D029
S11303501F92CDB7DEB79D838C8381E0898303DF51
S113036034DF9B838A838A819B81892B81F0198264
S11303708C819D81ADDF9C0141E08A819B81821744
S1130380930708F040E0442311F081E089838981D8
S11303900F900F900F900F900F90DF91CF910895D1
S11303A0CF93DF93CDB7DEB783E499E0FC0180817E
S11303B0882389F483E499E00E94A62F21E0892B05
S11303C009F420E0222339F081E699E023D483E480
S11303D099E00E94BC2F81E699E0DF91CF910895C6
S11303E0CF93DF93CDB7DEB78BE499E0FC01808136
S11303F0882391F48BE499E00E94A62F21E0892BB5
S113040009F420E0222341F08BE599E00E94CD2FEE
S11304108BE499E00E94BC2F8BE599E0DF91CF91AA
S11304200895CF93DF93CDB7DEB783E599E0FC0160
S11304308081882391F483E599E00E94A62F21E02E
S1130440892B09F420E0222341F08DE599E00E94F4
S1130450090F83E599E00E94BC2F8DE599E0DF91B7
S1130460CF910895CF93DF9300D0CDB7DEB79A83B1
S1130470898389819A81FC01108289819A810196FC
S113048029813A81B9010E94D42889819A810F96E1
S113049029813A81B9010E94762A89819A818859F1
S11304A09D4F29813A81B9010E947E1C89819A81DC
S11304B086589D4F29813A81B9010E94222389815E
S11304C09A818A569D4F29813A81B9010E94AE27AB
S11304D089819A8180569D4F29813A81B9010E9470
S11304E0E32189819A818A549D4FFC0111821082F3
S11304F089819A8184549D4FFC0110821182128259
S1130500138289819A8180549D4FFC01108211824B
S11305101282138289819A818C539D4FFC0110822F
S113052089819A818B539D4FFC01108289819A8124
S11305308A539D4FFC01108289819A8189539D4F72
S1130540FC01108289819A819C012F5F3F4F898130
S11305509A8186559D4FFC013183208389819A813C
S11305609C01215F3F4F89819A8184559D4FFC01F5
S11305703183208389819A819C012C583D4F898144
S11305809A8182559D4FFC013183208389819A8110
S11305909C0126583D4F89819A8180559D4FFC01CD
S11305A03183208389819A819C012A563D4F898118
S11305B09A818E549D4FFC013183208389819A81D5
S11305C09C0120563D4F89819A818C549D4FFC019A
S11305D0318320830F900F90DF91CF9108950F9373
S11305E01F93CF93DF9300D01F92CDB7DEB79B83C9
S11305F08A838A819B818A549D4FFC0180819181E9
S11306002A813B818B5A9E4F880F991F820F931F1B
S1130610FC0180819181FC0180819181FC01208118
S113062031818A819B818A549D4FFC018081918113
S11306304A815B818B5A9E4F880F991F840F951FA7
S1130640FC0180819181F90109950E94811ADC01E4
S1130650CB012A813B8128543D4FF901808391834A
S1130660A283B3838A819B8162E070E036D098DEF6
S11306700E94730D89838981082F10E0B1DE6AE23C
S113068071E00E941431B8010E94FB3064E371E010
S11306900E9414318A819B818B539D4F21E0FC0180
S11306A02083BFDE0E94E00F7BDE0E94E50C78DE33
S11306B00E944E0D8981882321F072DE21E0FC0125
S11306C022838A819B81FC0110820F900F900F90EE
S11306D0DF91CF911F910F9108950F931F93CF93A3
S11306E0DF9300D000D0CDB7DEB79A8389837C83B3
S11306F06B838B819C810297ACF08B819C81880FEA
S1130700991F80509F4FFC010081118169DE66E3CF
S113071071E00E941431B8010E94143164E371E065
S11307200E94143189819A818A549D4FFC018081F1
S1130730918129813A818B5A9E4F880F991F820F8C
S1130740931FFC0180819181FC018081918102963B
S1130750FC012081318189819A818A549D4FFC0159
S11307608081918149815A818B5A9E4F880F991FAC
S1130770840F951FFC01808191814B815C81BA01BA
S1130780F90109950F900F900F900F90DF91CF9181
S11307901F910F910895CF93DF9300D000D000D024
S11307A0CDB7DEB79A8389837C836B835E834D8365
S11307B080919809882329F013DE68E471E00E948F
S11307C0143181E08093980989819A818A549D4FDC
S11307D0FC01208131818B819C812817390709F420
S11307E096C089819A818A549D4FFC0180819181B0
S11307F029813A818B5A9E4F880F991F820F931F2C
S1130800FC0180819181FC01808191810496FC012D
S11308102081318189819A818A549D4FFC01808194
S1130820918149815A818B5A9E4F880F991F840F59
S1130830951FFC0180819181F901099589819A8133
S11308408A549D4F2B813C81FC0131832083898113
S11308509A818A549D4FFC018081918129813A813A
S11308608B5A9E4F880F991F820F931FFC01808122
S11308709181FC0180819181FC01208131818981F8
S11308809A818A549D4FFC018081918149815A81CA
S11308908B5A9E4F880F991F840F951FFC018081EE
S11308A09181F90109958D819E81892B81F189813D
S11308B09A818A549D4FFC018081918129813A81DA
S11308C08B5A9E4F880F991F820F931FFC018081C2
S11308D09181FC01808191810296FC01208131810A
S11308E089819A818A549D4FFC018081918149813B
S11308F05A818B5A9E4F880F991F840F951FFC01B4
S1130900808191814D815E81BA01F901099510922E
S1130910980926960FB6F894DEBF0FBECDBFDF91BF
S1130920CF9108951F93CF93DF9300D0CDB7DEB757
S11309309A8389838091A109882329F151DD62E793
S113094071E00E9414310E94811ADC01CB012981DB
S11309503A8124543D4FF90180839183A283B38368
S11309601FDD0E94730D282F89819A818A539D4F20
S1130970FC0120831092A10989819A818B539D4F98
S113098021E0FC01208389819A818B539D4FFC01D6
S11309908081882309F458C089819A8184549D4FA9
S11309A0FC0180819181A281B3819C01AD0168EE3B
S11309B073E080E090E00E944F1A882309F444C059
S11309C00FDD64E871E00E94143189819A818B53B0
S11309D09D4FFC01108289819A818A539D4FFC01AD
S11309E01081DEDC0E94730D982F81E0191709F045
S11309F080E0882349F189819A818A539D4FFC01C3
S1130A008081882389F0ECDC6EE971E00E94143166
S1130A1089819A8168E070E060DE89819A818953D6
S1130A209D4FFC01108210C0DBDC6FEA71E00E9474
S1130A30143189819A8169E070E04FDE89819A815D
S1130A4089539D4FFC0110828091A209882309F4E7
S1130A5039C01092A209C4DC61EC71E00E94143127
S1130A6089819A816AE070E038DE9ADCE1D18823DA
S1130A7029F089819A8162E070E02FDE91DC40D216
S1130A80882329F089819A8163E070E026DE88DC7E
S1130A9079D2882329F089819A8164E070E01DDE8F
S1130AA07FDCB3D2882329F089819A8166E070E0E3
S1130AB014DE76DCFAD2882329F089819A8165E0F4
S1130AC070E00BDE6DDC46D3882349F089819A817E
S1130AD0FC01108289819A8167E070E0FEDD0F904D
S1130AE00F90DF91CF911F910895CF93DF9300D0A2
S1130AF0CDB7DEB79A83898353DC55D189819A8136
S1130B0011DF89819A8188549D4FFC0180819181F4
S1130B10A281B3819C01AD0162E370E080E090E0CA
S1130B200E944F1A8823B9F03BDCFC0182818823A0
S1130B3029F089819A8161E070E0CFDD0E94811AF9
S1130B40DC01CB0129813A8128543D4FF90180838E
S1130B509183A283B3830F900F90DF91CF91089577
S1130B60CF93DF9300D0CDB7DEB79A838983898191
S1130B709A81FC01908181E0992309F480E00F902F
S1130B800F90DF91CF910895CF93DF9300D0CDB72D
S1130B90DEB79A83898389819A81FC018081882FB9
S1130BA090E00F900F90DF91CF910895CF93DF9352
S1130BB000D0CDB7DEB79A83898389819A81FC01FD
S1130BC011AA89819A81FC0112AA0F900F90DF91DA
S1130BD0CF910895CF93DF93CDB7DEB789E999E03C
S1130BE0FC018081882389F489E999E00E94A62F79
S1130BF021E0892B09F420E0222339F08EEA99E0E0
S1130C00F5DA89E999E00E94BC2F8EEA99E0DF9138
S1130C10CF910895CF93DF9300D0CDB7DEB79A83F9
S1130C20898389819A81FC01128289819A81FC01DC
S1130C30138289819A8104960E94D11A89819A81AA
S1130C400D960E94D11A89819A8146960E94D11AE2
S1130C5089819A814F960E94D11A89819A818896B6
S1130C600E94D11A89819A81FC0111AA89819A81F1
S1130C70FC0112AA0F900F90DF91CF910895CF93AA
S1130C80DF9300D0CDB7DEB79A83898381E290E009
S1130C9020EFFC01208384E290E0FC01108287E2D3
S1130CA090E020E8FC0120838AE290E026E0FC0149
S1130CB020830F900F90DF91CF910895CF93DF930E
S1130CC000D0CDB7DEB79A83898382E290E0FC013D
S1130CD0108285E290E02FEFFC0120838BE290E00C
S1130CE028EFFC0120830F900F90DF91CF9108959E
S1130CF0CF93DF9300D0CDB7DEB79A838983898100
S1130D009A81BDDF89819A81D9DF89819A814F9641
S1130D1043E063E00E94F91A89819A81889644E04D
S1130D2063E00E94F91A89819A81469645E063E05E
S1130D300E94F91A89819A810D9646E063E00E9427
S1130D40F91A89819A81049647E063E00E94F91AAE
S1130D5089819A815AD189819A81A7D189819A817D
S1130D6067D089819A81EDD089819A81C9D089819E
S1130D709A81F0D189819A8105D189819A8116DF7E
S1130D8089819A8135D00E94811ADC01CB012981A5
S1130D903A81F90183AB94ABA5ABB6AB0F900F903E
S1130DA0DF91CF910895CF93DF9300D0CDB7DEB715
S1130DB09A83898389819A810D960E94A91B8981CE
S1130DC09A8104960E94A91B89819A814F960E9458
S1130DD0A91B89819A8146960E94A91B89819A81BF
S1130DE088960E94A91B0F900F90DF91CF910895D0
S1130DF0CF93DF9300D0CDB7DEB79A8389838BE698
S1130E0090E024E0FC0120838CE690E027E1FC01E3
S1130E10208383E790E028EEFC01208388E690E0BD
S1130E202BE0FC0120830F900F90DF91CF91089568
S1130E30EF92FF920F931F93CF93DF9300D01F92F3
S1130E40CDB7DEB79B838A838A819B810D9688DE2A
S1130E50282F9091A30981E0291709F480E0898360
S1130E608A819B8104967CDE282F9091A40981E0DD
S1130E70291709F480E09981292F30E0882F90E028
S1130E80822B932B21E0892B09F420E029838A818A
S1130E909B810D9665DE8093A3098A819B810496CC
S1130EA05FDE8093A40989818823F9F08A819B817C
S1130EB0049656DE082F10E08A819B810D9650DE41
S1130EC0E82EF12C8DDA60E772E00E941431B7014C
S1130ED00E94FB3068E772E00E941431B8010E945E
S1130EE0FB306BE772E00E94143189810F900F9000
S1130EF00F90DF91CF911F910F91FF90EF90089584
S1130F00CF93DF9300D000D0CDB7DEB79C838B8323
S1130F1083E290E0FC018081877189832091A50997
S1130F2081E09981291709F480E08A83898180937B
S1130F30A5098A810F900F900F900F90DF91CF91A8
S1130F400895CF93DF9300D000D0CDB7DEB79C8354
S1130F508B8383E290E0FC018081847289832091F9
S1130F60A60981E09981291709F480E08A8389819F
S1130F708093A6098A810F900F900F900F90DF91B4
S1130F80CF910895CF93DF9300D000D01F92CDB7B7
S1130F90DEB79D838C8383E290E0FC018081882FFF
S1130FA090E08870992721E0892B09F420E02983B7
S1130FB083E290E0FC018081882F90E0807499277F
S1130FC021E0892B09F420E02A839091A7098981E3
S1130FD0981729F49091A8098A81981711F081E053
S1130FE001C080E08B838B81882331F089818093D9
S1130FF0A7098A818093A8098B810F900F900F9085
S11310000F900F90DF91CF9108950F931F93CF937B
S1131010DF9300D000D0CDB7DEB79C838B8383E20F
S113102090E0FC018081881F8827881F8983809134
S1131030A909082F10E08B819C814696A5DD21E04B
S1131040892B09F420E0822F90E021E0081719078A
S113105009F420E02A838A81282F30E04091AA09EC
S113106081E09981491709F480E0882F90E0822B70
S1131070932B21E0892B09F420E02A838B819C8126
S1131080469682DD21E0892B09F420E02093A9090A
S113109089818093AA098A810F900F900F900F90F5
S11310A0DF91CF911F910F9108950F931F93CF93C9
S11310B0DF9300D000D0CDB7DEB79C838B8383E26F
S11310C090E0FC018081882F90E08072992721E0D4
S11310D0892B09F420E029838091AB09082F10E0C3
S11310E08B819C814F9650DD21E0892B09F420E00F
S11310F0822F90E021E00817190709F420E02A83E1
S11311008A81282F30E04091AC0981E09981491708
S113111009F480E0882F90E0822B932B21E0892B27
S113112009F420E02A838B819C814F962DDD21E0F8
S1131130892B09F420E02093AB0989818093AC09C1
S11311408A810F900F900F900F90DF91CF911F9194
S11311500F9108950F931F93CF93DF9300D01F92A5
S1131160CDB7DEB79B838A8319828A819B81889657
S11311700BDD21E0892B09F020E02223A1F08091EE
S1131180AD09082F10E08A819B818896FDDC21E05F
S1131190892B09F420E0822F90E021E00817190739
S11311A009F420E029838A819B818896EDDC21E083
S11311B0892B09F420E02093AD0989810F900F90C9
S11311C00F90DF91CF911F910F910895CF93DF93EB
S11311D000D0CDB7DEB79A83898389819A8104963A
S11311E0BFDC982F81E08927882309F440C0F8D810
S11311F06DE772E00E94143189819A81FC0181A912
S1131200882381F0EDD867E872E00E941431898167
S11312109A810DD389819A8192D289819A81FC0124
S113122011AA25C089819A81FC0182A9882379F0B9
S1131230D7D861E972E00E94143189819A8133D34D
S113124089819A81B8D289819A81FC0112AAC8D86D
S11312506BE972E00E94143189819A81CAD2898132
S11312609A814FD289819A8121E0FC0121AB898145
S11312709A810D9675DC982F81E08927882309F4DB
S113128048C0AED864EA72E00E94143189819A8120
S1131290FC0182A9882381F0A3D861E972E00E944D
S11312A0143189819A81FFD289819A8184D289817A
S11312B09A81FC0112AA2DC089819A81FC0181A91D
S11312C0882379F08DD867E872E00E94143189810F
S11312D09A81ADD289819A8132D289819A81FC0125
S11312E011AA7ED861EB72E00E94143173DC00D83D
S11312F0882319F089819A81B8D26CDC25D8882397
S113130019F089819A8139D289819A8121E0FC017D
S113131022AB0F900F90DF91CF910895CF93DF937D
S113132000D000D000D0CDB7DEB79E838D8383E29A
S113133090E0FC018081882F90E08270992721E061
S1131340892B09F420E0298383E290E0FC01808169
S1131350882F90E08071992721E0892B09F420E0FF
S11313602A8383E290E0FC018081882F90E08170E1
S1131370992721E0892B09F420E02B8383E290E074
S1131380FC018081882F90E08470992721E0892BCB
S113139009F420E02C838A81882349F08D819E8181
S11313A028D28D819E8121E0FC0121AB07C08D8173
S11313B09E813DD28D819E81FC0111AA8C8188235E
S11313C049F08D819E819DD18D819E8121E0FC011A
S11313D021AB07C08D819E81B2D18D819E81FC019C
S11313E011AA8981882371F0F5DB0E947801882392
S11313F0A9F08D819E8139D28D819E8121E0FC01ED
S113140022AB0CC0E7DB0E94A401882339F08D8154
S11314109E8149D28D819E81FC0112AA8B818823F1
S113142071F0D8DB0E94A401882381F08D819E8114
S1131430A4D18D819E8121E0FC0122AB07C08D8166
S11314409E81B9D18D819E81FC0112AA26960FB688
S1131450F894DEBF0FBECDBFDF91CF910895CF9337
S1131460DF9300D000D0CDB7DEB79C838B8383E2BB
S113147090E0FC018081882F90E08870992721E01A
S1131480892B09F420E0298383E290E0FC01808128
S1131490882F90E08074992721E0892B09F420E0BB
S11314A02A838981882381F18B819C81FC0181A914
S11314B0882359F08B819C81BAD18B819C813FD147
S11314C08B819C81FC0111AA1FC08B819C81FC0132
S11314D082A9882351F08B819C81E5D18B819C81E9
S11314E06AD18B819C81FC0112AA8B819C8181D160
S11314F08B819C8106D18B819C8121E0FC0121ABF5
S11315008B819C81FC0112AA8A81882309F436C04C
S11315108B819C81FC0182A9882359F08B819C8159
S1131520C2D18B819C8147D18B819C81FC0112AA01
S113153025C08B819C81FC0181A9882351F08B817A
S11315409C8175D18B819C81FAD08B819C81FC011B
S113155011AA40DB0E947801882319F08B819C81B9
S113156084D138DB0E94A401882319F08B819C81EB
S113157004D18B819C8121E0FC0122AB0F900F9060
S11315800F900F90DF91CF910895CF93DF9300D008
S11315901F92CDB7DEB79B838A8319828A819B8190
S11315A04696DEDA982F81E08927882311F081E0BE
S11315B0898389810F900F900F90DF91CF910895C7
S11315C0CF93DF9300D01F92CDB7DEB79B838A837E
S11315D019828A819B814F96C3DA982F81E08927EB
S11315E0882311F081E0898389810F900F900F90F7
S11315F0DF91CF910895CF93DF9300D0CDB7DEB7BD
S11316009A83898389819A819AD089819A81D3D056
S113161089819A810CD189819A8145D10F900F904B
S1131620DF91CF910895CF93DF9300D000D0CDB751
S1131630DEB79A8389837C836B838B819C81813021
S1131640910531F08230910589F0892B41F015C064
S113165089819A8174D089819A818FD014C08981BB
S11316609A81A9D089819A814CD00DC089819A81AF
S113167066D089819A819FD006C089819A815FD082
S113168089819A8198D00F900F900F900F90DF91DD
S1131690CF910895CF93DF9300D000D0CDB7DEB7BC
S11316A09A8389837C836B838B819C8181309105B0
S11316B031F08230910589F0892B41F015C0898180
S11316C09A81B5D089819A81D0D014C089819A81B8
S11316D090D089819A81E7D00DC089819A81A7D061
S11316E089819A81E0D006C089819A81A0D08981BC
S11316F09A81D9D00F900F900F900F90DF91CF91D6
S11317000895CF93DF9300D0CDB7DEB79A83898352
S11317100E94F0016AEB72E00E94143182E290E0D0
S113172022E230E0F90120812062FC0120830E9442
S11317301102B6D30F900F90DF91CF910895CF93FC
S1131740DF9300D0CDB7DEB79A8389830E94F0017E
S113175068EC72E00E94143182E290E022E230E010
S1131760F90120812F7DFC0120830E941102BCD34A
S11317700F900F90DF91CF910895CF93DF9300D016
S1131780CDB7DEB79A8389830E94F00167ED72E0DA
S11317900E94143182E290E022E230E0F9012081DB
S11317A02061FC0120830E941102C2D30F900F908C
S11317B0DF91CF910895CF93DF9300D0CDB7DEB7FB
S11317C09A8389830E94F00165EE72E00E941431CD
S11317D082E290E022E230E0F90120812F7EFC01D8
S11317E020830E941102C8D30F900F90DF91CF91F4
S11317F00895CF93DF9300D0CDB7DEB79A83898362
S11318000E94F00164EF72E00E94143182E290E0E1
S113181022E230E0F90120812068FC0120830E944B
S1131820110216D40F900F90DF91CF910895CF93AA
S1131830DF9300D0CDB7DEB79A8389830E94F0018D
S113184061E073E00E94143182E290E022E230E031
S1131850F90120812F77FC0120830E9411021CD4FE
S11318600F900F90DF91CF910895CF93DF9300D025
S1131870CDB7DEB79A8389830E94F0016FE073E0ED
S11318800E94143182E290E022E230E0F9012081EA
S11318902064FC0120830E94110222D40F900F9037
S11318A0DF91CF910895CF93DF9300D0CDB7DEB70A
S11318B09A8389830E94F0016CE173E00E941431E1
S11318C082E290E022E230E0F90120812F7BFC01EA
S11318D020830E94110228D40F900F90DF91CF91A2
S11318E00895EF92FF920F931F93CF93DF9300D04D
S11318F01F92CDB7DEB79B838A8319828A819B812D
S1131900FC0182A9082F10E08A819B81FC0181A936
S1131910E82EF12C0E94F0016AE273E00E94143177
S1131920B7010E94FB3068E772E00E941431B801ED
S11319300E94FB306BE772E00E9414318A819B8124
S1131940FC0191A981E08927882351F08A819B8138
S1131950FC0192A981E08927882311F081E0898321
S113196089810F900F900F90DF91CF911F910F916C
S1131970FF90EF900895CF93DF9300D0CDB7DEB7FB
S11319809A8389838BE290E02BE230E0F901208195
S11319902460FC0120830F900F90DF91CF91089574
S11319A0CF93DF9300D0CDB7DEB79A8389838BE2E0
S11319B090E02BE230E0F90120812B7FFC012083B1
S11319C00F900F90DF91CF910895CF93DF9300D0C4
S11319D0CDB7DEB79A83898388E290E028E230E0CD
S11319E0F90120812068FC0120830F900F90DF9182
S11319F0CF910895CF93DF9300D0CDB7DEB79A830C
S1131A00898388E290E028E230E0F90120812F7791
S1131A10FC0120830F900F90DF91CF910895CF9315
S1131A20DF9300D0CDB7DEB79A8389830E94110279
S1131A3016D289819A81DFDD89819A81DBDF8981F0
S1131A409A81AEDF89819A81FC0111AA89819A81E8
S1131A50FC0112AAF89483E590E023E530E0F90153
S1131A602081217F2460FC01208383E590E023E52D
S1131A7030E0F90120812160FC012083789488956D
S1131A8083E590E023E530E0F90120812E7FFC011D
S1131A9020830F900F90DF91CF910895CF93DF9320
S1131AA000D0CDB7DEB79A83898389819A8163DFB9
S1131AB089819A818ADF0E941102C2D10E94110297
S1131AC0BFD10E941102BCD10E941102B9D10E945F
S1131AD0110264E659D10E94110272D20F900F9044
S1131AE0DF91CF910895CF93DF9300D01F92CDB7AC
S1131AF0DEB79B838A8380E290E0FC018081898346
S1131B008981882F90E08470992721E0892B09F43A
S1131B1020E0822F0F900F900F90DF91CF910895C6
S1131B20CF93DF9300D0CDB7DEB79A8389838981C1
S1131B309A81FC0181A9882339F089819A8159DE2F
S1131B4089819A81DEDD0CC089819A81FC0182A998
S1131B50882331F089819A81A6DE89819A812BDEDE
S1131B600F900F90DF91CF9108951F920F920090E4
S1131B705F000F9211248F93CF93DF93CDB7DEB71D
S1131B8081E08093A109DF91CF918F910F90009212
S1131B905F000F901F9018951F920F9200905F00A6
S1131BA00F9211248F93CF93DF93CDB7DEB781E0EB
S1131BB08093A209DF91CF918F910F9000925F00E3
S1131BC00F901F9018951F920F9200905F000F9234
S1131BD011248F93CF93DF93CDB7DEB781E0809349
S1131BE0A209DF91CF918F910F9000925F000F9027
S1131BF01F901895CF93DF9300D0CDB7DEB79A83AB
S1131C00898389819A812CE0FC01208389819A81CE
S1131C102DE0FC0121830E94752C0F900F90DF9121
S1131C20CF910895CF93DF9300D01F92CDB7DEB745
S1131C309A83898380E40E94C32E982F81E099239C
S1131C4009F080E0882309F497C080E80E941D2FE2
S1131C50982F81E0992309F080E0882309F48CC04F
S1131C6080E80E941D2F982F81E0992309F080E0DD
S1131C70882309F481C080E00E941D2F982F81E001
S1131C80992309F080E0882309F476C08FEF0E943D
S1131C901D2F982F81E0992309F080E0882309F40F
S1131CA06BC08FEF0E941D2F982F81E0992309F0BC
S1131CB080E0882309F460C08FEF0E941D2F982FC5
S1131CC081E0992309F080E0882309F455C08FEF5F
S1131CD00E941D2F982F81E0992309F080E088232A
S1131CE009F44AC08FEF0E941D2F982F81E0992399
S1131CF009F080E0882309F43FC08FEF0E941D2F74
S1131D00982F81E0992309F080E08823A9F18FEFCF
S1131D100E941D2F982F81E0992309F080E08823E9
S1131D2059F18FEF0E941D2F982F81E0992309F01C
S1131D3080E0882309F18FEF0E941D2F982F81E006
S1131D40992309F080E08823B9F080E00E941D2FD8
S1131D50982F81E0992309F080E0882369F080E0DE
S1131D600E941D2F982F81E0992309F080E0882399
S1131D7019F080E00E941D2F0E94102F0F900F90E9
S1131D800F90DF91CF910895CF93DF9300D01F92EE
S1131D90CDB7DEB79A8389836B8389819A814B811E
S1131DA06AE006D00F900F900F90DF91CF910895C5
S1131DB0CF93DF9300D000D0CDB7DEB79A83898369
S1131DC06B834C8380E40E94C32E982F81E0992377
S1131DD009F080E08823B1F08B810E941D2F982F99
S1131DE081E0992309F080E0882361F08C810E94CE
S1131DF01D2F982F81E0992309F080E0882311F0AA
S1131E000E94102F0F900F900F900F90DF91CF91A1
S1131E100895CF93DF9300D0CDB7DEB79A8389833B
S1131E2089819A81E7DE89819A81FC011282898104
S1131E309A81FC0113820F900F90DF91CF91089546
S1131E40CF93DF9300D0CDB7DEB79A83898389819E
S1131E509A81E8DE0F900F90DF91CF910895CF9390
S1131E60DF9300D0CDB7DEB79A83898389819A81C5
S1131E703BD089819A8180D089819A81C5D089811A
S1131E809A810AD189819A814FD189819A8194D189
S1131E9089819A81D9D10F900F90DF91CF910895C4
S1131EA0CF93DF9300D0CDB7DEB79A83898389813E
S1131EB09A81FC01928180E3292F282B89819A81C0
S1131EC0FC01228389819A81FC01328189819A8172
S1131ED0FC01208189819A81432F622F69DF0F9051
S1131EE00F90DF91CF910895CF93DF9300D0CDB7BA
S1131EF0DEB79A83898389819A81FC0192818FEC70
S1131F00292F282389819A81FC01228389819A813E
S1131F10FC01328189819A81FC01208189819A8125
S1131F20432F622F45DF0F900F90DF91CF910895DB
S1131F30CF93DF9300D0CDB7DEB79A8389838981AD
S1131F409A81FC0193818CE0292F282B89819A8125
S1131F50FC01238389819A81FC01338189819A81DF
S1131F60FC01218189819A81432F622F21DF0F9007
S1131F700F90DF91CF910895CF93DF9300D0CDB729
S1131F80DEB79A83898389819A81FC01938183EFE7
S1131F90292F282389819A81FC01238389819A81AD
S1131FA0FC01338189819A81FC01218189819A8193
S1131FB0432F622FFDDE0F900F90DF91CF91089594
S1131FC0CF93DF9300D0CDB7DEB79A83898389811D
S1131FD09A81FC01938180EC292F282B89819A8195
S1131FE0FC01238389819A81FC01338189819A814F
S1131FF0FC01218189819A81432F622FD9DE0F90C0
S11320000F90DF91CF910895CF93DF9300D0CDB798
S1132010DEB79A83898389819A81FC0193818FE356
S1132020292F282389819A81FC01238389819A811C
S1132030FC01338189819A81FC01218189819A8102
S1132040432F622FB5DE0F900F90DF91CF9108954B
S1132050CF93DF9300D0CDB7DEB79A83898389818C
S11320609A81FC01928180EC292F282B89819A8105
S1132070FC01228389819A81FC01328189819A81C0
S1132080FC01208189819A81432F622F91DE0F9078
S11320900F90DF91CF910895CF93DF9300D0CDB708
S11320A0DEB79A83898389819A81FC0192818FE3C7
S11320B0292F282389819A81FC01228389819A818D
S11320C0FC01328189819A81FC01208189819A8174
S11320D0432F622F6DDE0F900F90DF91CF91089503
S11320E0CF93DF9300D0CDB7DEB79A8389838981FC
S11320F09A81FC01938180E3292F282B89819A817D
S1132100FC01238389819A81FC01338189819A812D
S1132110FC01218189819A81432F622F49DE0F902E
S11321200F90DF91CF910895CF93DF9300D0CDB777
S1132130DEB79A83898389819A81FC0193818FEC2C
S1132140292F282389819A81FC01238389819A81FB
S1132150FC01338189819A81FC01218189819A81E1
S1132160432F622F25DE0F900F90DF91CF910895BA
S1132170CF93DF9300D0CDB7DEB79A83898389816B
S11321809A81FC01938183E0292F282B89819A81EC
S1132190FC01238389819A81FC01338189819A819D
S11321A0FC01218189819A81432F622F01DE0F90E6
S11321B00F90DF91CF910895CF93DF9300D0CDB7E7
S11321C0DEB79A83898389819A81FC0193818CEF9C
S11321D0292F282389819A81FC01238389819A816B
S11321E0FC01338189819A81FC01218189819A8151
S11321F0432F622FDDDD0F900F90DF91CF91089573
S1132200CF93DF9300D0CDB7DEB79A8389838981DA
S11322109A81FC0192818CE0292F282B89819A8153
S1132220FC01228389819A81FC01328189819A810E
S1132230FC01208189819A81432F622FB9DD0F909F
S11322400F90DF91CF910895CF93DF9300D0CDB756
S1132250DEB79A83898389819A81FC01928183EF15
S1132260292F282389819A81FC01228389819A81DB
S1132270FC01328189819A81FC01208189819A81C2
S1132280432F622F95DD0F900F90DF91CF9108952A
S1132290CF93DF9300D01F92CDB7DEB79A838983A3
S11322A06B8389819A812AE030E0FC0131832083A9
S11322B029813A8184E690E0A0E0B0E0F9018583C9
S11322C09683A783B08789819A81FC01118629812D
S11322D03A818AEF90E0A0E0B0E0F90182A393A3F1
S11322E0A4A3B5A389819A8124E630E0FC0130A738
S11322F027A389819A812CE933E0FC0132A721A725
S113230089819A81815F9E4FFC01108289819A8123
S1132310865E9E4FFC0110820E94811ADC01CB0173
S113232029813A81F90182879387A487B5878981B6
S11323309A81C0D0DC01CB01BA2FA92F982F88270E
S113234029813A81F90186879787A08BB18B0E94F6
S1132350811ADC01CB0129813A81F901828F938FA3
S1132360A48FB58F0F900F900F90DF91CF910895A8
S1132370CF93DF93CDB7DEB729970FB6F894DEBFBE
S11323800FBECDBF98878F8369878F81988592D040
S1132390DC01CB018B839C83AD83BE831A821982BB
S11323A014C02B813C814F81588589819A81880F83
S11323B0991F840F951F89509F4FFC0131832083FF
S11323C089819A8101969A83898389819A810A975E
S11323D044F31A82198213C02B813C814F815885A2
S11323E089819A81880F991F840F951F8B96FC0110
S11323F03183208389819A8101969A838983898193
S11324009A818436910544F38B819C81AD81BE8190
S1132410BA2FA92F982F88272F813885F90186870D
S11324209787A08BB18B8F819885885E9E4FFC0126
S1132430118210828F8198852985FC0124838F81E4
S11324409885805F9E4FFC01118210828F81988550
S11324508E5E9E4FFC01118210828F819885855E6D
S11324609E4FFC0110821182128213828F81988503
S11324709C01215E3E4F8B819C81AD81BE81F9011F
S113248080839183A283B3830E94811ADC01CB01F0
S11324902F8138852D5D3E4FF90180839183A2837E
S11324A0B38329960FB6F894DEBF0FBECDBFDF917C
S11324B0CF910895EF92FF920F931F93CF93DF93E1
S11324C000D000D000D0CDB7DEB79E838D831982B3
S11324D01A821B821C828D819E81FC018481882F3B
S11324E090E0009719F0019769F018C00E94EA057E
S11324F00E945801CC01A0E0B0E089839A83AB83A9
S1132500BC830CC00E94EA050E946801CC01A0E0D3
S1132510B0E089839A83AB83BC8300008D819E8164
S11325208D5D9E4FFC0180819181A281B3819C01CC
S1132530AD0168EE73E080E090E0B1D7882309F440
S113254069C08D819E81815E9E4FFC012081318115
S11325504281538189819A81AB81BC8128173907D3
S11325604A075B07FCF48D819E81815E9E4FFC01CE
S113257080819181A281B38129813A814B815C81DF
S113258079018A01E81AF90A0A0B1B0BD801C70161
S11325902D813E81255E3E4FF90180839183A28384
S11325A0B3831EC08D819E81815E9E4FFC0120817C
S11325B031814281538189819A81AB81BC817901C6
S11325C08A01E81AF90A0A0B1B0BD801C7012D81ED
S11325D03E81255E3E4FF90180839183A283B383BC
S11325E08D819E819C01215E3E4F89819A81AB81C0
S11325F0BC81F90180839183A283B38382D7DC01F8
S1132600CB012D813E812D5D3E4FF9018083918365
S1132610A283B38389819A81AB81BC81BC01CD0142
S113262026960FB6F894DEBF0FBECDBFDF91CF91D3
S11326301F910F91FF90EF900895CF93DF9300D0F7
S1132640CDB7DEB79A83898389819A81FC0184811D
S1132650882F90E0009719F0019729F008C00E9494
S1132660D001C7D804C00E94D0014BD800000F90FD
S11326700F90DF91CF910895CF93DF9300D0CDB722
S1132680DEB79A83898389819A81FC018481882FAA
S113269090E0009719F0019729F008C00E94D0013A
S11326A0C6D804C00E94D0014AD800000F900F90F1
S11326B0DF91CF910895CF93DF9300D0CDB7DEB7EC
S11326C09A83898389819A81FC018481882F90E08F
S11326D0009719F0019729F008C00E94D001C5D8CD
S11326E004C00E94D00149D800000F900F90DF91E0
S11326F0CF910895CF93DF9300D0CDB7DEB79A83FF
S1132700898389819A81FC018481882F90E00097D4
S113271019F0019729F008C00E94D001C4D804C060
S11327200E94D00148D800000F900F90DF91CF9104
S113273008950F931F93CF93DF9300D01F92CDB7CB
S1132740DEB79A8389836B830E94F00164E373E0AC
S11327500E94143189819A81FC018481882F90E040
S1132760880F991F8A5E9E4FFC01008111810E948F
S1132770F001B8010E9414318B81882F90E0880FFA
S1132780991F865E9E4FFC01008111810E94F00119
S1132790B8010E9414310E94F0016DE373E00E94BD
S11327A0143189819A812B81FC0121870F900F902C
S11327B00F90DF91CF911F910F910895CF93DF93E5
S11327C000D0CDB7DEB79A83898389819A8154DF9B
S11327D089819A8165E0ADDF94D6DC01CB01298142
S11327E03A81F901828B938BA48BB58B0F900F9058
S11327F0DF91CF910895CF93DF9300D0CDB7DEB7AB
S11328009A83898389819A8175DF89819A8165E0B8
S113281090DF77D6DC01CB0129813A81F901828BE3
S1132820938BA48BB58B0F900F90DF91CF9108956C
S1132830CF93DF93CDB7DEB72E970FB6F894DEBFF4
S11328400FBECDBF98878F837A87698719821A82D2
S11328501B821C828F819885805F9E4FFC01808142
S11328609181843691053CF08F819885805F9E4FDD
S1132870FC01118210828F819885805F9E4FFC013C
S11328808081918129853A854F815885880F991FC8
S1132890840F951F8B96FC01318320838F8198854B
S11328A0805F9E4FFC01808191819C012F5F3F4F8F
S11328B08F819885805F9E4FFC01318320831E8227
S11328C01D8221C02F8138858D819E81880F991F9B
S11328D0820F931F8B96FC0180819181092E000C3D
S11328E0AA0BBB0B29813A814B815C81820F931F18
S11328F0A41FB51F89839A83AB83BC838D819E817A
S113290001969E838D838D819E8184369105D4F2B8
S113291089819A81AB81BC8124E630E040E050E0BB
S1132920BC01CD010E94B236DA01C9012E960FB660
S1132930F894DEBF0FBECDBFDF91CF910895CF9342
S1132940DF93CDB7DEB72E970FB6F894DEBF0FBE78
S1132950CDBF98878F837A87698719821A821B82F1
S11329601C828F8198858E5E9E4FFC0180819181AF
S11329700A973CF08F8198858E5E9E4FFC011182F0
S113298010828F8198858E5E9E4FFC01808191819B
S113299029853A854F815885880F991F840F951F83
S11329A089509F4FFC01318320838F8198858E5EEF
S11329B09E4FFC01808191819C012F5F3F4F8F814D
S11329C098858E5E9E4FFC01318320831E821D827A
S11329D022C02F8138858D819E81880F991F820F97
S11329E0931F89509F4FFC0180819181092E000C17
S11329F0AA0BBB0B29813A814B815C81820F931F07
S1132A00A41FB51F89839A83AB83BC838D819E8168
S1132A1001969E838D838D819E810A97D4F289814C
S1132A209A81AB81BC812AE030E040E050E0BC01F7
S1132A30CD010E94B236DA01C9012E960FB6F89480
S1132A40DEBF0FBECDBFDF91CF910895CF93DF934B
S1132A5000D000D01F92CDB7DEB79C838B836D83EB
S1132A608B819C81815F9E4FFC01908181E089274D
S1132A70882331F18D81882319F11A8219821BC0B0
S1132A808B819C81855F9E4FFC0180819181A28115
S1132A90B381AC012B813C8189819A81880F991F74
S1132AA0820F931F8B96FC015183408389819A8105
S1132AB001969A83898389819A818436910504F3E6
S1132AC08B819C81855F9E4FFC0180819181A281D5
S1132AD0B381BA2FA92F982F88272B813C81F90124
S1132AE086879787A08BB18B8B819C81815F9E4F5A
S1132AF02D81FC0120838D81882361F02B813C8111
S1132B0088E893E1A0E0B0E0F90185839683A78388
S1132B10B0870BC02B813C8184E690E0A0E0B0E05C
S1132B20F90185839683A783B0870F900F900F9048
S1132B300F900F90DF91CF910895CF93DF9300D042
S1132B401F92CDB7DEB79A8389836B8389819A817B
S1132B50865E9E4F2B81FC01208389819A8160E0EF
S1132B60E8DD0F900F900F90DF91CF910895CF93F0
S1132B70DF9300D0CDB7DEB79A83898389819A81A8
S1132B80865E9E4FFC0180810F900F90DF91CF9164
S1132B9008950F931F93CF93DF93CDB7DEB72A9792
S1132BA00FB6F894DEBF0FBECDBF9A8389834B83E3
S1132BB05C836D837E830F83188729873A87898195
S1132BC09A81FC01228533854485558589819A81C2
S1132BD0FC0185819681A781B085BC01CD015FD4BC
S1132BE0882309F436C189819A81815F9E4FFC0153
S1132BF08081882309F491C02B813C8189819A8149
S1132C00B9019DDECC01A0E0B0E029813A81255FC5
S1132C103E4FF90180839183A283B38389819A8192
S1132C20885E9E4FFC01808191810A970CF463C0F9
S1132C3089819A81885E9E4FFC011182108289816C
S1132C409A81855F9E4FFC0180819181A281B3812D
S1132C509C0189819A81B901EBDDCC01A0E0B0E04F
S1132C6029813A812D503F4FF90180839183A283BA
S1132C70B38389819A81FC012685378540895189EE
S1132C8089819A81FC0186859785A089B189892FDC
S1132C909A2FAB2FBB27A7FDBA95281B390B4A0BDC
S1132CA05B0B89819A818D509F4FFC0180819181BA
S1132CB0A281B381820F931FA41FB51F29813A817A
S1132CC0F90186879787A08BB18B89819A81FC0152
S1132CD086859785A089B189892F9A2FAB2FBB2729
S1132CE0A7FDBA9529813A812C5E3E4FF901808374
S1132CF09183A283B38389819A81885E9E4FFC016C
S1132D00808191819C012F5F3F4F89819A81885EE8
S1132D109E4FFC01318320834BC089819A819C01A1
S1132D20255F3E4F8B819C81AD81BE81F9018083FB
S1132D309183A283B38389819A81FC012685378597
S1132D404089518989819A81FC0186859785A0896A
S1132D50B189892F9A2FAB2FBB27A7FDBA95281BC2
S1132D60390B4A0B5B0B8B819C81AD81BE81820F39
S1132D70931FA41FB51F29813A81F901868797877C
S1132D80A08BB18B89819A81FC0186859785A08966
S1132D90B189892F9A2FAB2FBB27A7FDBA9529811B
S1132DA03A812C5E3E4FF90180839183A283B383E1
S1132DB0A8D3DC01CB0129813A81F9018287938769
S1132DC0A487B58789819A81FC01828D938DA48D16
S1132DD0B58D9C01AD016AEF70E080E090E05FD3B7
S1132DE08823B9F189819A81FC018481882F90E03C
S1132DF0009719F0019779F022C00E94F00161E474
S1132E0073E00E9414310B811C810E94F001B8010F
S1132E100E94E23014C00E94F0016AE473E00E9450
S1132E2014310B811C810E94F001B8010E94E23030
S1132E300E94F00165E573E00E941431000061D343
S1132E40DC01CB0129813A81F901828F938FA48F10
S1132E50B58F2A960FB6F894DEBF0FBECDBFDF91B3
S1132E60CF911F910F910895AF92BF92CF92DF92AD
S1132E70EF92FF920F931F93CF93DF93CDB7DEB7FB
S1132E8060970FB6F894DEBF0FBECDBF98878F83CF
S1132E9049875A876B877C878F8198850BDBDC0198
S1132EA0CB018B839C83AD83BE838F819885FC018A
S1132EB081A592A59C01990F440B550B89859A8590
S1132EC0AB85BC85281739074A075B0774F48F81E3
S1132ED09885FC0181A592A5092E000CAA0BBB0BB9
S1132EE089879A87AB87BC871FC08F819885FC012F
S1132EF087A190A59C01990F440B550B89859A8550
S1132F00AB85BC8582179307A407B5076CF48F8142
S1132F109885FC0187A190A5092E000CAA0BBB0B78
S1132F2089879A87AB87BC8729853A854B855C85D9
S1132F308B819C81AD81BE81EF81F88589019A01E5
S1132F40AC01BD01CF0125DE8F819885FC0181850F
S1132F50882F90E0092E000CAA0BBB0B40E050E038
S1132F6026E030E0841B950B2817390708F42FC29C
S1132F708A5B9F4FFC010C94D4368F8198857CDB4F
S1132F808F819885B7DB8F81988566E0D2DBB9D2D3
S1132F90DC01CB012F813885F901828B938BA48BC3
S1132FA0B58B2FC28F819885FC0182899389A4896E
S1132FB0B5899C01AD0168EE73E080E090E06FD2CA
S1132FC0882309F43CC08B819C81AD81BE81BA2FDA
S1132FD0A92F982F88272F813885F901868797870D
S1132FE0A08BB18B1A82198213C02B813C814F8133
S1132FF0588589819A81880F991F840F951F8B9614
S1133000FC013183208389819A8101969A83898383
S113301089819A818436910544F373D2DC01CB0112
S11330202F813885F901828B938BA48BB58B8F818B
S11330309885FC0116A28F81988566E07ADBE1C150
S11330408F8198858C5E9E4FFC0120813181428165
S113305053818F819885FC0180819181092E000C18
S1133060AA0BBB0BE984FA840B851C855701680104
S1133070A81AB90ACA0ADB0AD601C50128173907F2
S11330804A075B070CF088C08F819885815F9E4F4B
S1133090FC01908181E08927882381F48F819885C0
S11330A0FC0182899389A489B5899C01AD0168E8F2
S11330B073E180E090E0F3D1882311F081E001C056
S11330C080E0882309F418C18F81988561E031DBA1
S11330D08F819885B2DA8F819885FC0120813181B6
S11330E0C901880F991F880F991F820F931F092EFA
S11330F0000CAA0BBB0B29853A854B855C85281BE4
S1133100390B4A0B5B0B8B819C81AD81BE812817E7
S113311039074A075B070CF0EFC029853A858B8194
S11331209C815901A81AB90AC50199231CF49195E7
S113313081959109AC018F819885FC0120813181B1
S1133140CA01B9010E949F36CB019C01990F440B1F
S1133150550B8F819885FC0182A193A1A4A1B5A1EF
S1133160BC01CD010E949036DC01CB012F81388552
S1133170F901868F978FA0A3B1A3C3D1DC01CB0142
S11331802F813885F901868B978BA08FB18F8F8122
S1133190988562E0CEDAB0C08F8198858C5E9E4FB0
S11331A0FC0120813181428153818F819885FC010A
S11331B0808191817C01990F000B110B89859A857F
S11331C0AB85BC858E0D9F1DA01FB11F8217930771
S11331D0A407B5070CF088C08F819885815F9E4F46
S11331E0FC01908181E08927882381F48F8198856F
S11331F0FC0182899389A489B5899C01AD0168E8A1
S113320073E180E090E04BD1882311F081E001C0AC
S113321080E0882309F470C08F81988563E089DA9F
S11332208F81988548DA8F819885FC0120813181CE
S1133230C901880F991F880F991F820F931F9C0142
S1133240990F440B550B89859A85AB85BC85280F4E
S1133250391F4A1F5B1F8B819C81AD81BE81821700
S11332609307A407B5070CF047C02B813C818985DF
S11332709A855901A81AB90AC50199231CF4919594
S113328081959109AC018F819885FC012081318160
S1133290CA01B9010E949F36CB019C01990F440BCE
S11332A0550B8F819885FC0182A193A1A4A1B5A19E
S11332B0BC01CD010E949036DC01CB012F81388501
S11332C0F901868F978FA0A3B1A31BD1DC01CB0199
S11332D02F813885F901868B978BA08FB18F8F81D1
S11332E0988564E026DA08C08F819885865E9E4FB3
S11332F021E0FC01208385C084C08F819885FC0176
S113330026893789408D518D8F819885FC01868D62
S1133310978DA0A1B1A1BC01CD01C1D0882319F022
S11333208F8198854BDA6DC08F819885FC018081EF
S11333309181092E000CAA0BBB0B29853A854B857C
S11333405C85281B390B4A0B5B0B8B819C81AD81FF
S1133350BE8182179307A407B5071CF08F81988557
S11333602DDA4FC08F819885FC0126893789408DDD
S1133370518D8F819885FC01868D978DA0A1B1A177
S1133380BC01CD018CD0882319F08F81988533DA64
S113339038C08F819885FC01808191819C01990FAF
S11333A0440B550B89859A85AB85BC85280F391F3D
S11333B04A1F5B1F8B819C81AD81BE812817390711
S11333C04A075B071CF08F81988515DA1AC00E94A2
S11333D0F00168E573E00E9414318F8198854CD91F
S11333E08F81988587D98F81988565E0A2D989D006
S11333F0DC01CB012F813885F901828B938BA48B5F
S1133400B58B60960FB6F894DEBF0FBECDBFDF91CB
S1133410CF911F910F91FF90EF90DF90CF90BF90CD
S1133420AF900895CF93DF9300D0CDB7DEB79A83E2
S1133430898378940F900F90DF91CF910895CF9363
S1133440DF9300D0CDB7DEB79A838983F8940F90C9
S11334500F90DF91CF910895CF93DF93CDB7DEB76F
S113346084E490E022E0FC01208385E490E023E002
S1133470FC01208386E490E0FC01108287E490E064
S113348029EFFC01208388E490E0FC0110828EE6A1
S113349090E022E0FC012083DF91CF910895CF9347
S11334A0DF93CDB7DEB728970FB6F894DEBF0FBE13
S11334B0CDBF69837A838B839C832D833E834F8323
S11334C058871FD09B01AC018D819E81AF81B88547
S11334D0281B390B4A0B5B0B61E089819A81AB8114
S11334E0BC8182179307A407B50708F060E0862F14
S11334F028960FB6F894DEBF0FBECDBFDF91CF91F3
S11335000895CF92DF92EF92FF92CF93DF931F92B1
S1133510CDB7DEB7CE01019685DFC090AF09D0905C
S1133520B009E090B109F090B209CE01019687DFAD
S1133530D701C601BC01CD010F90DF91CF91FF905F
S1133540EF90DF90CF9008951F920F9200905F004C
S11335500F9211248F939F93AF93BF93CF93DF93D5
S1133560CDB7DEB78091AF099091B009A091B109B0
S1133570B091B2090196A11DB11D8093AF0990933A
S1133580B009A093B109B093B209DF91CF91BF9173
S1133590AF919F918F910F9000925F000F901F90B9
S11335A01895CF93DF9300D0CDB7DEB79A83898384
S11335B089819A81FC01108289819A81FC0111829E
S11335C089819A812FEFFC01228389819A81FC01F0
S11335D0138214821582168289819A81FC011782D2
S11335E089819A81FC0110860F900F90DF91CF9111
S11335F00895CF93DF9300D000D0CDB7DEB79A8380
S113360089836B834C8389819A812B81FC0121837B
S113361089819A812C81FC01228389819A8111D02C
S1133620282F89819A81FC01208389819A8121E054
S1133630FC0120870F900F900F900F90DF91CF9196
S11336400895CF93DF9300D0CDB7DEB79A838983F3
S113365089819A81FC018181882F90E081309105D4
S113366039F1823091051CF4892B41F06CC0823011
S11336709105B9F1039709F44DC065C080E290E06B
S1133680FC018081882F90E029813A81F90122810F
S1133690222F30E002C0959587952A95E2F79C0188
S11336A02170332781E0232B09F04EC080E04CC009
S11336B083E290E0FC018081882F90E029813A81A7
S11336C0F9012281222F30E002C0959587952A9531
S11336D0E2F79C012170332781E0232BA9F580E0D8
S11336E033C086E290E0FC018081882F90E029813C
S11336F03A81F9012281222F30E002C09595879505
S11337002A95E2F79C012170332781E0232BE1F411
S113371080E01AC089E290E0FC018081882F90E06B
S113372029813A81F9012281222F30E002C0959546
S113373087952A95E2F79C012170332781E0232B9A
S113374019F480E001C080E00F900F90DF91CF91D9
S11337500895CF93DF9300D000D0CDB7DEB79C831C
S11337608B838B819C81FC018781882F90E000975B
S113377019F0019719F14DC08B819C8162DF882F6C
S113378090E09A8389838B819C81FC018081282F1E
S113379030E089819A812817390779F0B2DEDC019B
S11337A0CB012B813C81F90183839483A583B68368
S11337B08B819C8121E0FC0127832BC08B819C8120
S11337C0FC0183819481A581B6819C01AD016AE0ED
S11337D070E080E090E063DE8823D9F08B819C81E7
S11337E030DF882F90E09A8389838B819C81FC0150
S11337F08081282F30E089819A812817390749F080
S113380029818B819C81FC0120838B819C81FC011B
S113381017820F900F900F900F90DF91CF91089522
S1133820CF93DF9300D000D000D0CDB7DEB79A831A
S113383089837C836B835E834D8389819A8123EFA3
S113384038E0FC013183208389819A812B813C817A
S1133850FC013383228389819A812D813E81FC017D
S11338603583248326960FB6F894DEBF0FBECDBFF2
S1133870DF91CF910895CF93DF93CDB7DEB783EB7C
S113388099E0FC018081882391F483EB99E00E9404
S1133890A62F21E0892B09F420E0222341F08BEBB1
S11338A099E00E94883283EB99E00E94BC2F8BEB55
S11338B099E0DF91CF910895CF93DF9300D0CDB7F6
S11338C0DEB79A83898389819A81FC0187819085F7
S11338D00F900F90DF91CF910895CF93DF9300D095
S11338E0CDB7DEB79A83898389819A81FC0181856A
S11338F092850F900F90DF91CF910895CF93DF932E
S113390000D000D0CDB7DEB79A8389837C836B83E4
S113391089819A810C962B813C8142E050E0B90167
S11339207FDF25ED38E089819A81FC013183208392
S11339308CE090E029813A81820F931F25EE38E0D4
S1133940FC013183208389819A81FC0112821382D4
S11339501482158229813A818AEF90E0A0E0B0E0D8
S1133960F90186839783A087B18789819A81FC01B5
S1133970128689819A81FC0113860F900F900F9013
S11339800F90DF91CF910895CF93DF9300D000D0B3
S113399000D0CDB7DEB79E838D830E9411020E94B2
S11339A0B8100E94B30088DF9A8389830E94B30011
S11339B094DF9C838B830E94F0016EEE73E00E947F
S11339C014319C0189819A81BC01C9010E94FB3098
S11339D06EE074E00E9414319C018B819C81BC01D7
S11339E0C9010E94FB306BE174E00E94143189DD4F
S11339F0DC01CB012D813E81F90182839383A48371
S1133A00B58339DF4DE36AE20E94043434DF42E0D7
S1133A106BE20E9404348D819E81FC0112868D81AB
S1133A209E81FC01138626960FB6F894DEBF0FBE66
S1133A30CDBFDF91CF910895CF93DF9300D0CDB761
S1133A40DEB79A83898389819A81FC01808191817F
S1133A500697FC01808191819C0189819A81820F62
S1133A60931F92DF0F900F90DF91CF910895CF9322
S1133A70DF9300D000D0CDB7DEB79A8389837C83EF
S1133A806B838B819C81092E000CAA0BBB0B41E03C
S1133A9050E029E030E0841B950B2817390708F41F
S1133AA067C1835B9F4FFC010C94D43689819A8152
S1133AB0BBD15FC189819A81FC0180819181069784
S1133AC0FC01808191819C0189819A81820F931FDD
S1133AD0FC01828193812B813C81A90160E070E02B
S1133AE00E94CB0346C10E94D0010E942F0A898103
S1133AF09A81FC01808191810697FC0180819181EA
S1133B009C0189819A81820F931FFC018281938198
S1133B102B813C81A90160E070E00E94CB0329C1A4
S1133B200E94F0016EE174E00E94143189819A814F
S1133B30FC01808191810697FC01808191819C0127
S1133B4089819A81820F931FFC0182819381FC01F8
S1133B50908181E089278823F9F00E94F00165E3D0
S1133B6074E00E9414310E9411020E94B8108981ED
S1133B709A81FC01808191810697FC018081918169
S1133B809C0189819A81820F931FFC018281938118
S1133B9021E0FC01208336C00E94D0010E94C50AA6
S1133BA0882381F10E94F00163E574E00E941431DE
S1133BB089819A81FC01808191810697FC01808131
S1133BC091819C0189819A81820F931FFC018281DA
S1133BD0938140E050E060E070E00E94CB03898173
S1133BE09A81FC01808191810697FC0180819181F9
S1133BF09C0189819A81820F931FFC0182819381A8
S1133C00FC011082B6C089819A81FC018081918176
S1133C100697FC01808191819C0189819A81820FA0
S1133C20931FFC018281938140E050E061E070E0E9
S1133C300E94CB039EC089819A81FC01808191817D
S1133C400697FC01808191819C0189819A81820F70
S1133C50931FFC018281938140E050E066E070E0B4
S1133C600E94CB0386C00E94D00121E0FC01228384
S1133C7089819A81FC01138689819A81FC011286CB
S1133C800E94D0010E944E0D0E9411020E94B810A1
S1133C9038DCDC01CB0129813A81F90182839383E9
S1133CA0A483B5830E94F0016DE674E00E94143190
S1133CB060C089819A81FC018285882371F00E9409
S1133CC0F00165E874E00E9414310E94D001FC0107
S1133CD012820E94D0010E940F0D89819A8121E0F5
S1133CE0FC0123870E94F00167E974E00E9414310B
S1133CF040C00E94D001FC01928181E08927882381
S1133D0089F10E94D0010E944E0D0E94D00121E051
S1133D10FC0123830E94F00160EB74E00E941431E3
S1133D20F0DBDC01CB0129813A81F90182839383A1
S1133D30A483B58389819A81FC018081918106974E
S1133D40FC01808191819C0189819A81820F931F5A
S1133D50FC0182819381FC0110820E94D00121E048
S1133D60FC01228389819A8121E0FC01238701C01F
S1133D7000000F900F900F900F90DF91CF91089556
S1133D80CF93DF9300D000D0CDB7DEB79A83898379
S1133D907C836B8389819A81FC018081918108975E
S1133DA0FC01808191819C0189819A81820F931FFA
S1133DB02B813C81B9015BDE0F900F900F900F9027
S1133DC0DF91CF910895CF93DF9300D0CDB7DEB7C5
S1133DD09A8389830E94F00168EC74E00E94143194
S1133DE00E9411020E94DC100F900F90DF91CF917E
S1133DF00895CF93DF9300D0CDB7DEB79A8389833C
S1133E0089819A81FC01808191810A97FC018081DA
S1133E1091819C0189819A81820F931FD4DF0F9035
S1133E200F90DF91CF910895EF92FF920F931F931C
S1133E30CF93DF93CDB7DEB72C970FB6F894DEBFE0
S1133E400FBECDBF9C878B871E821D8218861F8262
S1133E501A86198610DDFC019E01275F3F4FAE01D3
S1133E60495F5F4FCE010596BC01CF010E94F2323B
S1133E700E94B30021DD9A8389830E94B3002DDD63
S1133E809C838B8309851A85EF80F8840E94F00156
S1133E906DED74E00E941431B7010E94FB3061EEB5
S1133EA074E00E941431B8010E94FB3029853A85E0
S1133EB08B819C818901081B190B2F81388589818D
S1133EC09A817901E81AF90A0E94F00167EE74E018
S1133ED00E941431B7010E94FB3060EF74E00E942D
S1133EE01431B8010E94FB306CEF74E00E9414316D
S1133EF08B819C819C012E5C3F4F89859A85281774
S1133F0039070CF0A7C089819A819C012E5C3F4F30
S1133F108F819885281739078CF58B859C85FC0142
S1133F2022813381448155818B859C85FC01868166
S1133F309781A085B185BC01CD01B1DA882309F44C
S1133F40EDC10E94F0016EEF74E00E9414310E94F2
S1133F50D00160E070E00E944A0B0E94D00162E050
S1133F6070E00E94130BCDDADC01CB012B853C857C
S1133F70F90182839383A483B583D0C189819A8113
S1133F809C01225331098F819885821793078CF500
S1133F908B859C85FC0122813381448155818B85ED
S1133FA09C85FC0186819781A085B185BC01CD01EA
S1133FB076DA882309F4B2C10E94F00167E075E063
S1133FC00E9414310E94D00162E070E00E944A0B0A
S1133FD00E94D00160E070E00E94130B92DADC01D1
S1133FE0CB012B853C85F90182839383A483B5831C
S1133FF095C18B859C85FC01228133814481558147
S11340008B859C85FC0186819781A085B185BC0147
S1134010CD0145DA882309F481C10E94F0016EEFD5
S113402074E00E9414310E94D00160E070E00E94AC
S11340304A0B0E94D00160E070E00E94130B61DA29
S1134040DC01CB012B853C85F90182839383A48316
S1134050B58364C18B819C819C012253310989857C
S11340609A85821793070CF0A7C089819A819C01D5
S11340702E5C3F4F8F819885281739078CF58B85E7
S11340809C85FC0122813381448155818B859C85EB
S1134090FC0186819781A085B185BC01CD01FFD942
S11340A0882309F43BC10E94F00161E175E00E949C
S11340B014310E94D00161E070E00E944A0B0E941A
S11340C0D00162E070E00E94130B1BDADC01CB012B
S11340D02B853C85F90182839383A483B5831EC118
S11340E089819A819C01225331098F819885821795
S11340F093078CF58B859C85FC0122813381448157
S113410055818B859C85FC0186819781A085B1852D
S1134110BC01CD01C4D9882309F400C10E94F00177
S11341206CE175E00E9414310E94D00162E070E0FD
S11341300E944A0B0E94D00161E070E00E94130BC0
S1134140E0D9DC01CB012B853C85F9018283938383
S1134150A483B583E3C08B859C85FC0122813381D4
S1134160448155818B859C85FC0186819781A0853E
S1134170B185BC01CD0193D9882309F4CFC00E9435
S1134180F00168E275E00E9414310E94D00161E000
S113419070E00E944A0B0E94D00161E070E00E942E
S11341A0130BAFD9DC01CB012B853C85F90182834C
S11341B09383A483B583B2C089819A819C012E5CC8
S11341C03F4F8F819885281739078CF58B859C85FF
S11341D0FC0122813381448155818B859C85FC01BE
S11341E086819781A085B185BC01CD0158D98823EA
S11341F009F494C00E94F00169E375E00E9414314F
S11342000E94D00160E070E00E944A0B0E94D0013D
S113421061E070E00E94130B74D9DC01CB012B85A3
S11342203C85F90182839383A483B58377C0898114
S11342309A819C01225331098F81988582179307B3
S11342408CF58B859C85FC012281338144815581C9
S11342508B859C85FC0186819781A085B185BC01F5
S1134260CD011DD9882309F459C00E94F0016DE4E1
S113427075E00E9414310E94D00161E070E00E9458
S11342804A0B0E94D00160E070E00E94130B39D900
S1134290DC01CB012B853C85F90182839383A483C4
S11342A0B5833CC00E94D00162E070E00E944A0BDA
S11342B00E94D00162E070E00E94130B8B859C8504
S11342C0FC0182819381A481B5819C01AD0160E1EF
S11342D077E280E090E0E3D8882301F18B859C8528
S11342E021E0FC0122870E94F00161E675E00E9452
S11342F014318B859C85FC018385882349F00E94B9
S1134300D001FC0112820E94D0010E940F0D06C050
S11343100E94F00166E775E00E9414312C960FB6F6
S1134320F894DEBF0FBECDBFDF91CF911F910F91E7
S1134330FF90EF900895CF93DF9300D000D0CDB7D6
S1134340DEB79A8389837C836B8389819A812B81ED
S11343503C81FC01368325830F900F900F900F90C2
S1134360DF91CF910895CF93DF9300D000D0CDB7E4
S1134370DEB79A8389837C836B8389819A812B81BD
S11343803C81FC01308727830F900F900F900F9092
S1134390DF91CF910895CF93DF9300D000D0CDB7B4
S11343A0DEB79A8389837C836B8389819A812B818D
S11343B03C81FC01328721870F900F900F900F9062
S11343C0DF91CF910895CF93DF9300D000D0CDB784
S11343D0DEB79A8389837C836B8389819A812B815D
S11343E03C8140E050E0B9011BDA89819A812DEFCC
S11343F038E0FC01318320830F900F900F900F90D1
S1134400DF91CF910895CF93DF9300D0CDB7DEB77E
S11344109A8389830E94F0016AE875E00E9414314E
S113442070D8DC01CB0129813A81F9018683978315
S1134430A087B1870E94D0010E94FB0A0F900F90C1
S1134440DF91CF910895CF92DF92EF92FF920F9375
S11344501F93CF93DF93CDB7DEB72A970FB6F894A7
S1134460DEBF0FBECDBF98878F837A876987898522
S11344709A858330910509F454C0843091053CF445
S11344808130910581F0029709F4AAC0B5C0853046
S113449091050CF4B1C0873091050CF4A1C00797C5
S11344A009F44AC0A9C08F819885FC01868197814F
S11344B0A085B1859C01AD016AEF70E080E090E0D9
S11344C00E944F1A882361F18091BC09882379F0F6
S11344D00E9411020E94E00F0E9411020E94B81073
S11344E09091BC0981E089278093BC090EC00E9489
S11344F011020E9404100E9411020E94DC1090918B
S1134500BC0981E089278093BC090E94811ADC01DF
S1134510CB012F813885F90186839783A087B187E2
S11345206CC00E94F00165EA75E00E9414310E949B
S1134530D0010E948E0961C09ED9FC019E012B5FAF
S11345403F4FCE010396AC01CE010196BC01CF01D1
S11345500E94F23289819A818C010E94B300B801D1
S1134560EADE8B819C818C010E94B300B801FBDEE2
S11345708D819E818C010E94B300B8010CDF0E94E2
S1134580B3000E94C9340D811E81EB80FC80C98078
S1134590DA800E94F0016EEB75E00E941431B601DE
S11345A00E94FB3065ED75E00E941431B7010E9452
S11345B0FB306BED75E00E941431B8010E94FB30B2
S11345C061EE75E00E9414318F819885FC0182812F
S11345D0938140E050E062E070E00E94CB030DC0A4
S11345E08F819885FC018281938140E050E062E0F4
S11345F070E00E94CB03000000002A960FB6F894E6
S1134600DEBF0FBECDBFDF91CF911F910F91FF9001
S1134610EF90DF90CF900895CF93DF9300D0CDB784
S1134620DEB79A8389830E9411020E94E00F0E94E0
S1134630F00163EE75E00E9414310F900F90DF914A
S1134640CF910895CF93DF9300D000D0CDB7DEB7DC
S11346509A8389837C836B8389819A812B813C81B2
S113466043E050E0B901DCD889819A8127E039E040
S1134670FC013183208389819A81FC0116820F9089
S11346800F900F900F90DF91CF910895CF93DF9308
S113469000D0CDB7DEB79A8389830E94F0016DEF15
S11346A075E00E9414310E94811ADC01CB0129813A
S11346B03A81F90187839087A187B2870E94D0014C
S11346C00E94FB0A89819A8121E0FC0126830E94D1
S11346D0811ADC01CB0129813A81F901838794870E
S11346E0A587B68789819A81FC01138E0F900F905C
S11346F0DF91CF910895CF93DF9300D000D0CDB751
S1134700DEB79A8389837C836B838B819C81813020
S1134710910521F0079709F43DC048C089819A8129
S113472069D089819A8149D189819A81FC018781E3
S11347309085A185B2859C01AD0166E970E080E0B9
S113474090E00E944F1A882321F18091CD0988239B
S113475059F00E9411020E94E00F9091CD0981E06E
S113476089278093CD090AC00E9411020E94041077
S11347709091CD0981E089278093CD090E94811A07
S1134780DC01CB0129813A81F90187839087A187D4
S1134790B28713C089819A81FC018281938140E0B0
S11347A050E060E070E00E94CB0307C00E94F0017B
S11347B064E176E00E94143100000F900F900F9096
S11347C00F90DF91CF910895CF93DF9300D0CDB7B1
S11347D0DEB79A8389830E9411020E94E00F0E942F
S11347E0F00169E276E00E9414310F900F90DF919E
S11347F0CF910895CF93DF9300D000D000D0CDB7F0
S1134800DEB79E838D838DEB99E0FC018081882344
S1134810B1F48DEB99E00E94A62F21E0892B09F4D5
S113482020E0222361F00E94EA050E94580190933F
S1134830CF098093CE098DEB99E00E94BC2F85ECC3
S113484099E0FC0180818823B1F485EC99E00E9411
S1134850A62F21E0892B09F420E0222361F00E9495
S1134860EA050E9468019093D1098093D00985ECF0
S113487099E00E94BC2F8D819E81FC0183859485E3
S1134880A585B6859C01AD0168EE73E080E090E0FB
S11348900E944F1A882309F487C00E94EA050E94E7
S11348A058019A8389830E94EA050E9468019C83C7
S11348B08B838091CE099091CF0929813A81821707
S11348C09307A8F48091CE099091CF0929813A8168
S11348D0A901481B590BCA01CC01A0E0B0E02D810D
S11348E03E81F901838B948BA58BB68B14C02091E8
S11348F0CE093091CF0989819A81A901481B590BAE
S1134900CA01CC01A0E0B0E02D813E81F901838B86
S1134910948BA58BB68B8091D0099091D1092B8172
S11349203C8182179307A8F48091D0099091D10912
S11349302B813C81A901481B590BCA01CC01A0E081
S1134940B0E02D813E81F901878B908FA18FB28FCA
S113495014C02091D0093091D1098B819C81A90187
S1134960481B590BCA01CC01A0E0B0E02D813E8167
S1134970F901878B908FA18FB28F8B819C8190934B
S1134980D1098093D00989819A819093CF0980932A
S1134990CE090E94811ADC01CB012D813E81F901EF
S11349A083879487A587B68726960FB6F894DEBFCB
S11349B00FBECDBFDF91CF9108951F93CF93DF93A7
S11349C000D0CDB7DEB79A83898389819A81FC01AF
S11349D08681882F90E0092E000CAA0BBB0B40E0C7
S11349E050E02EE030E0841B950B2817390708F4BB
S11349F057C2895A9F4FFC010C94D4360E94F0018F
S1134A006EE376E00E9414310E94D00162E070E00F
S1134A100E94130B0E94D00162E070E00E944A0BD6
S1134A200E94811ADC01CB0129813A81F90187872F
S1134A30908BA18BB28B89819A8122E0FC01268321
S1134A4035C289819A81FC0187859089A189B289BF
S1134A509C01AD0168E97AE380E090E00E944F1A7E
S1134A60882311F10E94F00167E476E00E9414317A
S1134A700E94811ADC01CB0129813A81F9018787DF
S1134A80908BA18BB28B89819A8123E0FC012683D0
S1134A900E94D00162E070E00E94130B0E94D001DA
S1134AA061E070E00E944A0B01C289819A81FC0195
S1134AB087859089A189B2899C01AD0168E873E179
S1134AC080E090E00E944F1A8823E1F00E94811A4E
S1134AD0DC01CB0129813A81F9018787908BA18B75
S1134AE0B28B89819A8124E0FC0126830E94D00143
S1134AF060E070E00E94130B0E94D00162E070E05D
S1134B000E944A0BD3C189819A81FC0187859089CF
S1134B10A189B2899C01AD0168E873E180E090E06D
S1134B200E944F1A8823E1F00E94811ADC01CB0114
S1134B3029813A81F9018787908BA18BB28B898176
S1134B409A8125E0FC0126830E94D00161E070E097
S1134B500E94130B0E94D00160E070E00E944A0B97
S1134B60A5C189819A81FC0187859089A189B2892F
S1134B709C01AD0168E873E180E090E00E944F1A67
S1134B808823E1F00E94811ADC01CB0129813A815A
S1134B90F9018787908BA18BB28B89819A8126E05A
S1134BA0FC0126830E94D00162E070E00E94130B96
S1134BB00E94D00160E070E00E944A0B77C18981B5
S1134BC09A81FC0187859089A189B2899C01AD01F4
S1134BD068E873E180E090E00E944F1A882309F4AA
S1134BE04FC00E94811ADC01CB0129813A81F9016D
S1134BF08787908BA18BB28B89819A81FC01138D5D
S1134C000E94F00169E576E00E941431612F0E9450
S1134C10CA3062E676E00E94143189819A81FC01EF
S1134C20838D833090F489819A8123E0FC0126836B
S1134C300E94D00160E070E00E94130B0E94D0013A
S1134C4061E070E00E944A0B11C089819A8129E0D9
S1134C50FC0126830E94D00161E070E00E94130BE6
S1134C600E94D00161E070E00E944A0B89819A8120
S1134C70FC01838D21E0280F89819A81FC01238F17
S1134C8015C189819A81FC0187859089A189B2899E
S1134C909C01AD0168EB7BE080E090E00E944F1A3C
S1134CA08823E1F00E94811ADC01CB0129813A8139
S1134CB0F9018787908BA18BB28B89819A812AE035
S1134CC0FC0126830E94D00160E070E00E94130B77
S1134CD00E94D00160E070E00E944A0BE7C0898125
S1134CE09A81FC0187859089A189B2899C01AD01D3
S1134CF060E777E180E090E00E944F1A8823E1F0BA
S1134D000E94811ADC01CB0129813A81F90187874C
S1134D10908BA18BB28B89819A812BE0FC01268335
S1134D200E94D00161E070E00E94130B0E94D00148
S1134D3061E070E00E944A0BB9C089819A81FC014C
S1134D4087859089A189B2899C01AD0168EB7BE0DC
S1134D5080E090E00E944F1A8823E1F00E94811ABB
S1134D60DC01CB0129813A81F9018787908BA18BE2
S1134D70B28B89819A812CE0FC0126830E94D001A8
S1134D8060E070E00E94130B0E94D00160E070E0CC
S1134D900E944A0B8BC089819A81FC018785908986
S1134DA0A189B2899C01AD0160E777E180E090E0E0
S1134DB00E944F1A8823E1F00E94811ADC01CB0182
S1134DC029813A81F9018787908BA18BB28B8981E4
S1134DD09A812DE0FC0126830E94D00161E070E0FD
S1134DE00E94130B0E94D00161E070E00E944A0B04
S1134DF05DC089819A81FC0187859089A189B289E6
S1134E009C01AD0168EB7BE080E090E00E944F1ACA
S1134E108823E1F00E94811ADC01CB0129813A81C7
S1134E20F9018787908BA18BB28B89819A812EE0BF
S1134E30FC0126830E94D00160E070E00E94130B05
S1134E400E94D00160E070E00E944A0B2FC089816B
S1134E509A81FC0187859089A189B2899C01AD0161
S1134E6068E873E180E090E00E944F1A8823B9F06B
S1134E700E9411020E94E00F89819A81FC018281C3
S1134E80938140E050E060E070E00E94CB030E9418
S1134E90D0010E94FB0A89819A81FC01168206C016
S1134EA089819A81FC01168201C000000F900F9045
S1134EB0DF91CF911F910895CF93DF9300D000D05D
S1134EC0CDB7DEB79A8389837C836B8389819A818A
S1134ED02B813C81FC01328321830F900F900F9032
S1134EE00F90DF91CF910895CF93DF9300D000D03E
S1134EF0CDB7DEB79A8389837C836B8389819A815A
S1134F002B813C81FC01348323830F900F900F90FD
S1134F100F90DF91CF910895CF93DF9300D0CDB759
S1134F20DEB79A83898389819A81FC018181928188
S1134F300F900F90DF91CF910895CF93DF9300D01E
S1134F40CDB7DEB79A83898389819A81FC018381F5
S1134F5094810F900F90DF91CF910895CF93DF93B9
S1134F6000D000D0CDB7DEB79A8389837C836B836E
S1134F7089819A812B813C8145E050E0B9010E94EE
S1134F80101C89819A8121E139E0FC01318320835D
S1134F900F900F900F900F90DF91CF910895CF93C2
S1134FA0DF9300D0CDB7DEB79A8389830E94F001E6
S1134FB064E676E00E9414310E94811ADC01CB0180
S1134FC029813A81F90186839783A087B1870E945A
S1134FD0D0010E94FB0A0F900F90DF91CF910895AA
S1134FE0EF92FF920F931F93CF93DF9300D000D0E3
S1134FF0CDB7DEB79A8389837C836B838B819C8155
S11350008330910509F454C0843091053CF4813017
S1135010910581F0029709F494C09FC085309105F1
S11350200CF49BC0873091050CF48BC0079709F4EE
S11350304AC093C089819A81FC0186819781A085A9
S1135040B1859C01AD016AEF70E080E090E00E94C0
S11350504F1A882361F18091D209882379F00E9444
S113506011020E94E00F0E9411020E94001190910F
S1135070D20981E089278093D2090EC00E941102CF
S11350800E9404100E9411020E9424119091D209DE
S113509081E089278093D2090E94811ADC01CB0127
S11350A029813A81F90186839783A087B18756C005
S11350B00E94F0016EE776E00E9414310E94D00154
S11350C00E948E094BC00E94EA050E9458018C017F
S11350D00E94B300B801F0DE0E94EA050E94680154
S11350E08C010E94B300B801FFDE0E94B3000E944D
S11350F0C9340E94B30021DF8C010E94B3000CDF8D
S11351007C010E94F00169E976E00E941431B70144
S11351100E94E23065EB76E00E941431B8010E94EF
S1135120E2306FEB76E00E94143189819A81FC01B0
S11351308281938140E050E061E070E00E94CB0303
S11351400DC089819A81FC018281938140E050E005
S113515061E070E00E94CB0301C000000F900F904B
S11351600F900F90DF91CF911F910F91FF90EF90CF
S113517008950F931F93CF93DF9300D0CDB7DEB77D
S11351809A8389830E9411020E94E00F04EF10E0C9
S11351900E94F001B8010E9414310F900F90DF912A
S11351A0CF911F910F910895CF93DF9300D000D03A
S11351B0CDB7DEB79A8389837C836B8389819A8197
S11351C02B813C8140E050E0B9010E94101C898190
S11351D09A812BE139E0FC013183208329813A81D2
S11351E080EE93E9A4E0B0E0F90182879387A48775
S11351F0B5870F900F900F900F90DF91CF91089586
S1135200CF93DF9300D0CDB7DEB79A8389830E9412
S113521011020E94DC100E9411020E9424110E94BB
S1135220D0010E94FB0A0E94F00161EC76E0FCD7F9
S11352300E94811ADC01CB0129813A81F90186831C
S11352409783A087B1870F900F90DF91CF91089536
S1135250CF93DF9300D000D0CDB7DEB79A83898394
S11352607C836B838B819C81092E000CAA0BBB0B66
S113527041E050E029E030E0841B950B2817390702
S113528008F417C18A599F4FFC010C94D4360E942C
S1135290D0010E94E00A882359F089819A81FC0197
S11352A08281938140E050E061E070E00E94CB0392
S11352B001C10E94D0010E94C50A882359F0898146
S11352C09A81FC018281938140E050E062E070E0C9
S11352D00E94CB03EFC00E94D0010E94E6080E9406
S11352E0D0010E94710C882381F00E94F00169EDC5
S11352F076E09AD729813A8180E197E2A0E0B0E094
S1135300F90182879387A487B5870E94811ADC01FB
S1135310CB0129813A81F90186839783A087B187DC
S1135320C9C00E94D0010E948E090E94D0010E942F
S1135330710C882381F00E94F0016AEE76E074D744
S113534029813A8180E197E2A0E0B0E0F901828707
S11353509387A487B5870E94811ADC01CB01298138
S11353603A81F90186839783A087B187A3C00E94FD
S1135370D0010E942F0A9EC089819A81FC018281FA
S1135380938140E050E064E070E00E94CB0392C05F
S11353900E94D001FC018381882309F189819A81CB
S11353A0FC01268137814085518589819A81FC01E0
S11353B082859385A485B585BC01CD010E944F1AD1
S11353C0882369F00E94D001FC01138289819A81AB
S11353D0FC018281938169E070E00E946D036AC0E0
S11353E00E94D001FC01928181E089278823B9F0D1
S11353F00E94D001FC0113820E94D00121E0FC0133
S113540022830E94D0010E944E0D0E94D0010E946E
S1135410900D0E94F00169EF76E006D74BC00E9420
S1135420F00163E177E000D70E94D001FC01138210
S113543041C00E94D001FC0112820E94F00162E28C
S113544077E0F2D60E94D0010E940F0D33C00E9473
S1135450D00121E0FC01238329813A8180EE93E984
S1135460A4E0B0E0F90182879387A487B5870E94FE
S1135470811ADC01CB0129813A81F9018683978362
S1135480A087B1870E94D001FC01928181E0892725
S1135490882371F089819A81FC018281938168E07B
S11354A070E00E946D030E94F0016DE377E0BCD6CA
S11354B001C000000F900F900F900F90DF91CF91DB
S11354C00895CF93DF9300D0CDB7DEB79A83898355
S11354D00E94F00167E577E0A7D60E94D0010E9400
S11354E0FB0A0F900F90DF91CF910895CF93DF9334
S11354F000D000D0CDB7DEB79A8389837C836B83D9
S113550089819A812B813C8141E050E0B9010E945C
S1135510101C89819A8125E239E0FC0131832083C2
S113552089819A81069660E00E94481189819A8156
S1135530835D9E4F61E00E94481189819A818C5A53
S11355409D4F21E0FC01208389819A818B5A9D4FD4
S1135550FC0110821182128213820F900F900F901F
S11355600F90DF91CF910895CF93DF9300D0CDB703
S1135570DEB79A8389830E9411020E9400118981F7
S11355809A81069660E00E94B81189819A81835DB0
S11355909E4F61E00E94B81189819A81069660E06D
S11355A00E94261589819A81835D9E4F60E00E9446
S11355B0261589819A818C5A9D4F21E0FC01208314
S11355C00E94811ADC01CB0129813A812B5A3D4F7B
S11355D0F90180839183A283B3830E94F0016EE674
S11355E077E022D60F900F90DF91CF910895CF935B
S11355F0DF9300D000D0CDB7DEB79A8389837C8354
S11356006B838B819C81092E000CAA0BBB0B41E0A0
S113561050E029E030E0841B950B2817390708F483
S113562047C180599F4FFC010C94D4360E94B300AB
S113563073DCCC01A0E0B0E029813A812A5F3F4FBE
S1135640AC01BD01C9010E9434170E94B30075DC8E
S1135650CC01A0E0B0E029813A81235D3E4FAC014A
S1135660BD01C9010E94341789819A818C5A9D4FCA
S1135670FC0180818823D9F189819A8106960E9450
S1135680B715882351F089819A81835D9E4F0E94CA
S1135690B715882311F081E001C080E0882309F464
S11356A048C00E94F00166E877E0BED589819A81FE
S11356B0069661E00E94261589819A81835D9E4F3A
S11356C061E00E94261589819A818C5A9D4FFC01C4
S11356D010820E94811ADC01CB0129813A812B5A64
S11356E03D4FF90180839183A283B38322C00E943A
S11356F0D001FC0183818823E1F089819A818B5A4E
S11357009D4FFC0180819181A281B3819C01AD01F7
S113571068E873E180E090E00E944F1A882349F022
S113572089819A81FC018281938169E070E00E9401
S11357306D03BFC089819A81FC01828193812B8191
S11357403C81A90160E070E00E94CB03B2C00E94DA
S1135750D0010E942F0A89819A81FC018281938160
S11357602B813C81A90160E070E00E94CB03A1C0C1
S113577089819A81FC018281938140E050E062E05A
S113578070E00E94CB0395C089819A81FC018281DB
S11357909381FC018081882361F00E9411020E94A0
S11357A0001189819A81FC0182819381FC0110821C
S11357B011C00E94D0010E94E00A882359F0898117
S11357C09A81FC018281938140E050E060E070E0C6
S11357D00E94CB036EC089819A81FC0182819381EE
S11357E040E050E065E070E00E94CB0362C00E949C
S11357F0D0010E944E0D0E9411020E940011898165
S11358009A81069660E00E949D1589819A81835D44
S11358109E4F60E00E949D1589819A81069660E002
S11358200E94261589819A81835D9E4F60E00E94C3
S1135830261589819A818C5A9D4F21E0FC01208391
S11358400E94F00162EB77E0EFD433C00E94D001F4
S1135850FC0112820E94D001FC0113820E94F0011B
S11358606CEC77E0E1D40E94D0010E940F0D21C0BE
S11358700E94D001FC01928181E089278823B9F03C
S11358800E94D00121E0FC0122830E94D0010E94E9
S11358904E0D0E9411020E9400110E94D00121E0CD
S11358A0FC0123830E94F00167EE77E0BDD401C0C0
S11358B000000F900F900F900F90DF91CF910895FB
S11358C0CF93DF9300D0CDB7DEB79A8389830E944C
S11358D0F0016FEF77E0A8D40E9411020E94241116
S11358E00F900F90DF91CF910895CF93DF93CDB7B1
S11358F0DEB789EB90E0FC01108288EB90E028E3AE
S1135900FC012083DF91CF910895CF93DF93CDB72E
S1135910DEB7A3970FB6F894DEBF0FBECDBF84E603
S113592090E09A838983F8C080E090E0A0E8BFE328
S11359308B839C83AD83BE832BEA3AEA4AEA50E424
S11359406B817C818D819E810E942D36DC01CB018F
S11359508F839887A987BA8720E030E040E850E435
S11359606B817C818D819E810E942D36DC01CB016F
S11359708B879C87AD87BE8720E030E040E85FE3FB
S11359806F81788589859A850E941C3588231CF44B
S113599081E08F87B6C020E03FEF4FE757E46B8587
S11359A07C858D859E850E94293618160CF07FC053
S11359B020E030E04AE754E46B817C818D819E8154
S11359C00E942035DC01CB01888B998BAA8BBB8B81
S11359D020E030E04AE755E4688979898A899B891F
S11359E00E942D36DC01CB018C8B9D8BAE8BBF8B43
S11359F020E030E040E85FE36C897D898E899F89EF
S1135A000E941C3588232CF481E090E0998F888FC4
S1135A1041C020E03FEF4FE757E46C897D898E89D0
S1135A209F890E94293618165CF520E030E040E298
S1135A3051E4688979898A899B890E942D36DC0121
S1135A40CB01BC01CD010E948835DC01CB01998FCB
S1135A50888F0FC080E991E09B8F8A8F8A8D9B8D00
S1135A600197F1F79B8F8A8F888D998D0197998F74
S1135A70888F888D998D892B69F78BA18F8741C079
S1135A806C897D898E899F890E948835DC01CB01D0
S1135A90998F888F888D998D9D8F8C8F8C8D9D8DFE
S1135AA00197F1F79D8F8C8F8BA18F872AC020E0FF
S1135AB030E04FE753E46F81788589859A850E94A9
S1135AC029361816ACF46B857C858D859E850E94DD
S1135AD08835DC01CB019F8F8E8F8E8D9F8D99A38E
S1135AE088A388A199A10197F1F799A388A30FC06E
S1135AF06F81788589859A850E948835DC01CB0180
S1135B008F878F858AA38AA18A95F1F78AA38981D1
S1135B109A8101979A8389838CEB90E0FC018081C0
S1135B2088232CF089819A81892B09F0FDCE21E00C
S1135B3089819A81892B09F420E0822FA3960FB6DC
S1135B40F894DEBF0FBECDBFDF91CF910895CF9300
S1135B50DF93CDB7DEB7A3970FB6F894DEBF0FBEC1
S1135B60CDBF84E690E09A838983EEC080E090E024
S1135B70A0E8BFE38B839C83AD83BE832BEA3AEA20
S1135B804AEA50E46B817C818D819E810E942D368E
S1135B90DC01CB018F839887A987BA8720E030E0A6
S1135BA040E850E46B817C818D819E810E942D367A
S1135BB0DC01CB018B879C87AD87BE8720E030E07A
S1135BC040E85FE36F81788589859A8535D7882396
S1135BD01CF481E08F87ADC020E03FEF4FE757E42E
S1135BE06B857C858D859E850E94293618160CF060
S1135BF079C020E030E04AE754E46B817C818D81F8
S1135C009E811ED7DC01CB01888B998BAA8BBB8B21
S1135C1020E030E04AE755E4688979898A899B89DC
S1135C200E942D36DC01CB018C8B9D8BAE8BBF8B00
S1135C3020E030E040E85FE36C897D898E899F89AC
S1135C40FBD688232CF481E090E0998F888F3DC0A7
S1135C5020E03FEF4FE757E46C897D898E899F8967
S1135C60F8D718164CF520E030E040E251E468899A
S1135C7079898A899B89F1D7DC01CB01BC01CD01EB
S1135C8047D7DC01CB01998F888F0FC080E991E061
S1135C909B8F8A8F8A8D9B8D0197F1F79B8F8A8FBB
S1135CA0888D998D0197998F888F888D998D892BEF
S1135CB069F78BA18F873DC06C897D898E899F8907
S1135CC027D7DC01CB01998F888F888D998D9D8F83
S1135CD08C8F8C8D9D8D0197F1F79D8F8C8F8BA16F
S1135CE08F8727C020E030E04FE753E46F81788549
